:03000000021DE5F9
:101DE500787FE4F6D8FD9060007F007E07E4F0A3DD
:0A1DF500DFFCDEFA758120021E3AC1
:0C000300000000000000000000000000F1
:0B39D900EF1FAC0670011E4C70F622C0
:10002700AB07AA06EB1BAE0270011A4E600C7FAA43
:0B0037007E051239D975D9AA80EA2293
:1018C400907120E04480F07F057E001239D9E4FF56
:1018D400FE12002775A75575AC5C9071327450F0F8
:1018E4009071307403F0907136742FF090715C74C1
:1018F40003F090715BE054FCF07F18EF2466FDE484
:1019040034718D82F583E4F00FEFB433EE9040111F
:10191400E4935407FF90711CE054F84FF090401783
:10192400E493547FFF90711DE054804FF090401079
:10193400E493FF5401C43333335480FE907123E0A5
:10194400547F4EF0EFC313543F4440FFA3E0548050
:101954004FF0904012E493FF540FFE907146E05410
:10196400F04EF0EFC4540FFF90714FE054F04FF07D
:10197400904013E493543FFF907140E054C04FF003
:10198400904014E493907126F0904015E493907184
:0B19940028F0904016E49390712AF0B8
:01199F002225
:10000F00E0FEA3E0FFE4FCFD7BFF7AFFF9F8D302EB
:02001F0003C319
:102FB400E5B154CF42B153A8BFD2AF75D102789CCA
:102FC400E254E3F2E2441CF2E254FCF2E24401F281
:102FD40008E2547FF2E24420F278A17401F21874FA
:102FE40076F2789CE2541FF2E244C0F243A84022F5
:0300210002202B8F
:10202B00C0E0C0F0C083C082C0D075D000C000C07B
:10203B0001C002C003C004C005C006C007789DE202
:10204B0030E74CE24480F21231E39062D8E0C39463
:10205B00FF5003E004F090632112000F400A9063DD
:10206B0021E475F00112023D90632312000F400A28
:10207B00906323E475F00112023D123729123740A9
:10208B0012375712376E1239321239E41227C3D076
:10209B0007D006D005D004D003D002D001D000D099
:0A20AB00D0D082D083D0F0D0E03214
:10336800E5B254FC42B253A9FED2AF75D1049071B4
:10337800057409F0907104745FF0907101E0547F56
:10338800F0E04420F0907100E0E4F0E044C1F04344
:03339800A9012266
:03002400022E5A4F
:102E5A00C0E0C0F0C083C082C0D075D000C000C03E
:102E6A0001C002C003C004C005C006C007907101BA
:102E7A00E030E70AE04480F0122D10122823D00730
:102E8A00D006D005D004D003D002D001D000D0D0D3
:092E9A00D082D083D0F0D0E032E8
:0405210041634700EB
:0A39EF007869E24401F29063472278
:10348A0078C3E24430F2E2440CF2786AE24479F218
:10349A007591FF9071227407F0439E7043994043DF
:0534AA00AA04D2AF22CC
:10342C005399E0907123E05498F0EF24FE600F0460
:10343C007016907123E04459F0439906800A9071FC
:0F344C0023E0445AF04399057869E24448F2229C
:1031E300906347E014601914601D14602614600492
:1031F300240470257F0112342C9063477401F0225C
:103203001239EF7402F0227F0212342C9063477458
:0A32130003F0221239EF7404F022D8
:0300420002224750
:10224700C0E0C0F0C083C082C0D075D000C000C05D
:0D22570001C002C003C004C005C006C007DE
:10226400786BE230E142E24402F2AF93EF75F01092
:10227400A4FFE594C4540FFDEF4DFF906304E5F013
:10228400F0A3EFF0906347E024FC6011240270187F
:10229400906304E0FEA3E0FF1235C7800B90630453
:0822A400E0FEA3E0FF1235E8A3
:1022AC00D007D006D005D004D003D002D001D00086
:0B22BC00D0D0D082D083D0F0D0E03230
:1035A6009062EFF090634202044B900006120154C1
:1035B600FE9000080201549000091201C690000C0A
:0135C60022E2
:100D5A00E49062EFF07FFFA374FFF0906342120405
:100D6A006B900001120154FE12013BFDEEC39D502F
:100D7A0003020EEC1235AA900001E41201C690009B
:100D8A000E1204741204A4EFF460089063417423F1
:100D9A00F08009906341E06003E014F01235AA90F4
:100DAA0000031201546F6015900005120154600D82
:100DBA00900004E41201C6900003020EE8900005B8
:100DCA00120154FE900004120154C39E500B1235B6
:100DDA00AA90000474010201811235AA900002123D
:100DEA0001546F6048EFF4701C1235B0C39E400A7C
:100DFA0074051235A690000280611235AA90000A85
:100E0A007401020EDF1235AA90000874011235C06F
:100E1A001201546F906342600C12044B7401123534
:100E2A00BDEF020EDF12044B900009803DEFF47013
:100E3A00411235AA900009120154D39400500302BA
:100E4A000EE290000B120154FE90000A120154D3D4
:100E5A009E401174011235A690000C120154906242
:100E6A00F0F080541235AA90000A7401120181022E
:100E7A000EE21235AA1235B7C394FF500890000843
:100E8A0074011201811235B0B506089062EF74033D
:100E9A00F080201235AA9000071235B36E7039908F
:100EAA0062EF74041235A9900006120154900008EA
:100EBA001201C69062F0EFF01235AAE41235BD7441
:100ECA00FF1201C69062F0E09000111201C6906212
:100EDA00EFE09000121201C61235AA900002EF123A
:020EEA0001C63F
:010EEC0022E3
:1038100075AF3F8FAF75AEB975A402E5A530E1FB7A
:013820002285
:1032C60090633D12046B75AF3F8FAF906340E0C3D0
:1032D60094014022E5A530E0FB90633DE475F001E2
:1032E60012045412013BF5A675AEB975A40190639C
:0732F60040E014F080D52236
:103334009062FB12046B9062FEE06027AE070FEE12
:103344002400FDE4343F8D82F583E493FE9062FB18
:10335400E475F001120454EE1201B49062FEE0141C
:04336400F080D32200
:100525004262A300004C628700000000000000004A
:100535000000000050629300000000000000000071
:0705450000000000000000AF
:10316B009FFFE49400FEEF25E0FFEE33FE12044BCD
:10317B008F828E83120253FF229062FDE0FF9062DA
:10318B00F7E0227B017A6279939062F312046B90E1
:0C319B0062F6227E007D007B010204D75A
:1036FB00C39062A4E094FF9062A3E094FF5007E4B0
:07370B0075F00112023D22DE
:061A6B009062EF12046B13
:101A7100C374089D9062FDF09062F6E0FFC37408A4
:101A81009F9062FEF0C291C292E49062F7F0E490FE
:101A910062F9F0A3F09062FBF0A3F0123184C39FCE
:101AA10040121231849062EF12316B9062F9E5F0CD
:101AB100F0A3EFF09062FE123187C39F4015906250
:101AC100FE1231879062F312316B9062FBE5F0F008
:101AD100A3EFF0E49062F8F09062F9E030E703D30D
:101AE1008001C392839062FBE030E703D38001C39E
:101AF1009295D2919062FAE025E0F09062F9E0339C
:101B0100F09062FCE025E0F09062FBE033F0C291DE
:101B11009062F8E004F0E0B410BE9062F7E004F0E7
:101B2100E064086003021A8FD292C292C283C29506
:011B31002291
:10351D00C39062A4E094199062A3E094004013E478
:10352D00F0A3F012318E7408F07A6279877D06125D
:03353D001A6B22E4
:101C91007F0C7A62798712319E7F107A6279931272
:101CA100319E78D2E254F3F2E24404F2907187E477
:101CB100F078C2E2543FF2E24440F2907181E4F0E4
:101CC10078D3E254F3F2E24404F290718BE4F01819
:101CD100E254CFF2E24410F2907188E4F008E25449
:101CE100CFF2E24410F290718C740AF07856E4F26B
:101CF100782774BBF218747FF27833E4F218F27823
:101D010019F218E24401F27811E24401F27817E283
:101D11004401F27812E24401F27814E24401F2C281
:101D210083C295C291C29212318E7406F07A6279A1
:0A1D310087FD121A6B7F1E02339B20
:10339B00C374649FFFE49400FE3395E0FDFCE47B73
:1033AB007F7ABBF9F81202A6E47B64FAF9F81203F0
:1033BB0031AC06EC7833F218EFF27817E24401F2F5
:0133CB0022DF
:0A054C0047633500000000000000C6
:1033CC00A3F0123A18C282C284D2817F047E0022FA
:1033DC00E254CFF2E24410F2907180E4F022906259
:1033EC00F5E004F0E0C3940822FFE0FEA8070822F1
:063A180078C21233DC222B
:0D399A0078C0E24404F278C2E254CFF22279
:102B0B00E4FF78C2E254F3F2E24404F290717FE402
:102B1B00F008E254FCF2E24401F2907182E4F01806
:102B2B001233DCC281C284122762EF702A7D0A7FC6
:102B3B008C121BE27D017F88121BE27D017F8612C6
:102B4B001BE2E4FD7F82121BE2E4FD7F84121BE299
:072B5B00E4FD7F80121BE284
:012B62002250
:10367F00E4FDEE25E0FEEF30E004EE4401FEEFC383
:09368F0013FF0DEDB408EBAF06CA
:01369800220F
:02269100AC0794
:10269300E49062F0F0AF0512367FEC64816019ECD0
:1026A30064836014EC6485600FEC6487600AEC64F7
:0826B300896005EC648D7043A1
:1026BB00E49062F1F0A3F0EC64816004ECB4830667
:1026CB00EF547FFF8017EC64856004ECB48706EF52
:1026DB00543FFF8008ECB48904EF541FFFEFC45440
:1026EB000FFE9062F1F0EF540FFFA3F0EE75F00ABE
:0326FB00A42FFF0A
:0126FE0022B9
:05213D009062F0EFF0DC
:10214200E4A3F01233CC1239D9E49062F2F01221F6
:10215200A59062F2E09062F01233F58002C313D8C8
:10216200FC30E004D2828002C2827F047E001239F7
:10217200D91221AF40D812399AE49062F2F09062FB
:10218200F1E025E0F01221A53082079062F1E044EF
:1021920001F01221AF40E7C284C281C2829062F193
:0221A200E0FF5C
:1021A40022C2847F047E001239D922D2847F047E25
:0F21B400001239D99062F2E004F0E0C3940822DF
:053785009062EFEFF07F
:10378A00E4FE12213DAE079062EFE0FFAD0602268D
:01379A00919D
:081F12009062F3EFF0A3EDF083
:101F1A00E41233CC1239D9E49062F5F0121F95908D
:101F2A0062F5E09062F31233F58002C313D8FC30F5
:101F3A00E004D2828002C282121F841233EA40DC99
:101F4A00E49062F5F0121F959062F5E0FF9062F45A
:101F5A00E0FEA807088002C313D8FC30E004D2824E
:101F6A008002C282121F841233EA40D9C2847F04DB
:091F7A007E001239D9C281C28235
:101F8300227F047E001239D9D2847F047E00123965
:0C1F9300D922C2847F047E001239D922BA
:10276200122EA3D3906336E09433906335E094083D
:102772005049C3A3E094D0906335E09407403C9065
:102782006337E0D3940C5033E0C39401402DA3E0AF
:10279200D3941F5026E0C394014020A3E094185024
:1027A2001AA3E0C3943C5013A3E0C3943C500C9092
:1027B2006335E0B40708A3E0B4D0037F00227F01B1
:0127C20022F4
:051BE2009062EFEFF03E
:101BE700A3EDF0EF6480601D9062EFE0FF64826018
:101BF70014EF6484600FEF6486600AEF6488600501
:051C0700EF648C706C1D
:101C0C00E49062F1F0A3F09062F0E0FFC3940A401C
:101C1C0007EF75F00A84A3F09062F0E075F00A8487
:101C2C00AFF09062F2EFF09062F1E0FEC454F04F2E
:101C3C009062F0F09062EFE0FF64806004EFB48299
:101C4C00099062F0E0547FF080229062EFE0FF6434
:101C5C00846004EFB486099062F0E0543FF0800C8D
:0C1C6C009062EFE0B48805A3E0541FF084
:101C7800E4FD7F8E121F129062EFE0FFA3E0FD12D9
:091C88001F127D807F8E021F12E5
:1030340090632EA3E02430FD7F8C121BE29063305A
:10304400E0FD7F88121BE2906331E0FD7F86121B56
:10305400E2906332E0FD7F84121BE2906333E0FD73
:0F3064007F82121BE2906334E0FD7F80021BE24B
:102EA3007F8112378590633BEFF07F8312378590E4
:102EB300633AEFF07F85123785906339EFF07F87B0
:102EC300123785906338EFF07F8912378590633727
:102ED300EFF07F8D123785EF24D0FEE43407906343
:062EE30035F0A3CEF02241
:1034AF001225AD123A111239A7123A0A122B0B122A
:1034BF00348A122FF4121C91122FB41233687F0A20
:0534CF007E0002002751
:1031A7001218C475D95590715EE054FEF075D9BBFD
:1031B7001234AF123A0275D9AA1220B57B017A628E
:1031C70079D7120D5A122F72121600121E7F121281
:0C31D700F91217DD1222C71237B080DA9F
:1025AD0078E0E24408F278E2E2543FF278D0E24477
:1025BD0001F278D2E254FCF278E0E24402F278E2E1
:1025CD00E254F3F278D0E24408F278D2E2543FF2CA
:1025DD0078E0E24401F278E2E254FCF278F0E24471
:1025ED0002F278F2E254F3F278D0E24480F278D33A
:1025FD00E2543FF278E0E24404F278E2E254CFF2A2
:10260D0078F2E254FCF278E3E254FCF278D3E2542F
:03261D00FCF222AA
:1020B50020A307E49062D3F080452090089062D376
:1020C5007401F0803A20A1089062D37402F0802F49
:1020D5002093089062D37403F0802420A0089062B6
:1020E500D37404F0801920B1089062D37405F08090
:1020F5000E9062D32097057406F0800374FFF0906C
:1021050062D3E0FF121B3230A4047F018002E4FF9A
:102115001238433094047F018002E4FF1238733093
:10212500B0047F018002E4FF12386320A2047F011E
:082135008002E4FF1237C4220E
:10055600C10144624D0000000044625100000000E9
:1005660044625500000000446259000000004162E8
:100576005D006028625E00000000000000000000D0
:100586000000000000000000000000000000000065
:1005960000000000000000000000000000004162B2
:0D05A6008600C100426249000041624B0026
:102CBB009062F2E0FF245EF582E43462F5832290A9
:102CCB0062EFFEFDFC0203F61203EAEF2401FFE4C0
:102CDB003EFEE43DFDE43CFC229062CEE0FFA3E02F
:102CEB0022E4FDFC1203F6C30203D99F9062F1F0BC
:102CFB00E0FFC3940A221203F602028B12033190F7
:052D0B0062EF0204026A
:10379B00E4FE745E2E122CC2EFF00EEEB428F3E4AE
:0437AB00906286F0B2
:0137AF0022F7
:1036CB00906286E0122CC0EFF0906286E004F0E08E
:0836DB00C394284002E4F02230
:101D3B009062F312040E00000000E49062F7F0A32F
:101D4B0074FFF0E49062F2F09062F31203F690628B
:101D5B00F2E0122CC0E0FFE4FCFDFE12028B90625D
:101D6B00F3120402122CBBE0FE9062F7E0C39E500C
:101D7B000B745E2F122CC2E09062F7F0122CBBE0BA
:101D8B00FE9062F8E0D39E400B745E2F122CC2E0E3
:101D9B009062F8F09062F2E004F0E0642870A99091
:101DAB0062F31203EAC006C0079062F8E0FF90628C
:101DBB00F7E02FFFE433AB07FA3395E0F9F8D007E0
:101DCB00D0061202989062F3120402E47B26FAF911
:0A1DDB00F89062F31203EA020331EC
:0D39A70078E0E24420F278E3E254F3F222EB
:10321D009062551203EA906251122D01906255127F
:10322D00040290625112040E0000000090625912C7
:10323D0003EA90624D122D019062591204029062C0
:09324D004D12040E0000000022E5
:10282300906249E475F00112023DC390624AE0945C
:1028330014906249E09400402BE4F0A3F0906251BD
:10284300122CD39062511204027F587E029062517F
:10285300122CEC400F20010C90625112040E000068
:102863000000D20130A51520000F90624D122CD329
:0E28730090624D12040212321DD20022C200E9
:012881002234
:101600009062EF12040E000000009062F312040ECC
:10161000000000007FF47E01906255122CEC500611
:101620002001030216F47FC07E277D097C009062B2
:10163000591203F61202A6E47B7A7A06F9F812032D
:10164000319062F3120402300123E4FF90625912D8
:101650002CCDC31203D99062EF600912040E000072
:101660000001802A12040E000000008021E47F2483
:10167000FEFDFC9062F31203F61202A6E47B0AFA66
:10168000F9F81203319062551203F6122D07906398
:101690001D1203EA9062F3122D0190631D120402E1
:1016A00090625912040E0000000090625512040E60
:1016B00000000000C201E4FF122CCAD31203D9407B
:1016C00012E47F66122CCA1202A6E47B64FAF9F8CF
:1016D000122D07E47FC7122CCAD31203D9400A90F7
:1016E00062EF12040E000000C79062EF1203EA904E
:0416F00062CEEFF0E7
:0116F40022D3
:1036280090632BE0600BE064016006E490625DF05B
:0E3638002290625DE0C394FF5003E004F02294
:1032FD009062F2EFF09062C8E070099062F2E0FF28
:10330D007E00801F9062C8E0B4011B9062F2E0FF66
:10331D007E007C027D6D1204AAE47BE87A03F9F845
:07332D00120331122A57229E
:1010540090632BE0600BE064016006E490624BF067
:101064002290624BE0703B04F09062CEE0A3F090DB
:1010740062CEE090624CF09062CFE0FF1232FD90BD
:1010840062CEE0FF12379B9062C8E0700BFF12370C
:10109400D77F011238A3800AE4FF1238A37F01121C
:1010A40037D790625DE0C3944B50030211B5E4F06E
:1010B400122CE4D39F403B122CE4122CF650030272
:1010C4001144EF943240089062F07414F08011EFF0
:1010D400C394149062F04005740AF080037405F020
:1010E4009062CFE0FF9062F0E0FEC3EF9E9062CF8B
:1010F400803B122CE4C39F5047E0FF9062CEE0C3D4
:10110400122CF6403BEF943240089062F07414F0D5
:101114008011EFC394149062F04005740AF08003C8
:101124007405F09062F0E0FF9062CFE02FF09062DF
:10113400CEE0FF12379B9062CEE090624CF0806963
:101144009062CEE0FF1236CB121D3B9062EFEFF0BF
:10115400E0C3940A5007E090624CF0802590624C02
:10116400E075F003A4FDACF09062EFE075F007A425
:101174002DFFE5F03CFE7C007D0A1201E890624CF4
:10118400EFF090624CE09062EFF0E0FF9062CFE00D
:10119400D39F4005E014F080109062EFE0FF90626E
:1011A400CFE0C39F5003E004F09062CFE0FF12321F
:0111B400FD3D
:0111B5002217
:1005B30042631700004263190000C1024163060051
:0805C3004163070041630800D9
:103712009063130203F6E475F00102023D9062EF3A
:07372200E0FF906307E022C5
:073A0A0078E3E2543FF222D1
:1030730090630F1203EA9063091203F612028B9016
:10308300630F12040290630912040E000000001281
:10309300371290630DE0FEA3E0FFE4FCFD12028B08
:0E30A300906313120402E490630DF0A3F02278
:102D1000906306E004F0E0C394144020E4F0906374
:102D20000D123719C390630EE0945890630DE09430
:102D3000024009200306E4F0A3F0D20330A72220CA
:102D4000021C9063091203EAEF2401FFE43EFEE453
:102D50003DFDE43CFC906309120402123073D20280
:032D600022C2028A
:012D6300224D
:1022C700E47FF47E01FDFC123712C31203D95003D9
:1022D70030036A30030EC2039062EF12040E00004F
:1022E7000000801CE47FBC7EF7FDFC90630F1203A7
:1022F700F61202A61237121203319062EF1204028D
:1023070090630F12040E0000000090631312040E76
:1023170000000000E47FFF7EFFFDFC9062EF1203E8
:10232700F6C31203D9400A9062EF12040E0000FFB1
:0D233700FF9062EF1203EA9062CA120402E6
:012344002276
:1034D400C3906318E094FF906317E094FF500312C5
:1034E4003718C390631AE094FF906319E094FF5077
:0534F40003123718224D
:10369900E47BF47A01F9F89062CA1203EA12033161
:0836A900EFD3941840027F18D2
:0136B10022F6
:101F9F00E49062EFF0906308E0700A04F012369953
:101FAF00906307EFF01236999062EFEFF07008A38D
:101FBF00F0A37432F0802F906307E0FF9062EFE0A0
:101FCF00FED39F4005EE9FFF800612371FC39FFF72
:101FDF00EFD394017E0050047F6480027F329062C1
:101FEF00F0EEF0A3EFF09062F0E0FEA3E0FFC390FD
:101FFF006318E09F906317E09E4020E4F0A3F01277
:10200F00371FFE9F5004E004F022EED39F400CEEEA
:0B201F00D394004006906307E014F02B
:01202A002293
:0805CB0041631B0041631C00A9
:1036E3001203EAEF2401FFE43EFEE43DFDE43CFC6B
:0836F300221203F6C30203D901
:103540009062FAEFF07009FF1238D37F010238E37E
:103550009062FAE0B4010AE4FF1238E37F01123806
:02356000D32274
:0621C3009062F412040218
:1021C9009062F8E0B401047F0180027F009062F917
:1021D900EFF09062C8E070229062F9E0600DE47F50
:1021E90064FEFDFC7B64FAF9F88037E47FE87E033E
:1021F900FDFC7BE87A03F9F880289062C8E0640165
:1022090070349062F9E0600DE47FA1FEFDFC7BA1D2
:10221900FAF9F8800DE47F4A7E06FDFC7B4A7A06CE
:10222900F9F89062F41203EA1203319062F8E0902F
:0E22390062FEF01229FA9062C8E0FF02354002
:103609009062F4EFF060047F0080027F011238B30A
:0F3619009062F4E060047F0180027F000238C3FA
:1030B1009062C7E09062EFF0E0FB60059062BF8034
:1030C100039062C31203EA9062F0120402EB6004FF
:1030D1007F0080027F01AB079062F01203EA9062E9
:0E30E100F8EBF01221C39062EFE0FF02360917
:101E7F00C3906322E09488906321E09413400F3065
:101E8F00040C1239B4C204E4906321F0A3F0E47F90
:101E9F00E87E03FDFC90631D1236F440657F187ECB
:101EAF00C67D9A7C3B9062BF1236F4500C9062BF95
:101EBF001236E39062BF1204027F9C7EE07DF57CB8
:101ECF00059062C31236F4500C9062C31236E39041
:101EDF0062C312040290631D1203EAC3EF94E8FF7A
:101EEF00EE9403FEED9400FDEC9400FC90631D1244
:021EFF000402DB
:101F010090631BE004F0E0C394644004E4F0D20465
:011F110022AD
:102AB20090631CE0703C04F09062C8E0700BFF125F
:102AC20038D37F011238E3800AE4FF1238E37F0132
:102AD2001238D39062C7E0600CE4FF1238B37F0172
:102AE2001238C3800AE4FF1238C37F011238B312CE
:102AF20030B1C3906324E094E8906323E0940340F0
:082B020007E4F0A3F01230B16A
:012B0A0022A8
:1005D3004261F300004261F50000602861F700000A
:1005E3000000000000000000000000000000000008
:1005F30000000000000000000000000000000000F8
:1006030000000000000041621F004161F00060280B
:100613006220000000000000000000000000000055
:1006230000000000000000000000000000000000C7
:10063300000000000000000000004162480041612A
:06064300F1004161F2002C
:102F2E0025E024F7F582E43461F583EEF0A3EFF0AB
:102F3E002225E02420F582E4346222F583E0FEA30C
:102F4E00E0FFE4FCFD02028B9062EFE0FEA3E0FFE7
:102F5E0022E47B14FAF9F80203EA9062F1E0FF90A2
:042F6E0061F2E0220A
:0B39C100E4FDED122F2E0DEDB414F705
:0139CC0022D8
:1035C7009061F0E0700504F00239C190621FE012CB
:1035D7002F2E90621FE004F0E0C394144002E4F041
:0135E70022C1
:1030EF009062F412040E00000000E49062F3F0907E
:1030FF0062F41203F69062F3E025E024F7F582E420
:10310F003461122F499062F41204029062F3E004CA
:0E311F00F0E0B414DA9062F4122F5F02033174
:10372900C39061F4E094FF9061F3E094FF5007E4E3
:0737390075F00112023D22B0
:10374000C39061F6E094FF9061F5E094FF5007E4C8
:0737500075F00112023D2299
:0E392300E4FDED122F3F122F370DEDB414F41A
:013931002273
:1036B200906248E0122F3F122F37906248E004F0E8
:0936C200E0C394144002E4F0227C
:103256009062F412040E00000000E49062F3F09015
:1032660062F41203F69062F3E0122F3F122F499098
:1032760062F41204029062F3E004F0E0B414E09009
:0832860062F4122F5F02033114
:102D6400E4FDC3EF94B0EE940440028043C3EF94B7
:102D740019EE940440047D018036C3EF9481EE94EF
:102D84000340047D028029C3EF94E9EE94024004D9
:102D94007D03801CC3EF9452EE940240047D0480B2
:102DA4000FC3EF94BAEE940140047D0580027D06C2
:022DB400AF0569
:012DB60022FA
:1012F900E49062F1F0A3F0C39061F4E094C89061C6
:10130900F3E0940050030213ECE4F0A3F01230EF81
:101319007C077DD01204AAE4FB7A10F9F812033194
:101329009062EFEEF0A3EFF09061F1E0702704F026
:10133900122F56123923122F56122D64A3EFF09053
:1013490061F2F0700B9062D1E070101213FB800B08
:101359001213ED8006122F561236B2123256122D82
:10136900649062F1EFF09061F2E0FE6F60189062B4
:10137900F1E0FFD39E4006EF9EA3F08009122F688B
:10138900C39F9062F2F09062F2E0FFC39402400EB4
:101399009061F6E094889061F5E094134045EFB4CC
:1013A900010FC39061F6E094209061F5E0944E40FE
:1013B90032E49061F5F0A3F0122F68FEC39F500547
:1013C900E004F0800BEED39F40069061F2E014F048
:1013D9009061F2E0700A9062D1E070071213FB226B
:0313E9001213EDEF
:1013EC0022E49062D1F09061F2E0FF12234522FFDB
:0A13FC001223459062D17401F02223
:100649005562BF000000000000000000000000002B
:1006590000000000000000004162D4004262D500A1
:010669000090
:102FF4007B017A6279EF9062FE740BF0E4FF123386
:10300400349062F9E0B4C51378BF7C627D017B0122
:103014007A6279EF7E007F0B0201159062C774011A
:0F302400F09062C974C5F0E49062C8F01239B43C
:01303300227A
:103663009062C974C5F0E4FF1238107B017A627965
:0C367300BF906340740BF0E4FF0232C60D
:0D39B400E49062D5F0A3F09062D404F022FC
:0F3932009062D4E06008A3E475F00112023D2218
:103562009062D4E0601BC39062D6E094D09062D5A2
:10357200E09407400CE49062D4F0A3F0A3F012367A
:023582006322C2
:10066A004A60003F065B4F666D7D077F6F603660AC
:10067A000A07050706070707080709070A070D07F4
:10068A000F06030604060506060607060B060A06F3
:10069A000906080409040A040B040C040D040004E6
:1006AA0001040204030404602460400703070407EA
:1006BA000B070C070E060206010600060E060F06B9
:1006CA000D060C0408040E040F040504060407585A
:1006DA006064030A000D0501050305040506050902
:1006EA00050C050D050F030F030D4E607C0505056E
:1006FA000A050E030B05000502050B50608A070266
:10070A000700000E0309030C030E030003014E60E9
:10071A009A010F010D010A0109010B010E010C4E8C
:10072A0060A800010003000600070005000200049B
:10073A004E60B60305030602020201020003040327
:10074A00074E60C40100010201040107010501010D
:10075A0001034C60D2020C020D020E020F020502C6
:10076A00044C60DE020B020A0209020802070206B2
:10077A004E60EA000D000E000C00080508000A0091
:10078A000B4E60F8050505060509050A050C050462
:10079A00050B4E610605020503050D050F050E053D
:1007AA000105005061140405040604070408010742
:1007BA0005070009000160546124000700060005CE
:1007CA00010F010C010B010E01080109010A020FB8
:1007DA00020D0100020E01050101020C020A0209C2
:1007EA000102020B0106010302080306040E040DAE
:1007FA0001040409040C040F03050304040A040B8E
:10080A0004030401030303020301040204004C610C
:10081A0078030F030D0308020602020200526184E4
:10082A00030C030B030A030902070205020402036D
:02083A000201B9
:100B7E00E0FCA3E0FDEF25E0247DF582E43460F592
:100B8E0083E0FF7E007401A8070822906351E0FF06
:100B9E0025E0247CF582E43460F583E025E024939F
:100BAE00F582E43462F58322E0FCA3E0FDEF25E05C
:100BBE00229062F8E0FF25E024EAF582E43460F545
:100BCE0083E025E02487F582E43462F58322F4FF86
:100BDE00EEF45CFEED5F22FFEC4EFEED4F22F07464
:100BEE00002DF582E43460F583E02290635BE0FF34
:100BFE0025E024D2F582E4346022EEF0A3EFF090EB
:100C0E00634AE0FF25E022E0FF25E0240AF582E4B6
:100C1E00346022E0FF25E02440F582E4346022E0D7
:100C2E00FF25E024DEF582E4346022E0FCA3E0FD43
:100C3E00EF75F00EA42425F582E43461F58322903D
:100C4E006353E0FF25E0249AF582E434602290633A
:100C5E0053E0FF25E024A8F582E43460229063552A
:100C6E00E0FF25E024B6F582E4346022906355E07F
:100C7E00FF25E024C4F582E4346022906300E0FF97
:100C8E0075F00EA42424F582E43461F58322240B3E
:100C9E00F582E43460222441F582E4346022E0449B
:100CAE0001F0A3E0F02224D3F582E434602224DFA5
:100CBE00F582E43460229062F8E0FF25E022906233
:100CCE00F3E0FEA3E0FF7C007D0A0201E8EEF0A354
:100CDE00EFF090635BE004F0E02275F00202043F57
:100CEE00FFE0C39FD3940022E0FF25E0248AF58223
:100CFE00E4346022249BF582E434602224A9F58238
:100D0E00E434602224B7F582E434602224C5F582EF
:100D1E00E4346022E0FF25E02414F582E4346122FD
:100D2E00E0FF25E02478F582E4346122E0FF25E03F
:100D3E002484F582E434612225E02464F582E434CF
:0C0D4E006022E075F00A84ADF0E4FF22A2
:102B6300906357EFF0ED6021120C15120BA7C08391
:102B7300C082120BB6120C9C120B8D8005C333CE90
:102B830033CED8F9120BE58022906357120C15123D
:102B93000BA7C083C082120BB6120C9C120B8D8044
:102BA30005C333CE33CED8F9120BDCFFD082D083EA
:062BB300EEF0A3EFF0229A
:0523C30090634BEFF0F8
:1023C800E4A3F090634CE0FFC3941B506A90634B06
:1023D800E09F5023A3E0120C17120BA7C083C08202
:1023E800120BB6120C9C120B8D8005C333CE33CE64
:1023F800D8F9120BDC802D90634CE090634B120CE3
:10240800EE402BA3E0120C17120BA7C083C0821258
:102418000BB6120C9C120B8D8005C333CE33CED86D
:10242800F9120BE5FFD082D083EEF0A3EFF09063B2
:072438004CE004F00223CB8D
:01243F00227A
:102BB900906358EFF0ED6021120C21120BA7C0832E
:102BC900C082120BB6120CA4120B8D8005C333CE32
:102BD90033CED8F9120BE58022906358120C2112DA
:102BE9000BA7C083C082120BB6120CA4120B8D80E6
:102BF90005C333CE33CED8F9120BDCFFD082D08394
:062C0900EEF0A3EFF02243
:0524400090634DEFF078
:10244500E4A3F090634EE0FFC39412506A90634D8D
:10245500E09F5023A3E0120C23120BA7C083C08278
:10246500120BB6120CA4120B8D8005C333CE33CEDE
:10247500D8F9120BDC802D90634EE090634D120C61
:10248500EE402BA3E0120C23120BA7C083C08212CF
:102495000BB6120CA4120B8D8005C333CE33CED8E8
:1024A500F9120BE5FFD082D083EEF0A3EFF0906335
:0724B5004EE004F002244890
:0124BC0022FD
:10364600EF90629E600BE04480F090629D120CAC9D
:0D36560022E0547FF090629DE054FEF022CF
:0524BD0090634FEFF0F9
:1024C200E4A3F0906350E0FFC3940C506790634F15
:1024D200E06026EF120D46120BA7C083C082120BDA
:1024E200B62465F582E43460120B8D8005C333CEC9
:1024F20033CED8F9120BE58028906350E0FF120D1D
:1025020046120BA7C083C082120BB62465F582E483
:102512003460120B8D8005C333CE33CED8F9120B43
:10252200DCFFD082D083EEF0A3EFF0906350E004A2
:04253200F00224C5CA
:012536002282
:10358400EF120B9EC083C082120B7E8005C333CE24
:1035940033CED8F9120BE5FFD082D083EEF0A3EF3F
:0235A400F02213
:1026200074002F120BF0906352F0E4906351F0901D
:102630006351E0FFC394075057120B918005C333D9
:10264000CE33CED8F9FF906352E0FDEF5D601812F3
:102650000B99C083C082120B7E8005C333CE33CE6C
:10266000D8F9120BE58016120B99C083C082120BA9
:102670007E8005C333CE33CED8F9120BDCFFD08277
:10268000D083EEF0A3EFF0906351E004F002262F28
:012690002227
:051B32009062EFEFF0EE
:101B3700E4A3F09062F0120B9CC083C082120B7E6C
:101B47008005C333CE33CED8F9120BDCFFD082D059
:101B570083EEF0A3EFF09062F0E004F0E0B407D377
:101B67009062EFE070047F018002E4FF1238539027
:101B770062EFE06003B4FF057F060235849062EFF1
:101B8700E02400120BF09062F1F0E49062F0F09024
:101B970062F0E0FFC394075041120B918005C333F5
:101BA700CE33CED8F9FF9062F1E0FDEF5D60239070
:101BB70062F0120B9CC083C082120B7E8005C33378
:101BC700CE33CED8F9120BE5FFD082D083EEF0A347
:0A1BD700EFF09062F0E004F080B53A
:011BE10022E1
:10288200906359EFF0ED6025120CF6120BA7C0838E
:10289200C082120BB6248BF582E43460120B8D8059
:1028A20005C333CE33CED8F9120BE5802690635997
:1028B200120CF6120BA7C083C082120BB6248BF542
:1028C20082E43460120B8D8005C333CE33CED8F947
:0E28D200120BDCFFD082D083EEF0A3EFF022D9
:10384300EF9062A26005E04402F022E054FDF02212
:1037C400EF9062936008E04480F0A3E0F022E054BC
:0337D4007FF02261
:10385300EF9062946005E04401F022E054FEF02210
:0F394100EF9062996004120CAC22E054FEF02269
:10386300EF90629A6005E04408F022E054F7F022FA
:10387300EF90629A6005E04404F022E054FBF022EA
:10140600120BED906354F0EF707A906353F0906393
:1014160053E0FFC394074003021502120B918005A7
:10142600C333CE33CED8F9FF906354E0FDEF5D6051
:1014360021120C4D120BA7C083C082120BB6120DDF
:1014460002120B8D8005C333CE33CED8F9120BE5CD
:10145600801F120C4D120BA7C083C082120BB6124E
:101466000D02120B8D8005C333CE33CED8F9120B85
:10147600DCFFD082D083EEF0A3EFF0906353E0045C
:10148600F0021414E4906353F0906353E0FFC394A6
:10149600075069120B918005C333CE33CED8F9FFBE
:1014A600906354E0FDEF5D6021120C5C120BA7C047
:1014B60083C082120BB6120D0A120B8D8005C33340
:1014C600CE33CED8F9120BE5801F120C5C120BA797
:1014D600C083C082120BB6120D0A120B8D8005C393
:1014E60033CE33CED8F9120BDCFFD082D083EEF0A8
:0C14F600A3EFF0906353E004F002148FA9
:0115020022C6
:10150300120BED906356F0EF707A906355F0906391
:1015130055E0FFC3940740030215FF120B918005AA
:10152300C333CE33CED8F9FF906356E0FDEF5D6051
:1015330021120C6B120BA7C083C082120BB6120DC3
:1015430012120B8D8005C333CE33CED8F9120BE5BF
:10155300801F120C6B120BA7C083C082120BB61232
:101563000D12120B8D8005C333CE33CED8F9120B77
:10157300DCFFD082D083EEF0A3EFF0906355E0045C
:10158300F0021511E4906355F0906355E0FFC394A6
:10159300075069120B918005C333CE33CED8F9FFC0
:1015A300906356E0FDEF5D6021120C7A120BA7C029
:1015B30083C082120BB6120D1A120B8D8005C33332
:1015C300CE33CED8F9120BE5801F120C7A120BA77B
:1015D300C083C082120BB6120D1A120B8D8005C385
:1015E30033CE33CED8F9120BDCFFD082D083EEF0AA
:0C15F300A3EFF0906355E004F002158CAB
:0115FF0022C9
:10388300EF9062966005E04440F022E054BFF022DE
:0816F500906348EFF0A3EDF053
:1016FD00E4A3F0120C0D120C54120BA7C083C08280
:10170D00120BB6120D02120B8D8005C333CE33CEE4
:10171D00D8F9120BDCFFD082D083120C08120C63A7
:10172D00120BA7C083C082120BB6120D0A120B8DBD
:10173D008005C333CE33CED8F9120BDCFFD082D067
:10174D0083120C08120C72120BA7C083C082120BED
:10175D00B6120D12120B8D8005C333CE33CED8F9D0
:10176D00120BDCFFD082D083120C08120C81120BED
:10177D00A7C083C082120BB6120D1A120B8D8005F5
:10178D00C333CE33CED8F9120BDCFFD082D083EE2B
:10179D00F0A3EFF090634AE004F0E0640760030209
:1017AD001700906348120D50121406906348E075AF
:1017BD00F00A84FD7F01121406906349120D501238
:1017CD001503906349E075F00A84FD7F010215034E
:0F395000EF9062936004120CAC22E054FEF02260
:0F395F00EF9062956004120CAC22E054FEF0224F
:10389300EF9062986005E04408F022E054F7F022CC
:102C0F0090635AEFF0ED6021120BFC120BA7C083FB
:102C1F00C082120BB6120CB4120B8D8005C333CECB
:102C2F0033CED8F9120BE5802290635A120BFC12A7
:102C3F000BA7C083C082120BB6120CB4120B8D807F
:102C4F0005C333CE33CED8F9120BDCFFD082D0833D
:062C5F00EEF0A3EFF022ED
:1026FF00EF6030E490635BF0120BF9120BA7C0830D
:10270F00C082120BB6120CB4120B8D8005C333CEE0
:10271F0033CED8F9120BE5FFD082D083120CDBB485
:10272F0006D622E490635BF0120BF9120BA7C0835D
:10273F00C082120BB6120CB4120B8D8005C333CEB0
:10274F0033CED8F9120BDCFFD082D083120CDBB45E
:02275F0006D69C
:012761002255
:102C650090635CEFF0ED6021120C2D120BA7C08371
:102C7500C082120BB6120CBC120B8D8005C333CE6D
:102C850033CED8F9120BE5802290635C120C2D121D
:102C95000BA7C083C082120BB6120CBC120B8D8021
:102CA50005C333CE33CED8F9120BDCFFD082D083E7
:062CB500EEF0A3EFF02297
:052345009062F3EFF0CF
:10234A00E4A3F09062F4E0FFC39406506B9062F34A
:10235A00E09F5023A3E0120C2F120BA7C083C08268
:10236A00120BB6120CBC120B8D8005C333CE33CEC2
:10237A00D8F9120BDC802E9062F4E0FF9062F3121F
:10238A000CEF402BA3E0120C2F120BA7C083C082C4
:10239A00120BB6120CBC120B8D8005C333CE33CE92
:1023AA00D8F9120BE5FFD082D083EEF0A3EFF090BC
:0823BA0062F4E004F002234D7F
:0123C20022F8
:070EED009062F6EFF0A3EBA9
:100EF400120BEC9062F9F0E49062F8F09062F8E082
:100F0400FFC3940740030210539062F7E07003029A
:100F14000FB6120B918005C333CE33CED8F9FF90B0
:100F240062F9E0FDEF5D7003020FB69062F6E01423
:100F3400602A1460502402600302104A120BBFC0DE
:100F440083C082120BB624EBF582E43460120B8D5D
:100F54008005C333CE33CED8F9020FB0120CC424AB
:100F6400F8F582E43460120BCDC083C082120BB654
:100F740024F9F582E43460120B8D8005C333CE333B
:100F8400CED8F98027120CC42406F582E434611209
:100F94000BCDC083C082120BB62407F582E4346102
:100FA400120B8D8005C333CE33CED8F9120BE50274
:100FB40010409062F6E014602D1460562402600321
:100FC40002104A120BBFC083C082120BB624EBF589
:100FD40082E43460120B8D8005C333CE33CED8F94E
:100FE400120BDC021040120CC424F8F582E43460C5
:100FF400120BCDC083C082120BB624F9F582E434FF
:1010040060120B8D8005C333CE33CED8F9120BDCBE
:10101400802A120CC42406F582E43461120BCDC07C
:1010240083C082120BB62407F582E43461120B8D5F
:101034008005C333CE33CED8F9120BDCFFD082D077
:0F10440083EEF0A3EFF09062F8E004F0020F00EB
:01105300227A
:082A57009062F3EEF0A3EFF032
:102A5F00E4A3F0AA06AB079062F5E004F07C007DDA
:102A6F000AAF03AE021201E8AA06AB07EB4A70E702
:102A7F00E4FA9062F5E0FFEAC39FAF025019C00776
:102A8F00120CCCD0077B01120EED120CCC9062F31E
:102A9F00EEF0A3EFF08006E4FBFD120EED0AEAB4B0
:022AAF0003D052
:012AB1002202
:1037D700EF9062876008E04480F0A3E0F022E054B5
:0337E7007FF0224E
:1038A300EF9062886005E04401F022E054FEF022CC
:1028E00090635DEFF0ED6025120D22120BCDC083D9
:1028F000C082120BB62415F582E43461120B8D8070
:1029000005C333CE33CED8F9120BE5802690635D34
:10291000120D22120BCDC083C082120BB62415F506
:1029200082E43461120B8D8005C333CE33CED8F9E7
:0E293000120BDCFFD082D083EEF0A3EFF0227A
:02382100AB07F3
:0E382300E4FAAF02AD031228E00AEAB408F49A
:013831002274
:1038B300EF9062906005E04410F022E054EFF022B4
:1038C300EF90628E6005E04401F022E054FEF022A6
:1038D300EF9062886005E04404F022E054FBF0229C
:1038E300EF9062886005E04408F022E054F7F0228C
:0819A000906300EFF0A3EBF0EF
:1019A800E4906303120BEC906303F0E4906302F09D
:1019B800906302E0FFC394074003021A6A90630130
:1019C800E06052120B918005C333CE33CED8F9FFB5
:1019D800906303E0FDEF5D603C120C89C083C08218
:1019E800906302E0D082D083120CE8120BCFC08340
:1019F800C082120C39C083C082906302E0D082D0CA
:101A080083120CE8120B8F8005C333CE33CED8F97E
:101A1800120BE5803A120C89C083C082906302E001
:101A2800D082D083120CE8120BCFC083C082120C74
:101A380039C083C082906302E0D082D083120CE860
:101A4800120B8F8005C333CE33CED8F9120BDCFFCF
:101A5800D082D083EEF0A3EFF0906302E004F002AE
:021A680019B8AB
:011A6A002259
:1037EA00EF9062896008E04420F0A3E0F022E05400
:0337FA00DFF022DB
:0629FA009062FA120402D3
:102A00009062FEE07003FF80027F011237EAE490DB
:102A100062FFF09062FFE0FFC394065039C007E404
:102A20007B0AFAF9F89062FA1203EA120331AF0353
:102A3000AD07D0077B011219A09062FA1203EAE4F5
:102A40007B0AFAF9F81203319062FA1204029062DA
:062A5000FFE004F080BD70
:012A5600225D
:1037FD00EF90628D6008E04440F0A3E0F022E054C9
:03380D00BFF022E7
:1038F300EF90628E6005E04480F022E0547FF02276
:10390300EF9062886005E04410F022E054EFF0226B
:10293E0090635EEFF0ED6025120D2E120BCDC0836D
:10294E00C082120BB62479F582E43461120B8D80AD
:10295E0005C333CE33CED8F9120BE5802690635ED5
:10296E00120D2E120BCDC083C082120BB62479F538
:10297E0082E43461120B8D8005C333CE33CED8F989
:0E298E00120BDCFFD082D083EEF0A3EFF0221C
:02383200AB07E2
:0E383400E4FAAF02AD0312293E0AEAB406F42C
:013842002263
:10299C009062F3EFF0ED6025120D3A120BCDC0836F
:1029AC00C082120BB62485F582E43461120B8D8043
:1029BC0005C333CE33CED8F9120BE580269062F3E3
:1029CC00120D3A120BCDC083C082120BB62485F5C2
:1029DC0082E43461120B8D8005C333CE33CED8F92B
:0E29EC00120BDCFFD082D083EEF0A3EFF022BE
:02345B00AB07BD
:10345D00E4FAEBD39A5006AF02E4FD8017EA24019B
:10346D00FFE433FEEBC39FEE6480F8748098400751
:0C347D00AF027D0112299C0AEAB409D6B6
:013489002220
:10083C005362D70A000000000332410000000000A0
:0E084C0002FF39F900004562EA0101020304CF
:0F396E00EC75F005A424EAF582E43462F58322B7
:073A110078C3E2543FF222EA
:0939F9002087037F01227FFF22D9
:102EE900E4FEFCFBEDB401030B8016EDB403047B97
:102EF90002800EEDB404047B038006EDB405027B69
:102F090004ECC39401501B12396EE0B50711123954
:102F19006EE5822BF582E43583F583E0FE80030CB0
:042F290080DFAF0690
:012F2D002281
:102F72009062E8E0603BE0FFA3E0FD122EE9E490FE
:102F820062E8F0A3F0EF24FE601F04702490632B2C
:102F9200E0701B9062C7E070047F0180027F0090A6
:102FA20062C7EFF01230B1800590632BE0FF123A56
:012FB20024FA
:012FB30022FB
:0F085A0042632C000047632500000000000000EF
:0E398C00E4906325F0A3F0906329F0A3F022ED
:083A0200E490632BF0023A246A
:1027C3001236FB1236281234D4C390632DE094FFE3
:1027D30090632CE094FF5007E475F00112023D90E2
:1027E300632BE064016009E064026004E0B4032C3D
:1027F300C3906326E094FF906325E094FF5007E4C1
:1028030075F00112023DC390632AE094FF9063299F
:10281300E094FF500AE475F00102023D12398C2264
:063A1E0090632BEFF02283
:10253700C390632DE094DB90632CE094014066E444
:10254700F0A3F09062D1E0602B906297E013131331
:10255700541F90629530E00DE054FEF0906297E0D2
:1025670054F7F0800FE04401F0A3E0F0A3E0440843
:10257700F0A3E0F09062D2E0602B90628DE0C4544B
:102587000F30E00DE054EFF0E4FF1237FDE4FF8079
:102597001190628DE04410F0A3E0F07F011237FD47
:0625A7007F011238F3224F
:1037B00090632BE0FF121054122AB2121F9F1225A1
:0437C0003702351D7A
:043A240012398C22A5
:100869004162A5004162A6004162A7004162A80059
:100879004162A9004162AA004162AB004162AC0039
:100889004162AD004162AE004162AF004162B00019
:100899004162B1004162B2004162B3004162B400F9
:0C08A9004162B5004162B6004162B70038
:103913009062ACE0FD7B0122E004F0E0C394FF225F
:0B39E4009062B8E06004A3E004F02251
:1011B6009062BEE060030212F89062A7E0B41013DA
:1011C600E4FD7F071228E09062A912391B407BE4F8
:1011D600F080719062A5E0B4010D9062A7E07007FF
:1011E600FDFF1228E080639062A9E004F0E0C3945A
:1011F600294057E4F09062A5E0702E9062A7E09433
:10120600085006E0FF7D0180099062A7E024F8FF00
:10121600E4FD1228E09062A7E004F0E0C3941040D9
:10122600299062A57401F080219062A7E0C394081A
:101236004008E024F8FF7D0180079062A7E0FFE404
:10124600FD1228E09062A7E014F09062A8E0B424B2
:101256001BE4FD7F11122BB99062AA12391B5003B1
:101266000212F8E4F09062A8740AF0229062A6E0F6
:10127600B401109062A8E0700AFDFF122C0F906274
:10128600BE80409062AAE004F09062A6E0703890BA
:1012960062AAE0C39412402FE4F09062A8E0941290
:1012A6005006E0FF7D0180099062A8E024EEFFE48D
:1012B600FD122BB99062A8E004F0E0C394244032FA
:1012C6009062A67401F0229062AAE0C39442402282
:1012D600E4F09062A8E094064008E024FBFF7D015C
:1012E60080079062A8E0FFE4FD122C0F9062A8E050
:0212F60014F0F2
:0112F80022D3
:100930009062BEE064016003020B7D9062ABE070E8
:100940007704F09062B27407F09062B67411F07F91
:10095000011237D77F011238A37F011238B37F010C
:100960001238C37F011238D37F011238E37F01129E
:1009700037FD7F011238F37F011239037F011238EE
:10098000437F011237C47F011238537F011239416E
:100990007F011238637F011238737F011238837F21
:1009A000011239507F0112395F7F011238937F01A4
:1009B0001236467F011224BD9062ADE004F0E0C320
:1009C00094965003020AB9E4F0123913E4FF120EB0
:1009D000ED1239137F01120EED1239137F02120E40
:1009E000ED123913E4FF1219A01239137F01121905
:1009F000A01239137F021219A01239137F031219A2
:100A0000A01239137F041219A01239137F0512198D
:100A1000A09062B1E0FF7D0112299C9062ACE0FFE2
:100A20001226209062ACE0FDE4FF1214069062AC46
:100A3000E0FD7F011214069062ACE0FDE4FF1215A8
:100A4000039062ACE0FD7F011215039062B2E0FFFB
:100A50007D011228829062B2E0FF7D011228E090B1
:100A600062B3E0FF7D01122C0F9062B3E0FF7D01C5
:100A700012293E9062B4E0FF7D01122C659062ACB9
:100A8000E0C394095003E004F09062B1E0C394081D
:100A90005003E004F09062B2E0D394004003E0140D
:100AA000F09062B3E0C394055003E004F09062B4A8
:100AB000E0C394055003E004F09062AEE004F090CF
:100AC00062B7E070249062B5E0B41A1D7D017F1A10
:100AD000122B639062AEE0C394FF405E9062B774E5
:100AE00001F0E49062AEF080519062B7E070239024
:100AF00062AEE0C39425401AE4F09062B5E0FF7D59
:100B000001122B639062B5E0C3941A502DE004F0FB
:100B100080289062B7E0B401219062AEE0C3940CEB
:100B20004018E4F09062B5E0FFE4FD122B639062A0
:100B3000B5E0D394004003E014F09062AFE004F01D
:100B4000E0C394374018E4F09062B6E0FF7D0112F4
:100B50002BB99062B6E0D394004003E014F09062A9
:100B6000B7E0B401189062B5E07012A3E0700E9087
:0D0B700062B012391B40069062BE7405F0A1
:010B7D002255
:102DB7007E007F077D007B017A6279B81204D79085
:102DC70062B87401F09062B8E0603775D9AAA3E0E1
:102DD700C3940140F0E4F01211B61209309062BEBC
:102DE700E0B40519E4FF1237D7E4FF1238A3E4FF74
:102DF7001238B3E4FF1238C3E49062B8F012351DFD
:032E070080C32263
:1008B50042619A000042619C00006028619E000030
:1008C5000000000000000000000000000000000023
:1008D5000000000000000000000000000000000013
:1008E5000000000000004161C600602861C70000EB
:1008F50000000000000000000000000000000000F3
:1009050000000000000000000000000000000000E2
:100915000000000000004161EF0041619600416167
:0A09250097004161980041619900BC
:102E0A0025E0249EF582E43461F583EEF0A3EFF029
:102E1A002225E024C7F582E4346122F583E0FEA38B
:102E2A00E0FFE4FCFD02028B9062EFE0FEA3E0FF0C
:102E3A00229062F1E0FF906199E0C39F22E47B1443
:102E4A00FAF9F80203EA1233FCA3EFF0906199222F
:0B39CD00E4FDED122E0A0DEDB414F71E
:0139D80022CC
:1035E800906196E0700504F00239CD9061C6E01252
:1035F8002E0A9061C6E004F0E0C394144002E4F09F
:01360800229F
:10312D009062F412040E00000000E49062F3F0903F
:10313D0062F41203F69062F3E025E0249EF582E43A
:10314D003461122E259062F41204029062F3E004B1
:0E315D00F0E0B414DA9062F4122E470203314F
:0E397D00E4FDED122E1B122E130DEDB414F40A
:01398B002219
:1034F900906197E0700504F002397D9061EFE01268
:103509002E1B122E139061EFE004F0E0C3941440D7
:0335190002E4F0D9
:01351C00228C
:10328E009062F412040E00000000E49062F3F090DD
:10329E0062F41203F69062F3E0122E1B122E2590AA
:1032AE0062F41204029062F3E004F0E0B414E090D1
:0832BE0062F4122E47020331F5
:10375700C390619BE094FF90619AE094FF5007E467
:0737670075F00112023D2282
:10376E00C390619DE094FF90619CE094FF5007E44C
:07377E0075F00112023D226B
:1033FC00C3EF9480EE943E40047D098020C3EF948B
:10340C0028EE94234015EF24D8FFEE34DCFE7C0329
:0F341C007DE81201E8EF2402FD8002E4FDAF0518
:01342B00227E
:1017DD00E49062F1F0A3F0C390619BE0946490619A
:1017ED009AE0940050030218C3E4F0A3F012312DD7
:1017FD00E4FCFD7B407ADB7902F81202A6E47B0A59
:10180D00FAF9F8120331E4FB7A10F9F8120331EF0B
:10181D002464FFE43E9062EFF0A3EFF0906198E056
:10182D00702104F0122E3212397D122E32122E50EA
:10183D00F0E070059062D204F0906199E0FF1234EF
:10184D005B8006122E321234F912328E9062EFEE58
:10185D00F0A3EFF0122E50E06F601BE0FF9062F1ED
:10186D00E0FED39F4009906199E0FFEE9F80031247
:10187D002E3B9062F2F0E490619CF0A3F0122E3BAF
:10188D005005E004F0800B906199E0D39F4003E098
:10189D0014F0906199E070119062D2E07004FF1223
:1018AD00345B9062D27401F022E49062D2F09061C8
:0618BD0099E0FF12345B0C
:0118C3002202
:101DFF000231A7E493A3F8E493A34003F68001F222
:101E0F0008DFF48029E493A3F85407240CC8C333E4
:101E1F00C4540F4420C8834004F456800146F6DFB3
:101E2F00E4800B0102040810204080900521E47E1D
:101E3F00019360BCA3FF543F30E509541FFEE493A8
:101E4F00A360010ECF54C025E060A840B8E493A36F
:101E5F00FAE493A3F8E493A3C8C582C8CAC583CA9A
:101E6F00F0A3C8C582C8CAC583CADFE9DEE780BE52
:01092F0000C7
:10004500E709F608DFFA8046E709F208DFFA803E9D
:1000550088828C83E709F0A3DFFA8032E309F6088A
:10006500DFFA8078E309F208DFFA807088828C83F2
:10007500E309F0A3DFFA806489828A83E0A3F608A6
:10008500DFFA805889828A83E0A3F208DFFA804C80
:1000950080D280FA80C680D4806980F28033801057
:1000A50080A680EA809A80A880DA80E280CA8033C0
:1000B50089828A83ECFAE493A3C8C582C8CCC58338
:1000C500CCF0A3C8C582C8CCC583CCDFE9DEE78008
:1000D5000D89828A83E493A3F608DFF9ECFAA9F087
:1000E500EDFB2289828A83ECFAE0A3C8C582C8CCDD
:1000F500C583CCF0A3C8C582C8CCC583CCDFEADEF6
:10010500E880DB89828A83E493A3F208DFF980CC57
:1001150088F0EF60010E4E60C388F0ED2402B40450
:100125000050B9F582EB2402B4040050AF232345F7
:0601350082239000957387
:10013B00BB010689828A83E0225002E722BBFE02C2
:09014B00E32289828A83E49322F5
:10015400BB010CE58229F582E5833AF583E0225060
:1001640006E92582F8E622BBFE06E92582F8E222AA
:0D017400E58229F582E5833AF583E49322C4
:10018100BB010FF8E58229F582E5833AF583E02882
:10019100F0225009C58229F8E58226F622BBFE0924
:1001A100C58229F8E22582F222F8EA2583F583E95E
:0301B1009328226E
:1001B400BB010689828A83F0225002F722BBFE012A
:0201C400F32224
:1001C600F8BB010DE58229F582E5833AF583E8F06F
:1001D600225006E92582C8F622BBFE05E92582C81B
:0201E600F22203
:1001E800BC000BBE0029EF8DF084FFADF022E4CCFB
:1001F800F875F008EF2FFFEE33FEEC33FCEE9DECC4
:10020800984005FCEE9DFE0FD5F0E9E4CEFD22ED09
:10021800F8F5F0EE8420D21CFEADF075F008EF2F53
:10022800FFED33FD4007985006D5F0F222C398FD44
:050238000FD5F0EA22E1
:10023D00C5F0F8A3E028F0C5F0F8E582158270024C
:06024D001583E038F022E9
:10025300BB0110E58229F582E5833AF583E0F5F0E9
:10026300A3E0225009E92582F886F008E622BBFEC6
:100273000AE92582F8E2F5F008E222E5832AF5830C
:08028300E993F5F0A3E99322D1
:0D028B00EF2BFFEE3AFEED39FDEC38FC22C2
:0E029800C3EF9BFFEE9AFEED99FDEC98FC2261
:1002A600E88FF0A4CC8BF0A42CFCE98EF0A42CFCF7
:1002B6008AF0EDA42CFCEA8EF0A4CDA8F08BF0A475
:1002C6002DCC3825F0FDE98FF0A42CCD35F0FCEBD4
:1002D6008EF0A4FEA9F0EB8FF0A4CFC5F02ECD3999
:0F02E600FEE43CFCEAA42DCE35F0FDE43CFC2206
:1002F50075F008758200EF2FFFEE33FECD33CDCCC0
:1003050033CCC58233C5829BED9AEC99E582984042
:100315000CF582EE9BFEED9AFDEC99FC0FD5F0D61F
:10032500E4CEFBE4CDFAE4CCF9A88222B800C1B949
:100335000059BA002DEC8BF084CFCECDFCE5F0CB87
:10034500F97818EF2FFFEE33FEED33FDEC33FCEBC0
:1003550033FB10D703994004EB99FB0FD8E5E4F97B
:10036500FA227818EF2FFFEE33FEED33FDEC33FC68
:10037500C933C910D7059BE99A4007EC9BFCE99A5C
:10038500F90FD8E0E4C9FAE4CCFB2275F010EF2FA1
:10039500FFEE33FEED33FDCC33CCC833C810D707A1
:1003A5009BEC9AE899400AED9BFDEC9AFCE899F8DC
:0E03B5000FD5F0DAE4CDFBE4CCFAE4C8F9226F
:1003C300EB9FF5F0EA9E42F0E99D42F0EC6480C8B1
:0603D30064809845F02251
:1003D900EB9FF5F0EA9E42F0E99D42F0E89C45F07A
:0103E90022F1
:0C03EA00E0FCA3E0FDA3E0FEA3E0FF2286
:0C03F600E0F8A3E0F9A3E0FAA3E0FB228A
:0C040200ECF0A3EDF0A3EEF0A3EFF0226D
:10040E00A8828583F0D083D082120425120425128F
:10041E000425120425E473E493A3C583C5F0C583B4
:10042E00C8C582C8F0A3C583C5F0C583C8C582C838
:01043E00229B
:0C043F00A42582F582E5F03583F58322C8
:09044B00E0FBA3E0FAA3E0F922B2
:10045400F8E0FBA3A3E0F925F0F0E5821582700231
:070464001583E0FA38F022D5
:09046B00EBF0A3EAF0A3E9F02292
:10047400BB010DE58229F582E5833AF58302044B3D
:100484005007E92582F8020503BBFE07E92582F837
:1004940002050CE58229F582E5833AF58302051508
:0604A4008A838982E473E3
:1004AA00EC8EF0A4CCC5F0CCCDF8EFA4CEC5F02DDF
:1004BA00FDE43CFCE8A42EC8C5F03DFDE43CFCEF9D
:0D04CA00A4FFE5F028FEE43DFDE43CFC222B
:1004D700EF4E6012EF60010EEDBB010B89828A833C
:1004E700F0A3DFFCDEFA2289F05007F709DFFCA949
:0C04F700F022BBFEFCF309DFFCA9F022A0
:09050300E6FB08E6FA08E6F9221D
:09050C00E2FB08E2FA08E2F92220
:0C051500E493FB740193FA740293F92242
:00000001FF
