:03000000021202E7
:10120200787FE4F6D8FD9060007F007E07E4F0A3CB
:0A121200DFFCDEFA7581210212579D
:0C000300000000000000000000000000F1
:0B1E5900EF1FAC0670011E4C70F6225B
:10002700AB07AA06EB1BAE0270011A4E600C7FAA43
:0B0037007E05121E5975D9AA80EA222E
:100E8400907120E04480F07F057E00121E59E4FF3B
:100E9400FE12002775A75575AC5C9071327450F042
:100EA4009071307403F0907136742FF090715C740B
:100EB40003F090715BE054FCF07F18EF2466FDE4CE
:100EC40034718D82F583E4F00FEFB433EE9040116A
:100ED400E4935407FF90711CE054F84FF0904017CE
:100EE400E493547FFF90711DE054804FF0904010C4
:100EF400E493FF5401C43333335480FE907123E0F0
:100F0400547F4EF0EFC313543F4440FFA3E054809A
:100F14004FF0904012E493FF540FFE907146E0545A
:100F2400F04EF0EFC4540FFF90714FE054F04FF0C7
:100F3400904013E493543FFF907140E054C04FF04D
:100F4400904014E493907126F0904015E4939071CE
:0B0F540028F0904016E49390712AF002
:010F5F00226F
:1018BD00E5B154CF42B153A8BFD2AF75D102789CD8
:1018CD00E254E3F2E2441CF2E254FCF2E24401F28F
:1018DD0008E2547FF2E24420F278A17401F2187408
:1018ED0076F2789CE2541FF2E244C0F243A8402203
:030021000217AD16
:1017AD00C0E0C0F0C083C082C0D075D000C000C002
:1017BD0001C002C003C004C005C006C007789DE289
:1017CD0030E707E24480F2121EACD007D006D005F8
:1017DD00D004D003D002D001D000D0D0D082D0839D
:0517ED00D0F0D0E03255
:101A8F00E5B254FC42B253A9FED2AF75D1049071A6
:101A9F00057409F0907104745FF0907101E0547F48
:101AAF00F0E04420F0907100E0E4F0E044C1F04336
:031ABF00A9012258
:03002400021CD1EA
:101CD100C0E0C083C082907101E030E704E044803D
:081CE100F0D082D083D0E03284
:0E1DFE0090621EEFF0121E8B90621EE0FF221C
:101C840078C2E254FCF2E24401F290717EE0440432
:0B1C9400F075D60175D59F75D21022A7
:081E8B00E5D430E4FB8FD722FF
:040835004162CF004D
:0A1E6F007869E24401F29062CF228C
:101B510078C2E2440CF278D3E24430F2786AE2448B
:101B610079F27591FF9071227407F0439E70439949
:071B71004043AA04D2AF2299
:101AF3005399E0EF24FE601304701E907123E054A9
:101B0300D8F0E04459F0439901800E907123E054DA
:101B1300D8F0E0445BF043990E7869E24448F2223E
:101979009062CFE014601914601D1460261460048D
:10198900240470257F01121AF39062CF7401F022AA
:10199900121E6F7402F0227F02121AF39062CF7442
:0A19A90003F022121E6F7404F022F6
:0300420002145055
:10145000C0E0C0F0C083C082C0D075D000C000C062
:0D14600001C002C003C004C005C006C007E3
:10146D00786BE230E142E24402F2AF93EF75F01097
:10147D00A4FFE594C4540FFDEF4DFF90621FE5F0FE
:10148D00F0A3EFF09062CFE024FC601124027018FD
:10149D0090621FE0FEA3E0FF121C28800B90621FDC
:0814AD00E0FEA3E0FF121B7832
:1014B500D007D006D005D004D003D002D001D0008B
:0B14C500D0D0D082D083D0F0D0E03235
:101BE6009062D6F09062C60203D4900006120154A9
:101BF600FE9000080201549000091201C690000CE4
:011C060022BB
:100B1200E49062D6F07FFFA374FFF09062C61203E6
:100B2200F4900001120154FE12013BFDEEC39D50F0
:100B320003020CA4121BEA900001E41201C6900009
:100B42000E1203FD12042DEFF460089062C57423A7
:100B5200F080099062C5E06003E014F0121BEA9095
:100B620000031201546F6015900005120154600DCC
:100B7200900004E41201C6900003020CA09000054C
:100B8200120154FE900004120154C39E500B121B1A
:100B9200EA9000047401020181121BEA9000021221
:100BA20001546F6048EFF4701C121BF0C39E400AA0
:100BB2007405121BE69000028061121BEA90000A83
:100BC2007401020C97121BEA9000087401121C00B7
:100BD2001201546F9062C6600C1203D47401121B8E
:100BE200FDEF020C971203D4900009803DEFF470E0
:100BF20041121BEA900009120154D39400500302DF
:100C02000C9A90000B120154FE90000A120154D368
:100C12009E40117401121BE690000C120154906266
:100C2200D7F08054121BEA90000A7401120181026B
:100C32000C9A121BEA121BF7C394FF50089000088B
:100C42007401120181121BF0B506089062D674037A
:100C5200F08020121BEA900007121BF36E7039908D
:100C620062D67404121BE990000612015490000827
:100C72001201C69062D7EFF0121BEAE4121BFD7458
:100C8200FF1201C69062D7E09000111201C6906275
:100C9200D6E09000121201C6121BEA900002EF1277
:020CA20001C689
:010CA400222D
:10000F0075AF3F8FAF75AEB975A402E5A530E1FBB3
:01001F0022BE
:101A24009062AD1203F475AF3F8FAF9062B0E0C324
:101A340094014022E5A530E0FB9062ADE475F0012D
:101A44001203DD12013BF5A675AEB975A4019062CF
:071A5400B0E014F080D52280
:101A5B009062B21203F49062B5E06027AE070FEE0E
:101A6B002400FDE4343F8D82F583E493FE9062B253
:101A7B00E475F0011203DDEE1201B49062B5E014CF
:041A8B00F080D322F2
:1008390042623D00004C62210000000000000000FF
:100849000000000050622D000000000000000000C0
:070859000000000000000098
:101B23001203D49061FEE075F002A4F58285F08380
:101B33001201FEFF227B017A62792D9061FA120372
:0E1B4300F49061FD227E007D007B01020460B3
:101D1900C390623EE094FF90623DE094FF5007E477
:071D290075F0011201E82230
:061160009061F61203F499
:10116600C291C292E49061FEF09061F6121B239048
:101176006200E5F0F0A3EFF09061FA121B23906293
:1011860002E5F0F0A3EFF0E49061FFF09061FEE07D
:10119600FFEDD39F400D906200E030E703D380015E
:1011A600C392839061FEE0FF9061FDE0D39F400D06
:1011B600906202E030E703D38001C39295D291900A
:1011C6006201E025E0F0906200E033F0906203E017
:1011D60025E0F0906202E033F0C2919061FFE004F6
:1011E600F0E0B410A79061FEE004F0E0640A60034A
:0B11F60002116FD292C292C283C29518
:0112010022CA
:101BC300C390623EE0941990623DE094004013E4B8
:101BD300F0A3F0121B387408F07A6279217D0612A3
:031BE3001160226C
:10100C007F0C7A627921121B487F107A62792D123B
:10101C001B4878D2E254F3F2E24404F2907187E474
:10102C00F078C2E2543FF2E24440F2907181E4F075
:10103C0078D3E254F3F2E24404F290718BE4F018AA
:10104C00E254CFF2E24410F2907188E4F008E254DA
:10105C00CFF2E24410F290718C740AF07856E4F2FC
:10106C00782774BBF218747FF27833E4F218F278B4
:10107C0019F218E24401F27811E24401F27817E215
:10108C004401F27812E24401F27814E24401F2C213
:10109C0083C295C291C292121B387406F07A62799F
:0A10AC0021FD1211607F64021AC2D8
:101AC200C374649FFFE49400FE3395E0FDFCE47B65
:101AD2007F7ABBF9F8120251E47B64FAF9F8120238
:101AE200DCAC06EC7833F218EFF27817E24401F23C
:011AF20022D1
:100860004261CB0000602861CD0000000000000064
:100870000000000000000000000000000000000078
:100880000000000000000000000000000000000068
:09089000004161F5004161CA005C
:0C1E410025E024CDF582E43461F5832215
:101DCF00E4FDED121E41EEF0A3EFF00DEDB414F2B1
:011DDF0022E1
:101B78009061CAE0700504F0021DCF9061F5E01293
:101B88001E41EEF0A3EFF09061F5E004F0E0C3949D
:051B9800144002E4F01E
:011B9D002225
:10162100E49062B6F0A31203A300000000E490620C
:10163100B6F09062B712038B9062B6E0121E41E0E1
:10164100FEA3E0FFE4FCFD1202369062B71203979D
:101651009062B6E004F0E0B414D89062B712037F50
:10166100E47B14FAF9F81202DC9062B71203979046
:0516710062B702037FD7
:101D3000C39061CCE094FF9061CBE094FF5007E446
:071D400075F0011201E82219
:10129C00E4FFFE9062D0F0A3F01216217C0B7DB817
:1012AC00120433E4FB7A10F9F81202DC9062D0EEEF
:1012BC00F0A3EFF0C39420EE9403403C9062D0E096
:1012CC00FEA3E0FFD394D0EE9407502CEF24E0FF64
:1012DC00EE34FCFEE434FFFDE434FFFCE47B08FA5E
:1012EC00F9F8120251E47B78FAF9F81202DCC374B3
:1012FC00649F9062D2F080259062D0E0FEA3E0FF64
:10130C00C394D0EE94074006A37414F0800FD3EF6F
:10131C009420EE940350069062D27464F09062D2E2
:05132C00E0FF021AC2FF
:101D4700C39061CCE094D09061CBE094074007E466
:071D5700F0A3F012129C2220
:031EA90002129C86
:0B1E64007379732072657365740A00C7
:0100200022BD
:101C4900120020121C847BFF7A1E796412053B1254
:0F1C5900100C1218BD121A8F7F0A7E000200278E
:101C0700120E8475D95590715EE054FEF075D9BBFC
:101C1700121C49121E93121E7975D9AA121E9B8097
:011C2700F8C4
:10154E0078E0E24440F278E3E254CFF278C0E2442D
:10155E0040F278C3E254CFF278C0E24480F278C30E
:10156E00E2543FF278D0E24401F278D2E254FCF237
:10157E0078D0E24408F278D2E2543FF278D0E244D6
:10158E0010F278D3E254FCF278F0E24401F278F2F1
:10159E00E254FCF278E0E24480F278E3E2543FF267
:1015AE0018E2543FF2E254F3F208E254F3F218E276
:0415BE0054CFF222F2
:10171D00208606E4906280F0222087079062807414
:10172D0001F0222090079062807402F0222093072E
:10173D009062807403F0222094079062807404F00C
:10174D002220B0079062807405F02290628020A75D
:09175D00047406F02274FFF0226E
:10089900C10A446190000000004461940000000016
:1008A9004461980000000044619C0000000041611F
:1008B900A000602861A10000000000000000000005
:1008C900000000000000000000000000000000001F
:1008D900000000000000000000000000000041616D
:0908E900C900C10942618E000042
:10187B0090629EE0FF24A1F582E43461F58322900F
:10188B006296FEFDFC02038B12037FEF2401FFE443
:10189B003EFEE43DFDE43CFC22E4FDFC12038BC365
:1018AB0002036E12038B0202361202DC9062960266
:0218BB00039791
:101DBA00E4FE74A12E121882EFF00EEEB428F3E4BA
:041DCA009061C9F06B
:011DCE0022F2
:101CE9009061C9E0121880EFF09061C9E004F0E05A
:081CF900C394284002E4F0222C
:1010B60090629F1203A300000000E49062A3F0A3D5
:1010C60074FFF0E490629EF090629F12038B906230
:1010D6009EE0121880E0FFE4FCFDFE1202369062EC
:1010E6009F12039712187BE0FE9062A3E0C39E5006
:1010F6000B74A12F121882E09062A3F012187BE005
:10110600FE9062A4E0D39E400B74A12F121882E0D9
:101116009062A4F090629EE004F0E0642870A990CA
:10112600629F12037FC006C0079062A4E0FF906230
:10113600A3E02FFFE433AB07FA3395E0F9F8D007C5
:10114600D00612024390629F120397E47B26FAF9B7
:0A115600F890629F12037F0202DC92
:0D1E1A0078D3E254F3F278D0E24420F222B3
:1019B30090619812037F9061941218AE906198120F
:1019C30003979061941203A30000000090619C129E
:1019D300037F9061901218AE90619C1203979061FF
:0919E300901203A3000000002291
:1015C20090618EE475F0011201E8C390618FE0949E
:1015D2001490618EE09400402BE4F0A3F0906194AB
:1015E2001218939061941203977F587E029061942F
:1015F2001218A4400F200A0C9061941203A3000059
:101602000000D20A30951520090F906190121893AC
:0E1612009061901203971219B3D20922C209F7
:0116200022A7
:100CA5009062961203A30000000090629A1203A3BB
:100CB500000000007FF47E019061981218A4500690
:100CC500200A03020DA4906276E0FFE4FCFDFE908D
:100CD500619C12038B120251E47B107A27F9F812FA
:100CE5000251E47B7A7A06F9F81202DC90629A12D4
:100CF5000397300A23E4FF90619C12188DC31203F9
:100D05006E90629660091203A300000001802A120A
:100D150003A3000000008021E47F24FEFDFC906217
:100D25009A12038B120251E47B0AFAF9F81202DCDB
:100D350090619812038B1218B490628E12037F9003
:100D4500629A1218AE90628E12039790619C1203FC
:100D5500A3000000009061981203A300000000C2E8
:100D65000AE4FF12188AD312036E4012E47F66125A
:100D7500188A120251E47B64FAF9F81218B4E47F78
:100D8500C712188AD312036E400A9062961203A303
:0F0D9500000000C790629612037F90627CEFF01F
:010DA400222C
:1008F200426268000042626A0000C10B4162570016
:080902004162580041625900F6
:101D5E0090626402038BE475F0010201E89062D395
:071D6E00E0FF906258E02243
:0D1E270078C2E254CFF278C0E24404F22207
:1018FD0090626012037F90625A12038B120236902F
:10190D00626012039790625A1203A3000000001246
:10191D001D5E90625EE0FEA3E0FFE4FCFD12023668
:0E192D00906264120397E490625EF0A3F022D1
:10167600906257E004F0E0C394144020E4F09062D6
:101686005E121D65C390625FE0945890625EE094BE
:10169600024009200C06E4F0A3F0D20C308222208E
:1016A6000B1C90625A12037FEF2401FFE43EFEE416
:1016B6003DFDE43CFC90625A1203971218FDD20BD2
:0316C60022C20B32
:0116C90022FE
:1014D000E47FF47E01FDFC121D5EC312036E500317
:1014E000300C6A300C0EC20C9062C91203A30000CB
:1014F0000000801CE47FBC7EF7FDFC90626012035C
:101500008B120251121D5E1202DC9062C912039707
:101510009062601203A3000000009062641203A3B3
:1015200000000000E47FFF7EFFFDFC9062C9120313
:101530008BC312036E400A9062C91203A30000FF1E
:0D154000FF9062C912037F9062781203973A
:01154D00227B
:101B9E00C3906269E094FF906268E094FF50031274
:101BAE001D64C390626BE094FF90626AE094FF50F4
:051BBE0003121D64226A
:101C9F00E47BF47A01F9F890627812037F1202DC88
:081CAF00EFD3941840027F18E6
:011CB700220A
:1013C400E49062D3F0906259E0700A04F0121C9F1A
:1013D400906258EFF0121C9F9062D3EFF07008A354
:1013E400F0A37432F0802F906258E0FF9062D3E053
:1013F400FED39F4005EE9FFF8006121D6BC39FFF27
:10140400EFD394017E0050047F6480027F329062A7
:10141400D4EEF0A3EFF09062D4E0FEA3E0FFC3901B
:101424006269E09F906268E09E4020E4F0A3F012BD
:101434001D6BFE9F5004E004F022EED39F400CEE9F
:0B144400D394004006906258E014F0C2
:01144F00227A
:04090A0041628D00B9
:101D010012037FEF2401FFE43EFEE43DFDE43CFCD1
:081D11002212038BC302036ED2
:101D7500906274E06009A3E0600CE0B40108229071
:071D85006275E06001E0223D
:10133100C3906293E09488906292E09413400F30DE
:101341000D0C121C68C20DE4906292F0A3F0E47FD0
:10135100E87E03FDFC90628E121D1240657F187EAF
:10136100C67D9A7C3B90626C121D12500C90626C8F
:10137100121D0190626C1203977F9C7EE07DF57CCB
:1013810005906270121D12500C906270121D019036
:10139100627012039790628E12037FC3EF94E8FF8D
:1013A100EE9403FEED9400FDEC9400FC90628E122D
:0213B1000397A0
:1013B30090628DE004F0E0C394644004E4F0D20D45
:0113C3002207
:10090E00426138000042613A00006028613C0000FC
:10091E0000000000000000000000000000000000C9
:10092E0000000000000000000000000000000000B9
:10093E000000000000004161640041613500602844
:10094E0061650000000000000000000000000000D3
:10095E000000000000000000000000000000000089
:10096E000000000000000000000041618D004161A8
:06097E0036004161370064
:1017660025E0243CF582E43461F583EEF0A3EFF046
:101776002225E02465F582E4346122F583E0FEA3A8
:10178600E0FFE4FCFD0202361216CA9062D8EFF0C2
:1017960090613722E47B14FAF9F802037F9062D84D
:0717A600E0FF906137E02233
:0B1E4D00E4FDED1217660DEDB414F774
:011E58002267
:101C2800906135E0700504F0021E4D906164E01289
:101C38001766906164E004F0E0C394144002E4F095
:011C48002279
:10193B009062BC1203A300000000E49062BBF09025
:10194B0062BC12038B9062BBE025E0243CF582E481
:10195B0034611217819062BC1203979062BBE00452
:0E196B00F0E0B414DA9062BC12179A0202DCAB
:101D8C00C3906139E094FF906138E094FF5007E410
:071D9C0075F0011201E822BD
:101DA300C390613BE094FF90613AE094FF5007E4F5
:071DB30075F0011201E822A6
:0E1DE000E4FDED12177712176F0DEDB414F439
:011DEE0022D2
:101CB80090618DE012177712176F90618DE004F034
:091CC800E0C394144002E4F02290
:1019EC009062C11203A300000000E49062C0F0906A
:1019FC0062C112038B9062C0E012177712178190AC
:101A0C0062C11203979062C0E004F0E0B414E0905D
:081A1C0062C112179A0202DCFC
:1016CA00E4FDC3EF94AAEE940540028043C3EF946D
:1016DA00DDEE940440047D018036C3EF9410EE944D
:1016EA000440047D028029C3EF9443EE940340042E
:1016FA007D03801CC3EF9476EE940240047D04803F
:10170A000FC3EF94A9EE940140047D0580027D0683
:02171A00AF0519
:01171C0022AA
:100DA500E49062D8F0A3F0C3906139E094C89061F3
:100DB50038E094005003020E83E4F0A3F012193BCF
:100DC5007C077DD0120433E4FB7A10F9F81202DCBB
:100DD500AB07AA06906136E0701C04F0121DE01204
:100DE500178EF0700A90627FE0701204F0800EE4B6
:100DF50090627FF08007AE02AF03121CB81219ECA7
:100E050012178EE0FE6F60189062D8E0FFD39E4007
:100E150006EF9EA3F080091217A3C39F9062D9F035
:100E25009062D9E0FFC39402400E90613BE0948844
:100E350090613AE094134046EFB4010FC390613BD3
:100E4500E0942090613AE0944E4033E490613AF0AA
:100E5500A3F01217A3FEC39F5005E004F0800BEE2C
:100E6500D39F4006906137E014F0906137E0700938
:0E0E750090627FE0700804F022E490627FF04B
:010E8300224C
:1009840055626C0000000000000000000000000040
:0809940000000000000000005B
:101837007B017A6279819062B5740CF0E4FF121A29
:101847005B90628CE0B4C513786C7C627D017B0190
:101857007A6279817E007F0C0201159062747401AF
:10186700F090627774C5F0E4906275F0A37469F044
:03187700121C68D8
:01187A00224B
:101C680090627774C5F0E4FF12000F7B017A627905
:0C1C78006C9062B0740CF0E4FF021A24BF
:10099C004A60053F065B4F666D7D077F6F456000C3
:1009AC00000000000042600F0000604260110A0568
:1009BC000A02090209040907090A090908020804BC
:1009CC00080708060809080A080C080D060A060993
:1009DC00060D060F000500030002010D010C0103BA
:1009EC000102010102040207020602080209020ABE
:1009FC00603060530A070A060A040A030A010A0057
:100A0C00090009030905090B090808010803080571
:100A1C000808080B080E060406050606060C060E4A
:100A2C00000600045A608305090706070707080932
:100A3C0001090C090D0800080F0607060200070142
:100A4C000B4E609D02020203020C020E020F02000A
:100A5C000201602A60AB0000090E090F00000000C3
:100A6C00000000000603070F070C0709070B070E11
:100A7C00070D060107030704070507010700070216
:100A8C00605460D505020503050E050C050D050423
:100A9C00050F040C040B05050507050605010500EB
:100AAC00040F040E040604080409040D040A0400CF
:100ABC00040104040407040504020403030F030ED9
:100ACC00030C0309030A030D030B030003020305C4
:100ADC0003070306030103034C61290A0F0A0E0ADC
:070AEC000C0A0B0A0A0A09BB
:091E790074FF906221F0A3F02235
:100AF30053623F0A0000000003324100000000007F
:0E0B030002FF1E82000045625201010203043F
:0F1DEF00EC75F005A42452F582E43462F58322EA
:0D1E340078C0E24420F278C3E254F3F222B9
:091E82002085037F01227FFF226D
:1017F200E4FEFCFBEDB401030B8016EDB403047BA5
:1018020002800EEDB404047B038006EDB405027B76
:1018120004ECC39401501B121DEFE0B50711121D19
:10182200EFE5822BF582E43583F583E0FE80030C3D
:0418320080DFAF069E
:01183600228F
:100F6000906250E0700302100BE0FFA3E0FD121747
:100F7000F2E4906250F0A3F0EF24FE6053046003AB
:100F800002100B9062ABE07016906274E070047F08
:100F90000180027F00906274EFF0121C68806990FB
:100FA00062ABE0B40111906275E0700404F0805807
:100FB000E4906275F080519062ABE0B402109062F0
:100FC00076E02405F0E0D394B4403D7432F08038EC
:100FD0009062ABE0701A906274E0B401077F011276
:100FE0001EA380249062701203A3000000008015ED
:100FF0009062ABE0B401057402F080099062ABE04E
:0B100000B40205E4F0121C68121E0C84
:01100B0022C2
:081E9300E49062ABF0021E0CAA
:031EAC00021D19FB
:061EA3009062ABEFF0229B
:081E9B009062ABE0FF021BC3E3
:0E1E0C00E49062A5F0A3F09062A9F0A3F0228A
:10121C00021C07E493A3F8E493A34003F68001F2C5
:10122C0008DFF48029E493A3F85407240CC8C333D3
:10123C00C4540F4420C8834004F456800146F6DFA2
:10124C00E4800B0102040810204080900835E47EF5
:10125C00019360BCA3FF543F30E509541FFEE49397
:10126C00A360010ECF54C025E060A840B8E493A35E
:10127C00FAE493A3F8E493A3C8C582C8CAC583CA89
:10128C00F0A3C8C582C8CAC583CADFE9DEE780BE41
:010B110000E3
:10004500E709F608DFFA8046E709F208DFFA803E9D
:1000550088828C83E709F0A3DFFA8032E309F6088A
:10006500DFFA8078E309F208DFFA807088828C83F2
:10007500E309F0A3DFFA806489828A83E0A3F608A6
:10008500DFFA805889828A83E0A3F208DFFA804C80
:1000950080D280FA80C680D4806980F28033801057
:1000A50080A680EA809A80A880DA80E280CA8033C0
:1000B50089828A83ECFAE493A3C8C582C8CCC58338
:1000C500CCF0A3C8C582C8CCC583CCDFE9DEE78008
:1000D5000D89828A83E493A3F608DFF9ECFAA9F087
:1000E500EDFB2289828A83ECFAE0A3C8C582C8CCDD
:1000F500C583CCF0A3C8C582C8CCC583CCDFEADEF6
:10010500E880DB89828A83E493A3F208DFF980CC57
:1001150088F0EF60010E4E60C388F0ED2402B40450
:100125000050B9F582EB2402B4040050AF232345F7
:0601350082239000957387
:10013B00BB010689828A83E0225002E722BBFE02C2
:09014B00E32289828A83E49322F5
:10015400BB010CE58229F582E5833AF583E0225060
:1001640006E92582F8E622BBFE06E92582F8E222AA
:0D017400E58229F582E5833AF583E49322C4
:10018100BB010FF8E58229F582E5833AF583E02882
:10019100F0225009C58229F8E58226F622BBFE0924
:1001A100C58229F8E22582F222F8EA2583F583E95E
:0301B1009328226E
:1001B400BB010689828A83F0225002F722BBFE012A
:0201C400F32224
:1001C600F8BB010DE58229F582E5833AF583E8F06F
:1001D600225006E92582C8F622BBFE05E92582C81B
:0201E600F22203
:1001E800C5F0F8A3E028F0C5F0F8E58215827002A2
:0601F8001583E038F0223F
:1001FE00BB0110E58229F582E5833AF583E0F5F03F
:10020E00A3E0225009E92582F886F008E622BBFE1B
:10021E000AE92582F8E2F5F008E222E5832AF58361
:08022E00E993F5F0A3E9932226
:0D023600EF2BFFEE3AFEED39FDEC38FC2217
:0E024300C3EF9BFFEE9AFEED99FDEC98FC22B6
:10025100E88FF0A4CC8BF0A42CFCE98EF0A42CFC4C
:100261008AF0EDA42CFCEA8EF0A4CDA8F08BF0A4CA
:100271002DCC3825F0FDE98FF0A42CCD35F0FCEB29
:100281008EF0A4FEA9F0EB8FF0A4CFC5F02ECD39EE
:0F029100FEE43CFCEAA42DCE35F0FDE43CFC225B
:1002A00075F008758200EF2FFFEE33FECD33CDCC15
:1002B00033CCC58233C5829BED9AEC99E582984098
:1002C0000CF582EE9BFEED9AFDEC99FC0FD5F0D675
:1002D000E4CEFBE4CDFAE4CCF9A88222B800C1B99F
:1002E0000059BA002DEC8BF084CFCECDFCE5F0CBDD
:1002F000F97818EF2FFFEE33FEED33FDEC33FCEB16
:1003000033FB10D703994004EB99FB0FD8E5E4F9D0
:10031000FA227818EF2FFFEE33FEED33FDEC33FCBD
:10032000C933C910D7059BE99A4007EC9BFCE99AB1
:10033000F90FD8E0E4C9FAE4CCFB2275F010EF2FF6
:10034000FFEE33FEED33FDCC33CCC833C810D707F6
:100350009BEC9AE899400AED9BFDEC9AFCE899F831
:0E0360000FD5F0DAE4CDFBE4CCFAE4C8F922C4
:10036E00EB9FF5F0EA9E42F0E99D42F0E89C45F0E5
:01037E00225C
:0C037F00E0FCA3E0FDA3E0FEA3E0FF22F1
:0C038B00E0F8A3E0F9A3E0FAA3E0FB22F5
:0C039700ECF0A3EDF0A3EEF0A3EFF022D9
:1003A300A8828583F0D083D0821203BA1203BA12D3
:1003B30003BA1203BAE473E493A3C583C5F0C583F8
:1003C300C8C582C8F0A3C583C5F0C583C8C582C8A4
:0103D3002207
:0903D400E0FBA3E0FAA3E0F9222A
:1003DD00F8E0FBA3A3E0F925F0F0E58215827002A9
:0703ED001583E0FA38F0224D
:0903F400EBF0A3EAF0A3E9F0220A
:1003FD00BB010DE58229F582E5833AF5830203D42D
:10040D005007E92582F802048CBBFE07E92582F826
:10041D00020495E58229F582E5833AF58302049E6F
:06042D008A838982E4735A
:10043300EC8EF0A4CCC5F0CCCDF8EFA4CEC5F02D56
:10044300FDE43CFCE8A42EC8C5F03DFDE43CFCEF14
:0D045300A4FFE5F028FEE43DFDE43CFC22A2
:1004D000E50824F9F582E43461F583E0050822900B
:1004E00061F63007039061F9E475F0011203DD0253
:1004F000013B2000E97F2ED2008018EF540F24909A
:10050000D43440D4FF30040BEF24BFB41A0050039E
:100510002461FFE50960021509050CE50C70020570
:100520000B30070E9061F6E475F0011203DDEF0267
:1005300001B4021DFE7403D2078003E4C207F5086C
:100540009061F61203F4E4F509F50BF50CE509608A
:10055000077F2012051380F5750AFFC201C200C291
:1005600002C203C205C206C2081204DFFF700D30CA
:1005700007057F00120524AF0CAE0B22B4255FC225
:10058000D5C2041204DFFF24D0B40A00501A75F05B
:100590000A780930D50508B6FF0106C6A426F6205C
:1005A000D5047002D20380D924CFB41A00EF5004CE
:1005B000C2E5D204020725D20180C6D20080C0D293
:1005C0000280BCD2D580BAD20580B47F2012051338
:1005D0002002077401B5090040F11204D0FF120592
:1005E0001302054DD208D20680951204D0FB1204E6
:1005F000D0FA1204D0F94A4B700679F67A077BFFDD
:1006000020022EE509602A7E008E82758300120189
:100610005460060EEE650A70F0C2D5EBC0E0EAC089
:10062000E0E9C0E0EE12076CD0E0F9D0E0FAD0E0EB
:10063000FB12013BFF60AAEBC0E0EAC0E0E9C0E0CA
:10064000120513D0E02401F9D0E03400FAD0E0FB29
:10065000E50A0460DCD50AD980877BFF7A077968D0
:10066000D202809C791080027908C206C2088008F4
:10067000D2D5790A8004790AC2D5E50A047002F558
:100680000AE4FAFDFEFF1204D0FC7B0820011312DD
:1006900004D0FD7B1030000A1204D0FE1204D0FFFB
:1006A0007B20EC3382D592D55013C3E43000069FF3
:1006B000FFE49EFEE42001039DFDE49CFCE4CBF8F6
:1006C000C201EC700CCFCECDCCE824F8F870F380EA
:1006D00017C3EF33FFEE33FEED33FDEC33FCEB33AA
:1006E000FB994002FB0FD8E9EB300105F8D0E0C4DC
:1006F00048B201C0E00AEC4D4E4F78207B0070C23A
:10070000EAB50A0040BCC0E012076ED0F0D0E0208D
:100710000104C4C0E0C4B201C0F01204FCD0F0D5A2
:10072000F0EB02054D1204AA05EA5306645805BB16
:100730004C05B74206684F06704406704905D04321
:08074000067655065A46065ADA
:1007480045065A4708165005BF2D05C32E05E62B4A
:1007580005C72305E42007FF2A057F48000005DEBA
:100768003F3F3F00790AA2D5200314300509B9108C
:10077800020404B9080104A2D5200602500104208D
:1007880002689202B509005034C0E07F2030031996
:100798007F30A20272067205500F1207C5C202C24C
:1007A80006C205C2087F30800F300503E9C0E01299
:1007B8000513300503D0E0F9D0E0B509CC300517B2
:1007C8007F30B9100C1205137F583004077F7880EA
:1007D80003B908031205133002057F2D0205137FA4
:1007E800202008F87F2B2006F322920280CF286E63
:1007F800756C6C2900D2011204D03001F8C201785E
:100808000930D50108F602057F2D504349581204D6
:10081800D02403B405004001E490081193120504A4
:0D082800743A120504D20375090402066437
:10046000EF4E6012EF60010EEDBB010B89828A83B3
:10047000F0A3DFFCDEFA2289F05007F709DFFCA9C0
:0C048000F022BBFEFCF309DFFCA9F02217
:09048C00E6FB08E6FA08E6F92295
:09049500E2FB08E2FA08E2F92298
:0C049E00E493FB740193FA740293F922BA
:1004AA00D083D082F8E4937012740193700DA3A3E1
:1004BA0093F8740193F5828883E4737402936860F5
:0604CA00EFA3A3A380DFF5
:00000001FF
