:030000000218F5EE
:1018F500787FE4F6D8FD9060007F007E07E4F0A3D2
:0A190500DFFCDEFA75812102194AA9
:0C000300000000000000000000000000F1
:0B2A8600EF1FAC0670011E4C70F62222
:10002700AB07AA06EB1BAE0270011A4E600C7FAA43
:0B0037007E05122A8675D9AA80EA22F5
:1012FA00907120E04480F07F057E00122A86E4FF88
:10130A00FE12002775A75575AC5C9071327450F0C7
:10131A009071307403F0907136742FF090715C7490
:10132A0003F090715BE054FCF07F18EF2466FDE453
:10133A0034718D82F583E4F00FEFB433EE904011EF
:10134A00E4935407FF90711CE054F84FF090401753
:10135A00E493547FFF90711DE054804FF090401049
:10136A00E493FF5401C43333335480FE907123E075
:10137A00547F4EF0EFC313543F4440FFA3E0548020
:10138A004FF0904012E493FF540FFE907146E054E0
:10139A00F04EF0EFC4540FFF90714FE054F04FF04D
:1013AA00904013E493543FFF907140E054C04FF0D3
:1013BA00904014E493907126F0904015E493907154
:0B13CA0028F0904016E49390712AF088
:0113D50022F5
:10231800E5B154CF42B153A8BFD2AF75D102789C72
:10232800E254E3F2E2441CF2E254FCF2E24401F229
:1023380008E2547FF2E24420F278A17401F21874A2
:1023480076F2789CE2541FF2E244C0F243A840229D
:030021000220A119
:1020A100C0E0C0F0C083C082C0D075D000C000C005
:1020B10001C002C003C004C005C006C007789DE28C
:1020C10030E70DE24480F2122AD61221351226168B
:1020D100D007D006D005D004D003D002D001D00063
:0B20E100D0D0D082D083D0F0D0E0320D
:10252600E5B254FC42B253A9FED2AF75D104907104
:10253600057409F0907104745FF0907101E0547FA6
:10254600F0E04420F0907100E0E4F0E044C1F04394
:03255600A90122B6
:0300240002285E51
:10285E00C0E0C083C082907101E030E704E04480A4
:08286E00F0D082D083D0E032EB
:0E2A2B009061D7EFF0122AAF9061D7E0FF2242
:1028110078C2E254FCF2E24401F290717EE0440499
:0B282100F075D60175D59F75D210220E
:082AAF00E5D430E4FB8FD722CF
:040835004162B70065
:0A2A9C007869E24401F29062B7226B
:1026C40078C2E2440CF278D3E24430F2786AE2440D
:1026D40079F27591FF9071227407F0439E704399CB
:0726E4004043AA04D2AF221B
:10258A005399E0EF24FE601304701E907123E05407
:10259A00D8F0E04459F0439901800E907123E05439
:1025AA00D8F0E0445BF043990E7869E24448F2229D
:102410009062B7E014601914601D14602614600403
:10242000240470257F0112258A9062B77401F0227E
:10243000122A9C7402F0227F0212258A9062B774DD
:0A24400003F022122A9C7404F0221B
:03004200021B435B
:101B4300C0E0C0F0C083C082C0D075D000C000C068
:0D1B530001C002C003C004C005C006C007E9
:101B6000786BE230E142E24402F2AF93EF75F0109D
:101B7000A4FFE594C4540FFDEF4DFF9061DBE5F049
:101B8000F0A3EFF09062B7E024FC6011240270181B
:101B90009061DBE0FEA3E0FF12277A800B9061DB0F
:081BA000E0FEA3E0FF1226EBBA
:101BA800D007D006D005D004D003D002D001D00091
:0B1BB800D0D0D082D083D0F0D0E0323B
:102759009062C4F09062AE0203D490000612015454
:10276900FE9000080201549000091201C690000C65
:01277900223D
:100B1000E49062C4F07FFFA374FFF09062AE120312
:100B2000F4900001120154FE12013BFDEEC39D50F2
:100B300003020CA212275D900001E41201C690008E
:100B40000E1203FD12042DEFF460089062AD7423C1
:100B5000F080099062ADE06003E014F012275D9030
:100B600000031201546F6015900005120154600DCE
:100B7000900004E41201C6900003020C9E90000550
:100B8000120154FE900004120154C39E500B122710
:100B90005D900004740102018112275D9000021231
:100BA00001546F6048EFF4701C122763C39E400A23
:100BB0007405122759900002806112275D90000A87
:100BC0007401020C9512275D9000087401122773BE
:100BD0001201546F9062AE600C1203D4740112279C
:100BE00070EF020C951203D4900009803DEFF47071
:100BF0004112275D900009120154D3940050030262
:100C00000C9890000B120154FE90000A120154D36C
:100C10009E4011740112275990000C1201549062E9
:100C2000C5F0805412275D90000A74011201810200
:100C30000C9812275D12276AC394FF500890000891
:100C40007401120181122763B506089062C474030F
:100C5000F0802012275D9000071227666E70399091
:100C600062C4740412275C900006120154900008BC
:100C70001201C69062C5EFF012275DE4122770746E
:100C8000FF1201C69062C5E09000111201C6906289
:100C9000C4E09000121201C612275D900002EF120C
:020CA00001C68B
:010CA200222F
:10000F0075AF3F8FAF75AEB975A402E5A530E1FBB3
:01001F0022BE
:1024BB009062951203F475AF3F8FAF906298E0C3B3
:1024CB0094014022E5A530E0FB906295E475F001A4
:1024DB001203DD12013BF5A675AEB975A40190622E
:0724EB0098E014F080D522F7
:1024F20090629A1203F490629DE06027AE070FEE9D
:102502002400FDE4343F8D82F583E493FE90629AC9
:10251200E475F0011203DDEE1201B490629DE01445
:04252200F080D32250
:1008390042622500004C620900000000000000002F
:1008490000000000506215000000000000000000D8
:070859000000000000000098
:1023D4009FFFE49400FEEF25E0FFEE33FE1203D4EA
:1023E4008F828E831201FEFF229061BDE0FF906117
:1023F400B7E0227B017A6279159061B31203F490FD
:0C24040061B6227E007D007B01020460B6
:1028A600C3906226E094FF906225E094FF5007E40F
:0728B60075F0011201E82298
:061586009061AF1203F4B6
:10158C00C374089D9061BDF09061B6E0FFC3740810
:10159C009F9061BEF0C291C292E49061B7F0E4906A
:1015AC0061B9F0A3F09061BBF0A3F01223EDC39FDF
:1015BC0040121223ED9061AF1223D49061B9E5F083
:1015CC00F0A3EFF09061BE1223F0C39F4015906121
:1015DC00BE1223F09061B31223D49061BBE5F0F0FE
:1015EC00A3EFF0E49061B8F09061B9E030E703D379
:1015FC008001C392839061BBE030E703D38001C3C9
:10160C009295D2919061BAE025E0F09061B9E03307
:10161C00F09061BCE025E0F09061BBE033F0C2914A
:10162C009061B8E004F0E0B410BE9061B7E004F053
:10163C00E0640860030215AAD292C292C283C295DA
:01164C00227B
:10273600C3906226E09419906225E094004013E469
:10274600F0A3F01223F77408F07A6279097D061275
:03275600158622C3
:1016F9007F0C7A6279091224077F107A62791512B0
:10170900240778D2E254F3F2E24404F2907187E4B8
:10171900F078C2E2543FF2E24440F2907181E4F081
:1017290078D3E254F3F2E24404F290718BE4F018B6
:10173900E254CFF2E24410F2907188E4F008E254E6
:10174900CFF2E24410F290718C740AF07856E4F208
:10175900782774BBF218747FF27833E4F218F278C0
:1017690019F218E24401F27811E24401F27817E221
:101779004401F27812E24401F27814E24401F2C21F
:1017890083C295C291C2921223F77406F07A6279E4
:0A17990009FD1215867F1E02255976
:10255900C374649FFFE49400FE3395E0FDFCE47BC3
:102569007F7ABBF9F8120251E47B64FAF9F8120296
:10257900DCAC06EC7833F218EFF27817E24401F29A
:01258900222F
:100860004261DE0000602861E0000000000000003E
:100870000000000000000000000000000000000078
:100880000000000000000000000000000000000068
:0908900000416208004161DD0035
:0C2A6E0025E024E0F582E43461F58322C9
:10296F00E4FDED122A6EEEF0A3EFF00DEDB414F2CC
:01297F002235
:1026EB009061DDE0700504F002296F906208E01242
:1026FB002A6EEEF0A3EFF0906208E004F0E0C394D2
:05270B00144002E4F09F
:0127100022A6
:101F5400E490629EF0A31203A300000000E49062E8
:101F64009EF090629F12038B90629EE0122A6EE0B4
:101F7400FEA3E0FFE4FCFD12023690629F12039779
:101F840090629EE004F0E0B414D890629F12037F44
:101F9400E47B14FAF9F81202DC90629F1203979022
:051FA400629F02037FB3
:1028BD00C39061DFE094FF9061DEE094FF5007E488
:0728CD0075F0011201E82281
:10198F00E4FFFE9062B8F0A3F0121F547C0B7DB8F9
:10199F00120433E4FB7A10F9F81202DC9062B8EE0D
:1019AF00F0A3EFF0C39420EE9403403C9062B8E0B4
:1019BF00FEA3E0FFD394D0EE9407502CEF24E0FF6A
:1019CF00EE34FCFEE434FFFDE434FFFCE47B08FA64
:1019DF00F9F8120251E47B78FAF9F81202DCC374B9
:1019EF00649F9062BAF080259062B8E0FEA3E0FF9A
:1019FF00C394D0EE94074006A37414F0800FD3EF76
:101A0F009420EE940350069062BA7464F09062BA18
:051A1F00E0FF02255963
:1028D400C39061DFE094D09061DEE094074007E4A8
:0728E400F0A3F012198F228E
:032AD30002198F56
:0B2A91007379732072657365740A008E
:0100200022BD
:10279B001200201228117BFF7A2A799112053B1225
:0F27AB0016F91223181225267F0A7E0002002736
:1027BA001212FA75D95590715EE054FEF075D9BBC4
:0E27CA0012279B122AB775D9AA122ABF80F8CF
:101E2B0078E0E24440F278E3E254CFF278C0E24447
:101E3B0040F278C3E254CFF278C0E24480F278C328
:101E4B00E2543FF278D0E24401F278D2E254FCF251
:101E5B0078D0E24408F278D2E2543FF278D0E244F0
:101E6B0010F278D3E254FCF278F0E24401F278F20B
:101E7B00E254FCF278E0E24480F278E3E2543FF281
:101E8B0018E2543FF2E254F3F208E254F3F218E290
:041E9B0054CFF2220C
:1020EC00208606E4906268F022208707906268746C
:1020FC0001F0222090079062687402F0222093076E
:10210C009062687403F0222094079062687404F063
:10211C002220B0079062687405F02290626820A7B4
:09212C00047406F02274FFF02295
:10089900C10A44617500000000446179000000004C
:1008A90044617D0000000044618100000000416155
:1008B900850060286186000000000000000000003B
:1008C900000000000000000000000000000000001F
:1008D900000000000000000000000000000041616D
:0908E900AE00C109426173000078
:1022D600906286E0FF2486F582E43461F5832290DD
:1022E600627EFEFDFC02038B12037FEF2401FFE4F6
:1022F6003EFEE43DFDE43CFC22E4FDFC12038BC300
:1023060002036E12038B0202361202DC90627E0218
:0223160003972B
:10294700E4FE74862E1222DDEFF00EEEB428F3E4D7
:042957009061AEF0ED
:01295B002259
:102876009061AEE01222DBEFF09061AEE004F0E092
:08288600C394284002E4F02293
:1017A3009062871203A300000000E490628BF0A311
:1017B30074FFF0E4906286F090628712038B90626C
:1017C30086E01222DBE0FFE4FCFDFE1202369062AB
:1017D300871203971222D6E0FE90628BE0C39E50DD
:1017E3000B74862F1222DDE090628BF01222D6E07A
:1017F300FE90628CE0D39E400B74862F1222DDE0B4
:1018030090628CF0906286E004F0E0642870A99006
:10181300628712037FC006C00790628CE0FF90626C
:101823008BE02FFFE433AB07FA3395E0F9F8D007E9
:10183300D006120243906287120397E47B26FAF9DB
:0A184300F890628712037F0202DCB6
:0D2A470078D3E254F3F278D0E24420F2227A
:10244A0090617D12037F90617912230990617D1258
:10245A0003979061791203A3000000009061811232
:10246A00037F90617512230990618112039790612D
:09247A00751203A300000000220A
:101E9F00906173E475F0011201E8C3906174E094EE
:101EAF0014906173E09400402BE4F0A3F0906179FB
:101EBF001222EE9061791203977F587E029061791A
:101ECF001222FF400F200A0C9061791203A3000029
:101EDF000000D20A30951520090F9061751222EE7D
:0E1EEF0090617512039712244AD20922C2098B
:011EFD0022C2
:10102B0090627E1203A3000000009062821203A361
:10103B00000000007FF47E0190617D1222FF5006BC
:10104B00200A0302112A90625EE0FFE4FCFDFE9091
:10105B00618112038B120251E47B107A27F9F8128B
:10106B000251E47B7A7A06F9F81202DC9062821262
:10107B000397300A23E4FF9061811222E8C3120325
:10108B006E90627E60091203A300000001802A1299
:10109B0003A3000000008021E47F24FEFDFC90628E
:1010AB008212038B120251E47B0AFAF9F81202DC6A
:1010BB0090617D12038B12230F90627612037F9047
:1010CB006282122309906276120397906181120358
:1010DB00A30000000090617D1203A300000000C27A
:1010EB000AE4FF1222E5D312036E4012E47F66126C
:1010FB0022E5120251E47B64FAF9F812230FE47F24
:10110B00C71222E5D312036E400A90627E1203A32C
:0F111B00000000C790627E12037F906264EFF0C5
:01112A0022A2
:1008F20042625000004262520000C10B41623F005E
:08090200416240004162410026
:1028EB0090624C02038BE475F0010201E89062BB2D
:0728FB00E0FF906240E022C3
:0D2A540078C2E254CFF278C0E24404F222CE
:1023580090624812037F90624212038B12023690F9
:1023680062481203979062421203A3000000001211
:1023780028EB906246E0FEA3E0FFE4FCFD12023683
:0E23880090624C120397E4906246F0A3F0229C
:101FA90090623FE004F0E0C394144020E4F09062B2
:101FB900461228F2C3906247E09458906246E09432
:101FC900024009200C06E4F0A3F0D20C3082222052
:101FD9000B1C90624212037FEF2401FFE43EFEE4F2
:101FE9003DFDE43CFC906242120397122358D20B48
:031FF90022C20BF6
:011FFC0022C2
:101BC300E47FF47E01FDFC1228EBC312036E500385
:101BD300300C6A300C0EC20C9062B11203A30000E9
:101BE3000000801CE47FBC7EF7FDFC90624812037A
:101BF3008B1202511228EB1202DC9062B11203978E
:101C03009062481203A30000000090624C1203A3E9
:101C130000000000E47FFF7EFFFDFC9062B1120331
:101C23008BC312036E400A9062B11203A30000FF3C
:0D1C3300FF9062B112037F90626012039770
:011C40002281
:10271100C3906251E094FF906250E094FF50031225
:1027210028F1C3906253E094FF906252E094FF500D
:05273100031228F12253
:10282C00E47BF47A01F9F890626012037F1202DC07
:08283C00EFD3941840027F184D
:012844002271
:101AB700E49062BBF0906241E0700A04F012282CB7
:101AC700906240EFF012282C9062BBEFF07008A3F1
:101AD700F0A37432F0802F906240E0FF9062BBE089
:101AE700FED39F4005EE9FFF80061228F8C39FFF95
:101AF700EFD394017E0050047F6480027F329062AE
:101B0700BCEEF0A3EFF09062BCE0FEA3E0FFC39051
:101B17006251E09F906250E09E4020E4F0A3F012F3
:101B270028F8FE9F5004E004F022EED39F400CEE0D
:0B1B3700D394004006906240E014F0E0
:011B42002280
:04090A0041627500D1
:10288E0012037FEF2401FFE43EFEE43DFDE43CFC39
:08289E002212038BC302036E3A
:1029020090625CE06009A3E0600CE0B401082290F0
:07291200625DE06001E022BC
:101A2400C390627BE0948890627AE09413400F3014
:101A34000D0C1227F5C20DE490627AF0A3F0E47F56
:101A4400E87E03FDFC90627612289F40657F187E35
:101A5400C67D9A7C3B90625412289F500C9062542D
:101A640012288E9062541203977F9C7EE07DF57C51
:101A74000590625812289F500C90625812288E903C
:101A8400625812039790627612037FC3EF94E8FFC3
:101A9400EE9403FEED9400FDEC9400FC906276124B
:021AA4000397A6
:101AA600906275E004F0E0C394644004E4F0D20D63
:011AB600220D
:10090E0042611D000042611F00006028612100004D
:10091E0000000000000000000000000000000000C9
:10092E0000000000000000000000000000000000B9
:10093E000000000000004161490041611A0060287A
:10094E00614A0000000000000000000000000000EE
:10095E000000000000000000000000000000000089
:10096E0000000000000000000000416172004161C3
:06097E001B0041611C009A
:10217E0025E02421F582E43461F583EEF0A3EFF03F
:10218E002225E0244AF582E4346122F583E0FEA3A1
:10219E00E0FFE4FCFD020236121FFD9062C6EFF076
:1021AE0090611C22E47B14FAF9F802037F9062C658
:0721BE00E0FF90611CE0222C
:0B2A7A00E4FDED12217E0DEDB414F719
:012A8500222E
:10277A0090611AE0700504F0022A7A906149E01229
:10278A00217E906149E004F0E0C394144002E4F031
:01279A00221C
:102396009062A41203A300000000E49062A3F090F0
:1023A60062A412038B9062A3E025E02421F582E467
:1023B60034611221999062A41203979062A3E004FB
:0E23C600F0E0B414DA9062A41221B20202DC3C
:10291900C390611EE094FF90611DE094FF5007E4AD
:0729290075F0011201E82224
:10293000C3906120E094FF90611FE094FF5007E492
:0729400075F0011201E8220D
:0E29E000E4FDED12218F1221870DEDB414F4E9
:0129EE0022C6
:10284500906172E012218F122187906172E004F08D
:09285500E0C394144002E4F022F7
:102483009062A91203A300000000E49062A8F090F8
:1024930062A912038B9062A8E012218F12219990F6
:1024A30062A91203979062A8E004F0E0B414E090EC
:0824B30062A91221B20202DC51
:101FFD00E4FDC3EF94AAEE940540028043C3EF9431
:10200D00DDEE940440047D018036C3EF9410EE9410
:10201D000440047D028029C3EF9443EE94034004F1
:10202D007D03801CC3EF9476EE940240047D048002
:10203D000FC3EF94A9EE940140047D0580027D0647
:02204D00AF05DD
:01204F00226E
:10121B00E49062C6F0A3F0C390611EE094C89061A5
:10122B001DE0940050030212F9E4F0A3F012239690
:10123B007C077DD0120433E4FB7A10F9F81202DC40
:10124B00AB07AA0690611BE0701C04F01229E01298
:10125B0021A6F0700A906267E0701204F0800EE431
:10126B00906267F08007AE02AF0312284512248309
:10127B001221A6E0FE6F60189062C6E0FFD39E407D
:10128B0006EF9EA3F080091221BBC39F9062C7F0AB
:10129B009062C7E0FFC39402400E906120E09488F7
:1012AB0090611FE094134046EFB4010FC39061208F
:1012BB00E0942090611FE0944E4033E490611FF066
:1012CB00A3F01221BBFEC39F5005E004F0800BEE90
:1012DB00D39F400690611CE014F090611CE07009F4
:0E12EB00906267E0700804F022E4906267F001
:0112F90022D2
:100984005562540000000000000000000000000058
:0809940000000000000000005B
:10220A007B017A62796990629D740CF0E4FF122472
:10221A00F2906274E0B4C51378547C627D017B014C
:10222A007A6279697E007F0C02011590625C740102
:10223A00F090625F74C5F0E490625DF0A37469F097
:03224A001227F563
:01224D00226E
:1027F50090625F74C5F0E4FF12000F7B017A627985
:0C28050054906298740CF0E4FF0224BBB5
:10099C004A60063F065B4F666D7D077F6F60366071
:1009AC001007050706070707080709070A070D07B9
:1009BC000F06030604060506060607060B060A06BE
:1009CC000906080409040A040B040C040D040004B1
:1009DC0001040204030404602460460703070407AF
:1009EC000B070C070E060206010600060E060F0684
:1009FC000D060C0408040E040F0405040604075825
:100A0C00606A030A000D05010503050405060509C6
:100A1C00050C050D050F030F030D4E608205050532
:100A2C000A050E030B05000502050B50609007022A
:100A3C000700000E0309030C030E030003014E60B4
:100A4C00A0010F010D010A0109010B010E010C4E51
:100A5C0060AE000100030006000700050002000460
:100A6C004E60BC03050306020202010200030403EC
:100A7C00074E60CA010001020104010701050101D2
:100A8C0001034C60D8020C020D020E020F0205028B
:100A9C00044C60E4020B020A020902080207020677
:100AAC004E60F0000D000E000C00080508000A0056
:100ABC000B4E60FE050505060509050A050C050427
:100ACC00050B4E610C05020503050D050F050E0502
:100ADC00010500416000004260010000426003001B
:050AEC0000416005005F
:100CA300E0FCA3E0FDEF25E024D9F582E43460F510
:100CB30083E0FF7E007401A80708229062DAE0FF58
:100CC30025E024D8F582E43460F583E025E024159B
:100CD300F582E43462F58322E0FCA3E0FDEF25E036
:100CE300229062D9E0FF25E024F0F582E43460F538
:100CF30083E025E02409F582E43462F58322F4FFDE
:100D0300EEF45CFEED5F22FFEC4EFEED4F229062AF
:100D1300D9E0FF25E024FEF582E43460229062D915
:100D2300E0FF25E0240CF582E4346122EEF0A3EF2A
:100D3300F09062C3E0FF25E02274062DF582E434CF
:100D430060F583E022E0FF25E024E4F582E43460EB
:100D5300229062BFE0FF25E02482F582E434602222
:100D6300A3E025E02410F582E4346022A3E025E02B
:100D73002446F582E4346022E04401F0A3E0F0224B
:100D830024E5F582E434602224F1F582E434602220
:100D930024FFF582E4346022240DF582E4346122D9
:100DA300EEF0A3EFF09062DAE004F0E0222411F514
:100DB30082E4346022FFE0C39FD39400222447F5EA
:100DC30082E43460222483F582E4346022EF25E058
:100DD3002490F582E434602225E0246AF582E43429
:0C0DE3006022E075F00A84ADF0E4FF220D
:10264300EF120D65120CCCC083C082120CDB120D8D
:10265300B0120CB28005C333CE33CED8F9120D0AB3
:0B266300FFD082D083EEF0A3EFF02246
:051D39009062C8EFF00C
:101D3E00E4A3F09062C9E0FFC3941B50669062C8A2
:101D4E00E09F5021120D63120CCCC083C082120C86
:101D5E00DB120DB0120CB28005C333CE33CED8F9E0
:101D6E00120D01802B9062C9E09062C8120DB8402E
:101D7E0029120D63120CCCC083C082120CDB120D23
:101D8E00B0120CB28005C333CE33CED8F9120D0A81
:101D9E00FFD082D083EEF0A3EFF09062C9E004F0A2
:031DAE00021D41D2
:011DB100220F
:10266E00EF120D71120CCCC083C082120CDB120D56
:10267E00C0120CB28005C333CE33CED8F9120D0A78
:0B268E00FFD082D083EEF0A3EFF0221B
:051DB2009062CAEFF091
:101DB700E4A3F09062CBE0FFC3941250669062CA2E
:101DC700E09F5021120D6F120CCCC083C082120C01
:101DD700DB120DC0120CB28005C333CE33CED8F957
:101DE700120D01802B9062CBE09062CA120DB840B1
:101DF70029120D6F120CCCC083C082120CDB120D9E
:101E0700C0120CB28005C333CE33CED8F9120D0AF7
:101E1700FFD082D083EEF0A3EFF09062CBE004F026
:031E2700021DBADF
:011E2A002295
:1027D800EF906220600BE04480F090621F120D7B46
:0D27E80022E0547FF090621FE054FEF022CA
:051CBF009062CCEFF083
:101CC400E4A3F09062CDE0FFC3940C50679062CC23
:101CD400E06026EF120DDB120CCCC083C082120C24
:101CE400DB246BF582E43460120CB28005C333CE7E
:101CF40033CED8F9120D0A80289062CDE0FF120D80
:101D0400DB120CCCC083C082120CDB246BF582E4A2
:101D14003460120CB28005C333CE33CED8F9120D21
:101D240001FFD082D083EEF0A3EFF09062CDE00407
:041D3400F0021CC7D6
:011D38002288
:10269900EF120D59120CCCC083C082120CDB120D43
:1026A900C8120CB28005C333CE33CED8F9120D0A45
:0B26B900FFD082D083EEF0A3EFF022F0
:05184D009062BEEFF007
:10185200E4A3F0120D54120CCCC083C082120CDB34
:10186200120DC8120CB28005C333CE33CED8F91292
:101872000D01FFD082D083EEF0A3EFF09062BFE0C3
:1018820004F0E0B407CD9062BEE0FB70057F060273
:10189200269974062B120D3F9062C0F0E49062BF4D
:1018A200F09062BFE0FFC394075047120CB6800568
:1018B200C333CE33CED8F9FF9062C0E0FDEF5D6056
:1018C20029120D54120CCCC083C082120CDB120DF3
:1018D200C8120CB28005C333CE33CED8F9120D0A2A
:1018E200FFD082D083EEF0A3EFF09062BFE004F06D
:0218F20080AFC5
:0118F40022D1
:1025BA00120DD0120CCCC083C082120CDB2491F510
:1025CA0082E43460120CB28005C333CE33CED8F91C
:0E25DA00120D0AFFD082D083EEF0A3EFF022A4
:1025E800120DD0120CCCC083C082120CDB2491F5E2
:1025F80082E43460120CB28005C333CE33CED8F9EE
:0E260800120D01FFD082D083EEF0A3EFF0227E
:10298000EF9062246005E04402F022E054FDF02262
:10295C00EF9062156008E04480F0A3E0F022E054B0
:03296C007FF022D7
:10299000EF9062166005E04401F022E054FEF02260
:0F29EF00EF90621B6004120D7B22E054FEF02279
:1029A000EF90621C6005E04408F022E054F7F0224A
:1029B000EF90621C6005E04404F022E054FBF0223A
:1013D600120D3C9062CFF0EF70689062CEF0906292
:1013E600CEE0FFC3940740030214AD120CB680058D
:1013F600C333CE33CED8F9FF9062CFE0FDEF5D6008
:10140600389062CEE0FF25E024A0F582E434601235
:101416000CCCC083C082120CDB24A1F582E43460BC
:10142600120CB28005C333CE33CED8F9120D0AFFA3
:10143600D082D083EEF0A3EFF09062CEE004F0020B
:1014460013E4E49062CEF09062CEE0FFC3940750BE
:1014560056120CB68005C333CE33CED8F9FF906250
:10146600CFE0FDEF5D60389062CEE0FF25E024AE70
:10147600F582E43460120CCCC083C082120CDB24EB
:10148600AFF582E43460120CB28005C333CE33CE9E
:10149600D8F9120D0AFFD082D083EEF0A3EFF090B8
:0714A60062CEE004F080A01B
:0114AD00221C
:1014AE00120D3C9062D1F0EF70689062D0F09062B5
:1014BE00D0E0FFC394074003021585120CB68005D9
:1014CE00C333CE33CED8F9FF9062D1E0FDEF5D602D
:1014DE00389062D0E0FF25E024BCF582E43460123F
:1014EE000CCCC083C082120CDB24BDF582E43460C8
:1014FE00120CB28005C333CE33CED8F9120D0AFFCB
:10150E00D082D083EEF0A3EFF09062D0E004F00230
:10151E0014BCE49062D0F09062D0E0FFC394075008
:10152E0056120CB68005C333CE33CED8F9FF906277
:10153E00D1E0FDEF5D60389062D0E0FF25E024CA77
:10154E00F582E43460120CCCC083C082120CDB2412
:10155E00CBF582E43460120CB28005C333CE33CEA9
:10156E00D8F9120D0AFFD082D083EEF0A3EFF090DF
:07157E0062D0E004F080A040
:011585002243
:1029C000EF9062186005E04440F022E054BFF0222E
:080F23009062C1EFF0A3EDF0B4
:100F2B00E4A3F0120D3424A0F582E43460120CCC4F
:100F3B00C083C082120CDB24A1F582E43460120C56
:100F4B00B28005C333CE33CED8F9120D01FFD08258
:100F5B00D083120D2F24AEF582E43460120CCCC07A
:100F6B0083C082120CDB24AFF582E43460120CB226
:100F7B008005C333CE33CED8F9120D01FFD082D00A
:100F8B0083120D2F24BCF582E43460120CCCC08389
:100F9B00C082120CDB24BDF582E43460120CB280EB
:100FAB0005C333CE33CED8F9120D01FFD082D083D7
:100FBB00120D2F24CAF582E43460120CCCC083C00E
:100FCB0082120CDB24CBF582E43460120CB2800568
:100FDB00C333CE33CED8F9120D01FFD082D083EEBE
:100FEB00F0A3EFF09062C3E004F0E064076003024B
:100FFB000F2E9062C1120DE51213D69062C1E075EF
:10100B00F00A84FD7F011213D69062C2120DE51215
:10101B0014AE9062C2E075F00A84FD7F010214AE3B
:0F29FE00EF9062156004120D7B22E054FEF02270
:0F2A0D00EF9062176004120D7B22E054FEF0225E
:1029D000EF90621A6005E04408F022E054F7F0221C
:05224E009062D2EFF0E8
:10225300E4A3F09062D3E0FFC3940650319062D2BE
:10226300E0B50722A3E0120CC3C083C082120CA303
:102273008005C333CE33CED8F9120D0AFFD082D0F6
:0E22830083EEF0A3EFF09062D3E004F080C58C
:01229100222A
:052292009062D4EFF0A2
:10229700E4A3F09062D5E0FFC3940650319062D476
:1022A700E06F7022A3E0120CC3C083C082120CA39C
:1022B7008005C333CE33CED8F9120D01FFD082D0BB
:0E22C70083EEF0A3EFF09062D5E004F080C546
:0122D50022E6
:10205000EF6027E49062DAF0120CBEC083C08212F7
:102060000CA38005C333CE33CED8F9120D0AFFD0AE
:1020700082D083120DA3B406DF22E49062DAF0125C
:102080000CBEC083C082120CA38005C333CE33CEF6
:10209000D8F9120D01FFD082D083120DA3B406DF50
:0120A000221D
:101EFE009062DBEFF0ED6021120D48120CCCC08326
:101F0E00C082120CDB120D83120CB28005C333CECD
:101F1E0033CED8F9120D0A80229062DB120D4812D0
:101F2E000CCCC083C082120CDB120D83120CB2805B
:101F3E0005C333CE33CED8F9120D01FFD082D08334
:061F4E00EEF0A3EFF0220B
:051C41009062D6EFF0F7
:101C4600E4A3F09062D7E0FFC39406506B9062D68F
:101C5600E09F5023A3E0120D4A120CCCC083C08231
:101C6600120CDB120D83120CB28005C333CE33CEB9
:101C7600D8F9120D01802E9062D7E0FF9062D6123D
:101C86000DB9402BA3E0120D4A120CCCC083C082C2
:101C9600120CDB120D83120CB28005C333CE33CE89
:101CA600D8F9120D0AFFD082D083EEF0A3EFF090A0
:081CB60062D7E004F0021C49B2
:011CBE002203
:10112B009062D8EFF0A3EDF0EB606D9062D8E01415
:10113B0060261460412402600302121A120CE4C0F0
:10114B0083C082120CDB120D8B120CB28005C333E1
:10115B00CE33CED8F902119D120D11120CF2C083B1
:10116B00C082120CDB120D93120CB28005C333CE6E
:10117B0033CED8F9801C120D20120CF2C083C08222
:10118B00120CDB120D9B120CB28005C333CE33CE87
:10119B00D8F9120D0A0212109062D8E014602614CE
:1011AB00604424027069120CE4C083C082120CDB11
:1011BB00120D8B120CB28005C333CE33CED8F9127D
:1011CB000D01021210120D11120CF2C083C082120B
:1011DB000CDB120D93120CB28005C333CE33CED879
:1011EB00F9120D01801F120D20120CF2C083C08268
:1011FB00120CDB120D9B120CB28005C333CE33CE17
:10120B00D8F9120D01FFD082D083EEF0A3EFF022BC
:050DEF009061D8EFF057
:100DF400120D3C9061DAF0E49061D9F09061D9E091
:100E0400FFC394074003020F22120CB68005C333BC
:100E1400CE33CED8F9FF9061DAE0FDEF5D607690D5
:100E240061D8E014602914604724026003020F199A
:100E34009061D9120CE7C083C082120CDB120D8BB7
:100E4400120CB28005C333CE33CED8F9020E939080
:100E540061D9120D14120CF2C083C082120CDB1281
:100E64000D93120CB28005C333CE33CED8F9801F54
:100E74009061D9120D23120CF2C083C082120CDBD4
:100E8400120D9B120CB28005C333CE33CED8F912A7
:100E94000D0A020F0F9061D8E014602914604A24EF
:100EA4000270729061D9120CE7C083C082120CDB0D
:100EB400120D8B120CB28005C333CE33CED8F91287
:100EC4000D01020F0F9061D9120D14120CF2C083A0
:100ED400C082120CDB120D93120CB28005C333CE08
:100EE40033CED8F9120D0180229061D9120D23124C
:100EF4000CF2C083C082120CDB120D9B120CB28068
:100F040005C333CE33CED8F9120D01FFD082D0837E
:0E0F1400EEF0A3EFF09061D9E004F0020E00C1
:010F220022AC
:062AC7009062DCEFF0223A
:10213500906001E475F0011201E8C3906002E0943B
:10214500F4906001E094014026E4F0A3F090600073
:10215500E0FDE4FF120DEF906000E07F01122175B4
:0F2165007F0212217504F0E0D394094002E4F0E8
:0A21740022FD120DEF906000E02242
:10261600906003E475F0011201E8C3906004E09451
:10262600F4906003E094014013E4F0A3F0A3E0709B
:0C263600047F0180027F00906005EFF03F
:012642002275
:012AD90022DA
:100AF1005362270A00000000033241000000000099
:0E0B010002FF2AA6000045623A010102030429
:0F2A1C00EC75F005A4243AF582E43462F58322C8
:0D2A610078C0E24420F278C3E254F3F22280
:092AA6002085037F01227FFF223D
:1021C500E4FEFCFBEDB401030B8016EDB403047BC8
:1021D50002800EEDB404047B038006EDB405027B9A
:1021E50004ECC39401501B122A1CE0B50711122AF6
:1021F5001CE5822BF582E43583F583E0FE80030C34
:0422050080DFAF06C1
:0122090022B2
:10164D00906238E070030216F8E0FFA3E0FD12216E
:10165D00C5E4906238F0A3F0EF24FE6053046003FC
:10166D000216F8906293E0701690625CE070047F51
:10167D000180027F0090625CEFF01227F580699087
:10168D006293E0B4011190625DE0700404F0805843
:10169D00E490625DF08051906293E0B4021090622C
:1016AD005EE02405F0E0D394B4403D7432F0803810
:1016BD00906293E0701A90625CE0B401077F0112B2
:1016CD002ACD80249062581203A3000000008015DB
:1016DD00906293E0B401057402F08009906293E08A
:0B16ED00B40205E4F01227F5122A39C0
:0116F80022CF
:082AB700E4906293F0022A3959
:032AD6000228A62D
:062ACD00906293EFF0227D
:082ABF00906293E0FF0227364C
:0E2A3900E490628DF0A3F0906291F0A3F02281
:10190F000227BAE493A3F8E493A34003F68001F20D
:10191F0008DFF48029E493A3F85407240CC8C333D9
:10192F00C4540F4420C8834004F456800146F6DFA8
:10193F00E4800B0102040810204080900835E47EFB
:10194F00019360BCA3FF543F30E509541FFEE4939D
:10195F00A360010ECF54C025E060A840B8E493A364
:10196F00FAE493A3F8E493A3C8C582C8CAC583CA8F
:10197F00F0A3C8C582C8CAC583CADFE9DEE780BE47
:010B0F0000E5
:10004500E709F608DFFA8046E709F208DFFA803E9D
:1000550088828C83E709F0A3DFFA8032E309F6088A
:10006500DFFA8078E309F208DFFA807088828C83F2
:10007500E309F0A3DFFA806489828A83E0A3F608A6
:10008500DFFA805889828A83E0A3F208DFFA804C80
:1000950080D280FA80C680D4806980F28033801057
:1000A50080A680EA809A80A880DA80E280CA8033C0
:1000B50089828A83ECFAE493A3C8C582C8CCC58338
:1000C500CCF0A3C8C582C8CCC583CCDFE9DEE78008
:1000D5000D89828A83E493A3F608DFF9ECFAA9F087
:1000E500EDFB2289828A83ECFAE0A3C8C582C8CCDD
:1000F500C583CCF0A3C8C582C8CCC583CCDFEADEF6
:10010500E880DB89828A83E493A3F208DFF980CC57
:1001150088F0EF60010E4E60C388F0ED2402B40450
:100125000050B9F582EB2402B4040050AF232345F7
:0601350082239000957387
:10013B00BB010689828A83E0225002E722BBFE02C2
:09014B00E32289828A83E49322F5
:10015400BB010CE58229F582E5833AF583E0225060
:1001640006E92582F8E622BBFE06E92582F8E222AA
:0D017400E58229F582E5833AF583E49322C4
:10018100BB010FF8E58229F582E5833AF583E02882
:10019100F0225009C58229F8E58226F622BBFE0924
:1001A100C58229F8E22582F222F8EA2583F583E95E
:0301B1009328226E
:1001B400BB010689828A83F0225002F722BBFE012A
:0201C400F32224
:1001C600F8BB010DE58229F582E5833AF583E8F06F
:1001D600225006E92582C8F622BBFE05E92582C81B
:0201E600F22203
:1001E800C5F0F8A3E028F0C5F0F8E58215827002A2
:0601F8001583E038F0223F
:1001FE00BB0110E58229F582E5833AF583E0F5F03F
:10020E00A3E0225009E92582F886F008E622BBFE1B
:10021E000AE92582F8E2F5F008E222E5832AF58361
:08022E00E993F5F0A3E9932226
:0D023600EF2BFFEE3AFEED39FDEC38FC2217
:0E024300C3EF9BFFEE9AFEED99FDEC98FC22B6
:10025100E88FF0A4CC8BF0A42CFCE98EF0A42CFC4C
:100261008AF0EDA42CFCEA8EF0A4CDA8F08BF0A4CA
:100271002DCC3825F0FDE98FF0A42CCD35F0FCEB29
:100281008EF0A4FEA9F0EB8FF0A4CFC5F02ECD39EE
:0F029100FEE43CFCEAA42DCE35F0FDE43CFC225B
:1002A00075F008758200EF2FFFEE33FECD33CDCC15
:1002B00033CCC58233C5829BED9AEC99E582984098
:1002C0000CF582EE9BFEED9AFDEC99FC0FD5F0D675
:1002D000E4CEFBE4CDFAE4CCF9A88222B800C1B99F
:1002E0000059BA002DEC8BF084CFCECDFCE5F0CBDD
:1002F000F97818EF2FFFEE33FEED33FDEC33FCEB16
:1003000033FB10D703994004EB99FB0FD8E5E4F9D0
:10031000FA227818EF2FFFEE33FEED33FDEC33FCBD
:10032000C933C910D7059BE99A4007EC9BFCE99AB1
:10033000F90FD8E0E4C9FAE4CCFB2275F010EF2FF6
:10034000FFEE33FEED33FDCC33CCC833C810D707F6
:100350009BEC9AE899400AED9BFDEC9AFCE899F831
:0E0360000FD5F0DAE4CDFBE4CCFAE4C8F922C4
:10036E00EB9FF5F0EA9E42F0E99D42F0E89C45F0E5
:01037E00225C
:0C037F00E0FCA3E0FDA3E0FEA3E0FF22F1
:0C038B00E0F8A3E0F9A3E0FAA3E0FB22F5
:0C039700ECF0A3EDF0A3EEF0A3EFF022D9
:1003A300A8828583F0D083D0821203BA1203BA12D3
:1003B30003BA1203BAE473E493A3C583C5F0C583F8
:1003C300C8C582C8F0A3C583C5F0C583C8C582C8A4
:0103D3002207
:0903D400E0FBA3E0FAA3E0F9222A
:1003DD00F8E0FBA3A3E0F925F0F0E58215827002A9
:0703ED001583E0FA38F0224D
:0903F400EBF0A3EAF0A3E9F0220A
:1003FD00BB010DE58229F582E5833AF5830203D42D
:10040D005007E92582F802048CBBFE07E92582F826
:10041D00020495E58229F582E5833AF58302049E6F
:06042D008A838982E4735A
:10043300EC8EF0A4CCC5F0CCCDF8EFA4CEC5F02D56
:10044300FDE43CFCE8A42EC8C5F03DFDE43CFCEF14
:0D045300A4FFE5F028FEE43DFDE43CFC22A2
:1004D000E50824B2F582E43461F583E00508229052
:1004E00061AF3007039061B2E475F0011203DD02E1
:1004F000013B2000E97F2ED2008018EF540F24909A
:10050000D43440D4FF30040BEF24BFB41A0050039E
:100510002461FFE50960021509050CE50C70020570
:100520000B30070E9061AFE475F0011203DDEF02AE
:1005300001B4022A2B7403D2078003E4C207F50832
:100540009061AF1203F4E4F509F50BF50CE50960D1
:10055000077F2012051380F5750AFFC201C200C291
:1005600002C203C205C206C2081204DFFF700D30CA
:1005700007057F00120524AF0CAE0B22B4255FC225
:10058000D5C2041204DFFF24D0B40A00501A75F05B
:100590000A780930D50508B6FF0106C6A426F6205C
:1005A000D5047002D20380D924CFB41A00EF5004CE
:1005B000C2E5D204020725D20180C6D20080C0D293
:1005C0000280BCD2D580BAD20580B47F2012051338
:1005D0002002077401B5090040F11204D0FF120592
:1005E0001302054DD208D20680951204D0FB1204E6
:1005F000D0FA1204D0F94A4B700679F67A077BFFDD
:1006000020022EE509602A7E008E82758300120189
:100610005460060EEE650A70F0C2D5EBC0E0EAC089
:10062000E0E9C0E0EE12076CD0E0F9D0E0FAD0E0EB
:10063000FB12013BFF60AAEBC0E0EAC0E0E9C0E0CA
:10064000120513D0E02401F9D0E03400FAD0E0FB29
:10065000E50A0460DCD50AD980877BFF7A077968D0
:10066000D202809C791080027908C206C2088008F4
:10067000D2D5790A8004790AC2D5E50A047002F558
:100680000AE4FAFDFEFF1204D0FC7B0820011312DD
:1006900004D0FD7B1030000A1204D0FE1204D0FFFB
:1006A0007B20EC3382D592D55013C3E43000069FF3
:1006B000FFE49EFEE42001039DFDE49CFCE4CBF8F6
:1006C000C201EC700CCFCECDCCE824F8F870F380EA
:1006D00017C3EF33FFEE33FEED33FDEC33FCEB33AA
:1006E000FB994002FB0FD8E9EB300105F8D0E0C4DC
:1006F00048B201C0E00AEC4D4E4F78207B0070C23A
:10070000EAB50A0040BCC0E012076ED0F0D0E0208D
:100710000104C4C0E0C4B201C0F01204FCD0F0D5A2
:10072000F0EB02054D1204AA05EA5306645805BB16
:100730004C05B74206684F06704406704905D04321
:08074000067655065A46065ADA
:1007480045065A4708165005BF2D05C32E05E62B4A
:1007580005C72305E42007FF2A057F48000005DEBA
:100768003F3F3F00790AA2D5200314300509B9108C
:10077800020404B9080104A2D5200602500104208D
:1007880002689202B509005034C0E07F2030031996
:100798007F30A20272067205500F1207C5C202C24C
:1007A80006C205C2087F30800F300503E9C0E01299
:1007B8000513300503D0E0F9D0E0B509CC300517B2
:1007C8007F30B9100C1205137F583004077F7880EA
:1007D80003B908031205133002057F2D0205137FA4
:1007E800202008F87F2B2006F322920280CF286E63
:1007F800756C6C2900D2011204D03001F8C201785E
:100808000930D50108F602057F2D504349581204D6
:10081800D02403B405004001E490081193120504A4
:0D082800743A120504D20375090402066437
:10046000EF4E6012EF60010EEDBB010B89828A83B3
:10047000F0A3DFFCDEFA2289F05007F709DFFCA9C0
:0C048000F022BBFEFCF309DFFCA9F02217
:09048C00E6FB08E6FA08E6F92295
:09049500E2FB08E2FA08E2F92298
:0C049E00E493FB740193FA740293F922BA
:1004AA00D083D082F8E4937012740193700DA3A3E1
:1004BA0093F8740193F5828883E4737402936860F5
:0604CA00EFA3A3A380DFF5
:00000001FF
