:0300000002211CBE
:10211C00787FE4F6D8FD9060007F007E07E4F0A3A2
:0A212C00DFFCDEFA7581210221714B
:0C000300000000000000000000000000F1
:0B3BB200EF1FAC0670011E4C70F622E5
:10002700AB07AA06EB1BAE0270011A4E600C7FAA43
:0B0037007E05123BB275D9AA80EA22B8
:101A7500907120E04480F07F057E00123BB2E4FFC8
:101A8500FE12002775A75575AC5C9071327450F045
:101A95009071307403F0907136742FF090715C740E
:101AA50003F090715BE054FCF07F18EF2466FDE4D1
:101AB50034718D82F583E4F00FEFB433EE9040116D
:101AC500E4935407FF90711CE054F84FF0904017D1
:101AD500E493547FFF90711DE054804FF0904010C7
:101AE500E493FF5401C43333335480FE907123E0F3
:101AF500547F4EF0EFC313543F4440FFA3E054809E
:101B05004FF0904012E493FF540FFE907146E0545D
:101B1500F04EF0EFC4540FFF90714FE054F04FF0CA
:101B2500904013E493543FFF907140E054C04FF050
:101B3500904014E493907126F0904015E4939071D1
:0B1B450028F0904016E49390712AF005
:011B50002272
:10000F00E0FEA3E0FFE4FCFD7BFF7AFFF9F8D302EB
:02001F0003B527
:1031FB00E5B154CF42B153A8BFD2AF75D102789C81
:10320B00E254E3F2E2441CF2E254FCF2E24401F237
:10321B0008E2547FF2E24420F278A17401F21874B0
:10322B0076F2789CE2541FF2E244C0F243A84022AB
:0300210002236B4C
:10236B00C0E0C0F0C083C082C0D075D000C000C038
:10237B0001C002C003C004C005C006C007789DE2BF
:10238B0030E74CE24480F212342A9062C5E0C394E9
:10239B00FF5003E004F09062F512000F400A9062C8
:1023AB00F5E475F00112023D9062F712000F400A3E
:1023BB009062F7E475F00112023D12391812392FB1
:1023CB0012394612395D123B18123BD3122A2BD00D
:1023DB0007D006D005D004D003D002D001D000D056
:0A23EB00D0D082D083D0F0D0E032D1
:10353F00E5B254FC42B253A9FED2AF75D1049071DB
:10354F00057409F0907104745FF0907101E0547F7D
:10355F00F0E04420F0907100E0E4F0E044C1F0436B
:03356F00A901228D
:030024000230E6C1
:1030E600C0E0C0F0C083C082C0D075D000C000C0B0
:1030F60001C002C003C004C005C006C0079071012C
:10310600E030E707E04480F0122E41D007D006D029
:1031160005D004D003D002D001D000D0D0D082D0C8
:0631260083D0F0D0E0327E
:0E3B7200906271EFF0123BF1906271E0FF2261
:1038840078C2E254FCF2E24401F290717EE0440416
:0B389400F075D60175D59F75D210228B
:083BF100E5D430E4FB8FD7227C
:0405390041632600F4
:0A3BDE007869E24401F290632622A8
:10368F0078C3E24430F2E2440CF2786AE24479F211
:10369F007591FF9071227407F0439E7043994043D8
:0536AF00AA04D2AF22C5
:103603005399E0907123E05498F0EF24FE600F0487
:103613007016907123E04459F0439906800A907123
:0F36230023E0445AF04399057869E24448F222C3
:10342A00906326E014601914601D14602614600469
:10343A00240470257F011236039063267401F0225A
:10344A00123BDE7402F0227F021236039063267466
:0A345A0003F022123BDE7404F0229E
:030042000226058E
:10260500C0E0C0F0C083C082C0D075D000C000C09B
:0D26150001C002C003C004C005C006C0071C
:10262200786BE230E142E24402F2AF93EF75F010D0
:10263200A4FFE594C4540FFDEF4DFF906272E5F0E4
:10264200F0A3EFF0906326E024FC601124027018DE
:10265200906272E0FEA3E0FF1237CA800B906272B2
:08266200E0FEA3E0FF1237EBDC
:10266A00D007D006D005D004D003D002D001D000C4
:0B267A00D0D0D082D083D0F0D0E0326E
:1037A900906249F090631D02043D90000612015495
:1037B900FE9000080201549000091201C690000C05
:0137C90022DD
:10108800E4906249F07FFFA374FFF090631D12049F
:101098005D900001120154FE12013BFDEEC39D500C
:1010A8000302121A1237AD900001E41201C6900033
:1010B8000E120466120496EFF4600890631C742301
:1010C800F0800990631CE06003E014F01237AD90E3
:1010D80000031201546F6015900005120154600D51
:1010E800900004E41201C690000302121690000555
:1010F800120154FE900004120154C39E500B123783
:10110800AD90000474010201811237AD9000021203
:1011180001546F6048EFF4701C1237B3C39E400A45
:1011280074051237A990000280611237AD90000A49
:10113800740102120D1237AD90000874011237C302
:101148001201546F90631D600C12043D7401123734
:10115800C0EF02120D12043D900009803DEFF470BB
:10116800411237AD900009120154D3940050030284
:10117800121090000B120154FE90000A120154D371
:101188009E401174011237A990000C12015490620C
:101198004AF080541237AD90000A7401120181029E
:1011A80012101237AD1237BAC394FF5008900008D6
:1011B80074011201811237B3B506089062497403AD
:1011C800F080201237AD9000071237B66E70399054
:1011D800624974041237AC9000061201549000085A
:1011E8001201C690624AEFF01237ADE41237C074AC
:1011F800FF1201C690624AE09000111201C6906287
:1012080049E09000121201C61237AD900002EF12A9
:0212180001C60D
:01121A0022B1
:1039D60075AF3F8FAF75AEB975A402E5A530E1FBB3
:0139E60022BE
:1034D40090624A12045D75AF3F8FAF90624DE0C3B6
:1034E40094014022E5A530E0FB90624AE475F001C6
:1034F40012044612013BF5A675AEB975A40190629B
:073504004DE014F080D52218
:10350B0090625512045D906258E06027AE070FEE93
:10351B002400FDE4343F8D82F583E493FE906255E5
:10352B00E475F001120446EE1201B4906258E014F7
:04353B00F080D32227
:10053D0042629000004C6274000000000000000058
:10054D00000000005062800000000000000000006C
:07055D000000000000000097
:1033B2009FFFE49400FEEF25E0FFEE33FE12043D92
:1033C2008F828E83120253FF22906257E0FF906237
:1033D20051E0227B017A62798090624D12045D9005
:0C33E2006250227E007D007B010204C9C5
:1038EA00C3906291E094FF906290E094FF5007E4E5
:0738FA0075F00112023D22EE
:061CF20090624912045D3E
:101CF800C374089D906257F0906250E0FFC3740867
:101D08009F906258F0C291C292E4906251F0E490C0
:101D18006253F0A3F0906255F0A3F01233CBC39F47
:101D280040121233CB9062491233B2906253E5F0FD
:101D3800F0A3EFF09062581233CEC39F4015906223
:101D4800581233CE90624D1233B2906255E5F0F0DE
:101D5800A3EFF0E4906252F0906253E030E703D3CF
:101D68008001C39283906255E030E703D38001C3BA
:101D78009295D291906254E025E0F0906253E0335E
:101D8800F0906256E025E0F0906255E033F0C291A1
:101D9800906252E004F0E0B410BE906251E004F0AA
:101DA800E064086003021D16D292C292C283C295F3
:011DB8002208
:1036FD00C3906291E09419906290E094004013E4BD
:10370D00F0A3F01233D57408F07A6279747D061245
:03371D001CF22279
:101FC8007F0C7A6279741233E57F107A6279801215
:101FD80033E578D2E254F3F2E24404F2907187E4F4
:101FE800F078C2E2543FF2E24440F2907181E4F0AA
:101FF80078D3E254F3F2E24404F290718BE4F018DF
:10200800E254CFF2E24410F2907188E4F008E2540E
:10201800CFF2E24410F290718C740AF07856E4F230
:10202800782774BBF218747FF27833E4F218F278E8
:1020380019F218E24401F27811E24401F27817E249
:102048004401F27812E24401F27814E24401F2C247
:1020580083C295C291C2921233D57406F07A62791E
:0A20680074FD121CF27F1E02357297
:10357200C374649FFFE49400FE3395E0FDFCE47B9A
:103582007F7ABBF9F8120298E47B64FAF9F8120325
:1035920023AC06EC7833F218EFF27817E24401F22A
:0135A2002206
:102DE7006169703133303220697320776F726B6994
:102DF7006E670A0031333032206973206E6F74209A
:102E0700666972737420706F776572206F6E0A003F
:102E17006169703133303220697320736C65657076
:102E27000A00313330322069732066697273742067
:0A2E3700706F776572206F6E0A005D
:0F0564004763030000000000000042630A00002C
:1035A300A3F0123C0FC282C284D2817F047E002228
:1035B300E254CFF2E24410F2907180E4F022906280
:1035C3004FE004F0E0C3940822FFE0FEA8070822BE
:063C0F0078C21235B32259
:0D3B800078C0E24404F278C2E254CFF22291
:10278100E4FF78C2E254F3F2E24404F290717FE490
:10279100F008E254FCF2E24401F2907182E4F01894
:1027A1001235B3C281C284122AF5EF7BFF60107A21
:1027B1002D79E71209577BFF7A2D79FB0209577AA8
:1027C1002E79171209577BFF7A2E79291209577D25
:1027D1000A7F8C121F197D017F88121F197D017FCD
:1027E10086121F19E4FD7F82121F197D0C7F84124E
:0927F1001F19E4FD7F80121F197D
:0127FA0022BC
:10389F00E4FDEE25E0FEEF30E004EE4401FEEFC361
:0938AF0013FF0DEDB408EBAF06A8
:0138B80022ED
:02295600AC07CC
:10295800E490624AF0AF0512389FEC64816019EC8C
:1029680064836014EC6485600FEC6487600AEC642F
:08297800896005EC648D7043D9
:10298000E490624BF0A3F0EC64816004ECB4830645
:10299000EF547FFF8017EC64856004ECB48706EF8A
:1029A000543FFF8008ECB48904EF541FFFEFC45478
:1029B0000FFE90624BF0EF540FFFA3F0EE75F00A9C
:0329C000A42FFF42
:0129C30022F1
:05247D0090624AEFF03F
:10248200E4A3F01235A3123BB2E490624CF01224A2
:10249200E590624CE090624A1235CC8002C313D8B8
:1024A200FC30E004D2828002C2827F047E00123BB2
:1024B200B21224EF40D8123B80E490624CF090625A
:1024C2004BE025E0F01224E530820790624BE044B5
:1024D20001F01224EF40E7C284C281C28290624BB3
:0224E200E0FF19
:1024E40022C2847F047E00123BB222D2847F047E07
:0F24F40000123BB290624CE004F0E0C394082267
:05397400906249EFF034
:10397900E4FE12247DAE07906249E0FFAD060229FC
:0139890056E7
:0822DE0090624DEFF0A3EDF05A
:1022E600E41235A3123BB2E490624FF012236190E0
:1022F600624FE090624D1235CC8002C313D8FC3099
:10230600E004D2828002C2821223501235C140DC20
:10231600E490624FF012236190624FE0FF90624EAC
:10232600E0FEA807088002C313D8FC30E004D2827E
:102336008002C2821223501235C140D9C2847F0462
:092346007E00123BB2C281C2828A
:10234F00227F047E00123BB2D2847F047E00123BB8
:0C235F00B222C2847F047E00123BB22236
:102AF50012312CD3906304E09433906303E094087F
:102B05005049C3A3E094D0906303E09407403C9000
:102B15006305E0D3940C5033E0C39401402DA3E04A
:102B2500D3941F5026E0C394014020A3E09418508D
:102B35001AA3E0C3943C5013A3E0C3943C500C90FB
:102B45006303E0B40708A3E0B4D0037F00227F014C
:012B5500225D
:051F1900906249EFF0A9
:101F1E00A3EDF0EF6480601D906249E0FF64826083
:101F2E0014EF6484600FEF6486600AEF64886005C6
:051F3E00EF648C706CE3
:101F4300E490624BF0A3F090624AE0FFC3940A402E
:101F530007EF75F00A84A3F090624AE075F00A84F3
:101F6300AFF090624CEFF090624BE0FEC454F04F40
:101F730090624AF0906249E0FF64806004EFB482AB
:101F83000990624AE0547FF08022906249E0FF6446
:101F9300846004EFB4860990624AE0543FF0800CF9
:0C1FA300906249E0B48805A3E0541FF0F0
:101FAF00E4FD7F8E1222DE906249E0FFA3E0FD1276
:091FBF0022DE7D807F8E0222DE0D
:10327B00906315A3E02430FD7F8C121F1990631708
:10328B00E0FD7F88121F19906318E0FD7F86121FE7
:10329B0019906319E0FD7F84121F1990631AE0FDEA
:0F32AB007F82121F1990631BE0FD7F80021F19A5
:10312C007F81123974906309EFF07F8312397490A8
:10313C006308EFF07F85123974906307EFF07F8797
:10314C00123974906306EFF07F891239749063051D
:10315C00EFF07F8D123974EF24D0FEE434079063C6
:06316C0003F0A3CEF022E7
:0B3BBD007379732072657365740A0051
:103661001238847BFF7A3B79BD1209571229C412A3
:103671003C08123C0112278112368F12323B121F75
:0E368100C81231FB12353F7F0A7E000200277F
:1033EE00121A7575D95590715EE054FEF075D9BB01
:1033FE00123661123BF975D9AA1223F57B017A6256
:10340E0079C4121088121E6912224B1214C512179B
:0C341E00CC1226851237651218B380DA34
:1029C40078E0E24408F278E2E2543FF278D0E2445C
:1029D40001F278D2E254FCF278D0E24408F278D2E0
:1029E400E2543FF278E0E24401F278E2E254FCF28D
:1029F40078F0E24402F278F2E254F3F278D0E2445E
:102A040080F278D3E2543FF278E0E24404F278E2D0
:102A1400E254CFF278F2E254FCF278E3E254FCF2AE
:072A240078D3E254FCF2221A
:1023F50020A307E49062C0F080452090089062C059
:102405007401F0803A20A1089062C07402F0802F18
:102415002093089062C07403F0802420A008906285
:10242500C07404F0801920B1089062C07405F08072
:102435000E9062C02097057406F0800374FFF0903B
:1024450062C0E0FF121DB930A4047F018002E4FFE1
:10245500123A293094047F018002E4FF123A593080
:10246500B0047F018002E4FF123A4920A2047F01F3
:082475008002E4FF12398A2203
:100573004262ED0000C1094162DC004162DD0041DD
:0305830062DE0035
:103A19009062E90203E8906249E0FF9062DDE022EA
:073C010078E3E2543FF222D8
:1032BA009062E51203DC9062DF1203E812028B903F
:1032CA0062E51203F49062DF1204000000000012AB
:1032DA003A199062E3E0FEA3E0FFE4FCFD12028BE0
:0E32EA009062E91203F4E49062E3F0A3F02294
:102E41009062DCE004F0E0C394144023E4F090626B
:102E5100E375F00112023DC39062E4E09458906280
:102E6100E3E094024009200A06E4F0A3F0D20A301C
:102E7100A72220091C9062DF1203DCEF2401FFE48A
:102E81003EFEE43DFDE43CFC9062DF1203F41232AD
:062E9100BAD20922C209B9
:012E97002218
:10268500E47FF47E01FDFC123A19C31203CB50031B
:10269500300A6B300A0EC20A90624912040000002B
:1026A5000000801D7FC07ED47D017C009062E51214
:1026B50003E8120298123A19120323906249120391
:1026C500F49062E5120400000000009062E9120433
:1026D5000000000000E47FFF7EFFFDFC90624912D0
:1026E50003E8C31203CB400A9062491204000000BC
:0E26F500FFFF9062491203DC9062B71203F4FB
:0127030022B3
:10390100C39062EEE094FF9062EDE094FF5007E413
:0739110075F00112023D22D6
:103A0900E47BF47A01F9F89062B71203DC0203232C
:10207200E4906249F09062DEE0701404F0123A09D2
:102082009062DDEFF07F011228E67F0112384B12D9
:102092003A09906249EFF07008A3F0A37432F0801D
:1020A2002F9062DDE0FF906249E0FED39F4005EE93
:1020B2009FFF8006123A1FC39FFFEFD394017E0059
:1020C20050047F6480027F3290624AEEF0A3EFF008
:1020D20090624AE0FEA3E0FFC39062EEE09F90624E
:1020E200EDE09E4034E4F0A3F0123A1FFE9F50054B
:1020F200E004F08011EED39F400CEED39400400632
:102102009062DDE014F09062DDE0FFD394004004C1
:09211200EF048001E4FF12250333
:01211B0022A1
:080586004162EF004162F00048
:1038D2001203DCEF2401FFE43EFEE43DFDE43CFC88
:0838E200221203E8C30203CB2C
:10374300906249EFF07009FF123AB97F01023AC95A
:10375300906249E0B4010AE4FF123AC97F01123AC8
:02376300B92289
:0627040090624E1203F486
:10270A00906252E0B401047F0180027F009062531C
:10271A00EFF09062B5E07022906253E0600DE47FC2
:10272A0064FEFDFC7B64FAF9F88037E47FE87E03F7
:10273A00FDFC7BE87A03F9F880289062B5E0640131
:10274A007034906253E0600DE47FA1FEFDFC7BA132
:10275A00FAF9F8800DE47F4A7E06FDFC7B4A7A0688
:10276A00F9F890624E1203DC120323906252E09051
:06277A006258F0122D2F41
:012780002236
:10382C0090624EEFF060047F0080027F01123A99A3
:0F383C0090624EE060047F0180027F00023AA993
:1032F8009062B4E0906249F0E0FB60059062AC80B7
:10330800039062B01203DC90624A1203F4EB60048B
:103318007F0080027F01AB0790624A1203DC906253
:0E33280052EBF0122704906249E0FF02382CAD
:10224B00C39062F6E094889062F5E09413400F30EF
:10225B000B0C123B8DC20BE49062F5F0A3F0E47F04
:10226B00E87E03FDFC9062F11238E340657F187E37
:10227B00C67D9A7C3B9062AC1238E3500C9062ACFA
:10228B001238D29062AC1203F47F9C7EE07DF57C19
:10229B00059062B01238E3500C9062B01238D290B5
:1022AB0062B01203F49062F11203DCC3EF94E8FF07
:1022BB00EE9403FEED9400FDEC9400FC9062F112A1
:0222CB0003F41A
:1022CD009062EFE004F0E0C394644004E4F0D20BBC
:0122DD0022DE
:102B56009062F0E0704404F09062B5E0700BFF12F2
:102B66003AB97F01123AC9800AE4FF123AC97F01D5
:102B7600123AB99062B4E0600CE4FF123A997F0110
:102B8600123AA9800AE4FF123AA97F01123A991271
:102B960032F89062B5E0FF123743C39062F8E094D2
:102BA600E89062F7E094034007E4F0A3F01232F8ED
:012BB60022FC
:10058E004261F300004261F50000602861F700004F
:10059E00000000000000000000000000000000004D
:1005AE00000000000000000000000000000000003D
:1005BE0000000000000041621F004161F000602851
:1005CE00622000000000000000000000000000009B
:1005DE00000000000000000000000000000000000D
:1005EE000000000000000000000041624800416170
:0605FE00F1004161F20072
:1031B70025E024F7F582E43461F583EEF0A3EFF020
:1031C7002225E02420F582E4346222F583E0FEA381
:1031D700E0FFE4FCFD02028B906249E0FEA3E0FF02
:1031E70022E47B14FAF9F80203DC90624BE0FF90CB
:0431F70061F2E0227F
:0B3B9A00E4FDED1231B70DEDB414F79F
:013BA50022FD
:1037CA009061F0E0700504F0023B9A90621FE012EB
:1037DA0031B790621FE004F0E0C394144002E4F0B1
:0137EA0022BC
:1033360090624E12040000000000E490624DF0908E
:10334600624E1203E890624DE025E024F7F582E430
:1033560034611231D290624E1203F490624DE00451
:0E336600F0E0B414DA90624E1231E802032354
:10391800C39061F4E094FF9061F3E094FF5007E4F2
:0739280075F00112023D22BF
:10392F00C39061F6E094FF9061F5E094FF5007E4D7
:07393F0075F00112023D22A8
:0E3B0900E4FDED1231C81231C00DEDB414F41C
:013B1700228B
:1038B900906248E01231C81231C0906248E004F0C9
:0938C900E0C394144002E4F02273
:1034640090624E12040000000000E490624DF0905F
:10347400624E1203E890624DE01231C81231D290CC
:10348400624E1203F490624DE004F0E0B414E09054
:08349400624E1231E80203232D
:102FF000E4FDC3EF94B0EE940440028043C3EF9429
:1030000019EE940440047D018036C3EF9481EE9460
:103010000340047D028029C3EF94E9EE940240044A
:103020007D03801CC3EF9452EE940240047D048023
:103030000FC3EF94BAEE940140047D0580027D0633
:02304000AF05DA
:01304200226B
:1014C500E490624BF0A3F0C39061F4E094C890619E
:1014D500F3E0940050030215B8E4F0A3F01233369C
:1014E5007C077DD012049CE4FB7A10F9F8120323E3
:1014F500906249EEF0A3EFF09061F1E0702704F0FF
:101505001231DF123B091231DF122FF0A3EFF090F9
:1015150061F2F0700B9062BEE070101215C7800B7F
:101525001215B980061231DF1238B9123464122F40
:10153500F090624BEFF09061F2E0FE6F6018906200
:101545004BE0FFD39E4006EF9EA3F080091231F1D8
:10155500C39F90624CF090624CE0FFC39402400E32
:101565009061F6E094889061F5E094134045EFB4FE
:10157500010FC39061F6E094209061F5E0944E4030
:1015850032E49061F5F0A3F01231F1FEC39F5005EE
:10159500E004F0800BEED39F40069061F2E014F07A
:1015A5009061F2E0700A9062BEE070071215C722E2
:0315B5001215B953
:1015B80022E49062BEF09061F2E0FF12258422FFDF
:0A15C8001225849062BE7401F02227
:100604005562AC0000000000000000000000000083
:1006140000000000000000004162C1004262C2000C
:0106240000D5
:10323B007B017A627949906258740BF0E4FF123586
:10324B000B906253E0B4C51378AC7C627D017B01BB
:10325B007A6279497E007F0B0201159062B474018A
:0F326B00F09062B674C5F0E49062B5F0123B8D3E
:01327A002231
:103868009062B674C5F0E4FF1239D67B017A6279AA
:0C387800AC90624D740BF0E4FF0234D4FD
:0D3B8D00E49062C2F0A3F09062C104F02247
:0F3B18009062C1E06008A3E475F00112023D2243
:103765009062C1E0601BC39062C3E094D09062C2D6
:10377500E09407400CE49062C1F0A3F0A3F0123886
:023785006822B8
:100625004A60003F065B4F666D7D077F6F603660F1
:100635000A07050706070707080709070A070D0739
:100645000F06030604060506060607060B060A0638
:100655000906080409040A040B040C040D0400042B
:10066500010402040304046024604007030704072F
:100675000B070C070E060206010600060E060F06FE
:100685000D060C0408040E040F040504060407589F
:100695006064030A000D0501050305040506050947
:1006A500050C050D050F030F030D4E607C050505B3
:1006B5000A050E030B05000502050B50608A0702AB
:1006C5000700000E0309030C030E030003014E602F
:1006D5009A010F010D010A0109010B010E010C4ED2
:1006E50060A80001000300060007000500020004E1
:1006F5004E60B6030503060202020102000304036D
:10070500074E60C401000102010401070105010152
:1007150001034C60D2020C020D020E020F0205020B
:10072500044C60DE020B020A0209020802070206F7
:100735004E60EA000D000E000C00080508000A00D6
:100745000B4E60F8050505060509050A050C0504A7
:10075500050B4E610605020503050D050F050E0582
:100765000105005061140405040604070408010787
:100775000507000900016054612400070006000513
:10078500010F010C010B010E01080109010A020FFD
:10079500020D0100020E01050101020C020A020907
:1007A5000102020B0106010302080306040E040DF3
:1007B50001040409040C040F03050304040A040BD3
:1007C50004030401030303020301040204004C6152
:1007D50078030F030D03080206020202005261842A
:1007E500030C030B030A03090207020502040203B3
:0207F5000201FF
:100E9F00E0FCA3E0FDEF25E0247DF582E43460F56E
:100EAF0083E0FF7E007401A807082290632CE0FF07
:100EBF0025E0247CF582E43460F583E025E024808E
:100ECF00F582E43462F58322E0FCA3E0FDEF25E038
:100EDF0022906322E0FF25E024EAF582E43460F5F6
:100EEF0083E025E02474F582E43462F58322F4FF75
:100EFF00EEF45CFEED5F22FFEC4EFEED4F22F07440
:100F0F00002DF582E43460F583E02290624CE0FF1F
:100F1F0025E0249AF582E434602290624CE0FF25AC
:100F2F00E024A8F582E434602290624CE0FF25E0D3
:100F3F0024B6F582E434602290624CE0FF25E02471
:100F4F00C4F582E4346022906332E0FF25E024D2BE
:100F5F00F582E4346022E0FF25E02440F582E4349A
:100F6F006022E0FF25E0240AF582E4346022E0FFEE
:100F7F0025E024DEF582E4346022E075F00A84ADCA
:100F8F00F0E4FF22E0FCA3E0FDEF75F00EA42425B2
:100F9F00F582E43461F58322EEF0A3EFF090624B1B
:100FAF0022EEF0A3EFF09062492290625AE0FF75B3
:100FBF00F00EA42424F582E43461F58322E075F069
:100FCF000A84FD7F0122240BF582E4346022244140
:100FDF00F582E4346022E04401F0A3E0F022249B88
:100FEF00F582E434602224A9F582E434602224B728
:100FFF00F582E434602224C5F582E434602224D3E0
:10100F00F582E434602224DFF582E43460229063B9
:10101F0022E0FF25E022906327E0FEA3E0FF7C00A3
:10102F007D0A0201E8EEF0A3EFF0906332E004F0E6
:10103F00E02275F002020431E0FF25E0248AF582F8
:10104F00E4346022E0FF25E02414F582E4346122C9
:10105F00E0FF25E02478F582E4346122E0FF25E00B
:10106F002484F582E434612225E02464F582E4349B
:09107F006022E004F0E0640722A5
:102E980090632EEFF0ED6021120F71120EC8C083FF
:102EA800C082120ED7120FD5120EAE8005C333CED4
:102EB80033CED8F9120F06802290632E120F7112AA
:102EC8000EC8C083C082120ED7120FD5120EAE8064
:102ED80005C333CE33CED8F9120EFDFFD082D0838E
:062EE800EEF0A3EFF02262
:0525030090624CEFF0B6
:10250800E4A3F090624DE0FFC3941B506E90624CC0
:10251800E09F5023A3E0120F73120EC8C083C0823D
:10252800120ED7120FD5120EAE8005C333CE33CE9E
:10253800D8F9120EFD803190624DE0FF90624CE0B8
:10254800C39FD39400402BA3E0120F73120EC8C090
:1025580083C082120ED7120FD5120EAE8005C33378
:10256800CE33CED8F9120F06FFD082D083EEF0A377
:0B257800EFF090624DE004F002250B34
:012583002235
:102EEE0090632FEFF0ED6021120F65120EC8C083B4
:102EFE00C082120ED7120FDD120EAE8005C333CE76
:102F0E0033CED8F9120F06802290632F120F65125E
:102F1E000EC8C083C082120ED7120FDD120EAE8005
:102F2E0005C333CE33CED8F9120EFDFFD082D08337
:062F3E00EEF0A3EFF0220B
:0528E60090624CEFF0D0
:1028EB00E4A3F090624DE0FFC39412505D90624CF4
:1028FB00E06022EF120F67120EC8C083C082120E67
:10290B00D7120FDD120EAE8005C333CE33CED8F9FE
:10291B00120F06802290624D120F65120EC8C083F3
:10292B00C082120ED7120FDD120EAE8005C333CE4E
:10293B0033CED8F9120EFDFFD082D083EEF0A3EF89
:0A294B00F090624DE004F00228EE67
:01295500225F
:10384B00EF90628B600BE04480F090628A120FE580
:0D385B0022E0547FF090628AE054FEF022DB
:0527FB0090632AEFF0DD
:10280000E4A3F090632BE0FFC3940C506790632A1D
:10281000E06026EF121077120EC8C083C082120E3D
:10282000D72465F582E43460120EAE8005C333CE42
:1028300033CED8F9120F06802890632BE0FF1210D8
:1028400077120EC8C083C082120ED72465F582E4C9
:102850003460120EAE8005C333CE33CED8F9120EDB
:10286000FDFFD082D083EEF0A3EFF090632BE00465
:04287000F002280347
:012874002241
:10378700EF120EBFC083C082120E9F8005C333CED7
:1037970033CED8F9120F06FFD082D083EEF0A3EF15
:0237A700F0220E
:1028750074002F120F1190632DF0E490632CF090EB
:10288500632CE0FFC394075057120EB28005C33383
:10289500CE33CED8F9FF90632DE0FDEF5D601812C1
:1028A5000EBAC083C082120E9F8005C333CE33CECD
:1028B500D8F9120F068016120EBAC083C082120E06
:1028C5009F8005C333CE33CED8F9120EFDFFD082DB
:1028D500D083EEF0A3EFF090632CE004F00228849F
:0128E50022D0
:051DB900906249EFF00B
:101DBE00E4A3F090624A120EBDC083C082120E9F41
:101DCE008005C333CE33CED8F9120EFDFFD082D0AC
:101DDE0083EEF0A3EFF090624AE004F0E0B407D394
:101DEE00906249E070047F018002E4FF123A39905C
:101DFE006249E06003B4FF057F06023787906249AF
:101E0E00E02400120F1190624BF0E490624AF090C1
:101E1E00624AE0FFC394075041120EB28005C333ED
:101E2E00CE33CED8F9FF90624BE0FDEF5D6023908C
:101E3E00624A120EBDC083C082120E9F8005C3334C
:101E4E00CE33CED8F9120F06FFD082D083EEF0A398
:0A1E5E00EFF090624AE004F080B556
:011E68002257
:102BB700906330EFF0ED6025121047120EC8C08306
:102BC700C082120ED7248BF582E43460120EAE80D9
:102BD70005C333CE33CED8F9120F06802690633063
:102BE700121047120EC8C083C082120ED7248BF56D
:102BF70082E43460120EAE8005C333CE33CED8F9EB
:0E2C0700120EFDFFD082D083EEF0A3EFF0227C
:103A2900EF90628F6005E04402F022E054FDF0223D
:10398A00EF9062806008E04480F0A3E0F022E05407
:03399A007FF02299
:103A3900EF9062816005E04401F022E054FEF0223B
:0F3B2700EF9062866004120FE522E054FEF02258
:103A4900EF9062876005E04408F022E054F7F02225
:103A5900EF9062876005E04404F022E054FBF02215
:1015D200120F0E90624DF0EF707A90624CF09062B2
:1015E2004CE0FFC3940740030216CE120EB28005F0
:1015F200C333CE33CED8F9FF90624DE0FDEF5D608C
:1016020021120F1A120EC8C083C082120ED7120FF7
:10161200ED120EAE8005C333CE33CED8F9120F06CB
:10162200801F120F1A120EC8C083C082120ED71268
:101632000FED120EAE8005C333CE33CED8F9120EA3
:10164200FDFFD082D083EEF0A3EFF090624CE00475
:10165200F00215E0E490624CF090624CE0FFC3941B
:10166200075069120EB28005C333CE33CED8F9FFCC
:1016720090624DE0FDEF5D6021120F29120EC8C08D
:1016820083C082120ED7120FF5120EAE8005C3333D
:10169200CE33CED8F9120F06801F120F29120EC8B0
:1016A200C083C082120ED7120FF5120EAE8005C390
:1016B20033CE33CED8F9120EFDFFD082D083EEF0B6
:0C16C200A3EFF090624CE004F002165B15
:0116CE0022F9
:1016CF00120F0E90624DF0EF707A90624CF09062B4
:1016DF004CE0FFC3940740030217CB120EB28005F4
:1016EF00C333CE33CED8F9FF90624DE0FDEF5D608E
:1016FF0021120F38120EC8C083C082120ED7120FDC
:10170F00FD120EAE8005C333CE33CED8F9120F06BD
:10171F00801F120F38120EC8C083C082120ED7124C
:10172F000FFD120EAE8005C333CE33CED8F9120E95
:10173F00FDFFD082D083EEF0A3EFF090624CE00477
:10174F00F00216DDE490624CF090624CE0FFC3941F
:10175F00075069120EB28005C333CE33CED8F9FFCE
:10176F0090624DE0FDEF5D6021120F47120EC8C071
:10177F0083C082120ED7121005120EAE8005C3332E
:10178F00CE33CED8F9120F06801F120F47120EC894
:10179F00C083C082120ED7121005120EAE8005C381
:1017AF0033CE33CED8F9120EFDFFD082D083EEF0B8
:0C17BF00A3EFF090624CE004F002175819
:0117CB0022FB
:103A6900EF9062836005E04440F022E054BFF02209
:081B5100906249EFF0A3EDF0F2
:101B5900E4A3F090624B120F1D120EC8C083C0821D
:101B6900120ED7120FED120EAE8005C333CE33CE4F
:101B7900D8F9120EFDFFD082D083120FA7120F2CB5
:101B8900120EC8C083C082120ED7120FF5120EAE04
:101B99008005C333CE33CED8F9120EFDFFD082D0E3
:101BA90083120FA7120F3B120EC8C083C082120EF8
:101BB900D7120FFD120EAE8005C333CE33CED8F93E
:101BC900120EFDFFD082D083120FA7120F4A120EF8
:101BD900C8C083C082120ED7121005120EAE80053E
:101BE900C333CE33CED8F9120EFDFFD082D0831283
:101BF9000FA71210816003021B5C906249120F89C2
:101C09001215D2906249120FCC1215D290624A1263
:0E1C19000F891216CF90624A120FCC0216CF1E
:02199600AA05A0
:10199800EF601FEB600EEA120F8A1216CFEA120FE1
:1019A800CD0216CFEA120F8A1215D2EA120FCD0213
:1019B80015D2EB605CE4906249F0906249120F3BEB
:1019C800120EC8C083C082120ED7120FFD120EAEBF
:1019D8008005C333CE33CED8F9120EFDFFD082D0A6
:1019E80083120FB0120F4A120EC8C083C082120EA3
:1019F800D7121005120EAE8005C333CE33CED8F9F8
:101A0800120EFDFFD082D083120FB012108170AA7F
:101A180022E4906249F0906249120F1D120EC8C06C
:101A280083C082120ED7120FED120EAE8005C3339B
:101A3800CE33CED8F9120EFDFFD082D083120FB06C
:101A4800120F2C120EC8C083C082120ED7120FF5C7
:101A5800120EAE8005C333CE33CED8F9120EFDFF79
:0C1A6800D082D083120FB012108170AA3F
:011A7400224F
:10380C00EF6010906314E06016906311E0FFA3E08A
:10381C00FD8009906314E06006E4FDFF121B512249
:0F3B3600EF9062806004120FE522E054FEF0224F
:0F3B4500EF9062826004120FE522E054FEF0223E
:103A7900EF9062856005E04408F022E054F7F022F7
:102F4400906331EFF0ED6021120F59120EC8C08367
:102F5400C082120ED712100D120EAE8005C333CEEE
:102F640033CED8F9120F068022906331120F591212
:102F74000EC8C083C082120ED712100D120EAE807E
:102F840005C333CE33CED8F9120EFDFFD082D083E1
:062F9400EEF0A3EFF022B5
:102A9200EF6030E4906332F0120F56120EC8C0831A
:102AA200C082120ED712100D120EAE8005C333CEA5
:102AB20033CED8F9120F06FFD082D083121034B46D
:102AC20006D622E4906332F0120F56120EC8C0836B
:102AD200C082120ED712100D120EAE8005C333CE75
:102AE20033CED8F9120EFDFFD082D083121034B447
:022AF20006D606
:012AF40022BF
:102F9A00906333EFF0ED6021120F7D120EC8C083EB
:102FAA00C082120ED7121015120EAE8005C333CE90
:102FBA0033CED8F9120F068022906333120F7D1296
:102FCA000EC8C083C082120ED7121015120EAE8020
:102FDA0005C333CE33CED8F9120EFDFFD082D0838B
:062FEA00EEF0A3EFF0225F
:0525840090624DEFF034
:10258900E4A3F090624EE0FFC39406506E90624D52
:10259900E09F5023A3E0120F7F120EC8C083C082B0
:1025A900120ED7121015120EAE8005C333CE33CEDC
:1025B900D8F9120EFD803190624EE0FF90624DE035
:1025C900C39FD39400402BA3E0120F7F120EC8C003
:1025D90083C082120ED7121015120EAE8005C333B6
:1025E900CE33CED8F9120F06FFD082D083EEF0A3F6
:0B25F900EFF090624EE004F002258C31
:0126040022B3
:07121B00906320EFF0A3EB4C
:10122200120F0D906323F0E4906322F0906322E0AA
:10123200FFC394074003021381906321E07003020D
:1012420012E4120EB28005C333CE33CED8F9FF902A
:101252006323E0FDEF5D70030212E4906320E0146B
:10126200602A14605024026003021378120EE0C058
:1012720083C082120ED724EBF582E43460120EAEE4
:101282008005C333CE33CED8F90212DE12101D24EC
:10129200F8F582E43460120EEEC083C082120ED7DB
:1012A20024F9F582E43460120EAE8005C333CE33E6
:1012B200CED8F9802712101D2406F582E43461127B
:1012C2000EEEC083C082120ED72407F582E4346189
:1012D200120EAE8005C333CE33CED8F9120F0602FA
:1012E200136E906320E014602D1460562402600394
:1012F200021378120EE0C083C082120ED724EBF5DF
:1013020082E43460120EAE8005C333CE33CED8F9F8
:10131200120EFD02136E12101D24F8F582E43460E1
:10132200120EEEC083C082120ED724F9F582E43485
:1013320060120EAE8005C333CE33CED8F9120EFD45
:10134200802A12101D2406F582E43461120EEEC0CA
:1013520083C082120ED72407F582E43461120EAEE6
:101362008005C333CE33CED8F9120EFDFFD082D022
:0F13720083EEF0A3EFF0906322E004F002122E5E
:011381002249
:082D8C00906327EEF0A3EFF0C5
:102D9400E4A3F0AA06AB07906329E004F07C007D6D
:102DA4000AAF03AE021201E8AA06AB07EB4A70E7CA
:102DB400E4FA906329E0FFEAC39FAF025019C00709
:102DC400121025D0077B0112121B121025906327C5
:102DD400EEF0A3EFF08006E4FBFD12121B0AEAB446
:022DE40003D01A
:012DE60022CA
:10399D00EF9062746008E04480F0A3E0F022E05400
:0339AD007FF02286
:103A8900EF9062756005E04401F022E054FEF022F7
:102C1500906334EFF0ED6025121053120EEEC08371
:102C2500C082120ED72415F582E43461120EAE80EF
:102C350005C333CE33CED8F9120F06802690633400
:102C4500121053120EEEC083C082120ED72415F552
:102C550082E43461120EAE8005C333CE33CED8F98B
:0E2C6500120EFDFFD082D083EEF0A3EFF0221E
:0239E700AB072C
:0E39E900E4FAAF02AD03122C150AEAB408F49A
:0139F70022AD
:103A9900EF90627D6005E04410F022E054EFF022DF
:103AA900EF90627B6005E04401F022E054FEF022D1
:103AB900EF9062756005E04404F022E054FBF022C7
:103AC900EF9062756005E04408F022E054F7F022B7
:081C270090625AEFF0A3EBF00C
:101C2F00E490625D120F0D90625DF0E490625CF0E3
:101C3F0090625CE0FFC394074003021CF190625B6B
:101C4F00E06052120EB28005C333CE33CED8F9FF07
:101C5F0090625DE0FDEF5D603C120FB9C083C08202
:101C6F0090625CE0D082D083121041120EF0C083DC
:101C7F00C082120F93C083C08290625CE0D082D08A
:101C8F0083121041120EB08005C333CE33CED8F974
:101C9F00120F06803A120FB9C083C08290625CE0C7
:101CAF00D082D083121041120EF0C083C082120F67
:101CBF0093C083C08290625CE0D082D083121041C7
:101CCF00120EB08005C333CE33CED8F9120EFDFFFE
:101CDF00D082D083EEF0A3EFF090625CE004F002CC
:021CEF001C3F98
:011CF10022D0
:1039B000EF9062766008E04420F0A3E0F022E0544B
:0339C000DFF02213
:062D2F009062541203F44F
:102D3500906258E07003FF80027F011239B0E49081
:102D45006259F0906259E0FFC394065039C007E418
:102D55007B0AFAF9F89062541203DC120323AF03DD
:102D6500AD07D0077B01121C279062541203DCE4E7
:102D75007B0AFAF9F81203239062541203F4906265
:062D850059E004F080BDDE
:012D8B002225
:1039C300EF90627A6008E04440F0A3E0F022E05414
:0339D300BFF02220
:103AD900EF90627B6005E04480F022E0547FF022A1
:103AE900EF9062756005E04410F022E054EFF02297
:102C7300906335EFF0ED602512105F120EEEC08306
:102C8300C082120ED72479F582E43461120EAE802D
:102C930005C333CE33CED8F9120F068026906335A1
:102CA30012105F120EEEC083C082120ED72479F584
:102CB30082E43461120EAE8005C333CE33CED8F92D
:0E2CC300120EFDFFD082D083EEF0A3EFF022C0
:0239F800AB071B
:0E39FA00E4FAAF02AD03122C730AEAB406F42D
:013A0800229B
:102CD10090624DEFF0ED602512106B120EEEC08385
:102CE100C082120ED72485F582E43461120EAE80C3
:102CF10005C333CE33CED8F9120F06802690624D2C
:102D010012106B120EEEC083C082120ED72485F50D
:102D110082E43461120EAE8005C333CE33CED8F9CE
:0E2D2100120EFDFFD082D083EEF0A3EFF02261
:02363200AB07E4
:10363400E4FAEBD39A5006AF02E4FD8017EA2401C2
:10364400FFE433FEEBC39FEE6480F8748098400778
:0C365400AF027D01122CD10AEAB409D6A5
:013660002247
:1007F7005362C40A000000000332410000000000F9
:0E08070002FF3BE800004562D7010102030436
:0F3B5400EC75F005A424D7F582E43462F58322E2
:073C080078C3E2543FF222F1
:093BE8002087037F01227FFF22E8
:10317200E4FEFCFBEDB401030B8016EDB403047B0B
:1031820002800EEDB404047B038006EDB405027BDD
:1031920004ECC39401501B123B54E0B50711123BDF
:1031A20054E5822BF582E43583F583E0FE80030C3F
:0431B20080DFAF0605
:0131B60022F6
:101E69009062D5E07003021F18E0FFA3E0FD123174
:101E790072E49062D5F0A3F0EF24FE60420460039F
:101E8900021F18906300E0701E9062B4E070047F36
:101E99000180027F009062B4EFF01232F89062B5CF
:101EA900E0FF1237438065906300E0B4010F906250
:101EB900B5E0700404F08054E49062B5F0804D9070
:101EC9006300E070259062B4E0B401047F018039B9
:101ED9009062B012040000000000123B8D1232F82B
:101EE9009062B5E0FF1237438022906300E0B401AD
:101EF900047F028014906300E0B402047F03800928
:0F1F0900906300E0B40305E4FF123BC81236B446
:011F180022A6
:1008150042630100004862F900000000000000008A
:10372000E49062F9F0A3F09062FDF0A3F022C39060
:1037300062FAE094909062F9E0940122E475F0015D
:0337400002023D45
:083BF900E4906300F00236B411
:102A2B00C390630BE094FF90630AE094FF50031292
:102A3B00373C1238EA123901C3906302E094FF90DD
:102A4B006301E094FF500312373C906300E0640194
:102A5B006009E064026004E0B40328C39062FAE00A
:102A6B0094FF9062F9E094FF500312373CC39062DD
:102A7B00FEE094FF9062FDE094FF500AE475F001D4
:072A8B0002023D1237202278
:0B3BC800906300EFF0E49062FFF02239
:1021B600C3906302E094DB906301E0940150030254
:1021C600224AE4F0A3F09062BEE0602B906284E0C5
:1021D600131313541F90628230E00DE054FEF0900A
:1021E6006284E054F7F0800FE04401F0A3E0F0A32E
:1021F600E04408F0A3E0F09062BFE0602B90627AC2
:10220600E0C4540F30E00DE054EFF0E4FF1239C3A0
:10221600E4FF801190627AE04410F0A3E0F07F01C1
:102226001239C37F01123AD9906282E0FEA3E078A8
:1022360006CEC313CE13D8F930E004E4FF80027F44
:0522460001123A6922BB
:1018B300906300E014601B14700302193F2402605C
:1018C30003021973906307E0FFA3E0FD121B5102AB
:1018D300197312372E5003021973E4F0A3F09062C8
:1018E300B5E07028906274E0FEA3E07803CEC313E2
:1018F300CE13D8F930E009E4FF123AC9E4FF8007B8
:101903007F01123AC97F01123A8980649062B5E07F
:101913006401705C906274E0FEA3E07802CEC313AE
:10192300CE13D8F930E009E4FF123AB9E4FF800797
:101933007F01123AB97F0112399D803412372E404C
:1019430051E4F0A3F09062FFE09063087008E0FDBB
:101953007B017F018006E0FD7B01E4FF1219969075
:1019630062FFE070047F0180027F009062FFEFF06E
:10197300122B56122072C390630BE094E890630A13
:10198300E094034007E4F0A3F012312C1221B612C5
:0319930036FD22FC
:1036B400123720906300E0FF1232F89062B5E07098
:1036C40009FF12399D7F01023A89E4FF123A897F8A
:0536D4000112399D22E6
:1008250041629200416293004162940041629500E9
:1008350041629600416297004162980041629900C9
:1008450041629A0041629B0041629C0041629D00A9
:1008550041629E0041629F004162A0004162A10089
:0C0865004162A2004162A3004162A400B5
:103AF900906299E0FD7B0122E004F0E0C394FF228B
:0B3BD3009062A5E06004A3E004F02273
:101382009062ABE060030214C4906294E0B4101364
:10139200E4FD7F07122C15906296123B01407BE41C
:1013A200F08071906292E0B4010D906294E0700757
:1013B200FDFF122C158063906296E004F0E0C39466
:1013C200294057E4F0906292E0702E906294E0948B
:1013D200085006E0FF7D018009906294E024F8FF46
:1013E200E4FD122C15906294E004F0E0C3941040E6
:1013F200299062927401F08021906294E0C3940873
:101402004008E024F8FF7D018007906294E0FFE449
:10141200FD122C15906294E014F0906295E0B424D1
:101422001BE4FD7F11122EEE906297123B015003D6
:101432000214C4E4F0906295740AF022906293E080
:10144200B40110906295E0700AFDFF122F44906281
:10145200AB8040906297E004F0906293E070389025
:101462006297E0C39412402FE4F0906295E09412E8
:101472005006E0FF7D018009906295E024EEFFE4D2
:10148200FD122EEE906295E004F0E0C39424403207
:101492009062937401F022906297E0C394424022DA
:1014A200E4F0906295E094064008E024FBFF7D01A1
:1014B2008007906295E0FFE4FD122F44906295E070
:0214C20014F024
:0114C4002205
:100C51009062ABE064016003020E9E906298E070C6
:100C61007704F090629F7407F09062A37411F07F93
:100C71000112399D7F01123A897F01123A997F0150
:100C8100123AA97F01123AB97F01123AC97F0112C2
:100C910039C37F01123AD97F01123AE97F01123A31
:100CA100297F0112398A7F01123A397F01123B27CC
:100CB1007F01123A497F01123A597F01123A697F45
:100CC10001123B367F01123B457F01123A797F01C8
:100CD10012384B7F011227FB90629AE004F0E0C3C7
:100CE10094965003020DDAE4F0123AF9E4FF12127D
:100CF1001B123AF97F0112121B123AF97F021212EA
:100D01001B123AF9E4FF121C27123AF97F01121C57
:100D110027123AF97F02121C27123AF97F03121C9B
:100D210027123AF97F04121C27123AF97F05121C87
:100D31002790629EE0FF7D01122CD1906299E0FF25
:100D4100122875906299E0FDE4FF1215D290629924
:100D5100E0FD7F011215D2906299E0FDE4FF1216C9
:100D6100CF906299E0FD7F011216CF90629FE0FF64
:100D71007D01122BB790629FE0FF7D01122C15902F
:100D810062A0E0FF7D01122F449062A0E0FF7D018F
:100D9100122C739062A1E0FF7D01122F9A9062994B
:100DA100E0C394095003E004F090629EE0C394080C
:100DB1005003E004F090629FE0D394004003E014FC
:100DC100F09062A0E0C394055003E004F09062A1AA
:100DD100E0C394055003E004F090629BE004F090BE
:100DE10062A4E070249062A2E0B41A1D7D017F1A12
:100DF100122E9890629BE0C394FF405E9062A474AF
:100E010001F0E490629BF080519062A4E070239025
:100E1100629BE0C39425401AE4F09062A2E0FF7D5A
:100E210001122E989062A2E0C3941A502DE004F0B2
:100E310080289062A4E0B4012190629BE0C3940CED
:100E41004018E4F09062A2E0FFE4FD122E98906257
:100E5100A2E0D394004003E014F090629CE004F01F
:100E6100E0C394374018E4F09062A3E0FF7D0112E3
:100E71002EEE9062A3E0D394004003E014F0906260
:100E8100A4E0B401189062A2E07012A3E0700E9089
:0D0E9100629D123B0140069062AB7405F0BB
:010E9E002231
:103043007E007F077D007B017A6279A51204C99017
:1030530062A57401F09062A5E0603775D9AAA3E078
:10306300C3940140F0E4F0121382120C519062AB4E
:10307300E0B40519E4FF12399DE4FF123A89E4FF35
:10308300123A99E4FF123AA9E49062A5F01236FDD0
:0330930080C322D5
:1008710042619A000042619C00006028619E000074
:100881000000000000000000000000000000000067
:100891000000000000000000000000000000000057
:1008A1000000000000004161C600602861C700002F
:1008B1000000000000000000000000000000000037
:1008C1000000000000000000000000000000000027
:1008D1000000000000004161EF00416196004161AC
:0A08E1009700416198004161990001
:1030960025E0249EF582E43461F583EEF0A3EFF09B
:1030A6002225E024C7F582E4346122F583E0FEA3FD
:1030B600E0FFE4FCFD02028B906249E0FEA3E0FF24
:1030C6002290624BE0FF906199E0C39F22E47B145B
:1030D600FAF9F80203DC1235D3A3EFF090619922D6
:0B3BA600E4FDED1230960DEDB414F7B5
:013BB10022F1
:1037EB00906196E0700504F0023BA69061C6E01272
:1037FB0030969061C6E004F0E0C394144002E4F00C
:01380B00229A
:1033740090624E12040000000000E490624DF09050
:10338400624E1203E890624DE025E0249EF582E44B
:1033940034611230B190624E1203F490624DE00435
:0E33A400F0E0B414DA90624E1230D30203232C
:0E3B6300E4FDED1230A712309F0DEDB414F406
:013B71002231
:1036D900906197E0700504F0023B639061EFE0129E
:1036E90030A712309F9061EFE004F0E0C3941440DA
:0336F90002E4F0F8
:0136FC0022AB
:10349C0090624E12040000000000E490624DF09027
:1034AC00624E1203E890624DE01230A71230B190D8
:1034BC00624E1203F490624DE004F0E0B414E0901C
:0834CC00624E1230D30203230B
:10394600C390619BE094FF90619AE094FF5007E476
:0739560075F00112023D2291
:10395D00C390619DE094FF90619CE094FF5007E45B
:07396D0075F00112023D227A
:1035D300C3EF9480EE943E40047D098020C3EF94B2
:1035E30028EE94234015EF24D8FFEE34DCFE7C0351
:0F35F3007DE81201E8EF2402FD8002E4FDAF0540
:0136020022A5
:1017CC00E490624BF0A3F0C390619BE09464906151
:1017DC009AE0940050030218B2E4F0A3F0123374B0
:1017EC00E4FCFD7B407ADB7902F8120298E47B0A78
:1017FC00FAF9F8120323E4FB7A10F9F8120323EF39
:10180C002464FFE43E906249F0A3EFF0906198E00D
:10181C00702104F01230BE123B631230BE1230DC69
:10182C00F0E070059062BF04F0906199E0FF123611
:10183C003280061230BE1236D912349C906249EEB8
:10184C00F0A3EFF01230DCE06F601BE0FF90624B16
:10185C00E0FED39F4009906199E0FFEE9F80031258
:10186C0030C790624CF0E490619CF0A3F01230C74A
:10187C005005E004F0800B906199E0D39F4003E0A9
:10188C0014F0906199E070119062BFE07004FF1247
:10189C0036329062BF7401F022E49062BFF0906126
:0618AC0099E0FF12363244
:0118B2002213
:102136000233EEE493A3F8E493A34003F68001F29E
:1021460008DFF48029E493A3F85407240CC8C333AA
:10215600C4540F4420C8834004F456800146F6DF79
:10216600E4800B0102040810204080900539E47ECB
:10217600019360BCA3FF543F30E509541FFEE4936E
:10218600A360010ECF54C025E060A840B8E493A335
:10219600FAE493A3F8E493A3C8C582C8CAC583CA60
:1021A600F0A3C8C582C8CAC583CADFE9DEE780BE18
:0108EB00000C
:10004500E709F608DFFA8046E709F208DFFA803E9D
:1000550088828C83E709F0A3DFFA8032E309F6088A
:10006500DFFA8078E309F208DFFA807088828C83F2
:10007500E309F0A3DFFA806489828A83E0A3F608A6
:10008500DFFA805889828A83E0A3F208DFFA804C80
:1000950080D280FA80C680D4806980F28033801057
:1000A50080A680EA809A80A880DA80E280CA8033C0
:1000B50089828A83ECFAE493A3C8C582C8CCC58338
:1000C500CCF0A3C8C582C8CCC583CCDFE9DEE78008
:1000D5000D89828A83E493A3F608DFF9ECFAA9F087
:1000E500EDFB2289828A83ECFAE0A3C8C582C8CCDD
:1000F500C583CCF0A3C8C582C8CCC583CCDFEADEF6
:10010500E880DB89828A83E493A3F208DFF980CC57
:1001150088F0EF60010E4E60C388F0ED2402B40450
:100125000050B9F582EB2402B4040050AF232345F7
:0601350082239000957387
:10013B00BB010689828A83E0225002E722BBFE02C2
:09014B00E32289828A83E49322F5
:10015400BB010CE58229F582E5833AF583E0225060
:1001640006E92582F8E622BBFE06E92582F8E222AA
:0D017400E58229F582E5833AF583E49322C4
:10018100BB010FF8E58229F582E5833AF583E02882
:10019100F0225009C58229F8E58226F622BBFE0924
:1001A100C58229F8E22582F222F8EA2583F583E95E
:0301B1009328226E
:1001B400BB010689828A83F0225002F722BBFE012A
:0201C400F32224
:1001C600F8BB010DE58229F582E5833AF583E8F06F
:1001D600225006E92582C8F622BBFE05E92582C81B
:0201E600F22203
:1001E800BC000BBE0029EF8DF084FFADF022E4CCFB
:1001F800F875F008EF2FFFEE33FEEC33FCEE9DECC4
:10020800984005FCEE9DFE0FD5F0E9E4CEFD22ED09
:10021800F8F5F0EE8420D21CFEADF075F008EF2F53
:10022800FFED33FD4007985006D5F0F222C398FD44
:050238000FD5F0EA22E1
:10023D00C5F0F8A3E028F0C5F0F8E582158270024C
:06024D001583E038F022E9
:10025300BB0110E58229F582E5833AF583E0F5F0E9
:10026300A3E0225009E92582F886F008E622BBFEC6
:100273000AE92582F8E2F5F008E222E5832AF5830C
:08028300E993F5F0A3E99322D1
:0D028B00EF2BFFEE3AFEED39FDEC38FC22C2
:10029800E88FF0A4CC8BF0A42CFCE98EF0A42CFC05
:1002A8008AF0EDA42CFCEA8EF0A4CDA8F08BF0A483
:1002B8002DCC3825F0FDE98FF0A42CCD35F0FCEBE2
:1002C8008EF0A4FEA9F0EB8FF0A4CFC5F02ECD39A7
:0F02D800FEE43CFCEAA42DCE35F0FDE43CFC2214
:1002E70075F008758200EF2FFFEE33FECD33CDCCCE
:1002F70033CCC58233C5829BED9AEC99E582984051
:100307000CF582EE9BFEED9AFDEC99FC0FD5F0D62D
:10031700E4CEFBE4CDFAE4CCF9A88222B800C1B957
:100327000059BA002DEC8BF084CFCECDFCE5F0CB95
:10033700F97818EF2FFFEE33FEED33FDEC33FCEBCE
:1003470033FB10D703994004EB99FB0FD8E5E4F989
:10035700FA227818EF2FFFEE33FEED33FDEC33FC76
:10036700C933C910D7059BE99A4007EC9BFCE99A6A
:10037700F90FD8E0E4C9FAE4CCFB2275F010EF2FAF
:10038700FFEE33FEED33FDCC33CCC833C810D707AF
:100397009BEC9AE899400AED9BFDEC9AFCE899F8EA
:0E03A7000FD5F0DAE4CDFBE4CCFAE4C8F9227D
:1003B500EB9FF5F0EA9E42F0E99D42F0EC6480C8BF
:0603C50064809845F0225F
:1003CB00EB9FF5F0EA9E42F0E99D42F0E89C45F088
:0103DB0022FF
:0C03DC00E0FCA3E0FDA3E0FEA3E0FF2294
:0C03E800E0F8A3E0F9A3E0FAA3E0FB2298
:0C03F400ECF0A3EDF0A3EEF0A3EFF0227C
:10040000A8828583F0D083D08212041712041712B9
:100410000417120417E473E493A3C583C5F0C583DE
:10042000C8C582C8F0A3C583C5F0C583C8C582C846
:0104300022A9
:0C043100A42582F582E5F03583F58322D6
:09043D00E0FBA3E0FAA3E0F922C0
:10044600F8E0FBA3A3E0F925F0F0E582158270023F
:070456001583E0FA38F022E3
:09045D00EBF0A3EAF0A3E9F022A0
:10046600BB010DE58229F582E5833AF58302043D59
:100476005007E92582F80204F5BBFE07E92582F854
:100486000204FEE58229F582E5833AF58302050733
:060496008A838982E473F1
:10049C00EC8EF0A4CCC5F0CCCDF8EFA4CEC5F02DED
:1004AC00FDE43CFCE8A42EC8C5F03DFDE43CFCEFAB
:0D04BC00A4FFE5F028FEE43DFDE43CFC2239
:1008EC00E508244CF582E43462F583E00508229097
:1008FC00624930070390624CE475F0011204460221
:10090C00013B2000E97F2ED2008018EF540F249079
:10091C00D43440D4FF30040BEF24BFB41A0050037E
:10092C002461FFE50960021509050CE50C70020550
:10093C000B30070E906249E475F001120446EF0289
:10094C0001B4023B727403D2078003E4C207F508BA
:10095C0090624912045DE4F509F50BF50CE50960AC
:10096C00077F2012092F80F5750AFFC201C200C251
:10097C0002C203C205C206C2081208FBFF700D308A
:10098C0007057F00120940AF0CAE0B22B4255FC2E5
:10099C00D5C2041208FBFF24D0B40A00501A75F01B
:1009AC000A780930D50508B6FF0106C6A426F6203C
:1009BC00D5047002D20380D924CFB41A00EF5004AE
:1009CC00C2E5D204020B41D20180C6D20080C0D253
:1009DC000280BCD2D580BAD20580B47F2012092FF8
:1009EC002002077401B5090040F11208ECFF12094E
:1009FC002F020969D208D20680951208ECFB120866
:100A0C00ECFA1208ECF94A4B700679127A0C7BFF5F
:100A1C0020022EE509602A7E008E82758300120169
:100A2C005460060EEE650A70F0C2D5EBC0E0EAC069
:100A3C00E0E9C0E0EE120B88D0E0F9D0E0FAD0E0AB
:100A4C00FB12013BFF60AAEBC0E0EAC0E0E9C0E0AA
:100A5C0012092FD0E02401F9D0E03400FAD0E0FBE9
:100A6C00E50A0460DCD50AD980877BFF7A0B798490
:100A7C00D202809C791080027908C206C2088008D4
:100A8C00D2D5790A8004790AC2D5E50A047002F538
:100A9C000AE4FAFDFEFF1208ECFC7B08200113129D
:100AAC0008ECFD7B1030000A1208ECFE1208ECFF7B
:100ABC007B20EC3382D592D55013C3E43000069FD3
:100ACC00FFE49EFEE42001039DFDE49CFCE4CBF8D6
:100ADC00C201EC700CCFCECDCCE824F8F870F380CA
:100AEC0017C3EF33FFEE33FEED33FDEC33FCEB338A
:100AFC00FB994002FB0FD8E9EB300105F8D0E0C4BC
:100B0C0048B201C0E00AEC4D4E4F78207B0070C219
:100B1C00EAB50A0040BCC0E0120B8AD0F0D0E0204D
:100B2C000104C4C0E0C4B201C0F0120918D0F0D561
:100B3C00F0EB0209691205130A06530A805809D70B
:100B4C004C09D3420A844F0A8C440A8C4909EC4361
:080B5C000A92550A76460A765A
:100B6400450A76470C325009DB2D09DF2E0A022B89
:100B740009E3230A00200C1B2A099B48000009FAF8
:100B84003F3F3F00790AA2D5200314300509B9106C
:100B9400020404B9080104A2D5200602500104206D
:100BA40002689202B509005034C0E07F2030031976
:100BB4007F30A20272067205500F120BE1C202C20C
:100BC40006C205C2087F30800F300503E9C0E01279
:100BD400092F300503D0E0F9D0E0B509CC30051772
:100BE4007F30B9100C12092F7F583004077F7880AA
:100BF40003B9080312092F3002057F2D02092F7F44
:100C0400202008F87F2B2006F322920280CF286E42
:100C1400756C6C2900D2011208EC3001F8C201781D
:100C24000930D50108F602099B2D50434958120892
:100C3400EC2403B405004001E4900C2D9312092028
:0D0C4400743A120920D203750904020A80D7
:1004C900EF4E6012EF60010EEDBB010B89828A834A
:1004D900F0A3DFFCDEFA2289F05007F709DFFCA957
:0C04E900F022BBFEFCF309DFFCA9F022AE
:0904F500E6FB08E6FA08E6F9222C
:0904FE00E2FB08E2FA08E2F9222F
:0C050700E493FB740193FA740293F92250
:10051300D083D082F8E4937012740193700DA3A377
:1005230093F8740193F5828883E47374029368608B
:06053300EFA3A3A380DF8B
:00000001FF
