:030000000222E5F4
:1022E500787FE4F6D8FD9060007F007E07E4F0A3D8
:0A22F500DFFCDEFA75812002233AB7
:0C000300000000000000000000000000F1
:0B3DE900EF1FAC0670011E4C70F622AC
:10002700AB07AA06EB1BAE0270011A4E600C7FAA43
:0B0037007E05123DE975D9AA80EA227F
:101C4400907120E04480F07F057E00123DE9E4FFBE
:101C5400FE12002775A75575AC5C9071327450F074
:101C64009071307403F0907136742FF090715C743D
:101C740003F090715BE054FCF07F18EF2466FDE400
:101C840034718D82F583E4F00FEFB433EE9040119C
:101C9400E4935407FF90711CE054F84FF090401700
:101CA400E493547FFF90711DE054804FF0904010F6
:101CB400E493FF5401C43333335480FE907123E022
:101CC400547F4EF0EFC313543F4440FFA3E05480CD
:101CD4004FF0904012E493FF540FFE907146E0548D
:101CE400F04EF0EFC4540FFF90714FE054F04FF0FA
:101CF400904013E493543FFF907140E054C04FF080
:101D0400904014E493907126F0904015E493907100
:0B1D140028F0904016E49390712AF034
:011D1F0022A1
:10000F00E0FEA3E0FFE4FCFD7BFF7AFFF9F8D302EB
:02001F0003C319
:1033E100E5B154CF42B153A8BFD2AF75D102789C99
:1033F100E254E3F2E2441CF2E254FCF2E24401F250
:1034010008E2547FF2E24420F278A17401F21874C8
:1034110076F2789CE2541FF2E244C0F243A84022C3
:0300210002252A8B
:10252A00C0E0C0F0C083C082C0D075D000C000C077
:10253A0001C002C003C004C005C006C007789DE2FE
:10254A0030E74CE24480F21235D59062F9E0C39448
:10255A00FF5003E004F090633812000F400A9063C2
:10256A0038E475F00112023D90633A12000F400AF6
:10257A0090633AE475F00112023D123B5A123B7124
:10258A00123B88123B9F123D50123E0A122941D03B
:10259A0007D006D005D004D003D002D001D000D095
:0A25AA00D0D082D083D0F0D0E03210
:1037CC00E5B254FC42B253A9FED2AF75D10490714C
:1037DC00057409F0907104745FF0907101E0547FEE
:1037EC00F0E04420F0907100E0E4F0E044C1F043DC
:0337FC00A90122FE
:030024000231FBAB
:1031FB00C0E0C0F0C083C082C0D075D000C000C09A
:10320B0001C002C003C004C005C006C00790710115
:10321B00E030E70AE04480F0122844122CBCD007BF
:10322B00D006D005D004D003D002D001D000D0D02E
:09323B00D082D083D0F0D0E03243
:0405210041634B00E7
:0A3E15007869E24401F290634B2249
:1038EE0078C3E24430F2E2440CF2786AE24479F2B0
:1038FE007591FF9071227407F0439E704399404377
:05390E00AA04D2AF2263
:103890005399E0907123E05498F0EF24FE600F04F8
:1038A0007016907123E04459F0439906800A907194
:0F38B00023E0445AF04399057869E24448F22234
:1035D50090634BE014601914601D14602614600498
:1035E500240470257F0112389090634B7401F022FA
:1035F500123E157402F0227F0212389090634B74CC
:0A36050003F022123E157404F022B7
:030042000227C4CE
:1027C400C0E0C0F0C083C082C0D075D000C000C0DB
:0D27D40001C002C003C004C005C006C0075C
:1027E100786BE230E142E24402F2AF93EF75F01010
:1027F100A4FFE594C4540FFDEF4DFF906325E5F070
:10280100F0A3EFF090634BE024FC601124027018F8
:10281100906325E0FEA3E0FF123A28800B90632528
:08282100E0FEA3E0FF123A49BA
:10282900D007D006D005D004D003D002D001D00003
:0B283900D0D0D082D083D0F0D0E032AD
:103A0700906310F090634602044B90000612015435
:103A1700FE9000080201549000091201C690000CA4
:013A2700227C
:100D5600E4906310F07FFFA374FFF09063461204E3
:100D66006B900001120154FE12013BFDEEC39D5033
:100D760003020EE8123A0B900001E41201C690003D
:100D86000E1204741204A4EFF460089063457423F1
:100D9600F08009906345E06003E014F0123A0B908E
:100DA60000031201546F6015900005120154600D86
:100DB600900004E41201C6900003020EE4900005C0
:100DC600120154FE900004120154C39E500B123AB5
:100DD6000B9000047401020181123A0B900002127A
:100DE60001546F6048EFF4701C123A11C39E400A1A
:100DF6007405123A079000028061123A0B90000ABD
:100E06007401020EDB123A0B9000087401123A21AB
:100E16001201546F906346600C12044B7401123A2F
:100E26001EEF020EDB12044B900009803DEFF470BA
:100E360041123A0B900009120154D3940050030258
:100E46000EDE90000B120154FE90000A120154D3DC
:100E56009E40117401123A0790000C1201549063DF
:100E660011F08054123A0B90000A740112018102AB
:100E76000EDE123A0B123A18C394FF50089000087F
:100E86007401120181123A11B506089063107403B9
:100E9600F08020123A0B900007123A146E703990C7
:100EA60063107404123A0A90000612015490000866
:100EB6001201C6906311EFF0123A0BE4123A1E7457
:100EC600FF1201C6906311E09000111201C69063F3
:100ED60010E09000121201C6123A0B900002EF12B7
:020EE60001C643
:010EE80022E7
:103C400075AF3F8FAF75AEB975A402E5A530E1FB46
:013C50002251
:10372A0090631112046B75AF3F8FAF906314E0C3BF
:10373A0094014022E5A530E0FB906311E475F001A5
:10374A0012045412013BF5A675AEB975A401906333
:07375A0014E014F080D522F9
:1037980090631C12046B90631FE06027AE070FEE66
:1037A8002400FDE4343F8D82F583E493FE90631C8E
:1037B800E475F001120454EE1201B490631FE01492
:0437C800F080D32298
:100525004262C400004C62A8000000000000000008
:10053500000000005062B400000000000000000050
:0705450000000000000000AF
:103599009FFFE49400FEEF25E0FFEE33FE12044B9B
:1035A9008F828E83120253FF2290631EE0FF906385
:1035B90018E0227B017A6279B490631412046B904B
:0C35C9006317227E007D007B010204D706
:103B4300C39062C5E094FF9062C4E094FF5007E421
:073B530075F00112023D2292
:061EC10090631012046B97
:101EC700C374089D90631EF0906317E0FFC3740806
:101ED7009F90631FF0C291C292E4906318F0E49060
:101EE700631AF0A3F090631CF0A3F01235B2C39FFE
:101EF70040121235B290631012359990631AE5F0CB
:101F0700F0A3EFF090631F1235B5C39F40159063A0
:101F17001F1235B590631412359990631CE5F0F0E4
:101F2700A3EFF0E4906319F090631AE030E703D36E
:101F37008001C3928390631CE030E703D38001C321
:101F47009295D29190631BE025E0F090631AE033FD
:101F5700F090631DE025E0F090631CE033F0C29140
:101F6700906319E004F0E0B410BE906318E004F049
:101F7700E064086003021EE5D292C292C283C29552
:011F87002237
:10395C00C39062C5E094199062C4E094004013E4F3
:10396C00F0A3F01235BC7408F07A6279A87D0612C7
:03397C001EC12247
:1020E7007F0C7A6279A81235CC7F107A6279B412A4
:1020F70035CC78D2E254F3F2E24404F2907187E4EB
:10210700F078C2E2543FF2E24440F2907181E4F089
:1021170078D3E254F3F2E24404F290718BE4F018BE
:10212700E254CFF2E24410F2907188E4F008E254EE
:10213700CFF2E24410F290718C740AF07856E4F210
:10214700782774BBF218747FF27833E4F218F278C8
:1021570019F218E24401F27811E24401F27817E229
:102167004401F27812E24401F27814E24401F2C227
:1021770083C295C291C2921235BC7406F07A627915
:0A218700A8FD121EC17F640237FF9D
:1037FF00C374649FFFE49400FE3395E0FDFCE47B0B
:10380F007F7ABBF9F81202A6E47B64FAF9F8120387
:10381F0031AC06EC7833F218EFF27817E24401F28C
:01382F002276
:0F054C0047633C000000000000004263430000D2
:10383000A3F0123E2FC282C284D2817F047E002276
:10384000E254CFF2E24410F2907180E4F0229063EF
:103850001DE004F0E0C3940822FFE0FEA807082260
:063E2F0078C212384022A7
:0D3DAA0078C0E24404F278C2E254CFF22265
:102FA900E4FF78C2E254F3F2E24404F290717FE460
:102FB900F008E254FCF2E24401F2907182E4F01864
:102FC900123840C281C284122BFAEF702A7D0A7F1F
:102FD9008C1220387D017F881220387D017F86126E
:102FE9002038E4FD7F821220387D0C7F841220383E
:072FF900E4FD7F8012203887
:0130000022AD
:103AE000E4FDEE25E0FEEF30E004EE4401FEEFC31E
:093AF00013FF0DEDB408EBAF0665
:013AF90022AA
:022B8C00AC0794
:102B8E00E4906311F0AF05123AE0EC64816019EC49
:102B9E0064836014EC6485600FEC6487600AEC64F7
:082BAE00896005EC648D7043A1
:102BB600E4906312F0A3F0EC64816004ECB4830645
:102BC600EF547FFF8017EC64856004ECB48706EF52
:102BD600543FFF8008ECB48904EF541FFFEFC45440
:102BE6000FFE906312F0EF540FFFA3F0EE75F00A9C
:032BF600A42FFF0A
:012BF90022B9
:05263C00906311EFF0B6
:10264100E4A3F0123830123DE9E4906313F012264E
:10265100A4906313E09063111238598002C313D818
:10266100FC30E004D2828002C2827F047E00123DEF
:10267100E91226AE40D8123DAAE4906313F09063AC
:1026810012E025E0F01226A4308207906312E044A4
:1026910001F01226AE40E7C284C281C28290631269
:0226A100E0FF58
:1026A30022C2847F047E00123DE922D2847F047E0D
:0F26B30000123DE9906313E004F0E0C3940822A5
:053BB600906310EFF028
:103BBB00E4FE12263CAE07906310E0FFAD06022B2D
:013BCB008C6D
:0824120090631BEFF0A3EDF055
:10241A00E4123830123DE9E490631DF012249590DD
:10242A00631DE090631B1238598002C313D8FC3035
:10243A00E004D2828002C28212248412384E40DC26
:10244A00E490631DF012249590631DE0FF90631CD5
:10245A00E0FEA807088002C313D8FC30E004D28249
:10246A008002C28212248412384E40D9C2847F0468
:09247A007E00123DE9C281C2821C
:10248300227F047E00123DE9D2847F047E00123D48
:0C249300E922C2847F047E00123DE92291
:102BFA0012328BD390633DE0943390633CE09408A7
:102C0A005049C3A3E094D090633CE09407403C90C1
:102C1A00633EE0D3940C5033E0C39401402DA3E00B
:102C2A00D3941F5026E0C394014020A3E094185087
:102C3A001AA3E0C3943C5013A3E0C3943C500C90F5
:102C4A00633CE0B40708A3E0B4D0037F00227F010D
:012C5A002257
:05203800906317EFF0BA
:10203D00A3EDF0EF6480601D906317E0FF64826094
:10204D0014EF6484600FEF6486600AEF64886005A6
:05205D00EF648C706CC3
:10206200E4906319F0A3F0906318E0FFC3940A4070
:1020720007EF75F00A84A3F0906318E075F00A8404
:10208200AFF090631AEFF0906319E0FEC454F04F82
:10209200906318F0906317E0FF64806004EFB482ED
:1020A20009906318E0547FF08022906317E0FF6488
:1020B200846004EFB48609906318E0543FF0800C0A
:0C20C200906317E0B48805A3E0541FF001
:1020CE00E4FD7F8E122412906317E0FFA3E0FD1251
:0920DE0024127D807F8E02241281
:10346100906310A3E02430FD7F8C1220389063120A
:10347100E0FD7F88122038906313E0FD7F861220E3
:1034810038906314E0FD7F84122038906315E0FDCD
:0F3491007F82122038906316E0FD7F8002203882
:10328B007F81123BB6906342EFF07F83123BB69087
:10329B006341EFF07F85123BB6906340EFF07F8781
:1032AB00123BB690633FEFF07F89123BB690633EC3
:1032BB00EFF07F8D123BB6EF24D0FEE43407906322
:0632CB003CF0A3CEF0224E
:10391300122A38123E28123DB7123DF4122FA91273
:1039230038EE1234211220E71233E11237CC7F0A2A
:053933007E00020027E8
:10339F00121C4475D95590715EE054FEF075D9BB7F
:1033AF00123913123E351234A075D9AA1225B47BE7
:1033BF00017A6279F8120D56121892121989122396
:1033CF007F12158B121A7E1214571239A11211B2D5
:0233DF0080D795
:102A380078E0E24408F278E2E2543FF278D0E244E7
:102A480001F278D2E254FCF278E0E24402F278E251
:102A5800E254F3F278D0E24408F278D2E2543FF23A
:102A680078E0E24401F278E2E254FCF278F0E244E1
:102A780002F278F2E254F3F278D0E24480F278D3AA
:102A8800E2543FF278E0E24404F278E2E254CFF212
:102A980078F2E254FCF278E3E254FCF278D3E254A0
:032AA800FCF2221B
:1025B40020A307E49062F4F080452090089062F430
:1025C4007401F0803A20A1089062F47402F0802F24
:1025D4002093089062F47403F0802420A008906291
:1025E400F47404F0801920B1089062F47405F0804A
:1025F4000E9062F42097057406F0800374FFF09047
:1026040062F4E0FF121F8830A4047F018002E4FF1B
:10261400123C613094047F018002E4FF123C91304B
:10262400B0047F018002E4FF123C8120A2047F01F8
:082634008002E4FF123BF422D6
:10055B00C10544624D0000000044625100000000E0
:10056B0044625500000000446259000000004162E3
:10057B005D006028625E00000000000000000000CB
:10058B000000000000000000000000000000000060
:10059B0000000000000000000000000000004162AD
:0D05AB008600C104426249000041624B001D
:10310300906313E0FF245EF582E43462F58322903A
:103113006310FEFDFC0203F61203EAEF2401FFE451
:103123003EFEE43DFDE43CFC229062EFE0FFA3E0C1
:1031330022E4FDFC1203F6C30203D99F906312F04D
:10314300E0FFC3940A221203F602028B12033190AA
:053153006310020402FC
:103BCC00E4FE745E2E12310AEFF00EEEB428F3E42C
:043BDC00906286F07D
:013BE00022C2
:103B1300906286E0123108EFF0906286E004F0E0F4
:083B2300C394284002E4F022E3
:1021910090631412040E00000000E4906318F0A391
:1021A10074FFF0E4906313F09063141203F69063EC
:1021B10013E0123108E0FFE4FCFDFE12028B906394
:1021C10014120402123103E0FE906318E0C39E5022
:1021D1000B745E2F12310AE0906318F0123103E0A4
:1021E100FE906319E0D39E400B745E2F12310AE01A
:1021F100906319F0906313E004F0E0642870A990F3
:1022010063141203EAC006C007906319E0FF9063EC
:1022110018E02FFFE433AB07FA3395E0F9F8D00764
:10222100D006120298906314120402E47B26FAF994
:0A223100F89063141203EA0203316F
:0D3DB70078E0E24420F278E3E254F3F222D7
:10360F009062551203EA906251123149906255123D
:10361F00040290625112040E0000000090625912D1
:10362F0003EA90624D12314990625912040290627E
:09363F004D12040E0000000022EF
:102CBC00906249E475F00112023DC390624AE094BF
:102CCC0014906249E09400402BE4F0A3F090625120
:102CDC0012311B9062511204027F587E0290625195
:102CEC00123134400F20050C90625112040E00007A
:102CFC000000D20530A51520040F90624D12311B37
:0E2D0C0090624D12040212360FD20422C2044D
:012D1A002296
:1019890090631012040E0000000090631412040EFC
:10199900000000007FF47E01906255123134500638
:1019A900200503021A7D7FC07E277D097C00906295
:1019B900591203F61202A6E47B7A7A06F9F81203A1
:1019C90031906314120402300523E4FF9062591226
:1019D9003115C31203D9906310600912040E000077
:1019E9000001802A12040E000000008021E47F24F7
:1019F900FEFDFC9063141203F61202A6E47B0AFAB8
:101A0900F9F81203319062551203F612314F9063BF
:101A1900341203EA906314123149906334120402B8
:101A290090625912040E0000000090625512040ED3
:101A390000000000C205E4FF123112D31203D9409D
:101A490012E47F661231121202A6E47B64FAF9F8F5
:101A590012314FE47FC7123112D31203D9400A90D1
:101A6900631012040E000000C79063101203EA907D
:041A790062EFEFF039
:011A7D002246
:103A890090632FE0600BE064016006E490625DF0F2
:0E3A99002290625DE0C394FF5003E004F0222F
:10376100906313EFF09062E9E07009906313E0FF5A
:103771007E00801F9062E9E0B4011B906313E0FFBB
:103781007E007C027D6D1204AAE47BE87A03F9F8DD
:07379100120331122F4E223A
:1010500090632FE0600BE064016006E490624BF067
:101060002290624BE0703B04F09062EFE0A3F090BE
:1010700062EFE090624CF09062F0E0FF1237619016
:1010800062EFE0FF123BCC9062E9E0700BFF123C94
:10109000077F01123CC1800AE4FF123CC17F0112AC
:1010A0003C0790625DE0C3944B50030211B1E4F041
:1010B00012312CD39F403B12312C12313E5003028F
:1010C0001140EF943240089063117414F08011EFD6
:1010D000C394149063114005740AF080037405F002
:1010E0009062F0E0FF906311E0FEC3EF9E9062F02B
:1010F000803B12312CC39F5047E0FF9062EFE0C36A
:1011000012313E403BEF943240089063117414F06A
:101110008011EFC394149063114005740AF08003AA
:101120007405F0906311E0FF9062F0E02FF09062A0
:10113000EFE0FF123BCC9062EFE090624CF08069F0
:101140009062EFE0FF123B13122191906310EFF0D9
:10115000E0C3940A5007E090624CF0802590624C06
:10116000E075F003A4FDACF0906310E075F007A407
:101170002DFFE5F03CFE7C007D0A1201E890624CF8
:10118000EFF090624CE0906310F0E0FF9062F0E0CE
:10119000D39F4005E014F08010906310E0FF906250
:1011A000F0E0C39F5003E004F09062F0E0FF1237DC
:0111B00061DD
:0111B100221B
:1005B8004262A60000C100C1014162870041628811
:0505C800004162890002
:1032D100E47FF47E01FDFC1203F6C30203D912035D
:1032E100EAEF2401FFE43EFEE43DFDE43CFC2290D4
:1032F10063141203EA90631822E0FEA3E0FFE4FCEA
:10330100FD02028BE475F00102023D906310E0FFC3
:05331100906288E0223B
:0B3DF40078E3E2543FF2E254CFF222E9
:103648009062901203EA90628A1203F612028B903B
:10365800629012040290628A12040E000000009028
:1036680062941203F690628E1232FA9062941204F7
:0936780002E490628EF0A3F0223E
:1036810090629E1203EA9062981203F612028B90E6
:10369100629E12040290629812040E0000000090D3
:1036A10062A21203F690629C1232FA9062A2120494
:0936B10002E490629CF0A3F022F7
:10284400906287E004F0E0C39414403EE4F09062A8
:102854008E12330690629C123305C390628FE0940B
:102864005890628EE094024009200206E4F0A3F03E
:10287400D202C390629DE0945890629CE09402401E
:1028840009200306E4F0A3F0D20330A71620000FBA
:1028940090628A1232DF90628A120402123648D29F
:1028A400008002C20030A61520010F9062981232F7
:0F28B400DF906298120402123681D20122C20113
:0128C30022F2
:1014570090631012040E0000000090631412040E33
:1014670000000000C20790631812040E000000007D
:101477009062941232D1500330025E30020C9063B6
:101487001012040E0000000080227F787EEF7D019D
:101497007C009062901203F61202A69062941203E7
:1014A700F6120331906310120402D2079062901271
:1014B700040E0000000090629412040E0000000069
:1014C700E47FFF7EFFFDFC9063101232D8400A9044
:1014D700631012040E0000FFFF9062A21232D15077
:1014E7000330035D30030C90631412040E000000F8
:1014F700008021E47F607EEAFDFC90629E1203F685
:101507001202A69062A21203F6120331906314121C
:101517000402D20790629E12040E0000000090623F
:10152700A212040E00000000E47FFF7EFFFDFC9086
:1015370063141232D8400A90631412040E0000FF9D
:10154700FF30072BC2072002099063101232F312F3
:10155700040220030E1232F01232D850061232F073
:101567001204029063181203EA9062EB020402303D
:10157700021130030EC202C2039062EB12040E0086
:0315870000000061
:01158A00223E
:103BE100C39062A7E094FF9062A6E094FF50031295
:033BF10033052277
:103C5100E47BF47A01F9F89062EB1203EA02033192
:10223B00E4906310F0906289E0701404F0123C514A
:10224B00906288EFF07F01122B1C7F01123AA712CC
:10225B003C51906310EFF07008A3F0A37432F08040
:10226B002F906288E0FF906310E0FED39F4005EE55
:10227B009FFF800612330CC39FFFEFD394017E00A8
:10228B0050047F6480027F32906311EEF0A3EFF075
:10229B00906311E0FEA3E0FFC39062A7E09F906202
:1022AB00A6E09E4034E4F0A3F012330CFE9F5005E1
:1022BB00E004F08011EED39F400CEED39400400667
:1022CB00906288E014F0906288E0FFD394004004A1
:0922DB00EF048001E4FF1226C2A9
:0122E40022D7
:0805CD00416332004163330079
:103B2B001203EAEF2401FFE43EFEE43DFDE43CFC1E
:083B3B00221203F6C30203D9B4
:10397F00906310EFF07009FF123CF17F01023D01DF
:10398F00906310E0B4010AE4FF123D017F01123C85
:02399F00F12213
:0628C400906315120402EE
:1028CA00906319E0B401047F0180027F0090631ACB
:1028DA00EFF09062E9E0702290631AE0600DE47F05
:1028EA0064FEFDFC7B64FAF9F88037E47FE87E0336
:1028FA00FDFC7BE87A03F9F880289062E9E064013C
:10290A00703490631AE0600DE47FA1FEFDFC7BA1A8
:10291A00FAF9F8800DE47F4A7E06FDFC7B4A7A06C6
:10292A00F9F89063151203EA120331906319E090E3
:06293A00631FF0122EF1F4
:012940002274
:103A6A00906315EFF060047F0080027F01123CD161
:0F3A7A00906315E060047F0180027F00023CE151
:1034DF009062E8E0906310F0E0FB60059062E0809E
:1034EF00039062E41203EA906311120402EB60048A
:1034FF007F0080027F01AB079063111203EA906394
:0E350F0019EBF01228C4906310E0FF023A6A34
:10237F00C3906339E09488906338E09413400F3032
:10238F00060C123DC4C206E4906338F0A3F0E47F5C
:10239F00E87E03FDFC906334123B3C40657F187E62
:1023AF00C67D9A7C3B9062E0123B3C500C9062E001
:1023BF00123B2B9062E01204027F9C7EE07DF57C45
:1023CF00059062E4123B3C500C9062E4123B2B9060
:1023DF0062E41204029063341203EAC3EF94E8FF3D
:1023EF00EE9403FEED9400FDEC9400FC9063341228
:0223FF000402D6
:10240100906332E004F0E0C394644004E4F0D20647
:0124110022A8
:102C5B00906333E0704404F09062E9E0700BFF1274
:102C6B003CF17F01123D01800AE4FF123D017F011F
:102C7B00123CF19062E8E0600CE4FF123CD17F0162
:102C8B00123CE1800AE4FF123CE17F01123CD112BD
:102C9B0034DF9062E9E0FF12397FC390633BE0942D
:102CAB00E890633AE094034007E4F0A3F01234DFBA
:012CBB0022F6
:1005D5004261F300004261F50000602861F7000008
:1005E5000000000000000000000000000000000006
:1005F50000000000000000000000000000000000F6
:1006050000000000000041621F004161F000602809
:100615006220000000000000000000000000000053
:1006250000000000000000000000000000000000C5
:100635000000000000000000000041624800416128
:06064500F1004161F2002A
:10335B0025E024F7F582E43461F583EEF0A3EFF07A
:10336B002225E02420F582E4346222F583E0FEA3DB
:10337B00E0FFE4FCFD02028B906310E0FEA3E0FF94
:10338B0022E47B14FAF9F80203EA906312E0FF904F
:04339B0061F2E022D9
:0B3DD100E4FDED12335B0DEDB414F7C0
:013DDC0022C4
:103A28009061F0E0700504F0023DD190621FE01251
:103A3800335B90621FE004F0E0C394144002E4F0AA
:013A4800225B
:10351D0090631512040E00000000E4906314F09007
:10352D0063151203F6906314E025E024F7F582E4A9
:10353D003461123376906315120402906314E00423
:0E354D00F0E0B414DA90631512338C020331EF
:103B5A00C39061F4E094FF9061F3E094FF5007E4AE
:073B6A0075F00112023D227B
:103B7100C39061F6E094FF9061F5E094FF5007E493
:073B810075F00112023D2264
:0E3D4100E4FDED12336C1233640DEDB414F496
:013D4F002251
:103AFA00906248E012336C123364906248E004F03A
:093B0A00E0C394144002E4F0222F
:1036BA0090631512040E00000000E4906314F09069
:1036CA0063151203F6906314E012336C123376908A
:1036DA006315120402906314E004F0E0B414E0905D
:0836EA00631512338C02033159
:10315800E4FDC3EF94B0EE940440028043C3EF94BF
:1031680019EE940440047D018036C3EF9481EE94F7
:103178000340047D028029C3EF94E9EE94024004E1
:103188007D03801CC3EF9452EE940240047D0480BA
:103198000FC3EF94BAEE940140047D0580027D06CA
:0231A800AF0571
:0131AA002202
:10158B00E4906312F0A3F0C39061F4E094C890610F
:10159B00F3E09400500302167EE4F0A3F012351D25
:1015AB007C077DD01204AAE4FB7A10F9F812033100
:1015BB00906310EEF0A3EFF09061F1E0702704F070
:1015CB00123383123D41123383123158A3EFF09043
:1015DB0061F2F0700B9062F2E0701012168D800BBE
:1015EB0012167F8006123383123AFA1236BA123170
:1015FB0058906312EFF09061F2E0FE6F6018906309
:10160B0012E0FFD39E4006EF9EA3F08009123395A4
:10161B00C39F906313F0906313E0FFC39402400EDB
:10162B009061F6E094889061F5E094134045EFB437
:10163B00010FC39061F6E094209061F5E0944E4069
:10164B0032E49061F5F0A3F0123395FEC39F500581
:10165B00E004F0800BEED39F40069061F2E014F0B3
:10166B009061F2E0700A9062F2E0700712168D2220
:03167B0012167FC5
:10167E0022E49062F2F09061F2E0FF12274322FF23
:0A168E001227439062F27401F0226B
:10064B005562E00000000000000000000000000008
:10065B0000000000000000004162F5004262F6005D
:01066B00008E
:103421007B017A63791090631F740BF0E4FF12370C
:103431009890631AE0B4C51378E07C627D017B014A
:103441007A6379107E007F0B0201159062E87401A6
:0F345100F09062EA74C5F0E49062E9F0123DC4B5
:013460002249
:103AC4009062EA74C5F0E4FF123C407B017A6279AB
:0C3AD400E0906314740BF0E4FF02372A4A
:0D3DC400E49062F6F0A3F09062F504F022A6
:0F3D50009062F5E06008A3E475F00112023D22D5
:1039A1009062F5E0601BC39062F7E094D09062F6FC
:1039B100E09407400CE49062F5F0A3F0A3F0123A12
:0239C100C4221E
:10066C004A60003F065B4F666D7D077F6F603660AA
:10067C000A07050706070707080709070A070D07F2
:10068C000F06030604060506060607060B060A06F1
:10069C000906080409040A040B040C040D040004E4
:1006AC0001040204030404602460400703070407E8
:1006BC000B070C070E060206010600060E060F06B7
:1006CC000D060C0408040E040F0405040604075858
:1006DC006064030A000D0501050305040506050900
:1006EC00050C050D050F030F030D4E607C0505056C
:1006FC000A050E030B05000502050B50608A070264
:10070C000700000E0309030C030E030003014E60E7
:10071C009A010F010D010A0109010B010E010C4E8A
:10072C0060A8000100030006000700050002000499
:10073C004E60B60305030602020201020003040325
:10074C00074E60C40100010201040107010501010B
:10075C0001034C60D2020C020D020E020F020502C4
:10076C00044C60DE020B020A0209020802070206B0
:10077C004E60EA000D000E000C00080508000A008F
:10078C000B4E60F8050505060509050A050C050460
:10079C00050B4E610605020503050D050F050E053B
:1007AC000105005061140405040604070408010740
:1007BC0005070009000160546124000700060005CC
:1007CC00010F010C010B010E01080109010A020FB6
:1007DC00020D0100020E01050101020C020A0209C0
:1007EC000102020B0106010302080306040E040DAC
:1007FC0001040409040C040F03050304040A040B8C
:10080C0004030401030303020301040204004C610A
:10081C0078030F030D0308020602020200526184E2
:10082C00030C030B030A030902070205020402036B
:02083C000201B7
:100B8500E0FCA3E0FDEF25E0247DF582E43460F58B
:100B950083E0FF7E007401A8070822906310E0FF40
:100BA50025E0247CF582E43460F583E025E024B477
:100BB500F582E43462F58322E0FCA3E0FDEF25E055
:100BC50022906319E0FF25E024EAF582E43460F51C
:100BD50083E025E024A8F582E43462F58322F4FF5E
:100BE500EEF45CFEED5F22FFEC4EFEED4F22F0745D
:100BF500002DF582E43460F583E022906313E0FF75
:100C050025E0249AF582E4346022906313E0FF2501
:100C1500E024A8F582E4346022906313E0FF25E028
:100C250024B6F582E4346022906313E0FF25E024C6
:100C3500C4F582E4346022E0FF25E02440F582E437
:100C4500346022E0FF25E0240AF582E4346022E0E6
:100C5500FF25E024DEF582E4346022E075F00A84A5
:100C6500ADF0E4FF22E0FCA3E0FDEF75F00EA42457
:100C750025F582E43461F58322EEF0A3EFF090636D
:100C85001222EEF0A3EFF090631022906321E0FFB3
:100C950075F00EA42424F582E43461F58322E07511
:100CA500F00A84FD7F0122240BF582E434602224BE
:100CB50041F582E4346022E04401F0A3E0F022240F
:100CC5009BF582E434602224A9F582E43460222471
:100CD500B7F582E434602224C5F582E43460222429
:100CE500DFF582E4346022906319E0FF25E022906D
:100CF5006314E0FEA3E0FF7C007D0A0201E875F0C5
:100D05000202043FE0FF25E0248AF582E4346022F4
:100D1500E0FF25E024D2F582E4346022E0FF25E0FF
:100D25002414F582E4346122E0FF25E02478F5827D
:100D3500E4346122E0FF25E02484F582E434612275
:100D450025E02464F582E4346022E004F0E06407E1
:010D5500227B
:10300100906310EFF0ED6021120C48120BAEC083FB
:10301100C082120BBD120CAC120B948005C333CECF
:1030210033CED8F9120BEC8022906310120C4812A7
:103031000BAEC083C082120BBD120CAC120B94807C
:1030410005C333CE33CED8F9120BE3FFD082D08340
:06305100EEF0A3EFF022F7
:0526C200906313EFF02E
:1026C700E4A3F0906314E0FFC3941B506E90631370
:1026D700E09F5023A3E0120C4A120BAEC083C082C6
:1026E700120BBD120CAC120B948005C333CE33CE44
:1026F700D8F9120BE38031906314E0FF906313E085
:10270700C39FD39400402BA3E0120C4A120BAEC018
:1027170083C082120BBD120CAC120B948005C3331D
:10272700CE33CED8F9120BECFFD082D083EEF0A3D4
:0B273700EFF0906314E004F00226CAEB
:012742002274
:10305700906310EFF0ED6021120C3C120BAEC083B1
:10306700C082120BBD120CB4120B948005C333CE71
:1030770033CED8F9120BEC8022906310120C3C125D
:103087000BAEC083C082120BBD120CB4120B94801E
:1030970005C333CE33CED8F9120BE3FFD082D083EA
:0630A700EEF0A3EFF022A1
:052B1C00906313EFF0CF
:102B2100E4A3F0906314E0FFC39412505D9063132B
:102B3100E06022EF120C3E120BAEC083C082120B7A
:102B4100BD120CB4120B948005C333CE33CED8F929
:102B5100120BEC8022906314120C3C120BAEC0835A
:102B6100C082120BBD120CB4120B948005C333CE7C
:102B710033CED8F9120BE3FFD082D083EEF0A3EF6E
:0A2B8100F0906314E004F0022B242E
:012B8B002227
:103AA700EF9062BF600BE04480F09062BE120CBCE6
:0D3AB70022E0547FF09062BEE054FEF02249
:0529BE00906310EFF032
:1029C300E4A3F0906311E0FFC3940C50679063108D
:1029D300E06026EF120D45120BAEC083C082120BCE
:1029E300BD2465F582E43460120B948005C333CEB5
:1029F30033CED8F9120BEC8028906311E0FF120D4F
:102A030045120BAEC083C082120BBD2465F582E470
:102A13003460120B948005C333CE33CED8F9120B36
:102A2300E3FFD082D083EEF0A3EFF0906311E004D4
:042A3300F00229C6BE
:012A3700227C
:1039C300EF120BA5C083C082120B858005C333CED3
:1039D30033CED8F9120BECFFD082D083EEF0A3EFF5
:0239E300F022D0
:102AAB0074002F120BF7906311F0E4906310F09009
:102ABB006310E0FFC394075057120B988005C33384
:102ACB00CE33CED8F9FF906311E0FDEF5D601812A5
:102ADB000BA0C083C082120B858005C333CE33CECF
:102AEB00D8F9120BEC8016120BA0C083C082120B0C
:102AFB00858005C333CE33CED8F9120BE3FFD082DA
:102B0B00D083EEF0A3EFF0906310E004F0022ABA4A
:012B1B002297
:051F8800906310EFF072
:101F8D00E4A3F0906311120BA3C083C082120B85E2
:101F9D008005C333CE33CED8F9120BE3FFD082D0F8
:101FAD0083EEF0A3EFF0906311E004F0E0B407D3FB
:101FBD00906310E070047F018002E4FF123C719089
:101FCD006310E06003B4FF057F060239C390631010
:101FDD00E02400120BF7906312F0E4906311F0907F
:101FED006311E0FFC394075041120B988005C33372
:101FFD00CE33CED8F9FF906312E0FDEF5D602390F4
:10200D006311120BA3C083C082120B858005C333ED
:10201D00CE33CED8F9120BECFFD082D083EEF0A3E5
:0A202D00EFF0906311E004F080B5BD
:012037002286
:102D1B00906310EFF0ED6025120D09120BAEC0831E
:102D2B00C082120BBD248BF582E43460120B9480AD
:102D3B0005C333CE33CED8F9120BEC80269063103B
:102D4B00120D09120BAEC083C082120BBD248BF582
:102D5B0082E43460120B948005C333CE33CED8F9A2
:0E2D6B00120BE3FFD082D083EEF0A3EFF02234
:103C6100EF9062C36005E04402F022E054FDF022CF
:103BF400EF9062B46008E04480F0A3E0F022E05467
:033C04007FF0222C
:103C7100EF9062B56005E04401F022E054FEF022CD
:0F3D5F00EF9062BA6004120CBC22E054FEF02216
:103C8100EF9062BB6005E04408F022E054F7F022B7
:103C9100EF9062BB6005E04404F022E054FBF022A7
:10169800120BF4906314F0EF707A906313F0906378
:1016A80013E0FFC394074003021794120B988005B8
:1016B800C333CE33CED8F9FF906314E0FDEF5D60FD
:1016C80021120C00120BAEC083C082120BBD120C8B
:1016D800C4120B948005C333CE33CED8F9120BEC69
:1016E800801F120C00120BAEC083C082120BBD12F9
:1016F8000CC4120B948005C333CE33CED8F9120B29
:10170800E3FFD082D083EEF0A3EFF0906313E00400
:10171800F00216A6E4906313F0906313E0FFC394FD
:10172800075069120B988005C333CE33CED8F9FF22
:10173800906314E0FDEF5D6021120C0F120BAEC038
:1017480083C082120BBD120CCC120B948005C333DC
:10175800CE33CED8F9120BEC801F120C0F120BAE41
:10176800C083C082120BBD120CCC120B948005C32F
:1017780033CE33CED8F9120BE3FFD082D083EEF00C
:0C178800A3EFF0906313E004F0021721BF
:011794002232
:10179500120BF4906314F0EF707A906313F090637A
:1017A50013E0FFC394074003021891120B988005BC
:1017B500C333CE33CED8F9FF906314E0FDEF5D60FF
:1017C50021120C1E120BAEC083C082120BBD120C6F
:1017D500D4120B948005C333CE33CED8F9120BEC5B
:1017E500801F120C1E120BAEC083C082120BBD12DD
:1017F5000CD4120B948005C333CE33CED8F9120B1B
:10180500E3FFD082D083EEF0A3EFF0906313E00402
:10181500F00217A3E4906313F0906313E0FFC39401
:10182500075069120B988005C333CE33CED8F9FF24
:10183500906314E0FDEF5D6021120C2D120BAEC01C
:1018450083C082120BBD120CDC120B948005C333CE
:10185500CE33CED8F9120BEC801F120C2D120BAE25
:10186500C083C082120BBD120CDC120B948005C321
:1018750033CE33CED8F9120BE3FFD082D083EEF00E
:0C188500A3EFF0906313E004F002181EC3
:011891002234
:103CA100EF9062B76005E04440F022E054BFF0229B
:081D2000906310EFF0A3EDF059
:101D2800E4A3F0906312120C03120BAEC083C082BE
:101D3800120BBD120CC4120B948005C333CE33CEE4
:101D4800D8F9120BE3FFD082D083120C7E120C124A
:101D5800120BAEC083C082120BBD120CCC120B94B6
:101D68008005C333CE33CED8F9120BE3FFD082D02F
:101D780083120C7E120C21120BAEC083C082120B90
:101D8800BD120CD4120B948005C333CE33CED8F9D0
:101D9800120BE3FFD082D083120C7E120C30120B90
:101DA800AEC083C082120BBD120CDC120B948005EE
:101DB800C333CE33CED8F9120BE3FFD082D08312CF
:101DC8000C7E120D4F6003021D2B906310120C60E5
:101DD800121698906310120CA312169890631112A1
:0E1DE8000C60121795906311120CA302179550
:021B6500AA05CF
:101B6700EF601FEB600EEA120C61121795EA120C78
:101B7700A4021795EA120C61121698EA120CA40235
:101B87001698EB605CE4906310F0906310120C21E0
:101B9700120BAEC083C082120BBD120CD4120B9471
:101BA7008005C333CE33CED8F9120BE3FFD082D0F2
:101BB70083120C87120C30120BAEC083C082120B3B
:101BC700BD120CDC120B948005C333CE33CED8F98B
:101BD700120BE3FFD082D083120C87120D4F70AA2D
:101BE70022E4906310F0906310120C03120BAEC046
:101BF70083C082120BBD120CC4120B948005C33331
:101C0700CE33CED8F9120BE3FFD082D083120C87E4
:101C1700120C12120BAEC083C082120BBD120CCC79
:101C2700120B948005C333CE33CED8F9120BE3FFE2
:0C1C3700D082D083120C87120D4F70AACF
:011C4300227E
:0F3D6E00EF9062B46004120CBC22E054FEF0220D
:0F3D7D00EF9062B66004120CBC22E054FEF022FC
:103CB100EF9062B96005E04408F022E054F7F02289
:102D7900906310EFF0ED6025120D15120BAEC083B4
:102D8900C082120BBD24D3F582E43460120B948007
:102D990005C333CE33CED8F9120BEC8026906310DD
:102DA900120D15120BAEC083C082120BBD24D3F5D0
:102DB90082E43460120B948005C333CE33CED8F944
:0E2DC900120BE3FFD082D083EEF0A3EFF022D6
:1030AD00906310EFF0ED6021120C54120BAEC08343
:1030BD00C082120BBD120CE4120B948005C333CEEB
:1030CD0033CED8F9120BEC8022906310120C5412EF
:1030DD000BAEC083C082120BBD120CE4120B948098
:1030ED0005C333CE33CED8F9120BE3FFD082D08394
:0630FD00EEF0A3EFF0224B
:05274300906314EFF0AB
:10274800E4A3F0906315E0FFC39406506E90631401
:10275800E09F5023A3E0120C56120BAEC083C08238
:10276800120BBD120CE4120B948005C333CE33CE8A
:10277800D8F9120BE38031906315E0FF906314E001
:10278800C39FD39400402BA3E0120C56120BAEC08B
:1027980083C082120BBD120CE4120B948005C33364
:1027A800CE33CED8F9120BECFFD082D083EEF0A353
:0B27B800EFF0906315E004F002274BE7
:0127C30022F3
:070EE900906317EFF0A3EB8B
:100EF000120BF390631AF0E4906319F0906319E019
:100F0000FFC39407400302104F906318E070030280
:100F10000FB2120B988005C333CE33CED8F9FF90B1
:100F2000631AE0FDEF5D7003020FB2906317E014E7
:100F3000602A14605024026003021046120BC6C0DF
:100F400083C082120BBD24EBF582E43460120B9453
:100F50008005C333CE33CED8F9020FAC120CEC248B
:100F6000F8F582E43460120BD4C083C082120BBD4A
:100F700024F9F582E43460120B948005C333CE3338
:100F8000CED8F98027120CEC2406F582E4346112E5
:100F90000BD4C083C082120BBD2407F582E43461F8
:100FA000120B948005C333CE33CED8F9120BEC026A
:100FB000103C906317E014602D1460562402600307
:100FC000021046120BC6C083C082120BBD24EBF583
:100FD00082E43460120B948005C333CE33CED8F94B
:100FE000120BE302103C120CEC24F8F582E434609E
:100FF000120BD4C083C082120BBD24F9F582E434F5
:1010000060120B948005C333CE33CED8F9120BE3B4
:10101000802A120CEC2406F582E43461120BD4C051
:1010200083C082120BBD2407F582E43461120B9455
:101030008005C333CE33CED8F9120BE3FFD082D074
:0F10400083EEF0A3EFF0906319E004F0020EFCD2
:01104F00227E
:082F4E00906314EEF0A3EFF014
:102F5600E4A3F0AA06AB07906316E004F07C007DBC
:102F66000AAF03AE021201E8AA06AB07EB4A70E706
:102F7600E4FA906316E0FFEAC39FAF025019C00758
:102F8600120CF4D0077B01120EE9120CF4906314B4
:102F9600EEF0A3EFF08006E4FBFD120EE90AEAB4B8
:022FA60003D056
:012FA8002206
:103C0700EF9062A86008E04480F0A3E0F022E0545F
:033C17007FF02219
:103CC100EF9062A96005E04401F022E054FEF02289
:102DD700906310EFF0ED6025120D21120BD4C08324
:102DE700C082120BBD2415F582E43461120B948066
:102DF70005C333CE33CED8F9120BEC80269063107F
:102E0700120D21120BD4C083C082120BBD2415F5FD
:102E170082E43461120B948005C333CE33CED8F9E4
:0E2E2700120BE3FFD082D083EEF0A3EFF02277
:103CD100EF9062B16005E04410F022E054EFF02271
:103CE100EF9062AF6005E04401F022E054FEF02263
:103CF100EF9062A96005E04404F022E054FBF02259
:103D0100EF9062A96005E04408F022E054F7F02248
:081DF600906321EFF0A3EBF074
:101DFE00E4906324120BF3906324F0E4906323F0D9
:101E0E00906323E0FFC394074003021EC090632239
:101E1E00E06052120B988005C333CE33CED8F9FF53
:101E2E00906324E0FDEF5D603C120C90C083C08295
:101E3E00906323E0D082D083120D03120BD6C083A1
:101E4E00C082120C6AC083C082906323E0D082D01D
:101E5E0083120D03120B968005C333CE33CED8F901
:101E6E00120BEC803A120C90C083C082906323E078
:101E7E00D082D083120D03120BD6C083C082120CF7
:101E8E006AC083C082906323E0D082D083120D0398
:101E9E00120B968005C333CE33CED8F9120BE3FF67
:101EAE00D082D083EEF0A3EFF0906323E004F00233
:021EBE001E0EF6
:011EC00022FF
:103C1A00EF9062AA6008E04420F0A3E0F022E054AA
:033C2A00DFF022A6
:062EF10090631B120402B5
:102EF70090631FE07003FF80027F01123C1AE49089
:102F07006320F0906320E0FFC394065039C007E4C4
:102F17007B0AFAF9F890631B1203EA120331AF0335
:102F2700AD07D0077B01121DF690631B1203EAE47D
:102F37007B0AFAF9F812033190631B1204029063BB
:062F470020E004F080BD53
:012F4D002261
:103C2D00EF9062AE6008E04440F0A3E0F022E05473
:033C3D00BFF022B3
:103D1100EF9062AF6005E04480F022E0547FF02232
:103D2100EF9062A96005E04410F022E054EFF02228
:102E3500906310EFF0ED6025120D2D120BD4C083B9
:102E4500C082120BBD2479F582E43461120B9480A3
:102E550005C333CE33CED8F9120BEC802690631020
:102E6500120D2D120BD4C083C082120BBD2479F52F
:102E750082E43461120B948005C333CE33CED8F986
:0E2E8500120BE3FFD082D083EEF0A3EFF02219
:102E9300906314EFF0ED6025120D39120BD4C0834B
:102EA300C082120BBD2485F582E43461120B948039
:102EB30005C333CE33CED8F9120BEC8026906314BE
:102EC300120D39120BD4C083C082120BBD2485F5B9
:102ED30082E43461120B948005C333CE33CED8F928
:0E2EE300120BE3FFD082D083EEF0A3EFF022BB
:0238BF00AB0755
:1038C100E4FAEBD39A5006AF02E4FD8017EA240133
:1038D100FFE433FEEBC39FEE6480F87480984007E9
:0C38E100AF027D01122E930AEAB409D652
:0138ED0022B8
:10083E005362F80A0000000003324100000000007D
:0E084E0002FF3E1F000045630B010102030480
:0F3D8C00EC75F005A4240BF582E43463F5832273
:073E280078C3E2543FF222CF
:093E1F002087037F01227FFF22AE
:10331600E4FEFCFBEDB401030B8016EDB403047B65
:1033260002800EEDB404047B038006EDB405027B37
:1033360004ECC39401501B123D8CE0B50711123DFD
:103346008CE5822BF582E43583F583E0FE80030C61
:0433560080DFAF065F
:01335A002250
:10189200906309E07003021971E0FFA3E0FD1233C7
:1018A20016E4906309F0A3F0EF24FE606C04600379
:1018B20002197190632FE070179062E8E070047F64
:1018C2000180027F009062E8EFF0123DC402196EBF
:1018D20090632FE0B401139062E9E0700504F00216
:1018E200196EE49062E9F002196E90632FE0B4027F
:1018F20011906341E004F0E0D3943B401AE4F0021B
:10190200196E90632FE0B4030E906340E004F0E0A0
:10191200D394174002E4F0805390632FE070259037
:1019220062E8E0B401047F01803F9062E412040E99
:1019320000000000123DC41234DF9062E9E0FF12A1
:10194200397F802890632FE0B401047F02801A90CF
:10195200632FE0B402071219727F03800C90632F89
:0F196200E0B40308121972E4FF123DFF12324481
:101971002278107C637D017B017A63793C7E007F54
:08198100071201151234612266
:10085C0042633000004863280000000000000000E4
:04086C0041632700BD
:1039E500C3906329E09490906328E094012290634A
:1039F50028F0A3F090632CF0A3F022E475F0010207
:023A0500023D80
:063E3500E490632FF0226F
:10294100C3906344E094FF906343E094FF500E9082
:10295100632FE07008906343123A018007E49063AB
:1029610043F0A3F0123B43123A89123BE1C3906357
:1029710031E094FF906330E094FF5003123A0090ED
:10298100632FE064016009E064026004E0B403289D
:10299100C3906329E094FF906328E094FF500312F1
:1029A1003A00C390632DE094FF90632CE094FF50B4
:0D29B1000BE475F00102023DE41239F3223F
:0B3DFF0090632FEFF0E490632EF022A1
:10249F00C3906331E094DB906330E09401407BE4C0
:1024AF00F0A3F09062F2E06025906327E09062B6AF
:1024BF00700DE054FEF09062B8E054F7F0800FE03A
:1024CF004401F0A3E0F0A3E04408F0A3E0F0906231
:1024DF00F3E06027906327E09062AE700DE054EF59
:1024EF00F0E4FF123C2DE4FF800EE04410F0A3E077
:1024FF00F07F01123C2D7F01123D11906327E07098
:10250F0003FF80027F01123CA1906327E070047FDC
:0A251F000180027F00906327EFF0B7
:01252900228F
:1011B20090632FE014603A147003021261147003FA
:1011C200021292240360030212C5C3906344E094A6
:1011D200E8906343E0940350030212C5E4F0A3F0E5
:1011E20012328B906340E0FFA3E0FD121D20021239
:1011F200C51239E550030212C5E4F0A3F09062E98A
:10120200E070299062A8E0FEA3E07803CEC313CE7B
:1012120013D8F930E009E4FF123D01E4FF80077FB3
:1012220001123D017F01123CC10212C59062E9E048
:10123200640160030212C59062A8E0FEA3E0780296
:10124200CEC313CE13D8F930E009E4FF123CF1E427
:10125200FF80077F01123CF17F01123C078064127C
:1012620039E5405FE4F0A3F090632EE090634170B3
:1012720008E0FD7B017F018006E0FD7B01E4FF12B7
:101282001B6590632EE070047F0180327F00802E08
:101292001239E5402EE4F0A3F090632EE090634013
:1012A2007008E0FDE4FB7F018005E0FDE4FBFF1236
:1012B2001B6590632EE070047F0180027F009063C3
:1012C2002EEFF0C390632DE0948090632CE0942580
:1012D2004031E4F0A3F090632FE064026004E0B4D4
:1012E200031678107C637D017B017A63793C7E0072
:1012F2007F07120115123461E4FF123DFF123244DE
:10130200123DC4121050122C5B12223B12249F0277
:02131200395C44
:10324400E490632EF01239F390632FE070089062DB
:10325400F0E0FF1237619062E9E0700BFF123C0767
:103264007F01123CC1800AE4FF123CC17F01123C81
:10327400071234DF9062E9E0FF12397F906340E087
:07328400FFA3E0FD021D2085
:100870004162C6004162C7004162C8004162C900CE
:100880004162CA004162CB004162CC004162CD00AE
:100890004162CE004162CF004162D0004162D1008E
:1008A0004162D2004162D3004162D4004162D5006E
:0C08B0004162D6004162D7004162D800CE
:103D31009062CDE0FD7B0122E004F0E0C394FF221C
:0B3E0A009062D9E06004A3E004F02205
:101314009062DFE060030214569062C8E0B41013D8
:10132400E4FD7F07122DD79062CA123D39407BE459
:10133400F080719062C6E0B4010D9062C8E070075D
:10134400FDFF122DD780639062CAE004F0E0C394DD
:10135400294057E4F09062C6E0702E9062C8E09491
:10136400085006E0FF7D0180099062C8E024F8FF80
:10137400E4FD122DD79062C8E004F0E0C39410405D
:10138400299062C67401F080219062C8E0C3940879
:101394004008E024F8FF7D0180079062C8E0FFE484
:1013A400FD122DD79062C8E014F09062C9E0B42415
:1013B4001BE4FD7F111230579062CB123D3950036C
:1013C400021456E4F09062C9740AF0229062C7E0F5
:1013D400B401109062C9E0700AFDFF122D79906289
:1013E400DF80409062CBE004F09062C7E0703890F8
:1013F40062CBE0C39412402FE4F09062C9E09412EF
:101404005006E0FF7D0180099062C9E024EEFFE40C
:10141400FD1230579062C9E004F0E0C394244032D6
:101424009062C77401F0229062CBE0C394424022E0
:10143400E4F09062C9E094064008E024FBFF7D01DB
:1014440080079062C9E0FFE4FD122D799062C9E043
:0214540014F092
:011456002273
:100937009062DFE064016003020B849062CCE07098
:100947007704F09062D37407F09062D77411F07F48
:1009570001123C077F01123CC17F01123CD17F018C
:10096700123CE17F01123CF17F01123D017F011230
:100977003C2D7F01123D117F01123D217F01123C69
:10098700617F01123BF47F01123C717F01123D5FD1
:100997007F01123C817F01123C917F01123CA17FB4
:1009A70001123D6E7F01123D7D7F01123CB17F0137
:1009B700123AA77F011229BE9062CEE004F0E0C38D
:1009C70094965003020AC0E4F0123D31E4FF120E80
:1009D700E9123D317F01120EE9123D317F02120EFD
:1009E700E9123D31E4FF121DF6123D317F01121D60
:1009F700F6123D317F02121DF6123D317F03121DA3
:100A0700F6123D317F04121DF6123D317F05121D8E
:100A1700F69062D2E0FF7D01122E939062CDE0FF47
:100A2700122AAB9062CDE0FDE4FF1216989062CDDA
:100A3700E0FD7F011216989062CDE0FDE4FF1217EA
:100A4700959062CDE0FD7F011217959062D3E0FF8C
:100A57007D01122D1B9062D3E0FF7D01122DD790EF
:100A670062D4E0FF7D01122D799062D4E0FF7D0111
:100A7700122E359062D5E0FF7D011230AD9062CD28
:100A8700E0C394095003E004F09062D2E0C39408F5
:100A97005003E004F09062D3E0D394004003E014E5
:100AA700F09062D4E0C394055003E004F09062D55F
:100AB700E0C394055003E004F09062CFE004F090A7
:100AC70062D8E070249062D6E0B41A1D7D017F1AC7
:100AD7001230019062CFE0C394FF405E9062D874F9
:100AE70001F0E49062CFF080519062D8E0702390DB
:100AF70062CFE0C39425401AE4F09062D6E0FF7D10
:100B0700011230019062D6E0C3941A502DE004F030
:100B170080289062D8E0B401219062CFE0C3940CA2
:100B27004018E4F09062D6E0FFE4FD1230019062D5
:100B3700D6E0D394004003E014F09062D0E004F0D4
:100B4700E0C394374018E4F09062D7E0FF7D0112CC
:100B570030579062D7E0D394004003E014F09062DE
:100B6700D8E0B401189062D6E07012A3E0700E903E
:0D0B770062D1123D3940069062DF7405F036
:010B8400224E
:1034A0007E007F077D007B017A6279D91204D79074
:1034B00062D97401F09062D9E0602375D9AAA3E0C3
:1034C000C3940140F0E4F01213141209379062DF44
:0F34D000E0B40505E49062D9F012395C80D72290
:1008BC0042619A000042619C00006028619E000029
:1008CC00000000000000000000000000000000001C
:1008DC00000000000000000000000000000000000C
:1008EC000000000000004161C600602861C70000E4
:1008FC0000000000000000000000000000000000EC
:10090C0000000000000000000000000000000000DB
:10091C000000000000004161EF0041619600416160
:0A092C0097004161980041619900B5
:1031AB0025E0249EF582E43461F583EEF0A3EFF085
:1031BB002225E024C7F582E4346122F583E0FEA3E7
:1031CB00E0FFE4FCFD02028B906310E0FEA3E0FF46
:1031DB0022906312E0FF906199E0C39F22E47B147D
:1031EB00FAF9F80203EA123860A3EFF09061992222
:0B3DDD00E4FDED1231AB0DEDB414F766
:013DE80022B8
:103A4900906196E0700504F0023DDD9061C6E012D8
:103A590031AB9061C6E004F0E0C394144002E4F095
:013A6900223A
:10355B0090631512040E00000000E4906314F090C9
:10356B0063151203F6906314E025E0249EF582E4C4
:10357B0034611231C6906315120402906314E00497
:0E358B00F0E0B414DA9063151231E802033157
:0E3D9B00E4FDED1231BC1231B40DEDB414F4A0
:013DA90022F7
:10393800906197E0700504F0023D9B9061EFE01202
:1039480031BC1231B49061EFE004F0E0C39414404C
:0339580002E4F096
:01395B002249
:1036F20090631512040E00000000E4906314F09031
:1037020063151203F6906314E01231BC1231C690B5
:103712006315120402906314E004F0E0B414E09024
:0837220063151231E8020331C6
:103B8800C390619BE094FF90619AE094FF5007E432
:073B980075F00112023D224D
:103B9F00C390619DE094FF90619CE094FF5007E417
:073BAF0075F00112023D2236
:10386000C3EF9480EE943E40047D098020C3EF9422
:1038700028EE94234015EF24D8FFEE34DCFE7C03C1
:0F3880007DE81201E8EF2402FD8002E4FDAF05B0
:01388F002216
:101A7E00E4906312F0A3F0C390619BE094649061D4
:101A8E009AE094005003021B64E4F0A3F012355B5D
:101A9E00E4FCFD7B407ADB7902F81202A6E47B0AB5
:101AAE00FAF9F8120331E4FB7A10F9F8120331EF68
:101ABE002464FFE43E906310F0A3EFF0906198E091
:101ACE00702104F01231D3123D9B1231D31231F139
:101ADE00F0E070059062F304F0906199E0FF123827
:101AEE00BF80061231D31239381236F2906310EEDF
:101AFE00F0A3EFF01231F1E06F601BE0FF90631284
:101B0E00E0FED39F4009906199E0FFEE9F800312A3
:101B1E0031DC906313F0E490619CF0A3F01231DCA1
:101B2E005005E004F0800B906199E0D39F4003E0F4
:101B3E0014F0906199E070119062F3E07004FF125E
:101B4E0038BF9062F37401F022E49062F3F090617A
:061B5E0099E0FF1238BF00
:011B6400225E
:1022FF0002339FE493A3F8E493A34003F68001F223
:10230F0008DFF48029E493A3F85407240CC8C333DF
:10231F00C4540F4420C8834004F456800146F6DFAE
:10232F00E4800B0102040810204080900521E47E18
:10233F00019360BCA3FF543F30E509541FFEE493A3
:10234F00A360010ECF54C025E060A840B8E493A36A
:10235F00FAE493A3F8E493A3C8C582C8CAC583CA95
:10236F00F0A3C8C582C8CAC583CADFE9DEE780BE4D
:0109360000C0
:10004500E709F608DFFA8046E709F208DFFA803E9D
:1000550088828C83E709F0A3DFFA8032E309F6088A
:10006500DFFA8078E309F208DFFA807088828C83F2
:10007500E309F0A3DFFA806489828A83E0A3F608A6
:10008500DFFA805889828A83E0A3F208DFFA804C80
:1000950080D280FA80C680D4806980F28033801057
:1000A50080A680EA809A80A880DA80E280CA8033C0
:1000B50089828A83ECFAE493A3C8C582C8CCC58338
:1000C500CCF0A3C8C582C8CCC583CCDFE9DEE78008
:1000D5000D89828A83E493A3F608DFF9ECFAA9F087
:1000E500EDFB2289828A83ECFAE0A3C8C582C8CCDD
:1000F500C583CCF0A3C8C582C8CCC583CCDFEADEF6
:10010500E880DB89828A83E493A3F208DFF980CC57
:1001150088F0EF60010E4E60C388F0ED2402B40450
:100125000050B9F582EB2402B4040050AF232345F7
:0601350082239000957387
:10013B00BB010689828A83E0225002E722BBFE02C2
:09014B00E32289828A83E49322F5
:10015400BB010CE58229F582E5833AF583E0225060
:1001640006E92582F8E622BBFE06E92582F8E222AA
:0D017400E58229F582E5833AF583E49322C4
:10018100BB010FF8E58229F582E5833AF583E02882
:10019100F0225009C58229F8E58226F622BBFE0924
:1001A100C58229F8E22582F222F8EA2583F583E95E
:0301B1009328226E
:1001B400BB010689828A83F0225002F722BBFE012A
:0201C400F32224
:1001C600F8BB010DE58229F582E5833AF583E8F06F
:1001D600225006E92582C8F622BBFE05E92582C81B
:0201E600F22203
:1001E800BC000BBE0029EF8DF084FFADF022E4CCFB
:1001F800F875F008EF2FFFEE33FEEC33FCEE9DECC4
:10020800984005FCEE9DFE0FD5F0E9E4CEFD22ED09
:10021800F8F5F0EE8420D21CFEADF075F008EF2F53
:10022800FFED33FD4007985006D5F0F222C398FD44
:050238000FD5F0EA22E1
:10023D00C5F0F8A3E028F0C5F0F8E582158270024C
:06024D001583E038F022E9
:10025300BB0110E58229F582E5833AF583E0F5F0E9
:10026300A3E0225009E92582F886F008E622BBFEC6
:100273000AE92582F8E2F5F008E222E5832AF5830C
:08028300E993F5F0A3E99322D1
:0D028B00EF2BFFEE3AFEED39FDEC38FC22C2
:0E029800C3EF9BFFEE9AFEED99FDEC98FC2261
:1002A600E88FF0A4CC8BF0A42CFCE98EF0A42CFCF7
:1002B6008AF0EDA42CFCEA8EF0A4CDA8F08BF0A475
:1002C6002DCC3825F0FDE98FF0A42CCD35F0FCEBD4
:1002D6008EF0A4FEA9F0EB8FF0A4CFC5F02ECD3999
:0F02E600FEE43CFCEAA42DCE35F0FDE43CFC2206
:1002F50075F008758200EF2FFFEE33FECD33CDCCC0
:1003050033CCC58233C5829BED9AEC99E582984042
:100315000CF582EE9BFEED9AFDEC99FC0FD5F0D61F
:10032500E4CEFBE4CDFAE4CCF9A88222B800C1B949
:100335000059BA002DEC8BF084CFCECDFCE5F0CB87
:10034500F97818EF2FFFEE33FEED33FDEC33FCEBC0
:1003550033FB10D703994004EB99FB0FD8E5E4F97B
:10036500FA227818EF2FFFEE33FEED33FDEC33FC68
:10037500C933C910D7059BE99A4007EC9BFCE99A5C
:10038500F90FD8E0E4C9FAE4CCFB2275F010EF2FA1
:10039500FFEE33FEED33FDCC33CCC833C810D707A1
:1003A5009BEC9AE899400AED9BFDEC9AFCE899F8DC
:0E03B5000FD5F0DAE4CDFBE4CCFAE4C8F9226F
:1003C300EB9FF5F0EA9E42F0E99D42F0EC6480C8B1
:0603D30064809845F02251
:1003D900EB9FF5F0EA9E42F0E99D42F0E89C45F07A
:0103E90022F1
:0C03EA00E0FCA3E0FDA3E0FEA3E0FF2286
:0C03F600E0F8A3E0F9A3E0FAA3E0FB228A
:0C040200ECF0A3EDF0A3EEF0A3EFF0226D
:10040E00A8828583F0D083D082120425120425128F
:10041E000425120425E473E493A3C583C5F0C583B4
:10042E00C8C582C8F0A3C583C5F0C583C8C582C838
:01043E00229B
:0C043F00A42582F582E5F03583F58322C8
:09044B00E0FBA3E0FAA3E0F922B2
:10045400F8E0FBA3A3E0F925F0F0E5821582700231
:070464001583E0FA38F022D5
:09046B00EBF0A3EAF0A3E9F02292
:10047400BB010DE58229F582E5833AF58302044B3D
:100484005007E92582F8020503BBFE07E92582F837
:1004940002050CE58229F582E5833AF58302051508
:0604A4008A838982E473E3
:1004AA00EC8EF0A4CCC5F0CCCDF8EFA4CEC5F02DDF
:1004BA00FDE43CFCE8A42EC8C5F03DFDE43CFCEF9D
:0D04CA00A4FFE5F028FEE43DFDE43CFC222B
:1004D700EF4E6012EF60010EEDBB010B89828A833C
:1004E700F0A3DFFCDEFA2289F05007F709DFFCA949
:0C04F700F022BBFEFCF309DFFCA9F022A0
:09050300E6FB08E6FA08E6F9221D
:09050C00E2FB08E2FA08E2F92220
:0C051500E493FB740193FA740293F92242
:00000001FF
