:030000000211707A
:10117000787FE4F6D8FD9060007F007E07E4F0A35E
:0A118000DFFCDEFA7581210211C5C3
:0C000300000000000000000000000000F1
:0B20DE00EF1FAC0670011E4C70F622D4
:10002700AB07AA06EB1BAE0270011A4E600C7FAA43
:0B0037007E051220DE75D9AA80EA22A7
:100DCD00907120E04480F07F057E001220DEE4FF6C
:100DDD00FE12002775A75575AC5C9071327450F0FA
:100DED009071307403F0907136742FF090715C74C3
:100DFD0003F090715BE054FCF07F18EF2466FDE486
:100E0D0034718D82F583E4F00FEFB433EE90401121
:100E1D00E4935407FF90711CE054F84FF090401785
:100E2D00E493547FFF90711DE054804FF09040107B
:100E3D00E493FF5401C43333335480FE907123E0A7
:100E4D00547F4EF0EFC313543F4440FFA3E0548052
:100E5D004FF0904012E493FF540FFE907146E05412
:100E6D00F04EF0EFC4540FFF90714FE054F04FF07F
:100E7D00904013E493543FFF907140E054C04FF005
:100E8D00904014E493907126F0904015E493907186
:0B0E9D0028F0904016E49390712AF0BA
:010EA8002227
:101A9C00E5B154CF42B153A8BFD2AF75D102789CF7
:101AAC00E254E3F2E2441CF2E254FCF2E24401F2AE
:101ABC0008E2547FF2E24420F278A17401F2187427
:101ACC0076F2789CE2541FF2E244C0F243A8402222
:030021000219427F
:10194200C0E0C0F0C083C082C0D075D000C000C06B
:1019520001C002C003C004C005C006C007789DE2F2
:1019620030E70AE24480F2122128121D3ED007D04D
:1019720006D005D004D003D002D001D000D0D0D000
:0819820082D083D0F0D0E032E6
:101CAA00E5B254FC42B253A9FED2AF75D104907189
:101CBA00057409F0907104745FF0907101E0547F2B
:101CCA00F0E04420F0907100E0E4F0E044C1F04319
:031CDA00A901223B
:03002400021F5662
:101F5600C0E0C083C082907101E030E704E04480B5
:081F6600F0D082D083D0E032FC
:0E20830090613AEFF012210790613AE0FF22DF
:101F090078C2E254FCF2E24401F290717EE04404AA
:0B1F1900F075D60175D59F75D210221F
:08210700E5D430E4FB8FD72280
:040835004162190003
:0A20F4007869E24401F290621922BB
:101D960078C2E2440CF278D3E24430F2786AE24444
:101DA60079F27591FF9071227407F0439E70439902
:071DB6004043AA04D2AF2252
:101D0E005399E0EF24FE601304701E907123E0548B
:101D1E00D8F0E04459F0439901800E907123E054BD
:101D2E00D8F0E0445BF043990E7869E24448F22221
:101B9400906219E014601914601D14602614600426
:101BA400240470257F01121D0E9062197401F02225
:101BB4001220F47402F0227F02121D0E9062197436
:0A1BC40003F0221220F47404F02252
:0300420002144263
:10144200C0E0C0F0C083C082C0D075D000C000C070
:0D14520001C002C003C004C005C006C007F1
:10145F00786BE230E142E24402F2AF93EF75F010A5
:10146F00A4FFE594C4540FFDEF4DFF90613DE5F0EF
:10147F00F0A3EFF0906219E024FC601124027018C1
:10148F0090613DE0FEA3E0FF121E6E800B90613D68
:08149F00E0FEA3E0FF121DBDF9
:1014A700D007D006D005D004D003D002D001D00099
:0B14B700D0D0D082D083D0F0D0E03243
:101E4D00906220F09062100203D4900006120154AB
:101E5D00FE9000080201549000091201C690000C7A
:011E6D002252
:100A5B00E4906220F07FFFA374FFF090621012030A
:100A6B00F4900001120154FE12013BFDEEC39D50A8
:100A7B0003020BED121E51900001E41201C690000F
:100A8B000E1203FD12042DEFF4600890620F742315
:100A9B00F0800990620FE06003E014F0121E519099
:100AAB0000031201546F6015900005120154600D84
:100ABB00900004E41201C6900003020BE9900005BC
:100ACB00120154FE900004120154C39E500B121ECF
:100ADB00519000047401020181121E519000021208
:100AEB0001546F6048EFF4701C121E57C39E400AEE
:100AFB007405121E4D9000028061121E5190000A67
:100B0B007401020BE0121E519000087401121E6753
:100B1B001201546F906210600C1203D47401121EF8
:100B2B0064EF020BE01203D4900009803DEFF470E8
:100B3B0041121E51900009120154D394005003022C
:100B4B000BE390000B120154FE90000A120154D3D8
:100B5B009E40117401121E4D90000C1201549062B4
:100B6B0021F08054121E5190000A7401120181026F
:100B7B000BE3121E51121E5EC394FF500890000827
:100B8B007401120181121E57B5060890622074037E
:100B9B00F08020121E51900007121E5A6E70399071
:100BAB0062207404121E509000061201549000082B
:100BBB001201C6906221EFF0121E51E4121E6474F2
:100BCB00FF1201C6906221E09000111201C69062E3
:100BDB0020E09000121201C6121E51900002EF127B
:020BEB0001C641
:010BED0022E5
:10000F0075AF3F8FAF75AEB975A402E5A530E1FBB3
:01001F0022BE
:101C3F009061F71203F475AF3F8FAF9061FAE0C375
:101C4F0094014022E5A530E0FB9061F7E475F001C7
:101C5F001203DD12013BF5A675AEB975A4019061B3
:071C6F00FAE014F080D52219
:101C76009061FC1203F49061FFE06027AE070FEE5F
:101C86002400FDE4343F8D82F583E493FE9061FCED
:101C9600E475F0011203DDEE1201B49061FFE01469
:041CA600F080D322D5
:1008390042618700004C616B00000000000000006D
:100849000000000050617700000000000000000077
:070859000000000000000098
:101B58009FFFE49400FEEF25E0FFEE33FE1203D46E
:101B68008F828E831201FEFF22906120E0FF906138
:101B78001AE0227B017A6179779061161203F4905A
:0C1B88006119227E007D007B01020460D8
:101F9E00C3906188E094FF906187E094FF5007E45E
:071FAE0075F0011201E822A9
:060EA9009061121203F437
:100EAF00C374089D906120F0906119E0FFC374082E
:100EBF009F906121F0C291C292E490611AF0E49088
:100ECF00611CF0A3F090611EF0A3F0121B71C39F81
:100EDF004012121B71906112121B5890611CE5F0A9
:100EEF00F0A3EFF0906121121B74C39F4015906126
:100EFF0021121B74906116121B5890611EE5F0F0C1
:100F0F00A3EFF0E490611BF090611CE030E703D396
:100F1F008001C3928390611EE030E703D38001C349
:100F2F009295D29190611DE025E0F090611CE03325
:100F3F00F090611FE025E0F090611EE033F0C29168
:100F4F0090611BE004F0E0B410BE90611AE004F071
:100F5F00E064086003020ECDD292C292C283C295A2
:010F6F00225F
:101E0800C3906188E09419906187E094004013E4DE
:101E1800F0A3F0121B7B7408F07A61796B7D0612CF
:031E28000EA922DE
:10101C007F0C7A61796B121B8B7F107A6179771256
:10102C001B8B78D2E254F3F2E24404F2907187E421
:10103C00F078C2E2543FF2E24440F2907181E4F065
:10104C0078D3E254F3F2E24404F290718BE4F0189A
:10105C00E254CFF2E24410F2907188E4F008E254CA
:10106C00CFF2E24410F290718C740AF07856E4F2EC
:10107C00782774BBF218747FF27833E4F218F278A4
:10108C0019F218E24401F27811E24401F27817E205
:10109C004401F27812E24401F27814E24401F2C203
:1010AC0083C295C291C292121B7B7406F07A61794D
:0A10BC006BFD120EA97F1E021CDD61
:101CDD00C374649FFFE49400FE3395E0FDFCE47B48
:101CED007F7ABBF9F8120251E47B64FAF9F812021B
:101CFD00DCAC06EC7833F218EFF27817E24401F21F
:011D0D0022B3
:10086000426140000060286142000000000000007A
:100870000000000000000000000000000000000078
:100880000000000000000000000000000000000068
:090890000041616A0041613F0072
:0C20C60025E02442F582E43461F5832219
:10205400E4FDED1220C6EEF0A3EFF00DEDB414F2A2
:012064002259
:101DBD0090613FE0700504F002205490616AE012DA
:101DCD0020C6EEF0A3EFF090616AE004F0E0C3945A
:051DDD00144002E4F0D7
:011DE20022DE
:10176100E4906200F0A31203A300000000E4906281
:1017710000F090620112038B906200E01220C6E03B
:10178100FEA3E0FFE4FCFD12023690620112039712
:10179100906200E004F0E0B414D890620112037F7B
:1017A100E47B14FAF9F81202DC90620112039790BB
:0517B100620102037F4C
:101FB500C3906141E094FF906140E094FF5007E4D5
:071FC50075F0011201E82292
:10120A00E4FFFE90621AF0A3F01217617C0B7DB81E
:10121A00120433E4FB7A10F9F81202DC90621AEE37
:10122A00F0A3EFF0C39420EE9403403C90621AE0DE
:10123A00FEA3E0FFD394D0EE9407502CEF24E0FFF6
:10124A00EE34FCFEE434FFFDE434FFFCE47B08FAF0
:10125A00F9F8120251E47B78FAF9F81202DCC37445
:10126A00649F90621CF0802590621AE0FEA3E0FF62
:10127A00C394D0EE94074006A37414F0800FD3EF02
:10128A009420EE9403500690621C7464F090621CE1
:05129A00E0FF021CDD75
:101FCC00C3906141E094D0906140E094074007E4F5
:071FDC00F0A3F012120A222B
:0321250002120A99
:0B20E9007379732072657365740A0040
:0100200022BD
:101EB000120020121F097BFF7A2079E912053B12DC
:0F1EC000101C121A9C121CAA7F0A7E0002002717
:101ECF00120DCD75D95590715EE054FEF075D9BBEA
:0E1EDF00121EB012210F75D9AA12211780F819
:1015B70078E0E24440F278E3E254CFF278C0E244C4
:1015C70040F278C3E254CFF278C0E24480F278C3A5
:1015D700E2543FF278D0E24401F278D2E254FCF2CE
:1015E70078D0E24408F278D2E2543FF278D0E2446D
:1015F70010F278D3E254FCF278F0E24401F278F288
:10160700E254FCF278E0E24480F278E3E2543FF2FD
:1016170018E2543FF2E254F3F208E254F3F218E20C
:0416270054CFF22288
:1018F900208606E49061CAF0222087079061CA74A5
:1019090001F0222090079061CA7402F02220930707
:101919009061CA7403F0222094079061CA7404F09C
:101929002220B0079061CA7405F0229061CA20A7ED
:09193900047406F02274FFF02290
:10089900C10A4460D8000000004460DC0000000088
:1008A9004460E0000000004460E400000000416092
:1008B900E800602860E90000000000000000000076
:1008C900000000000000000000000000000000001F
:1008D900000000000000000000000000000041616D
:0908E9001100C1094260D60000B3
:101A5A009061E8E0FF24E9F582E43460F58322909E
:101A6A0061E0FEFDFC02038B12037FEF2401FFE419
:101A7A003EFEE43DFDE43CFC22E4FDFC12038BC384
:101A8A0002036E12038B0202361202DC9061E0023C
:021A9A000397B0
:10203F00E4FE74E92E121A61EFF00EEEB428F3E409
:04204F00906111F09B
:01205300226A
:101F6E00906111E0121A5FEFF0906111E004F0E061
:081F7E00C394284002E4F022A4
:1010C6009061E91203A300000000E49061EDF0A333
:1010D60074FFF0E49061E8F09061E912038B90618F
:1010E600E8E0121A5FE0FFE4FCFDFE1202369061B2
:1010F600E9120397121A5AE0FE9061EDE0C39E5082
:101106000B74E92F121A61E09061EDF0121A5AE0A1
:10111600FE9061EEE0D39E400B74E92F121A61E057
:101126009061EEF09061E8E004F0E0642870A99028
:1011360061E912037FC006C0079061EEE0FF90618F
:10114600EDE02FFFE433AB07FA3395E0F9F8D0076B
:10115600D0061202439061E9120397E47B26FAF95E
:0A116600F89061E912037F0202DC39
:0D209F0078D3E254F3F278D0E24420F2222C
:101BCE009060E012037F9060DC121A8D9060E0123C
:101BDE0003979060DC1203A3000000009060E412F3
:101BEE00037F9060D8121A8D9060E4120397906074
:091BFE00D81203A300000000222C
:101702009060D6E475F0011201E8C39060D7E094CE
:10171200149060D6E09400402BE4F0A3F09060DCDB
:10172200121A729060DC1203977F587E029060DC7E
:10173200121A83400F200A0C9060DC1203A30000EF
:101742000000D20A30951520090F9060D8121A7243
:0E1752009060D8120397121BCED20922C20952
:011760002266
:100BEE009061E01203A3000000009061E41203A3E1
:100BFE00000000007FF47E019060E0121A83500620
:100C0E00200A03020CED9061C0E0FFE4FCFDFE90B3
:100C1E0060E412038B120251E47B107A27F9F8126A
:100C2E000251E47B7A7A06F9F81202DC9061E41242
:100C3E000397300A23E4FF9060E4121A6CC3120388
:100C4E006E9061E060091203A300000001802A1279
:100C5E0003A3000000008021E47F24FEFDFC9061D0
:100C6E00E412038B120251E47B0AFAF9F81202DC49
:100C7E009060E012038B121A939061D812037F904A
:100C8E0061E4121A8D9061D81203979060E41203FA
:100C9E00A3000000009060E01203A300000000C259
:100CAE000AE4FF121A69D312036E4012E47F661231
:100CBE001A69120251E47B64FAF9F8121A93E47F6E
:100CCE00C7121A69D312036E400A9061E01203A391
:0F0CDE00000000C79061E012037F9061C6EFF045
:010CED0022E4
:1008F2004261B200004261B40000C10B4161A1003B
:080902004161A2004161A30064
:101FE3009061AE02038BE475F0010201E890621D7B
:071FF300E0FF9061A2E02273
:0D20AC0078C2E254CFF278C0E24404F22280
:101ADC009061AA12037F9061A412038B12023690BC
:101AEC0061AA1203979061A41203A30000000012D4
:101AFC001FE39061A8E0FEA3E0FFE4FCFD120236B8
:0E1B0C009061AE120397E49061A8F0A3F0225E
:1017B6009061A1E004F0E0C394144020E4F090614D
:1017C600A8121FEAC39061A9E094589061A8E0941A
:1017D600024009200C06E4F0A3F0D20C308222204D
:1017E6000B1C9061A412037FEF2401FFE43EFEE48C
:1017F6003DFDE43CFC9061A4120397121ADCD20B67
:0318060022C20BF0
:0118090022BC
:1014C200E47FF47E01FDFC121FE3C312036E50039E
:1014D200300C6A300C0EC20C9062131203A300008F
:1014E2000000801CE47FBC7EF7FDFC9061AA120321
:1014F2008B120251121FE31202DC90621312039745
:101502009061AA1203A3000000009061AE1203A32F
:1015120000000000E47FFF7EFFFDFC9062131203D7
:101522008BC312036E400A9062131203A30000FFE2
:0D153200FF90621312037F9061C2120397B5
:01153F002289
:101DE300C39061B3E094FF9061B2E094FF5003129B
:101DF3001FE9C39061B5E094FF9061B4E094FF5094
:051E030003121FE9229B
:101F2400E47BF47A01F9F89061C212037F1202DCB7
:081F3400EFD3941840027F185E
:011F3C002282
:10133200E490621DF09061A3E0700A04F0121F2491
:101342009061A2EFF0121F2490621DEFF07008A3CB
:10135200F0A37432F0802F9061A2E0FF90621DE052
:10136200FED39F4005EE9FFF8006121FF0C39FFF32
:10137200EFD394017E0050047F6480027F3290623A
:101382001EEEF0A3EFF090621EE0FEA3E0FFC3901A
:1013920061B3E09F9061B2E09E4020E4F0A3F012BE
:1013A2001FF0FE9F5004E004F022EED39F400CEEAB
:0B13B200D3940040069061A2E014F00C
:0113BD00220D
:04090A004161D70070
:101F860012037FEF2401FFE43EFEE43DFDE43CFC4A
:081F96002212038BC302036E4B
:101FFA009061BEE06009A3E0600CE0B401082290A1
:07200A0061BFE06001E0226C
:10129F00C39061DDE094889061DCE09413400F30DF
:1012AF000D0C121EEDC20DE49061DCF0A3F0E47F93
:1012BF00E87E03FDFC9061D8121F9740657F187E72
:1012CF00C67D9A7C3B9061B6121F97500C9061B609
:1012DF00121F869061B61203977F9C7EE07DF57C8E
:1012EF00059061BA121F97500C9061BA121F869029
:1012FF0061BA1203979061D812037FC3EF94E8FF8E
:10130F00EE9403FEED9400FDEC9400FC9061D81276
:02131F00039732
:101321009061D7E004F0E0C394644004E4F0D20D8E
:011331002299
:10090E004260800000426082000060286084000027
:10091E0000000000000000000000000000000000C9
:10092E0000000000000000000000000000000000B9
:10093E000000000000004160AC0041607D006028B6
:10094E0060AD00000000000000000000000000008C
:10095E000000000000000000000000000000000089
:10096E00000000000000000000004160D500416062
:06097E007E0041607F00D5
:10198A0025E02484F582E43460F583EEF0A3EFF0D9
:10199A002225E024ADF582E4346022F583E0FEA33B
:1019AA00E0FFE4FCFD02023612180A906222EFF010
:1019BA0090607F22E47B14FAF9F802037F90622296
:0719CA00E0FF90607FE022C6
:0B20D200E4FDED12198A0DEDB414F7C7
:0120DD0022E0
:101E6E0090607DE0700504F00220D29060ACE0122C
:101E7E00198A9060ACE004F0E0C394144002E4F0E0
:011E8E002231
:101B1A009062061203A300000000E4906205F090B0
:101B2A00620612038B906205E025E02484F582E4C4
:101B3A0034601219A5906206120397906205E004B8
:0E1B4A00F0E0B414DA9062061219BE0202DC5A
:10201100C3906081E094FF906080E094FF5007E4FA
:0720210075F0011201E82235
:10202800C3906083E094FF906082E094FF5007E4DF
:0720380075F0011201E8221E
:0E206500E4FDED12199B1219930DEDB414F465
:01207300224A
:101F3D009060D5E012199B1219939060D5E004F0D2
:091F4D00E0C394144002E4F02208
:101C070090620B1203A300000000E490620AF090B8
:101C1700620B12038B90620AE012199B1219A590AE
:101C2700620B12039790620AE004F0E0B414E090AC
:081C3700620B1219BE0202DC6F
:10180A00E4FDC3EF94AAEE940540028043C3EF942B
:10181A00DDEE940440047D018036C3EF9410EE940B
:10182A000440047D028029C3EF9443EE94034004EC
:10183A007D03801CC3EF9476EE940240047D0480FD
:10184A000FC3EF94A9EE940140047D0580027D0642
:02185A00AF05D8
:01185C002269
:100CEE00E4906222F0A3F0C3906081E094C890601B
:100CFE0080E094005003020DCCE4F0A3F0121B1A16
:100D0E007C077DD0120433E4FB7A10F9F81202DC72
:100D1E00AB07AA0690607EE0701C04F012206512EC
:100D2E0019B2F0700A9061C9E0701204F0800EE4FE
:100D3E009061C9F08007AE02AF03121F3D121C076F
:100D4E001219B2E0FE6F6018906222E0FFD39E404F
:100D5E0006EF9EA3F080091219C7C39F906223F07D
:100D6E00906223E0FFC39402400E906083E094886B
:100D7E00906082E094134046EFB4010FC3906083FD
:100D8E00E09420906082E0944E4033E4906082F0D4
:100D9E00A3F01219C7FEC39F5005E004F0800BEEBE
:100DAE00D39F400690607FE014F090607FE0700962
:0E0DBE009061C9E0700804F022E49061C9F071
:010DCC002204
:100984005561B600000000000000000000000000F7
:0809940000000000000000005B
:101A16007B017A6179CB9061FF740CF0E4FF121CB4
:101A2600769061D6E0B4C51378B67C617D017B0102
:101A36007A6179CB7E007F0C0201159061BE74013C
:101A4600F09061C174C5F0E49061BFF0A37469F0D1
:031A5600121EED70
:011A5900226A
:101EED009061C174C5F0E4FF12000F7B017A617936
:0C1EFD00B69061FA740CF0E4FF021C3F88
:10099C006036600B07050706070707080709070AF3
:1009AC00070D070F06030604060506060607060BC9
:1009BC00060A060906080409040A040B040C040DB3
:1009CC0004000401040204030404602460410703CE
:1009DC000704070B070C070E060206010600060E9D
:1009EC00060F060D060C0408040E040F040504067D
:1009FC000407586065030A000D050105030504058D
:100A0C00060509050C050D050F030F030D416000CC
:100A1C00004160010042600200004160040041603E
:100A2C0005004260060000426008000041600A00B8
:1013BE00A3E025E0240BF582E43460F583E025E01C
:1013CE002477F582E43461F58322E0FCA3E0FDEF9F
:1013DE0025E0240CF582E43460F583E0FF7E007492
:1013EE0001A8070822E0FCA3E0FDEF25E02442F56A
:1013FE0082E4346022A3E025E02441F582E43460E7
:10140E0022FFEC4EFEED4F22E0FCA3E0FDEF25E0C7
:10141E002466F582E4346022F4FFEEF45CFEED5FA8
:10142E0022E475F0011201E8C32225E02465F5825D
:04143E00E434602210
:101E2B00EF1213C0C083C0821213D88005C333CE08
:101E3B0033CED8F912140FFFD082D083EEF0A3EF7C
:021E4B00F02283
:05169700906224EFF059
:10169C00E4A3F0906225E0FFC3941B5058906224A1
:1016AC00E09F50181213BEC083C0821213D880055D
:1016BC00C333CE33CED8F91214268026906225E09F
:1016CC00FF906224E0C39FD3940040201213BEC04D
:1016DC0083C0821213D88005C333CE33CED8F9120F
:1016EC00140FFFD082D083EEF0A3EFF0906225E0D0
:0516FC0004F002169F3E
:0117010022C5
:101D6E00EF1214051213C9C083C0821213F312139B
:101D7E00E78005C333CE33CED8F912140FFFD082CD
:081D8E00D083EEF0A3EFF02278
:05154000906226EFF0AF
:10154500E4A3F0906227E0FFC394125064906226F2
:10155500E09F501E1214031213C9C083C0821213D8
:10156500F31213E78005C333CE33CED8F912142610
:10157500802C906227E0FF906226E0C39FD3940001
:1015850040261214031213C9C083C0821213F3122A
:1015950013E78005C333CE33CED8F912140FFFD02D
:1015A50082D083EEF0A3EFF0906227E004F00215FD
:0115B50048ED
:0115B6002212
:101E8F00EF906182600FE04480F0906181E0440147
:101E9F00F0A3E0F022E0547FF0906181E054FEF077
:011EAF002210
:05162B0090613BEFF0AF
:10163000E4A3F090613CE0FFC3940C505990613BEF
:10164000E0601FEF1214381213C9C083C082121455
:10165000161213E78005C333CE33CED8F912140F18
:10166000802190613CE0FF1214381213C9C083C07E
:10167000821214161213E78005C333CE33CED8F985
:10168000121426FFD082D083EEF0A3EFF090613CDD
:06169000E004F002163335
:011696002231
:10185D0090600212142F906003E094C8906002E033
:10186D0094004039E4F0A3F0906000E0FF12169769
:10187D00906001E0FF9060007005E004F08003E0EF
:10188D0014F0906000E0FEC3941B5003EE700EEF59
:0D189D0070047F0180027F00906001EFF079
:0118AA00221B
:1018AB0090600612142F906007E094C8906006E0D9
:1018BB0094004039E4F0A3F0906004E0FF1215406F
:1018CB00906005E0FF9060047005E004F08003E099
:1018DB0014F0906004E0FEC394125003EE700EEF10
:0D18EB0070047F0180027F00906005EFF027
:0118F80022CD
:101D3E0090600812142F906009E094F4906008E00F
:101D4E009401401BE4F0A3F0A3E0FF12162B906069
:0F1D5E000AE070047F0180027F0090600AEFF0BE
:011D6D002253
:01212B002291
:100A3C005361890A000000000332410000000000ED
:0E0A4C0002FF20FE000045619C010102030430
:0F207400EC75F005A4249CF582E43461F5832219
:0D20B90078C0E24420F278C3E254F3F22232
:0920FE002085037F01227FFF22EF
:1019D100E4FEFCFBEDB401030B8016EDB403047BC4
:1019E10002800EEDB404047B038006EDB405027B96
:1019F10004ECC39401501B122074E0B507111220AE
:101A010074E5822BF582E43583F583E0FE80030CD7
:041A110080DFAF06BD
:011A150022AE
:100F700090619AE0700302101BE0FFA3E0FD1219DC
:100F8000D1E490619AF0A3F0EF24FE605304600373
:100F900002101B9061F5E070169061BEE070047F56
:100FA0000180027F009061BEEFF0121EED8069901B
:100FB00061F5E0B401119061BFE0700404F0805865
:100FC000E49061BFF080519061F5E0B4021090614F
:100FD000C0E02405F0E0D394B4403D7432F0803892
:100FE0009061F5E0701A9061BEE0B401077F0112D4
:100FF000211F80249061BA1203A300000000801515
:101000009061F5E0B401057402F080099061F5E0AB
:0B101000B40205E4F0121EED12209166
:01101B0022B2
:08210F00E49061F5F00220915B
:03212800021F9EF5
:06211F009061F5EFF022D3
:082117009061F5E0FF021E08D3
:0E209100E49061EFF0A3F09061F3F0A3F02271
:10118A00021ECFE493A3F8E493A34003F68001F28E
:10119A0008DFF48029E493A3F85407240CC8C33366
:1011AA00C4540F4420C8834004F456800146F6DF35
:1011BA00E4800B0102040810204080900835E47E88
:1011CA00019360BCA3FF543F30E509541FFEE4932A
:1011DA00A360010ECF54C025E060A840B8E493A3F1
:1011EA00FAE493A3F8E493A3C8C582C8CAC583CA1C
:1011FA00F0A3C8C582C8CAC583CADFE9DEE780BED4
:010A5A00009B
:10004500E709F608DFFA8046E709F208DFFA803E9D
:1000550088828C83E709F0A3DFFA8032E309F6088A
:10006500DFFA8078E309F208DFFA807088828C83F2
:10007500E309F0A3DFFA806489828A83E0A3F608A6
:10008500DFFA805889828A83E0A3F208DFFA804C80
:1000950080D280FA80C680D4806980F28033801057
:1000A50080A680EA809A80A880DA80E280CA8033C0
:1000B50089828A83ECFAE493A3C8C582C8CCC58338
:1000C500CCF0A3C8C582C8CCC583CCDFE9DEE78008
:1000D5000D89828A83E493A3F608DFF9ECFAA9F087
:1000E500EDFB2289828A83ECFAE0A3C8C582C8CCDD
:1000F500C583CCF0A3C8C582C8CCC583CCDFEADEF6
:10010500E880DB89828A83E493A3F208DFF980CC57
:1001150088F0EF60010E4E60C388F0ED2402B40450
:100125000050B9F582EB2402B4040050AF232345F7
:0601350082239000957387
:10013B00BB010689828A83E0225002E722BBFE02C2
:09014B00E32289828A83E49322F5
:10015400BB010CE58229F582E5833AF583E0225060
:1001640006E92582F8E622BBFE06E92582F8E222AA
:0D017400E58229F582E5833AF583E49322C4
:10018100BB010FF8E58229F582E5833AF583E02882
:10019100F0225009C58229F8E58226F622BBFE0924
:1001A100C58229F8E22582F222F8EA2583F583E95E
:0301B1009328226E
:1001B400BB010689828A83F0225002F722BBFE012A
:0201C400F32224
:1001C600F8BB010DE58229F582E5833AF583E8F06F
:1001D600225006E92582C8F622BBFE05E92582C81B
:0201E600F22203
:1001E800C5F0F8A3E028F0C5F0F8E58215827002A2
:0601F8001583E038F0223F
:1001FE00BB0110E58229F582E5833AF583E0F5F03F
:10020E00A3E0225009E92582F886F008E622BBFE1B
:10021E000AE92582F8E2F5F008E222E5832AF58361
:08022E00E993F5F0A3E9932226
:0D023600EF2BFFEE3AFEED39FDEC38FC2217
:0E024300C3EF9BFFEE9AFEED99FDEC98FC22B6
:10025100E88FF0A4CC8BF0A42CFCE98EF0A42CFC4C
:100261008AF0EDA42CFCEA8EF0A4CDA8F08BF0A4CA
:100271002DCC3825F0FDE98FF0A42CCD35F0FCEB29
:100281008EF0A4FEA9F0EB8FF0A4CFC5F02ECD39EE
:0F029100FEE43CFCEAA42DCE35F0FDE43CFC225B
:1002A00075F008758200EF2FFFEE33FECD33CDCC15
:1002B00033CCC58233C5829BED9AEC99E582984098
:1002C0000CF582EE9BFEED9AFDEC99FC0FD5F0D675
:1002D000E4CEFBE4CDFAE4CCF9A88222B800C1B99F
:1002E0000059BA002DEC8BF084CFCECDFCE5F0CBDD
:1002F000F97818EF2FFFEE33FEED33FDEC33FCEB16
:1003000033FB10D703994004EB99FB0FD8E5E4F9D0
:10031000FA227818EF2FFFEE33FEED33FDEC33FCBD
:10032000C933C910D7059BE99A4007EC9BFCE99AB1
:10033000F90FD8E0E4C9FAE4CCFB2275F010EF2FF6
:10034000FFEE33FEED33FDCC33CCC833C810D707F6
:100350009BEC9AE899400AED9BFDEC9AFCE899F831
:0E0360000FD5F0DAE4CDFBE4CCFAE4C8F922C4
:10036E00EB9FF5F0EA9E42F0E99D42F0E89C45F0E5
:01037E00225C
:0C037F00E0FCA3E0FDA3E0FEA3E0FF22F1
:0C038B00E0F8A3E0F9A3E0FAA3E0FB22F5
:0C039700ECF0A3EDF0A3EEF0A3EFF022D9
:1003A300A8828583F0D083D0821203BA1203BA12D3
:1003B30003BA1203BAE473E493A3C583C5F0C583F8
:1003C300C8C582C8F0A3C583C5F0C583C8C582C8A4
:0103D3002207
:0903D400E0FBA3E0FAA3E0F9222A
:1003DD00F8E0FBA3A3E0F925F0F0E58215827002A9
:0703ED001583E0FA38F0224D
:0903F400EBF0A3EAF0A3E9F0220A
:1003FD00BB010DE58229F582E5833AF5830203D42D
:10040D005007E92582F802048CBBFE07E92582F826
:10041D00020495E58229F582E5833AF58302049E6F
:06042D008A838982E4735A
:10043300EC8EF0A4CCC5F0CCCDF8EFA4CEC5F02D56
:10044300FDE43CFCE8A42EC8C5F03DFDE43CFCEF14
:0D045300A4FFE5F028FEE43DFDE43CFC22A2
:1004D000E5082415F582E43461F583E005082290EF
:1004E0006112300703906115E475F0011203DD021B
:1004F000013B2000E97F2ED2008018EF540F24909A
:10050000D43440D4FF30040BEF24BFB41A0050039E
:100510002461FFE50960021509050CE50C70020570
:100520000B30070E906112E475F0011203DDEF024B
:1005300001B40220837403D2078003E4C207F508E4
:100540009061121203F4E4F509F50BF50CE509606E
:10055000077F2012051380F5750AFFC201C200C291
:1005600002C203C205C206C2081204DFFF700D30CA
:1005700007057F00120524AF0CAE0B22B4255FC225
:10058000D5C2041204DFFF24D0B40A00501A75F05B
:100590000A780930D50508B6FF0106C6A426F6205C
:1005A000D5047002D20380D924CFB41A00EF5004CE
:1005B000C2E5D204020725D20180C6D20080C0D293
:1005C0000280BCD2D580BAD20580B47F2012051338
:1005D0002002077401B5090040F11204D0FF120592
:1005E0001302054DD208D20680951204D0FB1204E6
:1005F000D0FA1204D0F94A4B700679F67A077BFFDD
:1006000020022EE509602A7E008E82758300120189
:100610005460060EEE650A70F0C2D5EBC0E0EAC089
:10062000E0E9C0E0EE12076CD0E0F9D0E0FAD0E0EB
:10063000FB12013BFF60AAEBC0E0EAC0E0E9C0E0CA
:10064000120513D0E02401F9D0E03400FAD0E0FB29
:10065000E50A0460DCD50AD980877BFF7A077968D0
:10066000D202809C791080027908C206C2088008F4
:10067000D2D5790A8004790AC2D5E50A047002F558
:100680000AE4FAFDFEFF1204D0FC7B0820011312DD
:1006900004D0FD7B1030000A1204D0FE1204D0FFFB
:1006A0007B20EC3382D592D55013C3E43000069FF3
:1006B000FFE49EFEE42001039DFDE49CFCE4CBF8F6
:1006C000C201EC700CCFCECDCCE824F8F870F380EA
:1006D00017C3EF33FFEE33FEED33FDEC33FCEB33AA
:1006E000FB994002FB0FD8E9EB300105F8D0E0C4DC
:1006F00048B201C0E00AEC4D4E4F78207B0070C23A
:10070000EAB50A0040BCC0E012076ED0F0D0E0208D
:100710000104C4C0E0C4B201C0F01204FCD0F0D5A2
:10072000F0EB02054D1204AA05EA5306645805BB16
:100730004C05B74206684F06704406704905D04321
:08074000067655065A46065ADA
:1007480045065A4708165005BF2D05C32E05E62B4A
:1007580005C72305E42007FF2A057F48000005DEBA
:100768003F3F3F00790AA2D5200314300509B9108C
:10077800020404B9080104A2D5200602500104208D
:1007880002689202B509005034C0E07F2030031996
:100798007F30A20272067205500F1207C5C202C24C
:1007A80006C205C2087F30800F300503E9C0E01299
:1007B8000513300503D0E0F9D0E0B509CC300517B2
:1007C8007F30B9100C1205137F583004077F7880EA
:1007D80003B908031205133002057F2D0205137FA4
:1007E800202008F87F2B2006F322920280CF286E63
:1007F800756C6C2900D2011204D03001F8C201785E
:100808000930D50108F602057F2D504349581204D6
:10081800D02403B405004001E490081193120504A4
:0D082800743A120504D20375090402066437
:10046000EF4E6012EF60010EEDBB010B89828A83B3
:10047000F0A3DFFCDEFA2289F05007F709DFFCA9C0
:0C048000F022BBFEFCF309DFFCA9F02217
:09048C00E6FB08E6FA08E6F92295
:09049500E2FB08E2FA08E2F92298
:0C049E00E493FB740193FA740293F922BA
:1004AA00D083D082F8E4937012740193700DA3A3E1
:1004BA0093F8740193F5828883E4737402936860F5
:0604CA00EFA3A3A380DFF5
:00000001FF
