:03000000021AA140
:101AA100787FE4F6D8FD9060007F007E07E4F0A324
:0A1AB100DFFCDEFA758121021AF64F
:0C000300000000000000000000000000F1
:0B2D3B00EF1FAC0670011E4C70F6226A
:10002700AB07AA06EB1BAE0270011A4E600C7FAA43
:0B0037007E05122D3B75D9AA80EA223D
:10133300907120E04480F07F057E00122D3BE4FF96
:10134300FE12002775A75575AC5C9071327450F08E
:101353009071307403F0907136742FF090715C7457
:1013630003F090715BE054FCF07F18EF2466FDE41A
:1013730034718D82F583E4F00FEFB433EE904011B6
:10138300E4935407FF90711CE054F84FF09040171A
:10139300E493547FFF90711DE054804FF090401010
:1013A300E493FF5401C43333335480FE907123E03C
:1013B300547F4EF0EFC313543F4440FFA3E05480E7
:1013C3004FF0904012E493FF540FFE907146E054A7
:1013D300F04EF0EFC4540FFF90714FE054F04FF014
:1013E300904013E493543FFF907140E054C04FF09A
:1013F300904014E493907126F0904015E49390711B
:0B14030028F0904016E49390712AF04E
:01140E0022BB
:1025FB00E5B154CF42B153A8BFD2AF75D102789C8D
:10260B00E254E3F2E2441CF2E254FCF2E24401F243
:10261B0008E2547FF2E24420F278A17401F21874BC
:10262B0076F2789CE2541FF2E244C0F243A84022B7
:0300210002237740
:10237700C0E0C0F0C083C082C0D075D000C000C02C
:1023870001C002C003C004C005C006C007789DE2B3
:1023970030E70DE24480F2122D51122D8812286386
:1023A700D007D006D005D004D003D002D001D0008A
:0B23B700D0D0D082D083D0F0D0E03234
:1027CF00E5B254FC42B253A9FED2AF75D104907159
:1027DF00057409F0907104745FF0907101E0547FFB
:1027EF00F0E04420F0907100E0E4F0E044C1F043E9
:0327FF00A901220B
:03002400022A931A
:102A9300C0E0C083C082907101E030E704E044806D
:082AA300F0D082D083D0E032B4
:0E2CEC00906256EFF0122D65906256E0FF22C6
:102A2C0078C2E254FCF2E24401F290717EE044047C
:0B2A3C00F075D60175D59F75D21022F1
:082D6500E5D430E4FB8FD72216
:0408960041631A00A0
:1028E60078C2E2440CF278D3E24430F2786AE244E9
:1028F60079F27591FF9071227407F0439E704399A7
:072906004043AA04D2AF22F6
:1029F4005399E0EF14700E907123E054D8F0E04442
:0C2A040059F04399017869E24448F2223D
:052D830090631AE0223C
:03004200021F2E6C
:101F2E00C0E0C0F0C083C082C0D075D000C000C079
:0D1F3E0001C002C003C004C005C006C007FA
:101F4B00786BE230E122E24402F2AF93EF75F010CE
:101F5B00A4FFAEF0E594C4540FFDEF4DFF90631A50
:081F6B00E024FE700312299727
:101F7300D007D006D005D004D003D002D001D000C2
:0B1F8300D0D0D082D083D0F0D0E0326C
:10295500906327F090630902043590000612015434
:10296500FE9000080201549000091201C690000C67
:01297500223F
:100BD200E4906327F07FFFA374FFF090630912048F
:100BE20055900001120154FE12013BFDEEC39D50CF
:100BF20003020D64122959900001E41201C690000B
:100C02000E12045E12048EEFF460089063087423DF
:100C1200F08009906308E06003E014F01229599013
:100C220000031201546F6015900005120154600D0B
:100C3200900004E41201C6900003020D60900005CA
:100C4200120154FE900004120154C39E500B12294B
:100C52005990000474010201811229599000021274
:100C620001546F6048EFF4701C12295FC39E400A62
:100C72007405122955900002806112295990000AC8
:100C82007401020D57122959900008740112296F3C
:100C92001201546F906309600C1204357401122919
:100CA2006CEF020D57120435900009803DEFF4708D
:100CB20041122959900009120154D39400500302A1
:100CC2000D5A90000B120154FE90000A120154D3E7
:100CD2009E4011740112295590000C120154906328
:100CE20028F0805412295990000A740112018102DD
:100CF2000D5A122959122966C394FF500890000810
:100D0200740112018112295FB506089063277403EA
:100D1200F080201229599000071229626E703990D2
:100D22006327740412295890000612015490000897
:100D32001201C6906328EFF0122959E412296C744B
:100D4200FF1201C6906328E09000111201C6906361
:100D520027E09000121201C6122959900002EF12E8
:020D620001C6C8
:010D6400226C
:10000F0075AF3F8FAF75AEB975A402E5A530E1FBB3
:01001F0022BE
:102764009062F512045575AF3F8FAF9062F8E0C3E5
:1027740094014022E5A530E0FB9062F5E475F00198
:1027840012043E12013BF5A675AEB975A401906220
:07279400F8E014F080D522EB
:10279B009062FA1204559062FDE06027AE070FEECF
:1027AB002400FDE4343F8D82F583E493FE9062FABE
:1027BB00E475F00112043EEE1201B49062FDE014D8
:0427CB00F080D322A5
:10089A0042627300004C6257000000000000000032
:1008AA000000000050626300000000000000000029
:0708BA000000000000000037
:1026B7009FFFE49400FEEF25E0FFEE33FE120435A2
:1026C7008F828E83120253FF2290623CE0FF90625A
:1026D70036E0227B017A6279639062321204559068
:0C26E7006235227E007D007B010204C1F0
:102ADB00C3906274E094FF906273E094FF5007E43C
:072AEB0075F00112023D220B
:06168A0090622E120455CF
:10169000C374089D90623CF0906235E0FFC374080B
:1016A0009F90623DF0C291C292E4906236F0E49065
:1016B0006238F0A3F090623AF0A3F01226D0C39FF4
:1016C00040121226D090622E1226B7906238E5F0B2
:1016D000F0A3EFF090623D1226D3C39F40159062B5
:1016E0003D1226D39062321226B790623AE5F0F0AE
:1016F000A3EFF0E4906237F0906238E030E703D374
:101700008001C3928390623AE030E703D38001C343
:101710009295D291906239E025E0F0906238E03302
:10172000F090623BE025E0F090623AE033F0C29145
:10173000906237E004F0E0B410BE906236E004F04E
:10174000E0640860030216AED292C292C283C295D0
:011750002276
:10293200C3906274E09419906273E094004013E4CF
:10294200F0A3F01226DA7408F07A6279577D061243
:03295200168A22C0
:1017FD007F0C7A6279571226EA7F107A627963122A
:10180D0026EA78D2E254F3F2E24404F2907187E4CE
:10181D00F078C2E2543FF2E24440F2907181E4F07C
:10182D0078D3E254F3F2E24404F290718BE4F018B1
:10183D00E254CFF2E24410F2907188E4F008E254E1
:10184D00CFF2E24410F290718C740AF07856E4F203
:10185D00782774BBF218747FF27833E4F218F278BB
:10186D0019F218E24401F27811E24401F27817E21C
:10187D004401F27812E24401F27814E24401F2C21A
:10188D0083C295C291C2921226DA7406F07A6279F9
:0A189D0057FD12168A7F1E02280272
:10280200C374649FFFE49400FE3395E0FDFCE47B17
:102812007F7ABBF9F81202A6E47B64FAF9F8120394
:1028220031AC06EC7833F218EFF27817E24401F299
:012832002283
:0B2D46007379732072657365740A00D6
:0100200022BD
:1029B800120020122A2C7BFF7A2D794612059C12D0
:0F29C80017FD1225FB1227CF7F0A7E0002002782
:1029760012133375D95590715EE054FEF075D9BBCC
:102986001229B8122D6D12283375D9AA122D758009
:01299600F848
:101E490078E0E24440F278E3E254CFF278C0E24429
:101E590040F278C3E254CFF278C0E24480F278C30A
:101E6900E2543FF278D0E24401F278D2E254FCF233
:101E790078D0E24408F278D2E2543FF278D0E244D2
:101E890010F278D3E254FCF278F0E24401F278F2ED
:101E9900E254FCF278E0E24480F278E3E2543FF263
:101EA90018E2543FF2E254F3F208E254F3F218E272
:041EB90054CFF222EE
:1024A000208606E49062B6F0222087079062B67418
:1024B00001F0222090079062B67402F02220930768
:1024C0009062B67403F0222094079062B67404F010
:1024D0002220B0079062B67405F0229062B620A761
:0924E000047406F02274FFF022DE
:1008C100C10A4461F4000000004461F80000000026
:1008D1004461FC000000004462000000000041622D
:1008E1000400602862050000000000000000000014
:1008F10000000000000000000000000000000000F7
:100901000000000000000000000000000000416243
:090911002D00C1094261F2000051
:1025B9009062E0E0FF2405F582E43462F58322901D
:1025C90062D8FEFDFC0203E01203D4EF2401FFE40C
:1025D9003EFEE43DFDE43CFC22E4FDFC1203E0C3C5
:1025E9000203C31203E002028B1203319062D80284
:0225F90003ECF1
:102B4E00E4FE74052E1225C0EFF00EEEB428F3E469
:042B5E0090622DF064
:012B62002250
:102AAB0090622DE01225BEEFF090622DE004F0E075
:082ABB00C394284002E4F0225C
:1018A7009062E11203F800000000E49062E5F0A303
:1018B70074FFF0E49062E0F09062E11203E090625E
:1018C700E0E01225BEE0FFE4FCFDFE12028B906211
:1018D700E11203EC1225B9E0FE9062E5E0C39E50E9
:1018E7000B74052F1225C0E09062E5F01225B9E0D0
:1018F700FE9062E6E0D39E400B74052F1225C0E0F0
:101907009062E6F09062E0E004F0E0642870A9904D
:1019170062E11203D4C006C0079062E6E0FF90625E
:10192700E5E02FFFE433AB07FA3395E0F9F8D0078A
:10193700D0061202989062E11203ECE47B26FAF9D2
:0A194700F89062E11203D4020331AC
:0D2D080078D3E254F3F278D0E24420F222B6
:1026F3009061FC1203D49061F81225EC9061FC12F6
:1027030003EC9061F81203F80000000090620012DD
:1027130003D49061F41225EC9062001203EC9061F3
:09272300F41203F800000000228A
:101F8E009061F2E475F00112023DC39061F3E094AA
:101F9E00149061F2E09400402BE4F0A3F09061F80D
:101FAE001225D19061F81203EC7F587E029061F8F1
:101FBE001225E2400F200A0C9061F81203F800007F
:101FCE000000D20A30951520090F9061F41225D128
:0E1FDE009061F41203EC1226F3D20922C2091C
:011FEC0022D2
:101154009062D81203F8000000009062DC1203F8D9
:10116400000000007FF47E019061FC1225E250062D
:10117400200A030212539062ACE0FFE4FCFDFE90EF
:1011840062001203E01202A6E47B107A27F9F81237
:1011940002A6E47B7A7A06F9F81203319062DC1233
:1011A40003EC300A23E4FF9062001225CBC3120340
:1011B400C39062D860091203F800000001802A126B
:1011C40003F8000000008021E47F24FEFDFC90620F
:1011D400DC1203E01202A6E47B0AFAF9F8120331E6
:1011E4009061FC1203E01225F29062D01203D490B5
:1011F40062DC1225EC9062D01203EC9062001203C0
:10120400F8000000009061FC1203F800000000C226
:101214000AE4FF1225C8D31203C34012E47F661206
:1012240025C81202A6E47B64FAF9F81225F2E47FD9
:10123400C71225C8D31203C3400A9062D81203F818
:0F124400000000C79062D81203D49062B2EFF09E
:011253002278
:10091A0042629E00004262A00000C10B41628D004B
:08092A0041628E0041628F0062
:102AF20090629A0203E0E475F00102023D90631BCA
:072B0200E0FF90628EE0226B
:0D2D150078C2E254CFF278C0E24404F2220A
:10263B009062961203D49062901203E012028B9078
:10264B0062961203EC9062901203F80000000012E5
:10265B002AF2906294E0FEA3E0FFE4FCFD12028BF1
:0E266B0090629A1203ECE4906294F0A3F022C5
:1022D00090628DE004F0E0C394144020E4F090623A
:1022E00094122AF9C3906295E09458906294E09415
:1022F000024009200C06E4F0A3F0D20C3082222028
:102300000B1C9062901203D4EF2401FFE43EFEE424
:102310003DFDE43CFC9062901203EC12263BD20B94
:0323200022C20BCB
:012323002297
:101C5A00E47FF47E01FDFC122AF2C31203C350038F
:101C6A00300C6A300C0EC20C90630C1203F80000A0
:101C7A000000801CE47FBC7EF7FDFC906296120394
:101C8A00E01202A6122AF212033190630C1203EC3C
:101C9A009062961203F80000000090629A1203F80C
:101CAA0000000000E47FFF7EFFFDFC90630C12033E
:101CBA00E0C31203C3400A90630C1203F80000FF4A
:0D1CCA00FF90630C1203D49062AE1203EC85
:011CD70022EA
:10290D00C390629FE094FF90629EE094FF5003128B
:10291D002AF8C39062A1E094FF9062A0E094FF506A
:05292D0003122AF8224C
:102A6100E47BF47A01F9F89062AE1203D4120331D7
:082A7100EFD3941840027F1816
:012A7900223A
:101BCE00E490631BF090628FE0700A04F0122A61B9
:101BDE0090628EEFF0122A6190631BEFF07008A3F3
:101BEE00F0A37432F0802F90628EE0FF90631BE0C2
:101BFE00FED39F4005EE9FFF8006122AFFC39FFF74
:101C0E00EFD394017E0050047F6480027F32906394
:101C1E001CEEF0A3EFF090631CE0FEA3E0FFC39078
:101C2E00629FE09F90629EE09E4020E4F0A3F0123F
:101C3E002AFFFE9F5004E004F022EED39F400CEEEC
:0B1C4E00D39400400690628EE014F07A
:011C59002268
:040932004162CF004F
:102AC3001203D4EF2401FFE43EFEE43DFDE43CFCAD
:082AD300221203E0C30203C359
:102B09009062AAE06009A3E0600CE0B40108229099
:072B190062ABE06001E02265
:101B3B00C39062D5E094889062D4E09413400F3048
:101B4B000D0C122A10C20DE49062D4F0A3F0E47FC6
:101B5B00E87E03FDFC9062D0122AD440657F187E8C
:101B6B00C67D9A7C3B9062A2122AD4500C9062A242
:101B7B00122AC39062A21203EC7F9C7EE07DF57C5F
:101B8B00059062A6122AD4500C9062A6122AC3901A
:101B9B0062A61203EC9062D01203D4C3EF94E8FF59
:101BAB00EE9403FEED9400FDEC9400FC9062D012D9
:021BBB0003EC39
:101BBD009062CFE004F0E0C394644004E4F0D20DF1
:011BCD0022F5
:1009360042619C000042619E0000602861A00000A8
:1009460000000000000000000000000000000000A1
:100956000000000000000000000000000000000091
:100966000000000000004161C80041619900602854
:1009760061C9000000000000000000000000000047
:100986000000000000000000000000000000000061
:10099600000000000000000000004161F10041611C
:0609A6009A0041619B0074
:1024E90025E024A0F582E43461F583EEF0A3EFF052
:1024F9002225E024C9F582E4346122F583E0FEA3B4
:10250900E0FFE4FCFD02028B122324906329EFF023
:1025190090619B22E47B14FAF9F80203D4906329B1
:07252900E0FF90619BE0223E
:0B2D2F00E4FDED1224E90DEDB414F7F3
:012D3A002276
:10299700906199E0700504F0022D2F9061C8E01254
:1029A70024E99061C8E004F0E0C394144002E4F025
:0129B70022FD
:102679009062FF1203F800000000E49062FEF090FF
:1026890062FF1203E09062FEE025E024A0F582E4F7
:1026990034611225049062FF1203EC9062FEE0049B
:0E26A900F0E0B414DA9062FF12251D02033136
:102B2000C390619DE094FF90619CE094FF5007E4A6
:072B300075F00112023D22C5
:102B3700C390619FE094FF90619EE094FF5007E48B
:072B470075F00112023D22AE
:0E2CA100E4FDED1224FA1224F20DEDB414F449
:012CAF002202
:102A7A009061F1E01224FA1224F29061F1E004F07C
:092A8A00E0C394144002E4F022C0
:10272C009063041203F800000000E4906303F0903F
:10273C0063041203E0906303E01224FA1225049060
:10274C0063041203EC906303E004F0E0B414E09033
:08275C00630412251D02033184
:10232400E4FDC3EF94AAEE940540028043C3EF9406
:10233400DDEE940440047D018036C3EF9410EE94E6
:102344000440047D028029C3EF9443EE94034004C7
:102354007D03801CC3EF9476EE940240047D0480D8
:102364000FC3EF94A9EE940140047D0580027D061D
:02237400AF05B3
:012376002244
:10125400E4906329F0A3F0C390619DE094C8906189
:101264009CE094005003021332E4F0A3F0122679B8
:101274007C077DD0120494E4FB7A10F9F812033150
:10128400AB07AA0690619AE0701C04F0122CA1121C
:101294002511F0700A9062B5E0701204F0800EE43B
:1012A4009062B5F08007AE02AF03122A7A12272C9F
:1012B400122511E0FE6F6018906329E0FFD39E4071
:1012C40006EF9EA3F08009122526C39F90632AF09F
:1012D40090632AE0FFC39402400E90619FE09488DB
:1012E40090619EE094134046EFB4010FC390619F58
:1012F400E0942090619EE0944E4033E490619EF02F
:10130400A3F0122526FEC39F5005E004F0800BEEE7
:10131400D39F400690619BE014F090619BE07009BC
:0E1324009062B5E0700804F022E49062B5F02B
:011332002298
:1009AC005562A200000000000000000000000000E2
:0809BC00000000000000000033
:102575007B017A6279B79062FD740CF0E4FF122753
:102585009B9062C2E0B4C51378A27C627D017B0199
:102595007A6279B77E007F0C0201159062AA7401F8
:1025A500F09062AD74C5F0E49062ABF0A37469F08D
:0325B500122A10D7
:0125B8002200
:102A10009062AD74C5F0E4FF12000F7B017A627919
:0C2A2000A29062F8740CF0E4FF0227643E
:1009C4004A60033F065B4F666D7D077F6F6036604C
:1009D4000D07050706070707080709070A070D0794
:1009E4000F06030604060506060607060B060A0696
:1009F4000906080409040A040B040C040D04000489
:100A04000104020403040460246043070307040789
:100A14000B070C070E060206010600060E060F065B
:100A24000D060C0408040E040F04050406040758FC
:100A34006067030A000D05010503050405060509A1
:100A4400050C050D050F030F030D4E607F0505050D
:100A54000A050E030B05000502050B50608D070205
:100A64000700000E0309030C030E030003014E608C
:100A74009D010F010D010A0109010B010E010C4E2C
:100A840060AB00010003000600070005000200043B
:100A94004E60B903050306020202010200030403C7
:100AA400074E60C7010001020104010701050101AD
:100AB40001034C60D5020C020D020E020F02050266
:100AC400044C60E1020B020A020902080207020652
:100AD4004E60ED000D000E000C00080508000A0031
:100AE4000B4E60FB050505060509050A050C050402
:100AF400050B4E610905020503050D050F050E05DD
:100B040001050050611704050406040704080107E1
:100B1400050700090001605461270007000600056D
:100B2400010F010C010B010E01080109010A020F5A
:100B3400020D0100020E01050101020C020A020964
:100B44000102020B0106010302080306040E040D50
:100B540001040409040C040F03050304040A040B30
:100B640004030401030303020301040204004C61AF
:100B74007B030F030D030802060202020052618781
:100B8400030C030B030A0309020702050204020310
:0B0B940002014260000000416002000E
:100D6500E0FCA3E0FDEF25E02444F582E43460F5E2
:100D750083E0FF7E007401A807082290633CE0FF32
:100D850025E024D5F582E43460F583E025E024638D
:100D9500F582E43462F58322E0FCA3E0FDEF25E073
:100DA50022906312E0FF25E024EDF582E43460F53E
:100DB50083E025E02457F582E43462F58322F4FFCD
:100DC500EEF45CFEED5F22FFEC4EFEED4F22F0747B
:100DD500032DF582E43460F583E022EEF0A3EFF015
:100DE500906323E0FF25E022E0FF25E02443F58220
:100DF500E4346022E0FF25E024E1F582E43460225A
:100E050090631FE0FF25E0247FF582E4346022E053
:100E1500FCA3E0FDEF75F00EA42428F582E434610F
:100E2500F58322906314E0FF75F00EA42427F58264
:100E3500E43461F58322A3E025E0240DF582E43452
:100E45006022E04401F0A3E0F02224D6F582E434E8
:100E5500602224E2F582E4346022906312E0FF25EB
:100E6500E022906324E0FEA3E0FF7C007D0A0201FE
:100E7500E8EEF0A3EFF090633CE004F0E02275F0BB
:100E850002020429240EF582E4346022FFE0C39FA8
:100E9500D39400222480F582E4346022E0FF25E02B
:100EA500248DF582E4346022E0FF25E02417F582E5
:100EB500E4346122E0FF25E0247BF582E4346122FD
:100EC500E0FF25E02487F582E434612225E02467EC
:100ED500F582E4346022E075F00A84ADF0E4FF2287
:10289000EF120E3D120D8EC083C082120D9D120EDE
:1028A00089120D748005C333CE33CED8F9120DCC06
:0B28B000FFD082D083EEF0A3EFF022F7
:051DD00090632BEFF011
:101DD500E4A3F090632CE0FFC3941B506690632B43
:101DE500E09F5021120E3B120D8EC083C082120D52
:101DF5009D120E89120D748005C333CE33CED8F9EA
:101E0500120DC3802B90632CE090632B120E914032
:101E150029120E3B120D8EC083C082120D9D120E2B
:101E250089120D748005C333CE33CED8F9120DCC8B
:101E3500FFD082D083EEF0A3EFF090632CE004F0A6
:031E4500021DD8A3
:011E48002277
:1023C20090622EEFF0ED601B120DED120D8EC083A8
:1023D200C082120D658005C333CE33CED8F9120DFB
:1023E200CC801C90622E120DED120D8EC083C08225
:1023F200120D658005C333CE33CED8F9120DC3FF5B
:0A240200D082D083EEF0A3EFF022A9
:051EBD0090632DEFF021
:101EC200E4A3F090632EE0FFC39412505E90632D62
:101ED200E09F501DA3E0120DEF120D8EC083C08251
:101EE200120D658005C333CE33CED8F9120DC380EF
:101EF2002790632EE090632D120E914025A3E012ED
:101F02000DEF120D8EC083C082120D658005C333A2
:101F1200CE33CED8F9120DCCFFD082D083EEF0A30F
:0B1F2200EFF090632EE004F0021EC5FB
:011F2D002291
:1029D700EF90626E600BE04480F090626D120E47DC
:0D29E70022E0547FF090626DE054FEF0227B
:051D560090632FEFF087
:101D5B00E4A3F0906330E0FFC3940C506790632FC3
:101D6B00E06026EF120ED1120D8EC083C082120DD1
:101D7B009D2468F582E43460120D748005C333CE64
:101D8B0033CED8F9120DCC8028906330E0FF120EC1
:101D9B00D1120D8EC083C082120D9D2468F582E492
:101DAB003460120D748005C333CE33CED8F9120DC7
:101DBB00C3FFD082D083EEF0A3EFF0906330E0044A
:041DCB00F0021D5EA7
:011DCF0022F1
:1028BB00EF120E0A120D8EC083C082120D9D120EE6
:1028CB0099120D748005C333CE33CED8F9120DCCCB
:0B28DB00FFD082D083EEF0A3EFF022CC
:0519510090631EEFF0A1
:10195600E4A3F0120E05120D8EC083C082120D9DF7
:10196600120E99120D748005C333CE33CED8F912F8
:101976000DC3FFD082D083EEF0A3EFF090631FE09B
:1019860004F0E0B407CD90631EE0FB70057F06020D
:1019960028BB74032B120DD7906320F0E490631FCD
:1019A600F090631FE0FFC394075047120D7880053F
:1019B600C333CE33CED8F9FF906320E0FDEF5D60F0
:1019C60029120E05120D8EC083C082120D9D120EB5
:1019D60099120D748005C333CE33CED8F9120DCCCF
:1019E600FFD082D083EEF0A3EFF090631FE004F007
:0219F60080AFC0
:0119F80022CC
:101FED0090633BEFF0ED6025120EA1120D8EC083B4
:101FFD00C082120D9D248EF582E43460120D748022
:10200D0005C333CE33CED8F9120DCC802690633B69
:10201D00120EA1120D8EC083C082120D9D248EF55D
:10202D0082E43460120D748005C333CE33CED8F9FB
:0E203D00120DC3FFD082D083EEF0A3EFF0228D
:102BD100EF9062726005E04402F022E054FDF022C1
:102B6300EF9062636008E04480F0A3E0F022E05459
:032B73007FF022CE
:102BE100EF9062646005E04401F022E054FEF022BF
:0F2CB000EF9062696004120E4722E054FEF0229A
:102BF100EF90626A6005E04408F022E054F7F022A9
:102C0100EF90626A6005E04404F022E054FBF02298
:10140F00120DD4906332F0EF7068906331F09063F7
:10141F0031E0FFC3940740030214E6120D788005F4
:10142F00C333CE33CED8F9FF906332E0FDEF5D606A
:10143F0038906331E0FF25E0249DF582E43460129B
:10144F000D8EC083C082120D9D249EF582E4346000
:10145F00120D748005C333CE33CED8F9120DCCFFE5
:10146F00D082D083EEF0A3EFF0906331E004F0026E
:10147F00141DE4906331F0906331E0FFC394075083
:10148F0056120D788005C333CE33CED8F9FF906353
:10149F0032E0FDEF5D6038906331E0FF25E024AB73
:1014AF00F582E43460120D8EC083C082120D9D242C
:1014BF00ACF582E43460120D748005C333CE33CEA5
:1014CF00D8F9120DCCFFD082D083EEF0A3EFF090BD
:0714DF006331E004F080A07E
:0114E60022E3
:1014E700120DD4906334F0EF7068906333F090631B
:1014F70033E0FFC3940740030215BE120D78800541
:10150700C333CE33CED8F9FF906334E0FDEF5D608F
:1015170038906333E0FF25E024B9F582E4346012A4
:101527000D8EC083C082120D9D24BAF582E434600B
:10153700120D748005C333CE33CED8F9120DCCFF0C
:10154700D082D083EEF0A3EFF0906333E004F00293
:1015570014F5E4906333F0906333E0FFC3940750CE
:1015670056120D788005C333CE33CED8F9FF90637A
:1015770034E0FDEF5D6038906333E0FF25E024C77A
:10158700F582E43460120D8EC083C082120D9D2453
:10159700C8F582E43460120D748005C333CE33CEB0
:1015A700D8F9120DCCFFD082D083EEF0A3EFF090E4
:0715B7006333E004F080A0A3
:0115BE00220A
:102C1100EF9062666005E04440F022E054BFF0228C
:08104C00906321EFF0A3EDF029
:10105400E4A3F0120DE5249DF582E43460120D8EB4
:10106400C083C082120D9D249EF582E43460120D6B
:10107400748005C333CE33CED8F9120DC3FFD082AA
:10108400D083120DE024ABF582E43460120D8EC0DF
:1010940083C082120D9D24ACF582E43460120D7479
:1010A4008005C333CE33CED8F9120DC3FFD082D01E
:1010B40083120DE024B9F582E43460120D8EC083EE
:1010C400C082120D9D24BAF582E43460120D74803E
:1010D40005C333CE33CED8F9120DC3FFD082D083EB
:1010E400120DE024C7F582E43460120D8EC083C073
:1010F40082120D9D24C8F582E43460120D748005BB
:10110400C333CE33CED8F9120DC3FFD082D083EED1
:10111400F0A3EFF0906323E004F0E06407600302BF
:101124001057906321120EDB12140F906321E075A7
:10113400F00A84FD7F0112140F906322120EDB1259
:1011440014E7906322E075F00A84FD7F010214E73E
:0F2CBF00EF9062636004120E4722E054FEF02291
:0F2CCE00EF9062656004120E4722E054FEF02280
:102C2100EF9062686005E04408F022E054F7F0227A
:05240C00906335EFF0C4
:10241100E4A3F0906336E0FFC39406503790633530
:10242100E0B50728A3E0120D85C083C082120D9D7F
:10243100120E4F120D748005C333CE33CED8F9126C
:102441000DCCFFD082D083EEF0A3EFF0906336E0A5
:0424510004F080BF54
:012455002264
:05245600906337EFF078
:10245B00E4A3F0906338E0FFC394065037906337E2
:10246B00E06F7028A3E0120D85C083C082120D9D12
:10247B00120E4F120D748005C333CE33CED8F91222
:10248B000DC3FFD082D083EEF0A3EFF0906338E062
:04249B0004F080BF0A
:01249F00221A
:10216500EF602DE490633CF0120D80C083C08212B5
:102175000D9D120E4F120D748005C333CE33CED88C
:10218500F9120DCCFFD082D083120E76B406D92277
:10219500E490633CF0120D80C083C082120D9D1245
:1021A5000E4F120D748005C333CE33CED8F9120D00
:0C21B500C3FFD082D083120E76B406D98E
:0121C10022FB
:10227A0090633DEFF0ED6021120DF9120D8EC083CF
:10228A00C082120D9D120E57120D748005C333CEF3
:10229A0033CED8F9120DCC802290633D120DF9127B
:1022AA000D8EC083C082120D9D120E57120D7480BE
:1022BA0005C333CE33CED8F9120DC3FFD082D083F3
:0622CA00EEF0A3EFF0228C
:051CD800906339EFF0FC
:101CDD00E4A3F090633AE0FFC39406506B90633930
:101CED00E09F5023A3E0120DFB120D8EC083C08226
:101CFD00120D9D120E57120D748005C333CE33CEC7
:101D0D00D8F9120DC3802E90633AE0FF906339121B
:101D1D000E92402BA3E0120DFB120D8EC083C082DC
:101D2D00120D9D120E57120D748005C333CE33CE96
:101D3D00D8F9120DCCFFD082D083EEF0A3EFF09046
:081D4D00633AE004F0021CE01F
:011D5500226B
:070EE500906310EFF0A3EB96
:100EEC00120DD3906313F0E4906312F0906312E050
:100EFC00FFC39407400302104B906311E070030290
:100F0C000FAE120D788005C333CE33CED8F9FF90D7
:100F1C006313E0FDEF5D7003020FAE906310E014FD
:100F2C00602A14605024026003021042120DA6C005
:100F3C0083C082120D9D24EEF582E43460120D7490
:100F4C008005C333CE33CED8F9020FA8120E5F241E
:100F5C00FBF582E43460120DB4C083C082120D9D87
:100F6C0024FCF582E43460120D748005C333CE3357
:100F7C00CED8F98027120E5F2409F582E434611271
:100F8C000DB4C083C082120D9D240AF582E4346135
:100F9C00120D748005C333CE33CED8F9120DCC02AA
:100FAC001038906310E014602D1460562402600316
:100FBC00021042120DA6C083C082120D9D24EEF5C4
:100FCC0082E43460120D748005C333CE33CED8F96D
:100FDC00120DC3021038120E5F24FBF582E434604C
:100FEC00120DB4C083C082120D9D24FCF582E43432
:100FFC0060120D748005C333CE33CED8F9120DC3F5
:10100C00802A120E5F2409F582E43461120DB4C0FB
:10101C0083C082120D9D240AF582E43461120D7492
:10102C008005C333CE33CED8F9120DC3FFD082D096
:0F103C0083EEF0A3EFF0906312E004F0020EF8E1
:01104B002282
:08221F00906324EEF0A3EFF040
:10222700E4A3F0AA06AB07906326E004F07C007DE8
:102237000AAF03AE021201E8AA06AB07EB4A70E742
:10224700E4FA906326E0FFEAC39FAF025019C00784
:10225700120E67D0077B01120EE5120E67906324FA
:10226700EEF0A3EFF08006E4FBFD120EE50AEAB4F8
:0222770003D092
:012279002242
:102B7600EF9062576008E04480F0A3E0F022E05452
:032B86007FF022BB
:102C3100EF9062586005E04401F022E054FEF0227A
:10204B0090622EEFF0ED6025120EAD120DB4C08331
:10205B00C082120D9D2418F582E43461120D748038
:10206B0005C333CE33CED8F9120DCC802690622E19
:10207B00120EAD120DB4C083C082120D9D2418F543
:10208B0082E43461120D748005C333CE33CED8F99C
:0E209B00120DC3FFD082D083EEF0A3EFF0222F
:022BAF00AB0772
:0E2BB100E4FAAF02AD0312204B0AEAB408F4B6
:012BBF0022F3
:102C4100EF9062606005E04410F022E054EFF02262
:102C5100EF90625E6005E04401F022E054FEF02254
:102C6100EF9062586005E04404F022E054FBF0224A
:102C7100EF9062586005E04408F022E054F7F0223A
:0815BF00906314EFF0A3EBF0C0
:1015C700E4906317120DD3906317F0E4906316F05D
:1015D700906316E0FFC394074003021689906315D2
:1015E700E06052120D788005C333CE33CED8F9FFB1
:1015F700906317E0FDEF5D603C120E28C083C08248
:10160700906316E0D082D083120E83120DB6C0838A
:10161700C082120E14C083C082906316E0D082D0BD
:1016270083120E83120D768005C333CE33CED8F9DD
:10163700120DCC803A120E28C083C082906316E048
:10164700D082D083120E83120DB6C083C082120ED1
:1016570014C083C082906316E0D082D083120E83B9
:10166700120D768005C333CE33CED8F9120DC3FFE2
:10167700D082D083EEF0A3EFF0906316E004F0027F
:0216870015D775
:01168900223E
:102B8900EF9062596008E04420F0A3E0F022E0549D
:032B9900DFF02248
:0621C2009062EE1203EC36
:1021C8009062F2E07003FF80027F01122B89E49095
:1021D80062F3F09062F3E0FFC394065039C007E45D
:1021E8007B0AFAF9F89062EE1203D4120331AF03B6
:1021F800AD07D0077B011215BF9062EE1203D4E43D
:102208007B0AFAF9F81203319062EE1203EC90623D
:06221800F3E004F080BDBC
:01221E00229D
:102B9C00EF90625D6008E04440F0A3E0F022E05466
:032BAC00BFF02255
:102C8100EF90625E6005E04480F022E0547FF02224
:102C9100EF9062586005E04410F022E054EFF0221A
:1020A90090633EEFF0ED6025120EB9120DB4C083B6
:1020B900C082120D9D247CF582E43461120D748076
:1020C90005C333CE33CED8F9120DCC802690633EAA
:1020D900120EB9120DB4C083C082120D9D247CF575
:1020E90082E43461120D748005C333CE33CED8F93E
:0E20F900120DC3FFD082D083EEF0A3EFF022D1
:022BC000AB0761
:0E2BC200E4FAAF02AD031220A90AEAB406F449
:012BD00022E2
:1021070090633FEFF0ED6025120EC5120DB4C0834A
:10211700C082120D9D2488F582E43461120D74800B
:1021270005C333CE33CED8F9120DCC802690633F4A
:10213700120EC5120DB4C083C082120D9D2488F5FE
:1021470082E43461120D748005C333CE33CED8F9DF
:0E215700120DC3FFD082D083EEF0A3EFF02272
:022A4700AB07DB
:102A4900E4FAEBC39AAF0240047D018002E4FD126F
:072A590021070AEAB409EBB2
:012A60002253
:10286300906000E475F00112023DC3906001E094B2
:10287300F4906000E094014013E4F0A3F0A3E0704F
:0C288300047F0180027F00906002EFF0F3
:01288F002226
:100B9F005362750A0000000003324100000000009C
:0E0BAF0002FF2D5C0000456288010102030474
:0F2CDD00EC75F005A42488F582E43462F58322B7
:0D2D220078C0E24420F278C3E254F3F222BC
:092D5C002085037F01227FFF2284
:10253000E4FEFCFBEDB401030B8016EDB403047B59
:1025400002800EEDB404047B038006EDB405027B2B
:1025500004ECC39401501B122CDDE0B50711122CC2
:10256000DDE5822BF582E43583F583E0FE80030C04
:0425700080DFAF0653
:012574002244
:10175100906286E070030217FCE0FFA3E0FD122512
:1017610030E4906286F0A3F0EF24FE60530460033E
:101771000217FC9062EDE070169062AAE070047F9F
:101781000180027F009062AAEFF0122A1080699016
:1017910062EDE0B401119062ABE0700404F0805896
:1017A100E49062ABF080519062EDE0B4021090627F
:1017B100ACE02405F0E0D394B4403D7432F08038BD
:1017C1009062EDE0701A9062AAE0B401077F011205
:1017D1002D7D80249062A61203F800000000801580
:1017E1009062EDE0B401057402F080099062EDE0D1
:0B17F100B40205E4F0122A10122CFADA
:0117FC0022CA
:082D6D00E49062EDF0022CFA83
:032D8800022ADB41
:062D7D009062EDEFF02270
:082D75009062EDE0FF0229323B
:0E2CFA00E49062E7F0A3F09062EBF0A3F0220A
:100BBD004162C3004162C4004162C5004162C6008A
:040BCD004162C700BA
:0B2D51009062C8E06004A3E004F022E0
:1019F9009062CEE06003021AA09062C6E004F0E0B3
:101A0900C39429405EE4F09062C3E0702CA3E09493
:101A1900085006E0FF7D0180099062C4E024F8FFC8
:101A2900E4FD12204B9062C4E004F0E0C39410403E
:101A3900329062C37401F0802A9062C4E0C39408B2
:101A49004008E024F8FF7D0180079062C4E0FFE4CC
:101A5900FD12204B9062C4E014F0E070069062CE53
:101A69007405F09062C7E004F0E0C394124028E4E2
:101A7900F09062C3E070209062C5E094125006E0D5
:101A8900FF7D0180099062C5E024EEFFE4FD122389
:071A9900C29062C5E004F0F9
:011AA0002223
:012D8B002225
:102833007E007F077D007B017A6279C81204C19014
:1028430062C87401F09062C8E0601475D9AAA3E06D
:10285300C3940140F0E4F01219F912293280E62200
:101ABB00022976E493A3F8E493A34003F68001F2A2
:101ACB0008DFF48029E493A3F85407240CC8C3332C
:101ADB00C4540F4420C8834004F456800146F6DFFB
:101AEB00E4800B0102040810204080900896E47EED
:101AFB00019360BCA3FF543F30E509541FFEE493F0
:101B0B00A360010ECF54C025E060A840B8E493A3B6
:101B1B00FAE493A3F8E493A3C8C582C8CAC583CAE1
:101B2B00F0A3C8C582C8CAC583CADFE9DEE780BE99
:010BD1000023
:10004500E709F608DFFA8046E709F208DFFA803E9D
:1000550088828C83E709F0A3DFFA8032E309F6088A
:10006500DFFA8078E309F208DFFA807088828C83F2
:10007500E309F0A3DFFA806489828A83E0A3F608A6
:10008500DFFA805889828A83E0A3F208DFFA804C80
:1000950080D280FA80C680D4806980F28033801057
:1000A50080A680EA809A80A880DA80E280CA8033C0
:1000B50089828A83ECFAE493A3C8C582C8CCC58338
:1000C500CCF0A3C8C582C8CCC583CCDFE9DEE78008
:1000D5000D89828A83E493A3F608DFF9ECFAA9F087
:1000E500EDFB2289828A83ECFAE0A3C8C582C8CCDD
:1000F500C583CCF0A3C8C582C8CCC583CCDFEADEF6
:10010500E880DB89828A83E493A3F208DFF980CC57
:1001150088F0EF60010E4E60C388F0ED2402B40450
:100125000050B9F582EB2402B4040050AF232345F7
:0601350082239000957387
:10013B00BB010689828A83E0225002E722BBFE02C2
:09014B00E32289828A83E49322F5
:10015400BB010CE58229F582E5833AF583E0225060
:1001640006E92582F8E622BBFE06E92582F8E222AA
:0D017400E58229F582E5833AF583E49322C4
:10018100BB010FF8E58229F582E5833AF583E02882
:10019100F0225009C58229F8E58226F622BBFE0924
:1001A100C58229F8E22582F222F8EA2583F583E95E
:0301B1009328226E
:1001B400BB010689828A83F0225002F722BBFE012A
:0201C400F32224
:1001C600F8BB010DE58229F582E5833AF583E8F06F
:1001D600225006E92582C8F622BBFE05E92582C81B
:0201E600F22203
:1001E800BC000BBE0029EF8DF084FFADF022E4CCFB
:1001F800F875F008EF2FFFEE33FEEC33FCEE9DECC4
:10020800984005FCEE9DFE0FD5F0E9E4CEFD22ED09
:10021800F8F5F0EE8420D21CFEADF075F008EF2F53
:10022800FFED33FD4007985006D5F0F222C398FD44
:050238000FD5F0EA22E1
:10023D00C5F0F8A3E028F0C5F0F8E582158270024C
:06024D001583E038F022E9
:10025300BB0110E58229F582E5833AF583E0F5F0E9
:10026300A3E0225009E92582F886F008E622BBFEC6
:100273000AE92582F8E2F5F008E222E5832AF5830C
:08028300E993F5F0A3E99322D1
:0D028B00EF2BFFEE3AFEED39FDEC38FC22C2
:0E029800C3EF9BFFEE9AFEED99FDEC98FC2261
:1002A600E88FF0A4CC8BF0A42CFCE98EF0A42CFCF7
:1002B6008AF0EDA42CFCEA8EF0A4CDA8F08BF0A475
:1002C6002DCC3825F0FDE98FF0A42CCD35F0FCEBD4
:1002D6008EF0A4FEA9F0EB8FF0A4CFC5F02ECD3999
:0F02E600FEE43CFCEAA42DCE35F0FDE43CFC2206
:1002F50075F008758200EF2FFFEE33FECD33CDCCC0
:1003050033CCC58233C5829BED9AEC99E582984042
:100315000CF582EE9BFEED9AFDEC99FC0FD5F0D61F
:10032500E4CEFBE4CDFAE4CCF9A88222B800C1B949
:100335000059BA002DEC8BF084CFCECDFCE5F0CB87
:10034500F97818EF2FFFEE33FEED33FDEC33FCEBC0
:1003550033FB10D703994004EB99FB0FD8E5E4F97B
:10036500FA227818EF2FFFEE33FEED33FDEC33FC68
:10037500C933C910D7059BE99A4007EC9BFCE99A5C
:10038500F90FD8E0E4C9FAE4CCFB2275F010EF2FA1
:10039500FFEE33FEED33FDCC33CCC833C810D707A1
:1003A5009BEC9AE899400AED9BFDEC9AFCE899F8DC
:0E03B5000FD5F0DAE4CDFBE4CCFAE4C8F9226F
:1003C300EB9FF5F0EA9E42F0E99D42F0E89C45F090
:0103D3002207
:0C03D400E0FCA3E0FDA3E0FEA3E0FF229C
:0C03E000E0F8A3E0F9A3E0FAA3E0FB22A0
:0C03EC00ECF0A3EDF0A3EEF0A3EFF02284
:1003F800A8828583F0D083D08212040F12040F12D2
:10040800040F12040FE473E493A3C583C5F0C583F6
:10041800C8C582C8F0A3C583C5F0C583C8C582C84E
:0104280022B1
:0C042900A42582F582E5F03583F58322DE
:09043500E0FBA3E0FAA3E0F922C8
:10043E00F8E0FBA3A3E0F925F0F0E5821582700247
:07044E001583E0FA38F022EB
:09045500EBF0A3EAF0A3E9F022A8
:10045E00BB010DE58229F582E5833AF58302043569
:10046E005007E92582F80204EDBBFE07E92582F864
:10047E000204F6E58229F582E5833AF5830204FF4C
:06048E008A838982E473F9
:10049400EC8EF0A4CCC5F0CCCDF8EFA4CEC5F02DF5
:1004A400FDE43CFCE8A42EC8C5F03DFDE43CFCEFB3
:0D04B400A4FFE5F028FEE43DFDE43CFC2241
:10053100E5082431F582E43462F583E00508229070
:10054100622E300703906231E475F00112043E021D
:10055100013B2000E97F2ED2008018EF540F249038
:10056100D43440D4FF30040BEF24BFB41A0050033D
:100571002461FFE50960021509050CE50C7002050F
:100581000B30070E90622EE475F00112043EEF026B
:1005910001B4022CEC7403D2078003E4C207F5080E
:1005A10090622E120455E4F509F50BF50CE509608E
:1005B100077F2012057480F5750AFFC201C200C2CF
:1005C10002C203C205C206C208120540FF700D3007
:1005D10007057F00120585AF0CAE0B22B4255FC263
:1005E100D5C204120540FF24D0B40A00501A75F098
:1005F1000A780930D50508B6FF0106C6A426F620FB
:10060100D5047002D20380D924CFB41A00EF50046C
:10061100C2E5D204020786D20180C6D20080C0D2D0
:100621000280BCD2D580BAD20580B47F2012057475
:100631002002077401B5090040F1120531FF1205CE
:10064100740205AED208D2068095120531FB12055F
:1006510031FA120531F94A4B700679577A087BFF56
:1006610020022EE509602A7E008E82758300120128
:100671005460060EEE650A70F0C2D5EBC0E0EAC028
:10068100E0E9C0E0EE1207CDD0E0F9D0E0FAD0E029
:10069100FB12013BFF60AAEBC0E0EAC0E0E9C0E069
:1006A100120574D0E02401F9D0E03400FAD0E0FB67
:1006B100E50A0460DCD50AD980877BFF7A0779C90E
:1006C100D202809C791080027908C206C208800893
:1006D100D2D5790A8004790AC2D5E50A047002F5F7
:1006E1000AE4FAFDFEFF120531FC7B08200113121A
:1006F1000531FD7B1030000A120531FE120531FF74
:100701007B20EC3382D592D55013C3E43000069F91
:10071100FFE49EFEE42001039DFDE49CFCE4CBF894
:10072100C201EC700CCFCECDCCE824F8F870F38088
:1007310017C3EF33FFEE33FEED33FDEC33FCEB3348
:10074100FB994002FB0FD8E9EB300105F8D0E0C47A
:1007510048B201C0E00AEC4D4E4F78207B0070C2D8
:10076100EAB50A0040BCC0E01207CFD0F0D0E020CB
:100771000104C4C0E0C4B201C0F012055DD0F0D5DF
:10078100F0EB0205AE12050B064B5306C558061CCD
:100791004C06184206C94F06D14406D149063143D9
:0807A10006D75506BB4606BB56
:1007A9004506BB4708775006202D06242E06472B01
:1007B90006282306452008602A05E0480000063F70
:1007C9003F3F3F00790AA2D5200314300509B9102B
:1007D900020404B9080104A2D5200602500104202C
:1007E90002689202B509005034C0E07F2030031935
:1007F9007F30A20272067205500F120826C202C289
:1008090006C205C2087F30800F300503E9C0E01237
:100819000574300503D0E0F9D0E0B509CC300517EF
:100829007F30B9100C1205747F583004077F788027
:1008390003B908031205743002057F2D0205747F80
:10084900202008F87F2B2006F322920280CF286E01
:10085900756C6C2900D2011205313001F8C201789A
:100869000930D50108F60205E02D50434958120513
:10087900312403B405004001E49008729312056520
:0D088900743A120565D2037509040206C514
:1004C100EF4E6012EF60010EEDBB010B89828A8352
:1004D100F0A3DFFCDEFA2289F05007F709DFFCA95F
:0C04E100F022BBFEFCF309DFFCA9F022B6
:0904ED00E6FB08E6FA08E6F92234
:0904F600E2FB08E2FA08E2F92237
:0C04FF00E493FB740193FA740293F92259
:10050B00D083D082F8E4937012740193700DA3A37F
:10051B0093F8740193F5828883E473740293686093
:06052B00EFA3A3A380DF93
:00000001FF
