:03000000021E508D
:101E5000787FE4F6D8FD9060007F007E07E4F0A371
:0A1E6000DFFCDEFA758121021EA5E9
:0C000300000000000000000000000000F1
:0B31A400EF1FAC0670011E4C70F622FD
:10002700AB07AA06EB1BAE0270011A4E600C7FAA43
:0B0037007E051231A475D9AA80EA22D0
:10193200907120E04480F07F057E001231A4E4FF24
:10194200FE12002775A75575AC5C9071327450F089
:101952009071307403F0907136742FF090715C7452
:1019620003F090715BE054FCF07F18EF2466FDE415
:1019720034718D82F583E4F00FEFB433EE904011B1
:10198200E4935407FF90711CE054F84FF090401715
:10199200E493547FFF90711DE054804FF09040100B
:1019A200E493FF5401C43333335480FE907123E037
:1019B200547F4EF0EFC313543F4440FFA3E05480E2
:1019C2004FF0904012E493FF540FFE907146E054A2
:1019D200F04EF0EFC4540FFF90714FE054F04FF00F
:1019E200904013E493543FFF907140E054C04FF095
:1019F200904014E493907126F0904015E493907116
:0B1A020028F0904016E49390712AF049
:011A0D0022B6
:102AB500E5B154CF42B153A8BFD2AF75D102789CCE
:102AC500E254E3F2E2441CF2E254FCF2E24401F285
:102AD50008E2547FF2E24420F278A17401F21874FE
:102AE50076F2789CE2541FF2E244C0F243A84022F9
:0300210002295859
:10295800C0E0C0F0C083C082C0D075D000C000C045
:1029680001C002C003C004C005C006C007789DE2CC
:1029780030E70DE24480F21231BA1231F1122CED37
:10298800D007D006D005D004D003D002D001D000A3
:0B299800D0D0D082D083D0F0D0E0324D
:102C8900E5B254FC42B253A9FED2AF75D10490719A
:102C9900057409F0907104745FF0907101E0547F3C
:102CA900F0E04420F0907100E0E4F0E044C1F0432A
:032CB900A901224C
:03002400022EECBD
:102EEC00C0E0C083C082907101E030E704E0448010
:082EFC00F0D082D083D0E03257
:0E315500906256EFF01231CE906256E0FF22EB
:102E850078C2E254FCF2E24401F290717EE044041F
:0B2E9500F075D60175D59F75D2102294
:0831CE00E5D430E4FB8FD722A9
:0405310041632800FA
:102D1A0078C2E2440CF278D3E24430F2786AE244B0
:102D2A0079F27591FF9071227407F0439E7043996E
:072D3A004043AA04D2AF22BE
:102E4D005399E0EF14700E907123E054D8F0E044E4
:0C2E5D0059F04399017869E24448F222E0
:0531EC00906328E022C1
:030042000223C0D6
:1023C000C0E0C0F0C083C082C0D075D000C000C0E3
:0D23D00001C002C003C004C005C006C00764
:1023DD00786BE230E122E24402F2AF93EF75F01038
:1023ED00A4FFAEF0E594C4540FFDEF4DFF906328AC
:0823FD00E024FE7003122E0F14
:10240500D007D006D005D004D003D002D001D0002B
:0B241500D0D0D082D083D0F0D0E032D5
:102DCD00906332F09063170204359000061201549F
:102DDD00FE9000080201549000091201C690000CEB
:012DED0022C3
:10103400E4906332F07FFFA374FFF090631712040F
:1010440055900001120154FE12013BFDEEC39D5068
:10105400030211C6122DD1900001E41201C69000C2
:101064000E12045E12048EEFF4600890631674236B
:10107400F08009906316E06003E014F0122DD19023
:1010840000031201546F6015900005120154600DA5
:10109400900004E41201C69000030211C2900005FE
:1010A400120154FE900004120154C39E500B122DE1
:1010B400D19000047401020181122DD1900002121A
:1010C40001546F6048EFF4701C122DD7C39E400A80
:1010D4007405122DCD9000028061122DD190000A6A
:1010E40074010211B9122DD19000087401122DE778
:1010F4001201546F906317600C1204357401122DA1
:10110400E4EF0211B9120435900009803DEFF47048
:1011140041122DD1900009120154D39400500302BE
:1011240011BC90000B120154FE90000A120154D31A
:101134009E40117401122DCD90000C120154906345
:1011440033F08054122DD190000A740112018102EF
:1011540011BC122DD1122DDEC394FF50089000084B
:101164007401120181122DD7B506089063327403FD
:10117400F08020122DD1900007122DDA6E70399074
:1011840063327404122DD0900006120154900008AA
:101194001201C6906333EFF0122DD1E4122DE474E2
:1011A400FF1201C6906333E09000111201C69063F0
:1011B40032E09000121201C6122DD1900002EF12FB
:0211C40001C662
:0111C6002206
:10000F0075AF3F8FAF75AEB975A402E5A530E1FBB3
:01001F0022BE
:102C1E0090630312045575AF3F8FAF906306E0C308
:102C2E0094014022E5A530E0FB906303E475F001CA
:102C3E0012043E12013BF5A675AEB975A401906360
:072C4E0006E014F080D5221E
:102C550090630812045590630BE06027AE070FEEF2
:102C65002400FDE4343F8D82F583E493FE906308F0
:102C7500E475F00112043EEE1201B490630BE0140A
:042C8500F080D322E6
:1005350042627300004C625700000000000000009A
:100545000000000050626300000000000000000091
:07055500000000000000009F
:102B71009FFFE49400FEEF25E0FFEE33FE120435E3
:102B81008F828E83120253FF2290623CE0FF90629B
:102B910036E0227B017A62796390623212045590A9
:0C2BA1006235227E007D007B010204C131
:102F3400C3906274E094FF906273E094FF5007E4DE
:072F440075F00112023D22AD
:061AD90090622E1204557C
:101ADF00C374089D90623CF0906235E0FFC37408B8
:101AEF009F90623DF0C291C292E4906236F0E49012
:101AFF006238F0A3F090623AF0A3F0122B8AC39FE2
:101B0F004012122B8A90622E122B71906238E5F0E0
:101B1F00F0A3EFF090623D122B8DC39F40159062A2
:101B2F003D122B8D906232122B7190623AE5F0F0DC
:101B3F00A3EFF0E4906237F0906238E030E703D320
:101B4F008001C3928390623AE030E703D38001C3F0
:101B5F009295D291906239E025E0F0906238E033AF
:101B6F00F090623BE025E0F090623AE033F0C291F2
:101B7F00906237E004F0E0B410BE906236E004F0FB
:101B8F00E064086003021AFDD292C292C283C2952A
:011B9F002223
:102D6600C3906274E09419906273E094004013E497
:102D7600F0A3F0122B947408F07A6279577D06124C
:032D86001AD92235
:101CFC007F0C7A627957122BA47F107A6279631267
:101D0C002BA478D2E254F3F2E24404F2907187E40B
:101D1C00F078C2E2543FF2E24440F2907181E4F078
:101D2C0078D3E254F3F2E24404F290718BE4F018AD
:101D3C00E254CFF2E24410F2907188E4F008E254DD
:101D4C00CFF2E24410F290718C740AF07856E4F2FF
:101D5C00782774BBF218747FF27833E4F218F278B7
:101D6C0019F218E24401F27811E24401F27817E218
:101D7C004401F27812E24401F27814E24401F2C216
:101D8C0083C295C291C292122B947406F07A627936
:0A1D9C0057FD121AD97F1E022CBC5D
:102CBC00C374649FFFE49400FE3395E0FDFCE47B59
:102CCC007F7ABBF9F81202A6E47B64FAF9F81203D6
:102CDC0031AC06EC7833F218EFF27817E24401F2DB
:012CEC0022C5
:0B31AF007379732072657365740A0069
:0100200022BD
:102D8900120020122E857BFF7A3179AF12091012B9
:102D99002279121CFC122AB5122C897F0A7E0002A4
:022DA900002701
:102DEE0012193275D95590715EE054FEF075D9BB4B
:102DFE00122D891231D675D9AA1226AF1231DE8064
:012E0E00F5CE
:1022790078E0E24408F278E2E2543FF278D0E244AE
:1022890001F278D2E254FCF278E0E24402F278E218
:10229900E254F3F278D0E24408F278D2E2543FF201
:1022A90078E0E24401F278E2E254FCF278F0E244A8
:1022B90002F278F2E254F3F278D0E24480F278D371
:1022C900E2543FF278E0E24404F278E2E254CFF2D9
:1022D90078F2E254FCF278E3E254FCF278D3E25467
:0322E900FCF222E2
:1026AF0020A307E49062D0F080452090089062D07C
:1026BF007401F0803A20A1089062D07402F0802F4C
:1026CF002093089062D07403F0802420A0089062B9
:1026DF00D07404F0801920B1089062D07405F08096
:1026EF000E9062D02097057406F0800374FFF0906F
:0726FF0062D0E0FF021BA006
:10055C00C10A4461F4000000004461F8000000008E
:10056C004461FC0000000044620000000000416295
:10057C00040060286205000000000000000000007C
:10058C00000000000000000000000000000000005F
:10059C0000000000000000000000000000004162AC
:0905AC002D00C1094261F20000BA
:102A73009062EEE0FF2405F582E43462F583229050
:102A830062E6FEFDFC0203E01203D4EF2401FFE43F
:102A93003EFEE43DFDE43CFC22E4FDFC1203E0C306
:102AA3000203C31203E002028B1203319062E602B7
:022AB30003EC32
:102FA700E4FE74052E122A7AEFF00EEEB428F3E44D
:042FB70090622DF007
:012FBB0022F3
:102F040090622DE0122A78EFF090622DE004F0E058
:082F1400C394284002E4F022FE
:101DA6009062EF1203F800000000E49062F3F0A3E3
:101DB60074FFF0E49062EEF09062EF1203E090623E
:101DC600EEE0122A78E0FFE4FCFDFE12028B906240
:101DD600EF1203EC122A73E0FE9062F3E0C39E500A
:101DE6000B74052F122A7AE09062F3F0122A73E040
:101DF600FE9062F4E0D39E400B74052F122A7AE01F
:101E06009062F4F09062EEE004F0E0642870A9902D
:101E160062EF1203D4C006C0079062F4E0FF90623E
:101E2600F3E02FFFE433AB07FA3395E0F9F8D00778
:101E3600D0061202989062EF1203ECE47B26FAF9C0
:0A1E4600F89062EF1203D40203319A
:0D31710078D3E254F3F278D0E24420F22249
:102BAD009061FC1203D49061F8122AA69061FC1278
:102BBD0003EC9061F81203F800000000906200121F
:102BCD0003D49061F4122AA69062001203EC906176
:092BDD00F41203F80000000022CC
:102420009061F2E475F00112023DC39061F3E09413
:10243000149061F2E09400402BE4F0A3F09061F876
:10244000122A8B9061F81203EC7F587E029061F89B
:10245000122A9C400F200A0C9061F81203F8000029
:102460000000D20A30951520090F9061F4122A8BD2
:0E2470009061F41203EC122BADD20922C209C6
:01247E00223B
:101471009062E61203F8000000009062EA1203F89D
:10148100000000007FF47E019061FC122A9C50064E
:10149100200A030215709062C6E0FFE4FCFDFE9095
:1014A10062001203E01202A6E47B107A27F9F81217
:1014B10002A6E47B7A7A06F9F81203319062EA1205
:1014C10003EC300A23E4FF906200122A85C3120361
:1014D100C39062E660091203F800000001802A123D
:1014E10003F8000000008021E47F24FEFDFC9062EF
:1014F100EA1203E01202A6E47B0AFAF9F8120331B8
:101501009061FC1203E0122AAC9062DE1203D490C7
:1015110062EA122AA69062DE1203EC9062001203C4
:10152100F8000000009061FC1203F800000000C206
:101531000AE4FF122A82D31203C34012E47F661227
:101541002A821202A6E47B64FAF9F8122AACE47F3B
:10155100C7122A82D31203C3400A9062E61203F82B
:0F156100000000C79062E61203D49062CCEFF056
:011570002258
:1005B5004262B800004262BA0000C10B4162A70066
:0805C5004162A8004162A90097
:102F4B009062B40203E0E475F00102023D90632944
:072F5B00E0FF9062A8E022F4
:0D317E0078C2E254CFF278C0E24404F2229D
:102AF5009062B01203D49062AA1203E012028B9086
:102B050062B01203EC9062AA1203F80000000012F2
:102B15002F4B9062AEE0FEA3E0FFE4FCFD12028BBA
:0E2B25009062B41203ECE49062AEF0A3F022D2
:10285E009062A7E004F0E0C394144020E4F090628C
:10286E00AE122F52C39062AFE094589062AEE094D5
:10287E00024009200C06E4F0A3F0D20C3082222094
:10288E000B1C9062AA1203D4EF2401FFE43EFEE477
:10289E003DFDE43CFC9062AA1203EC122AF5D20B29
:0328AE0022C20B38
:0128B1002204
:10200900E47FF47E01FDFC122F4BC31203C350037E
:10201900300C6A300C0EC20C90631A1203F80000DF
:102029000000801CE47FBC7EF7FDFC9062B01203C7
:10203900E01202A6122F4B12033190631A1203EC1D
:102049009062B01203F8000000009062B41203F825
:1020590000000000E47FFF7EFFFDFC90631A12037D
:10206900E0C31203C3400A90631A1203F80000FF89
:0D207900FF90631A1203D49062C81203ECAA
:012086002237
:102D4100C39062B9E094FF9062B8E094FF5003121F
:102D51002F51C39062BBE094FF9062BAE094FF50A0
:052D610003122F5122B6
:102EBA00E47BF47A01F9F89062C81203D412033160
:082ECA00EFD3941840027F18B9
:012ED20022DD
:101F7D00E4906329F09062A9E0700A04F0122EBA81
:101F8D009062A8EFF0122EBA906329EFF07008A3BB
:101F9D00F0A37432F0802F9062A8E0FF906329E0E7
:101FAD00FED39F4005EE9FFF8006122F58C39FFF63
:101FBD00EFD394017E0050047F6480027F329063E2
:101FCD002AEEF0A3EFF090632AE0FEA3E0FFC390AA
:101FDD0062B9E09F9062B8E09E4020E4F0A3F01259
:101FED002F58FE9F5004E004F022EED39F400CEEDC
:0B1FFD00D3940040069062A8E014F0AE
:0120080022B5
:0405CD004162DD00AA
:102F1C001203D4EF2401FFE43EFEE43DFDE43CFC4F
:082F2C00221203E0C30203C3FB
:102F62009062C4E06009A3E0600CE0B40108229022
:072F720062C5E06001E022EE
:101EEA00C39062E3E094889062E2E09413400F307A
:101EFA000D0C122E69C20DE49062E2F0A3F0E47FA9
:101F0A00E87E03FDFC9062DE122F2D40657F187E6D
:101F1A00C67D9A7C3B9062BC122F2D500C9062BCFD
:101F2A00122F1C9062BC1203EC7F9C7EE07DF57C34
:101F3A00059062C0122F2D500C9062C0122F1C9077
:101F4A0062C01203EC9062DE1203D4C3EF94E8FF7E
:101F5A00EE9403FEED9400FDEC9400FC9062DE1218
:021F6A0003EC86
:101F6C009062DDE004F0E0C394644004E4F0D20D30
:011F7C002242
:1005D10042619C000042619E0000602861A0000011
:1005E100000000000000000000000000000000000A
:1005F10000000000000000000000000000000000FA
:100601000000000000004161C800416199006028BC
:1006110061C90000000000000000000000000000AF
:1006210000000000000000000000000000000000C9
:10063100000000000000000000004161F100416184
:060641009A0041619B00DC
:1029A30025E024A0F582E43461F583EEF0A3EFF093
:1029B3002225E024C9F582E4346122F583E0FEA3F5
:1029C300E0FFE4FCFD02028B1228B2906334EFF0C7
:1029D30090619B22E47B14FAF9F80203D4906334E8
:0729E300E0FF90619BE02280
:0B319800E4FDED1229A30DEDB414F7C7
:0131A3002209
:102E0F00906199E0700504F00231989061C8E0126A
:102E1F0029A39061C8E004F0E0C394144002E4F0E9
:012E2F002280
:102B330090630D1203F800000000E490630CF09022
:102B4300630D1203E090630CE025E024A0F582E41A
:102B530034611229BE90630D1203EC90630CE00400
:0E2B6300F0E0B414DA90630D1229D7020331AA
:102F7900C390619DE094FF90619CE094FF5007E449
:072F890075F00112023D2268
:102F9000C390619FE094FF90619EE094FF5007E42E
:072FA00075F00112023D2251
:0E310A00E4FDED1229B41229AC0DEDB414F45D
:013118002294
:102ED3009061F1E01229B41229AC9061F1E004F0A1
:092EE300E0C394144002E4F02263
:102BE6009063121203F800000000E4906311F09065
:102BF60063121203E0906311E01229B41229BE9009
:102C060063121203EC906311E004F0E0B414E09058
:082C160063121229D7020331F9
:1028B200E4FDC3EF94AAEE940540028043C3EF9473
:1028C200DDEE940440047D018036C3EF9410EE9453
:1028D2000440047D028029C3EF9443EE9403400434
:1028E2007D03801CC3EF9476EE940240047D048045
:1028F2000FC3EF94A9EE940140047D0580027D068A
:02290200AF051F
:0129040022B0
:10185300E4906334F0A3F0C390619DE094C8906179
:101863009CE094005003021931E4F0A3F0122B33EF
:101873007C077DD0120494E4FB7A10F9F81203314B
:10188300AB07AA0690619AE0701C04F012310A12A9
:1018930029CBF0700A9062CFE0701204F0800EE45E
:1018A3009062CFF08007AE02AF03122ED3122BE665
:1018B3001229CBE0FE6F6018906334E0FFD39E40A3
:1018C30006EF9EA3F080091229E0C39F906335F0D1
:1018D300906335E0FFC39402400E90619FE09488CB
:1018E30090619EE094134046EFB4010FC390619F53
:1018F300E0942090619EE0944E4033E490619EF02A
:10190300A3F01229E0FEC39F5005E004F0800BEE24
:10191300D39F400690619BE014F090619BE07009B7
:0E1923009062CFE0700804F022E49062CFF0F2
:011931002293
:100647005562BC0000000000000000000000000030
:0806570000000000000000009B
:102A2F007B017A6279D190630B740CF0E4FF122C66
:102A3F00559062DCE0B4C51378BC7C627D017B01EC
:102A4F007A6279D17E007F0C0201159062C4740105
:102A5F00F09062C774C5F0E49062C5F0A37469F09A
:032A6F00122E69BB
:012A72002241
:102E69009062C774C5F0E4FF12000F7B017A6279A2
:0C2E7900BC906306740CF0E4FF022C1EF9
:10065F004A60033F065B4F666D7D077F6F603660B4
:10066F000D07050706070707080709070A070D07FC
:10067F000F06030604060506060607060B060A06FE
:10068F000906080409040A040B040C040D040004F1
:10069F0001040204030404602460430703070407F2
:1006AF000B070C070E060206010600060E060F06C4
:1006BF000D060C0408040E040F0405040604075865
:1006CF006067030A000D050105030504050605090A
:1006DF00050C050D050F030F030D4E607F05050576
:1006EF000A050E030B05000502050B50608D07026E
:1006FF000700000E0309030C030E030003014E60F5
:10070F009D010F010D010A0109010B010E010C4E94
:10071F0060AB0001000300060007000500020004A3
:10072F004E60B9030503060202020102000304032F
:10073F00074E60C701000102010401070105010115
:10074F0001034C60D5020C020D020E020F020502CE
:10075F00044C60E1020B020A0209020802070206BA
:10076F004E60ED000D000E000C00080508000A0099
:10077F000B4E60FB050505060509050A050C05046A
:10078F00050B4E610905020503050D050F050E0545
:10079F00010500506117040504060407040801074A
:1007AF0005070009000160546127000700060005D6
:1007BF00010F010C010B010E01080109010A020FC3
:1007CF00020D0100020E01050101020C020A0209CD
:1007DF000102020B0106010302080306040E040DB9
:1007EF0001040409040C040F03050304040A040B99
:1007FF0004030401030303020301040204004C6118
:10080F007B030F030D0308020602020200526187E9
:10081F00030C030B030A0309020702050204020378
:0B082F00020142600000004160020076
:100E5800E0FCA3E0FDEF25E02480F582E43460F5B2
:100E680083E0FF7E007401A807082290633CE0FF3E
:100E780025E0247FF582E43460F583E025E02463EF
:100E8800F582E43462F58322E0FCA3E0FDEF25E07F
:100E980022906320E0FF25E024EDF582E43460F53C
:100EA80083E025E02457F582E43462F58322F4FFD9
:100EB800EEF45CFEED5F22FFEC4EFEED4F22F07487
:100EC800032DF582E43460F583E022906348E0FF67
:100ED80025E024D5F582E4346022EEF0A3EFF0900B
:100EE800632EE0FF25E022E0FF25E0240DF582E4F3
:100EF800346022E0FF25E02443F582E4346022E0F8
:100F0800FF25E024E1F582E4346022E0FCA3E0FD63
:100F1800EF75F00EA42428F582E43461F58322905D
:100F2800633EE0FF25E0249DF582E434602290636F
:100F38003EE0FF25E024ABF582E434602290634074
:100F4800E0FF25E024B9F582E4346022906340E0B4
:100F5800FF25E024C7F582E4346022906322E0FF95
:100F680075F00EA42427F582E43461F58322240E5B
:100F7800F582E43460222444F582E4346022E044BB
:100F880001F0A3E0F02224D6F582E434602224E2C2
:100F9800F582E4346022906320E0FF25E02290632C
:100FA8002FE0FEA3E0FF7C007D0A0201E8EEF0A33B
:100FB800EFF0906348E004F0E02275F002020429A3
:100FC800FFE0C39FD3940022E0FF25E0248DF58243
:100FD800E4346022249EF582E434602224ACF58255
:100FE800E434602224BAF582E434602224C8F5820D
:100FF800E4346022E0FF25E02417F582E43461221E
:10100800E0FF25E0247BF582E4346122E0FF25E05F
:101018002487F582E434612225E02467F582E434EC
:0C1028006022E075F00A84ADF0E4FF22C5
:10270600906344EFF0ED6021120EEF120E81C0834C
:10271600C082120E90120F76120E678005C333CE5A
:1027260033CED8F9120EBF8022906344120EEF12F8
:102736000E81C083C082120E90120F76120E678031
:1027460005C333CE33CED8F9120EB6FFD082D0836E
:06275600EEF0A3EFF022FB
:05210500906336EFF0CD
:10210A00E4A3F0906337E0FFC3941B506A906336F0
:10211A00E09F5023A3E0120EF1120E81C083C08209
:10212A00120E90120F76120E678005C333CE33CE8D
:10213A00D8F9120EB6802D906337E0906336120FED
:10214A00C8402BA3E0120EF1120E81C083C0821286
:10215A000E90120F76120E678005C333CE33CED897
:10216A00F9120EBFFFD082D083EEF0A3EFF0906396
:07217A0037E004F002210D23
:01218100223B
:10275C00906345EFF0ED6021120EFB120E81C083E9
:10276C00C082120E90120F7E120E678005C333CEFC
:10277C0033CED8F9120EBF8022906345120EFB1295
:10278C000E81C083C082120E90120F7E120E6780D3
:10279C0005C333CE33CED8F9120EB6FFD082D08318
:0627AC00EEF0A3EFF022A5
:05218200906338EFF04E
:10218700E4A3F0906339E0FFC39412506A90633878
:10219700E09F5023A3E0120EFD120E81C083C08280
:1021A700120E90120F7E120E678005C333CE33CE08
:1021B700D8F9120EB6802D906339E0906338120F6C
:1021C700C8402BA3E0120EFD120E81C083C08212FD
:1021D7000E90120F7E120E678005C333CE33CED812
:1021E700F9120EBFFFD082D083EEF0A3EFF0906319
:0721F70039E004F002218A27
:0121FE0022BE
:102E3000EF90626E600BE04480F090626D120F863E
:0D2E400022E0547FF090626DE054FEF0221D
:0521FF0090633AEFF0CF
:10220400E4A3F090633BE0FFC3940C506790633AFF
:10221400E06026EF121020120E81C083C082120EDD
:10222400902468F582E43460120E678005C333CECF
:1022340033CED8F9120EBF802890633BE0FF121012
:1022440020120E81C083C082120E902468F582E4AD
:102254003460120E678005C333CE33CED8F9120E24
:10226400B6FFD082D083EEF0A3EFF090633BE0049E
:04227400F00222074B
:012278002243
:102DAB00EF120E78C083C082120E588005C333CE4B
:102DBB0033CED8F9120EBFFFD082D083EEF0A3EF43
:022DCB00F022F4
:1022EC0074032F120ECA90633DF0E490633CF0909F
:1022FC00633CE0FFC394075057120E6B8005C33349
:10230C00CE33CED8F9FF90633DE0FDEF5D6018123F
:10231C000E73C083C082120E588005C333CE33CEE9
:10232C00D8F9120EBF8016120E73C083C082120E23
:10233C00588005C333CE33CED8F9120EB6FFD082F7
:10234C00D083EEF0A3EFF090633CE004F00222FBAC
:01235C00225E
:051BA00090622EEFF041
:101BA500E4A3F090622F120E76C083C082120E5805
:101BB5008005C333CE33CED8F9120EB6FFD082D00E
:101BC50083EEF0A3EFF090622FE004F0E0B407D3CA
:101BD50090622EE070047F018002E4FF12303A909B
:101BE500622EE06003B4FF057F06022DAB90622EE6
:101BF500E02403120ECA906230F0E490622FF09058
:101C0500622FE0FFC394075041120E6B8005C3336A
:101C1500CE33CED8F9FF906230E0FDEF5D602390C2
:101C2500622F120E76C083C082120E588005C33310
:101C3500CE33CED8F9120EBFFFD082D083EEF0A3FB
:0A1C4500EFF090622FE004F080B58C
:011C4F002272
:10247F00906346EFF0ED6025120FD0120E81C083EE
:10248F00C082120E90248EF582E43460120E6780A3
:10249F0005C333CE33CED8F9120EBF8026906346D4
:1024AF00120FD0120E81C083C082120E90248EF5AF
:1024BF0082E43460120E678005C333CE33CED8F971
:0E24CF00120EB6FFD082D083EEF0A3EFF02203
:10302A00EF9062726005E04402F022E054FDF02263
:102FBC00EF9062636008E04480F0A3E0F022E054FC
:032FCC007FF02271
:10303A00EF9062646005E04401F022E054FEF02261
:0F311900EF9062696004120F8622E054FEF022EC
:10304A00EF90626A6005E04408F022E054F7F0224B
:10305A00EF90626A6005E04404F022E054FBF0223B
:10157100120EC790633FF0EF707A90633EF0906374
:101581003EE0FFC39407400302166D120E6B800507
:10159100C333CE33CED8F9FF90633FE0FDEF5D60FA
:1015A10021120F27120E81C083C082120E90120FDA
:1015B100DC120E678005C333CE33CED8F9120EBFCD
:1015C100801F120F27120E81C083C082120E90124B
:1015D1000FDC120E678005C333CE33CED8F9120E5D
:1015E100B6FFD082D083EEF0A3EFF090633EE0042B
:1015F100F002157FE490633EF090633EE0FFC394F8
:10160100075069120E6B8005C333CE33CED8F9FF74
:1016110090633FE0FDEF5D6021120F36120E81C035
:1016210083C082120E90120FE4120E678005C3333D
:10163100CE33CED8F9120EBF801F120F36120E8193
:10164100C083C082120E90120FE4120E678005C390
:1016510033CE33CED8F9120EB6FFD082D083EEF05E
:0C166100A3EFF090633EE004F00215FAE5
:01166D00225A
:10166E00120EC7906341F0EF707A906340F0906372
:10167E0040E0FFC39407400302176A120E6B800509
:10168E00C333CE33CED8F9FF906341E0FDEF5D60FA
:10169E0021120F45120E81C083C082120E90120FBE
:1016AE00EC120E678005C333CE33CED8F9120EBFBF
:1016BE00801F120F45120E81C083C082120E90122F
:1016CE000FEC120E678005C333CE33CED8F9120E4F
:1016DE00B6FFD082D083EEF0A3EFF0906340E0042B
:1016EE00F002167CE4906340F0906340E0FFC394F8
:1016FE00075069120E6B8005C333CE33CED8F9FF77
:10170E00906341E0FDEF5D6021120F54120E81C017
:10171E0083C082120E90120FF4120E678005C3332F
:10172E00CE33CED8F9120EBF801F120F54120E8177
:10173E00C083C082120E90120FF4120E678005C382
:10174E0033CE33CED8F9120EB6FFD082D083EEF060
:0C175E00A3EFF0906340E004F00216F7E7
:01176A00225C
:10306A00EF9062666005E04440F022E054BFF0222F
:08176B0090632CEFF0A3EDF0F8
:10177300E4A3F0120EE7120F2E120E81C083C08273
:10178300120E90120FDC120E678005C333CE33CED8
:10179300D8F9120EB6FFD082D083120EE2120F3D9B
:1017A300120E81C083C082120E90120FE4120E67D4
:1017B3008005C333CE33CED8F9120EB6FFD082D014
:1017C30083120EE2120F4C120E81C083C082120EDE
:1017D30090120FEC120E678005C333CE33CED8F9C7
:1017E300120EB6FFD082D083120EE2120F5B120EDE
:1017F30081C083C082120E90120FF4120E6780050F
:10180300C333CE33CED8F9120EB6FFD082D083EED7
:10181300F0A3EFF090632EE004F0E06407600302AE
:10182300177690632C12102A12157190632CE075B1
:10183300F00A84FD7F0112157190632D12102A1294
:10184300166E90632DE075F00A84FD7F0102166E1B
:0F312800EF9062636004120F8622E054FEF022E3
:0F313700EF9062656004120F8622E054FEF022D2
:10307A00EF9062686005E04408F022E054F7F0221D
:1027B200906347EFF0ED6021120ED6120E81C083B6
:1027C200C082120E90120F8E120E678005C333CE96
:1027D20033CED8F9120EBF8022906347120ED61262
:1027E2000E81C083C082120E90120F8E120E67806D
:1027F20005C333CE33CED8F9120EB6FFD082D083C2
:06280200EEF0A3EFF0224E
:10235D00EF6030E4906348F0120ED3120E81C0830B
:10236D00C082120E90120F8E120E678005C333CEEF
:10237D0033CED8F9120EBFFFD082D083120FB5B471
:10238D0006D622E4906348F0120ED3120E81C0835C
:10239D00C082120E90120F8E120E678005C333CEBF
:1023AD0033CED8F9120EB6FFD082D083120FB5B44A
:0223BD0006D642
:0123BF0022FB
:10280800906349EFF0ED6021120F07120E81C0832B
:10281800C082120E90120F96120E678005C333CE37
:1028280033CED8F9120EBF8022906349120F0712D7
:102838000E81C083C082120E90120F96120E67800E
:1028480005C333CE33CED8F9120EB6FFD082D0836B
:06285800EEF0A3EFF022F8
:05208700906342EFF040
:10208C00E4A3F0906343E0FFC39406506B9063426B
:10209C00E09F5023A3E0120F09120E81C083C0826F
:1020AC00120E90120F96120E678005C333CE33CEEC
:1020BC00D8F9120EB6802E906343E0FF9063421263
:1020CC000FC9402BA3E0120F09120E81C083C082EE
:1020DC00120E90120F96120E678005C333CE33CEBC
:1020EC00D8F9120EBFFFD082D083EEF0A3EFF090A0
:0820FC006343E004F002208FB1
:0121040022B8
:0711C70090631EEFF0A3EBA3
:1011CE00120EC6906321F0E4906320F0906320E04D
:1011DE00FFC39407400302132D90631FE0700302B8
:1011EE001290120E6B8005C333CE33CED8F9FF901A
:1011FE006321E0FDEF5D700302129090631EE01418
:10120E00602A14605024026003021324120E99C047
:10121E0083C082120E9024EEF582E43460120E67C3
:10122E008005C333CE33CED8F902128A120F9E2414
:10123E00FBF582E43460120EA7C083C082120E90BA
:10124E0024FCF582E43460120E678005C333CE337E
:10125E00CED8F98027120F9E2409F582E43461124C
:10126E000EA7C083C082120E90240AF582E4346168
:10127E00120E678005C333CE33CED8F9120EBF02DD
:10128E00131A90631EE014602D146056240260033E
:10129E00021324120E99C083C082120E9024EEF512
:1012AE0082E43460120E678005C333CE33CED8F994
:1012BE00120EB602131A120F9E24FBF582E434604E
:1012CE00120EA7C083C082120E9024FCF582E43465
:1012DE0060120E678005C333CE33CED8F9120EB628
:1012EE00802A120F9E2409F582E43461120EA7C0E3
:1012FE0083C082120E90240AF582E43461120E67C6
:10130E008005C333CE33CED8F9120EB6FFD082D0BD
:0F131E0083EEF0A3EFF0906320E004F00211DA09
:01132D00229D
:0826540090632FEEF0A3EFF0FC
:10265C00E4A3F0AA06AB07906331E004F07C007DA4
:10266C000AAF03AE021201E8AA06AB07EB4A70E709
:10267C00E4FA906331E0FFEAC39FAF025019C00740
:10268C00120FA6D0077B011211C7120FA690632F51
:10269C00EEF0A3EFF08006E4FBFD1211C70AEAB4DA
:0226AC0003D059
:0126AE002209
:102FCF00EF9062576008E04480F0A3E0F022E054F5
:032FDF007FF0225E
:10308A00EF9062586005E04401F022E054FEF0221D
:1024DD0090634AEFF0ED6025120FFC120EA7C0833A
:1024ED00C082120E902418F582E43461120E6780BA
:1024FD0005C333CE33CED8F9120EBF802690634A72
:10250D00120FFC120EA7C083C082120E902418F574
:10251D0082E43461120E678005C333CE33CED8F911
:0E252D00120EB6FFD082D083EEF0A3EFF022A4
:02300800AB0714
:0E300A00E4FAAF02AD031224DD0AEAB408F4C2
:013018002295
:10309A00EF9062606005E04410F022E054EFF02205
:1030AA00EF90625E6005E04401F022E054FEF022F7
:1030BA00EF9062586005E04404F022E054FBF022ED
:1030CA00EF9062586005E04408F022E054F7F022DD
:081A0E00906322EFF0A3EBF05E
:101A1600E4906325120EC6906325F0E4906324F0EB
:101A2600906324E0FFC394074003021AD89063230F
:101A3600E06052120E6B8005C333CE33CED8F9FF69
:101A4600906325E0FDEF5D603C120F63C083C082AA
:101A5600906324E0D082D083120FC2120EA9C083F5
:101A6600C082120F13C083C082906324E0D082D05C
:101A760083120FC2120E698005C333CE33CED8F956
:101A8600120EBF803A120F63C083C082906324E0B7
:101A9600D082D083120FC2120EA9C083C082120F49
:101AA60013C083C082906324E0D082D083120FC219
:101AB600120E698005C333CE33CED8F9120EB6FFA7
:101AC600D082D083EEF0A3EFF0906324E004F0021E
:021AD6001A26CE
:011AD80022EB
:102FE200EF9062596008E04420F0A3E0F022E05440
:032FF200DFF022EB
:0625F7009062FC1203ECEF
:1025FD00906300E07003FF80027F01122FE2E490F0
:10260D006301F0906301E0FFC394065039C007E405
:10261D007B0AFAF9F89062FC1203D4120331AF036E
:10262D00AD07D0077B01121A0E9062FC1203D4E4A1
:10263D007B0AFAF9F81203319062FC1203EC9063F5
:06264D0001E004F080BD75
:012653002264
:102FF500EF90625D6008E04440F0A3E0F022E05409
:03300500BFF022F7
:1030DA00EF90625E6005E04480F022E0547FF022C7
:1030EA00EF9062586005E04410F022E054EFF022BD
:10253B0090634BEFF0ED6025121008120EA7C083CD
:10254B00C082120E90247CF582E43461120E6780F7
:10255B0005C333CE33CED8F9120EBF802690634B12
:10256B00121008120EA7C083C082120E90247CF5A5
:10257B0082E43461120E678005C333CE33CED8F9B3
:0E258B00120EB6FFD082D083EEF0A3EFF02246
:02301900AB0703
:0E301B00E4FAAF02AD0312253B0AEAB406F454
:013029002284
:1025990090634CEFF0ED6025121014120EA7C08362
:1025A900C082120E902488F582E43461120E67808D
:1025B90005C333CE33CED8F9120EBF802690634CB3
:1025C900121014120EA7C083C082120E902488F52F
:1025D90082E43461120E678005C333CE33CED8F955
:0E25E900120EB6FFD082D083EEF0A3EFF022E8
:022EA000AB077E
:102EA200E4FAEBC39AAF0240047D018002E4FD1212
:072EB20025990AEAB409EBBF
:012EB90022F6
:102CED00906000E475F00112023DC3906001E09424
:102CFD00F4906000E094014013E4F0A3F0A3E070C1
:0C2D0D00047F0180027F00906002EFF064
:012D19002297
:10083A0053628F0A000000000332410000000000EA
:0E084A0002FF31C500004562A2010102030455
:0F314600EC75F005A424A2F582E43462F583222F
:0D318B0078C0E24420F278C3E254F3F2224F
:0931C5002085037F01227FFF2217
:1029EA00E4FEFCFBEDB401030B8016EDB403047B9B
:1029FA0002800EEDB404047B038006EDB405027B6D
:102A0A0004ECC39401501B123146E0B50711123190
:102A1A0046E5822BF582E43583F583E0FE80030CDC
:042A2A0080DFAF0694
:012A2E002285
:101C50009062A0E07003021CFBE0FFA3E0FD1229EC
:101C6000EAE49062A0F0A3F0EF24FE605304600366
:101C7000021CFB9062FBE070169062C4E070047F6F
:101C80000180027F009062C4EFF0122E698069909B
:101C900062FBE0B401119062C5E0700404F080586A
:101CA000E49062C5F080519062FBE0B40210906253
:101CB000C6E02405F0E0D394B4403D7432F080389F
:101CC0009062FBE0701A9062C4E0B401077F0112D9
:101CD00031E680249062C01203F8000000008015F5
:101CE0009062FBE0B401057402F080099062FBE0B1
:0B1CF000B40205E4F0122E691231630B
:011CFB0022C6
:0831D600E49062FBF00231639A
:0331F100022F3476
:0631E6009062FBEFF022F5
:0831DE009062FBE0FF022D6688
:0E316300E49062F5F0A3F09062F9F0A3F02280
:10085800416275004162760041627700416278002A
:100868004162790041627A0041627B0041627C000A
:1008780041627D0041627E0041627F0041628000EA
:1008880041628100416282004162830041628400CA
:0C089800416285004162860041628700D9
:1030FA0090627CE0FD7B0122E004F0E0C394FF22B1
:0B31BA00906288E06004A3E004F022B3
:10132E0090628EE06003021470906277E0B4101346
:10133E00E4FD7F071224DD906279123102407BE4D6
:10134E00F08071906275E0B4010D906277E07007E5
:10135E00FDFF1224DD8063906279E004F0E0C39417
:10136E00294057E4F0906275E0702E906277E09419
:10137E00085006E0FF7D018009906277E024F8FFB7
:10138E00E4FD1224DD906277E004F0E0C394104097
:10139E00299062757401F08021906277E0C3940801
:1013AE004008E024F8FF7D018007906277E0FFE4BB
:1013BE00FD1224DD906277E014F0906278E0B424A0
:1013CE001BE4FD7F1112275C90627A1231025003EA
:1013DE00021470E4F0906278740AF022906276E063
:1013EE00B40110906278E0700AFDFF1227B290628D
:1013FE008E804090627AE004F0906276E0703890D1
:10140E00627AE0C39412402FE4F0906278E0941276
:10141E005006E0FF7D018009906278E024EEFFE443
:10142E00FD12275C906278E004F0E0C39424403211
:10143E009062767401F02290627AE0C39442402268
:10144E00E4F0906278E094064008E024FBFF7D0112
:10145E008007906278E0FFE4FD1227B2906278E098
:02146E0014F078
:011470002259
:100C0A0090628EE064016003020E5790627BE0708E
:100C1A007704F09062827407F09062867411F07F14
:100C2A0001122FCF7F0112308A7F0112309A7F0181
:100C3A001230AA7F011230BA7F011230CA7F011224
:100C4A002FF57F011230DA7F011230EA7F0112306C
:100C5A002A7F01122FBC7F0112303A7F011231190B
:100C6A007F0112304A7F0112305A7F0112306A7FA7
:100C7A00011231287F011231377F0112307A7F0148
:100C8A00122E307F011221FF90627DE004F0E0C352
:100C9A0094965003020D93E4F01230FAE4FF121115
:100CAA00C71230FA7F011211C71230FA7F021211ED
:100CBA00C71230FAE4FF121A0E1230FA7F01121A22
:100CCA000E1230FA7F02121A0E1230FA7F03121A2B
:100CDA000E1230FA7F04121A0E1230FA7F05121A17
:100CEA000E906281E0FF7D0112259990627CE0FFFF
:100CFA001222EC90627CE0FDE4FF12157190627C96
:100D0A00E0FD7F0112157190627CE0FDE4FF12168E
:100D1A006E90627CE0FD7F0112166E906282E0FFA7
:100D2A007D0112247F906282E0FF7D011224DD9012
:100D3A006283E0FF7D011227B2906283E0FF7D01AA
:100D4A0012253B906284E0FF7D0112280890627CA4
:100D5A00E0C394095003E004F0906281E0C3940870
:100D6A005003E004F0906282E0D394004003E01460
:100D7A00F0906283E0C394055003E004F09062842B
:100D8A00E0C394055003E004F090627EE004F09022
:100D9A006287E07024906285E0B41A1D7D017F1A93
:100DAA0012270690627EE0C394FF405E90628774C9
:100DBA0001F0E490627EF08051906287E0702390A7
:100DCA00627EE0C39425401AE4F0906285E0FF7DDC
:100DDA0001122706906285E0C3941A502DE004F0B0
:100DEA008028906287E0B4012190627EE0C3940C6F
:100DFA004018E4F0906285E0FFE4FD122706906255
:100E0A0085E0D394004003E014F090627FE004F0A0
:100E1A00E0C394374018E4F0906286E0FF7D011247
:100E2A00275C906286E0D394004003E014F090625D
:100E3A0087E0B40118906285E07012A3E0700E900A
:0D0E4A006280123102400690628E7405F045
:010E57002278
:102905007E007F077D007B017A6279881204C19081
:1029150062887401F0906288E0603775D9AAA3E0F7
:10292500C3940140F0E4F012132E120C0A90628E4B
:10293500E0B40519E4FF122FCFE4FF12308AE4FF5B
:1029450012309AE4FF1230AAE4906288F0122D66E4
:0329550080C3221A
:101E6A00022DEEE493A3F8E493A34003F68001F273
:101E7A0008DFF48029E493A3F85407240CC8C33379
:101E8A00C4540F4420C8834004F456800146F6DF48
:101E9A00E4800B0102040810204080900531E47EA2
:101EAA00019360BCA3FF543F30E509541FFEE4933D
:101EBA00A360010ECF54C025E060A840B8E493A304
:101ECA00FAE493A3F8E493A3C8C582C8CAC583CA2F
:101EDA00F0A3C8C582C8CAC583CADFE9DEE780BEE7
:0108A4000053
:10004500E709F608DFFA8046E709F208DFFA803E9D
:1000550088828C83E709F0A3DFFA8032E309F6088A
:10006500DFFA8078E309F208DFFA807088828C83F2
:10007500E309F0A3DFFA806489828A83E0A3F608A6
:10008500DFFA805889828A83E0A3F208DFFA804C80
:1000950080D280FA80C680D4806980F28033801057
:1000A50080A680EA809A80A880DA80E280CA8033C0
:1000B50089828A83ECFAE493A3C8C582C8CCC58338
:1000C500CCF0A3C8C582C8CCC583CCDFE9DEE78008
:1000D5000D89828A83E493A3F608DFF9ECFAA9F087
:1000E500EDFB2289828A83ECFAE0A3C8C582C8CCDD
:1000F500C583CCF0A3C8C582C8CCC583CCDFEADEF6
:10010500E880DB89828A83E493A3F208DFF980CC57
:1001150088F0EF60010E4E60C388F0ED2402B40450
:100125000050B9F582EB2402B4040050AF232345F7
:0601350082239000957387
:10013B00BB010689828A83E0225002E722BBFE02C2
:09014B00E32289828A83E49322F5
:10015400BB010CE58229F582E5833AF583E0225060
:1001640006E92582F8E622BBFE06E92582F8E222AA
:0D017400E58229F582E5833AF583E49322C4
:10018100BB010FF8E58229F582E5833AF583E02882
:10019100F0225009C58229F8E58226F622BBFE0924
:1001A100C58229F8E22582F222F8EA2583F583E95E
:0301B1009328226E
:1001B400BB010689828A83F0225002F722BBFE012A
:0201C400F32224
:1001C600F8BB010DE58229F582E5833AF583E8F06F
:1001D600225006E92582C8F622BBFE05E92582C81B
:0201E600F22203
:1001E800BC000BBE0029EF8DF084FFADF022E4CCFB
:1001F800F875F008EF2FFFEE33FEEC33FCEE9DECC4
:10020800984005FCEE9DFE0FD5F0E9E4CEFD22ED09
:10021800F8F5F0EE8420D21CFEADF075F008EF2F53
:10022800FFED33FD4007985006D5F0F222C398FD44
:050238000FD5F0EA22E1
:10023D00C5F0F8A3E028F0C5F0F8E582158270024C
:06024D001583E038F022E9
:10025300BB0110E58229F582E5833AF583E0F5F0E9
:10026300A3E0225009E92582F886F008E622BBFEC6
:100273000AE92582F8E2F5F008E222E5832AF5830C
:08028300E993F5F0A3E99322D1
:0D028B00EF2BFFEE3AFEED39FDEC38FC22C2
:0E029800C3EF9BFFEE9AFEED99FDEC98FC2261
:1002A600E88FF0A4CC8BF0A42CFCE98EF0A42CFCF7
:1002B6008AF0EDA42CFCEA8EF0A4CDA8F08BF0A475
:1002C6002DCC3825F0FDE98FF0A42CCD35F0FCEBD4
:1002D6008EF0A4FEA9F0EB8FF0A4CFC5F02ECD3999
:0F02E600FEE43CFCEAA42DCE35F0FDE43CFC2206
:1002F50075F008758200EF2FFFEE33FECD33CDCCC0
:1003050033CCC58233C5829BED9AEC99E582984042
:100315000CF582EE9BFEED9AFDEC99FC0FD5F0D61F
:10032500E4CEFBE4CDFAE4CCF9A88222B800C1B949
:100335000059BA002DEC8BF084CFCECDFCE5F0CB87
:10034500F97818EF2FFFEE33FEED33FDEC33FCEBC0
:1003550033FB10D703994004EB99FB0FD8E5E4F97B
:10036500FA227818EF2FFFEE33FEED33FDEC33FC68
:10037500C933C910D7059BE99A4007EC9BFCE99A5C
:10038500F90FD8E0E4C9FAE4CCFB2275F010EF2FA1
:10039500FFEE33FEED33FDCC33CCC833C810D707A1
:1003A5009BEC9AE899400AED9BFDEC9AFCE899F8DC
:0E03B5000FD5F0DAE4CDFBE4CCFAE4C8F9226F
:1003C300EB9FF5F0EA9E42F0E99D42F0E89C45F090
:0103D3002207
:0C03D400E0FCA3E0FDA3E0FEA3E0FF229C
:0C03E000E0F8A3E0F9A3E0FAA3E0FB22A0
:0C03EC00ECF0A3EDF0A3EEF0A3EFF02284
:1003F800A8828583F0D083D08212040F12040F12D2
:10040800040F12040FE473E493A3C583C5F0C583F6
:10041800C8C582C8F0A3C583C5F0C583C8C582C84E
:0104280022B1
:0C042900A42582F582E5F03583F58322DE
:09043500E0FBA3E0FAA3E0F922C8
:10043E00F8E0FBA3A3E0F925F0F0E5821582700247
:07044E001583E0FA38F022EB
:09045500EBF0A3EAF0A3E9F022A8
:10045E00BB010DE58229F582E5833AF58302043569
:10046E005007E92582F80204EDBBFE07E92582F864
:10047E000204F6E58229F582E5833AF5830204FF4C
:06048E008A838982E473F9
:10049400EC8EF0A4CCC5F0CCCDF8EFA4CEC5F02DF5
:1004A400FDE43CFCE8A42EC8C5F03DFDE43CFCEFB3
:0D04B400A4FFE5F028FEE43DFDE43CFC2241
:1008A500E5082431F582E43462F583E005082290F9
:1008B500622E300703906231E475F00112043E02A6
:1008C500013B2000E97F2ED2008018EF540F2490C1
:1008D500D43440D4FF30040BEF24BFB41A005003C6
:1008E5002461FFE50960021509050CE50C70020598
:1008F5000B30070E90622EE475F00112043EEF02F4
:1009050001B40231557403D2078003E4C207F50828
:1009150090622E120455E4F509F50BF50CE5096016
:10092500077F201208E880F5750AFFC201C200C2E0
:1009350002C203C205C206C2081208B4FF700D3018
:1009450007057F001208F9AF0CAE0B22B4255FC274
:10095500D5C2041208B4FF24D0B40A00501A75F0A9
:100965000A780930D50508B6FF0106C6A426F62083
:10097500D5047002D20380D924CFB41A00EF5004F5
:10098500C2E5D204020AFAD20180C6D20080C0D2E2
:100995000280BCD2D580BAD20580B47F201208E887
:1009A5002002077401B5090040F11208A5FF1208DD
:1009B500E8020922D208D20680951208A5FB120882
:1009C500A5FA1208A5F94A4B700679CB7A0B7BFF7D
:1009D50020022EE509602A7E008E827583001201B1
:1009E5005460060EEE650A70F0C2D5EBC0E0EAC0B1
:1009F500E0E9C0E0EE120B41D0E0F9D0E0FAD0E03A
:100A0500FB12013BFF60AAEBC0E0EAC0E0E9C0E0F1
:100A15001208E8D0E02401F9D0E03400FAD0E0FB78
:100A2500E50A0460DCD50AD980877BFF7A0B793D1E
:100A3500D202809C791080027908C206C20880081B
:100A4500D2D5790A8004790AC2D5E50A047002F57F
:100A55000AE4FAFDFEFF1208A5FC7B08200113122B
:100A650008A5FD7B1030000A1208A5FE1208A5FF97
:100A75007B20EC3382D592D55013C3E43000069F1A
:100A8500FFE49EFEE42001039DFDE49CFCE4CBF81D
:100A9500C201EC700CCFCECDCCE824F8F870F38011
:100AA50017C3EF33FFEE33FEED33FDEC33FCEB33D1
:100AB500FB994002FB0FD8E9EB300105F8D0E0C403
:100AC50048B201C0E00AEC4D4E4F78207B0070C261
:100AD500EAB50A0040BCC0E0120B43D0F0D0E020DC
:100AE5000104C4C0E0C4B201C0F01208D1D0F0D5F1
:100AF500F0EB02092212050B09BF530A3958099078
:100B05004C098C420A3D4F0A45440A454909A5430B
:080B15000A4B550A2F460A2F76
:100B1D00450A2F470BEB5009942D09982E09BB2B35
:100B2D00099C2309B9200BD42A095448000009B3A4
:100B3D003F3F3F00790AA2D5200314300509B910B3
:100B4D00020404B9080104A2D520060250010420B4
:100B5D0002689202B509005034C0E07F20300319BD
:100B6D007F30A20272067205500F120B9AC202C29A
:100B7D0006C205C2087F30800F300503E9C0E012C0
:100B8D0008E8300503D0E0F9D0E0B509CC30051701
:100B9D007F30B9100C1208E87F583004077F788039
:100BAD0003B908031208E83002057F2D0208E87F1B
:100BBD00202008F87F2B2006F322920280CF286E8A
:100BCD00756C6C2900D2011208A53001F8C20178AC
:100BDD000930D50108F60209542D50434958120821
:100BED00A52403B405004001E4900BE6931208D947
:0D0BFD00743A1208D9D203750904020A39AE
:1004C100EF4E6012EF60010EEDBB010B89828A8352
:1004D100F0A3DFFCDEFA2289F05007F709DFFCA95F
:0C04E100F022BBFEFCF309DFFCA9F022B6
:0904ED00E6FB08E6FA08E6F92234
:0904F600E2FB08E2FA08E2F92237
:0C04FF00E493FB740193FA740293F92259
:10050B00D083D082F8E4937012740193700DA3A37F
:10051B0093F8740193F5828883E473740293686093
:06052B00EFA3A3A380DF93
:00000001FF
