:03000000021EFDE0
:101EFD00787FE4F6D8FD9060007F007E07E4F0A3C4
:0A1F0D00DFFCDEFA758121021F528D
:0C000300000000000000000000000000F1
:0B36DD00EF1FAC0670011E4C70F622BF
:10002700AB07AA06EB1BAE0270011A4E600C7FAA43
:0B0037007E051236DD75D9AA80EA2292
:10194100907120E04480F07F057E001236DDE4FFD7
:10195100FE12002775A75575AC5C9071327450F07A
:101961009071307403F0907136742FF090715C7443
:1019710003F090715BE054FCF07F18EF2466FDE406
:1019810034718D82F583E4F00FEFB433EE904011A2
:10199100E4935407FF90711CE054F84FF090401706
:1019A100E493547FFF90711DE054804FF0904010FC
:1019B100E493FF5401C43333335480FE907123E028
:1019C100547F4EF0EFC313543F4440FFA3E05480D3
:1019D1004FF0904012E493FF540FFE907146E05493
:1019E100F04EF0EFC4540FFF90714FE054F04FF000
:1019F100904013E493543FFF907140E054C04FF086
:101A0100904014E493907126F0904015E493907106
:0B1A110028F0904016E49390712AF03A
:011A1C0022A7
:102EBD00E5B154CF42B153A8BFD2AF75D102789CC2
:102ECD00E254E3F2E2441CF2E254FCF2E24401F279
:102EDD0008E2547FF2E24420F278A17401F21874F2
:102EED0076F2789CE2541FF2E244C0F243A84022ED
:03002100022AB9F7
:102AB900C0E0C0F0C083C082C0D075D000C000C0E3
:102AC90001C002C003C004C005C006C007789DE26A
:102AD90030E71CE24480F2123457906290E0C394CC
:102AE900FF5003E004F01236F31237321231F7D0F7
:102AF90007D006D005D004D003D002D001D000D031
:0A2B0900D0D082D083D0F0D0E032AB
:10310700E5B254FC42B253A9FED2AF75D104907117
:10311700057409F0907104745FF0907101E0547FB9
:10312700F0E04420F0907100E0E4F0E044C1F043A7
:03313700A90122C9
:030024000233F8AC
:1033F800C0E0C083C082907101E030E704E04480FF
:08340800F0D082D083D0E03245
:0E368E00906256EFF0123707906256E0FF226E
:1033770078C2E254FCF2E24401F290717EE0440428
:0B338700F075D60175D59F75D210229D
:08370700E5D430E4FB8FD7226A
:0405310041633800EA
:10324C0078C3E24430F2E2440CF2786AE24479F258
:10325C007591FF9071227407F0439E70439940431F
:05326C00AA04D2AF220C
:10319B005399E0907123E05498F0EF24FE600F04F4
:1031AB007016907123E04459F0439906800A907190
:0F31BB0023E0445AF04399057869E24448F22230
:10306500906338E014601714602124FE6004240482
:1030750070247F0112319B9063387401F0227869C6
:10308500E24401F29063387402F0227F0212319B10
:073095009063387404F0227F
:0300420002276A28
:10276A00C0E0C0F0C083C082C0D075D000C000C035
:0D277A0001C002C003C004C005C006C007B6
:10278700786BE230E122E24402F2AF93EF75F0108A
:10279700A4FFAEF0E594C4540FFDEF4DFF906338EE
:0827A700E024FE70031232FC75
:1027AF00D007D006D005D004D003D002D001D0007E
:0B27BF00D0D0D082D083D0F0D0E03228
:1032DB0090622EF090632702043590000612015481
:1032EB00FE9000080201549000091201C690000CD8
:0132FB0022B0
:10104300E490622EF07FFFA374FFF09063271204F5
:1010530055900001120154FE12013BFDEEC39D5059
:10106300030211D51232DF900001E41201C6900091
:101073000E12045E12048EEFF4600890632674234C
:10108300F08009906326E06003E014F01232DF90F1
:1010930000031201546F6015900005120154600D96
:1010A300900004E41201C69000030211D1900005E0
:1010B300120154FE900004120154C39E500B1232CD
:1010C300DF90000474010201811232DF90000212EA
:1010D30001546F6048EFF4701C1232E5C39E400A5E
:1010E30074051232DB90000280611232DF90000A35
:1010F30074010211C81232DF90000874011232F534
:101103001201546F906327600C120435740112327C
:10111300F2EF0211C8120435900009803DEFF4701C
:10112300411232DF900009120154D394005003029C
:1011330011CB90000B120154FE90000A120154D3FC
:101143009E401174011232DB90000C120154906224
:101153002FF080541232DF90000A740112018102D1
:1011630011CB1232DF1232ECC394FF500890000807
:1011730074011201811232E5B5060890622E7403E0
:10118300F080201232DF9000071232E86E7039903F
:10119300622E74041232DE9000061201549000088D
:1011A3001201C690622FEFF01232DFE41232F274B2
:1011B300FF1201C690622FE09000111201C69062E7
:1011C3002EE09000121201C61232DF900002EF12DD
:0211D30001C653
:0111D50022F7
:10000F0075AF3F8FAF75AEB975A402E5A530E1FBB3
:01001F0022BE
:10309C0090631312045575AF3F8FAF906316E0C366
:1030AC0094014022E5A530E0FB906313E475F00138
:1030BC0012043E12013BF5A675AEB975A4019063DE
:0730CC0016E014F080D5228C
:1030D30090631812045590631BE06027AE070FEE50
:1030E3002400FDE4343F8D82F583E493FE9063185E
:1030F300E475F00112043EEE1201B490631BE01478
:04310300F080D32263
:1005350042627300004C625700000000000000009A
:100545000000000050626300000000000000000091
:07055500000000000000009F
:102FB8009FFFE49400FEEF25E0FFEE33FE12043598
:102FC8008F828E83120253FF2290623CE0FF906250
:102FD80036E0227B017A627963906232120455905E
:0C2FE8006235227E007D007B010204C1E6
:10344000C3906274E094FF906273E094FF5007E4CD
:0734500075F00112023D229C
:061AE80090622E1204556D
:101AEE00C374089D90623CF0906235E0FFC37408A9
:101AFE009F90623DF0C291C292E4906236F0E49003
:101B0E006238F0A3F090623AF0A3F0122FD1C39F87
:101B1E004012122FD190622E122FB8906238E5F03B
:101B2E00F0A3EFF090623D122FD4C39F4015906248
:101B3E003D122FD4906232122FB890623AE5F0F037
:101B4E00A3EFF0E4906237F0906238E030E703D311
:101B5E008001C3928390623AE030E703D38001C3E1
:101B6E009295D291906239E025E0F0906238E033A0
:101B7E00F090623BE025E0F090623AE033F0C291E3
:101B8E00906237E004F0E0B410BE906236E004F0EC
:101B9E00E064086003021B0CD292C292C283C2950B
:011BAE002214
:10329600C3906274E09419906273E094004013E462
:1032A600F0A3F0122FDB7408F07A6279577D0612CC
:0332B6001AE822F1
:101D0E007F0C7A627957122FEB7F107A6279631209
:101D1E002FEB78D2E254F3F2E24404F2907187E4AE
:101D2E00F078C2E2543FF2E24440F2907181E4F066
:101D3E0078D3E254F3F2E24404F290718BE4F0189B
:101D4E00E254CFF2E24410F2907188E4F008E254CB
:101D5E00CFF2E24410F290718C740AF07856E4F2ED
:101D6E00782774BBF218747FF27833E4F218F278A5
:101D7E0019F218E24401F27811E24401F27817E206
:101D8E004401F27812E24401F27814E24401F2C204
:101D9E0083C295C291C292122FDB7406F07A6279D9
:0A1DAE0057FD121AE87F1E02313AB9
:10313A00C374649FFFE49400FE3395E0FDFCE47BD6
:10314A007F7ABBF9F81202A6E47B64FAF9F8120353
:10315A0031AC06EC7833F218EFF27817E24401F258
:01316A002242
:101E62006169703133303220697320776F726B6928
:101E72006E670A0031333032206973206E6F74202E
:101E8200666972737420706F776572206F6E0A00D4
:101E92006169703133303220697320736C6565700B
:101EA2000A003133303220697320666972737420FC
:101EB200706F776572206F6E0A00796561722025F6
:101EC2006275200A006D6F6E746820256275200AA3
:101ED2000064617920256275200A00686F7572209E
:101EE200256275200A006D696E20256275200A0040
:0B1EF2007365632025627520000A0064
:0F055C004762DD000000000000004262E4000082
:10316B00A3F0123726C282C284D2817F047E002252
:10317B00E254CFF2E24410F2907180E4F0229062BC
:10318B0034E004F0E0C3940822FFE0FEA807082215
:0637260078C212317B2283
:0D36AA0078C0E24404F278C2E254CFF2226C
:1024CD00E4FF78C2E254F3F2E24404F290717FE447
:1024DD00F008E254FCF2E24401F2907182E4F0184B
:1024ED0012317BC281C2841227CAEF7BFF60107A42
:1024FD001E796212091F7BFF7A1E797602091F7AF7
:10250D001E799212091F7BFF7A1E79A412091F7D75
:10251D000A7F8C121C5F7D017F88121C5F7D017FFD
:10252D0086121C5FE4FD7F82121C5FE4FD7F841226
:09253D001C5FE4FD7F80121C5FAD
:012546002272
:10339200E4FDEE25E0FEEF30E004EE4401FEEFC373
:0933A20013FF0DEDB408EBAF06BA
:0133AB0022FF
:02263200AC07F3
:10263400E490622FF0AF05123392EC64816019ECE0
:1026440064836014EC6485600FEC6487600AEC6456
:08265400896005EC648D704300
:10265C00E4906230F0A3F0EC64816004ECB4830687
:10266C00EF547FFF8017EC64856004ECB48706EFB1
:10267C00543FFF8008ECB48904EF541FFFEFC4549F
:10268C000FFE906230F0EF540FFFA3F0EE75F00ADE
:03269C00A42FFF69
:01269F002218
:0521CB0090622FEFF00F
:1021D000E4A3F012316B1236DDE4906231F012228A
:1021E00033906231E090622F1231948002C313D891
:1021F000FC30E004D2828002C2827F047E0012366C
:10220000DD12223D40D81236AAE4906231F090628D
:1022100030E025E0F0122233308207906230E04453
:1022200001F012223D40E7C284C281C28290623036
:02223000E0FFCD
:1022320022C2847F047E001236DD22D2847F047E95
:0F224200001236DD906231E004F0E0C394082210
:0534CA0090622EEFF0FE
:1034CF00E4FE1221CBAE0790622EE0FFAD0602267E
:0134DF0032BA
:08202A00906232EFF0A3EDF02B
:10203200E412316B1236DDE4906234F01220AD907E
:102042006234E09062321231948002C313D8FC30C1
:10205200E004D2828002C28212209C12318940DCCA
:10206200E4906234F01220AD906234E0FF9062336B
:10207200E0FEA807088002C313D8FC30E004D28235
:102082008002C28212209C12318940D9C2847F040C
:092092007E001236DDC281C2821B
:10209B00227F047E001236DDD2847F047E0012364E
:0C20AB00DD22C2847F047E001236DD229C
:1027CA00122DACD39062DEE094339062DDE094087F
:1027DA005048C3A3E094D09062DDE09407403B9058
:1027EA0062DFE0D3940C5032E0C39401402CA3E0A2
:1027FA00D3941F5025E0C39401401FA3E0D394183B
:10280A005018A3E0943C5012A3E0943C500C906200
:10281A00DDE0B40708A3E0B4D0037F00227F0122E1
:051C5F0090622EEFF081
:101C6400A3EDF0EF6480601D90622EE0FF6482605B
:101C740014EF6484600FEF6486600AEF6488600583
:051C8400EF648C706CA0
:101C8900E4906230F0A3F090622FE0FFC3940A4021
:101C990007EF75F00A84A3F090622FE075F00A84CB
:101CA900AFF0906231EFF0906230E0FEC454F04F33
:101CB90090622FF090622EE0FF64806004EFB4829E
:101CC9000990622FE0547FF0802290622EE0FF6439
:101CD900846004EFB4860990622FE0543FF0800CD1
:0C1CE90090622EE0B48805A3E0541FF0C8
:101CF500E4FD7F8E12202A90622EE0FFA3E0FD1204
:091D0500202A7D807F8E02202A35
:10345700C39062E5E094FF9062E4E094FF5007E4D4
:0734670075F00112023D2285
:10225100C39062E5E094D09062E4E094074055E4D5
:10226100F0A3F07F8D1234CA7A1E79BC1222B67F98
:10227100891234CA7A1E79C71222B67F871234CAEC
:102281007A1E79D31222C17F851234CA7A1E79DD72
:102291001222C17F831234CA7A1E79E81222CC7FBE
:1022A100811234CA7A1E79F21222CC7BFF7A1E790E
:0422B100FB12091FF4
:1022B500227BFF906231EFF012091F227BFF9062B3
:1022C50031EFF012091F227BFF906231EFF0120906
:0222D5001F22C6
:102EFD009062F7A3E02430FD7F8C121C5F9062F985
:102F0D00E0FD7F88121C5F9062FAE0FD7F86121C47
:102F1D005F9062FBE0FD7F84121C5F9062FCE0FD20
:0F2F2D007F82121C5F9062FDE0FD7F80021C5FBF
:102DAC007F811234CA9062E3EFF07F831234CA90B1
:102DBC0062E2EFF07F851234CA9062E1EFF07F8718
:102DCC001234CA9062E0EFF07F891234CA9062DF4D
:102DDC00EFF07F8D1234CAEF24D0FEE434079062FA
:062DEC00DDF0A3CEF02291
:0B36E8007379732072657365740A002B
:0100200022BD
:103224001200201233777BFF7A3679E812091F12D5
:1032340026A012371F1224CD12324C121D0E122E4C
:08324400BD7F0A7E0002002795
:1031CA0012194175D95590715EE054FEF075D9BB5C
:1031DA0012322412370F75D9AA1222511221437BB7
:0D31EA00017A62798F12104312331D80E9C3
:1026A00078E0E24408F278E2E2543FF278D0E24483
:1026B00001F278D2E254FCF278D0E24408F278D207
:1026C000E2543FF278E0E24401F278E2E254FCF2B4
:1026D00078F0E24402F278F2E254F3F278D0E24485
:1026E00080F278D3E2543FF278E0E24404F278E2F8
:1026F000E254CFF278F2E254FCF278E3E254FCF2D6
:0727000078D3E254FCF22241
:1021430020A307E49062D0F080452090089062D0ED
:102153007401F0803A20A1089062D07402F0802FBD
:102163002093089062D07403F0802420A00890622A
:10217300D07404F0801920B1089062D07405F08007
:102183000E9062D02097057406F0800374FFF090E0
:1021930062D0E0FF121BAF30A4047F018002E4FF92
:1021A3001235633094047F018002E4FF12359330CB
:1021B300B0047F018002E4FF12358320A2047F0173
:0821C3008002E4FF1234F52252
:10056B00C10A4461F4000000004461F8000000007F
:10057B004461FC0000000044620000000000416286
:10058B00040060286205000000000000000000006D
:10059B000000000000000000000000000000000050
:1005AB00000000000000000000000000000041629D
:0905BB002D00C1094261F20000AB
:102E7B009062FEE0FF2405F582E43462F583229034
:102E8B0062EFFEFDFC0203E01203D4EF2401FFE42A
:102E9B003EFEE43DFDE43CFC22E4FDFC1203E0C3FA
:102EAB000203C31203E002028B1203319062EF02A2
:022EBB0003EC26
:1034E000E4FE74052E122E82EFF00EEEB428F3E403
:0434F00090622DF0C9
:0134F40022B5
:1034100090622DE0122E80EFF090622DE004F0E03B
:08342000C394284002E4F022ED
:101DB8009062FF1203F800000000E4906303F0A3B0
:101DC80074FFF0E49062FEF09062FF1203E090620C
:101DD800FEE0122E80E0FFE4FCFDFE12028B906212
:101DE800FF1203EC122E7BE0FE906303E0C39E50CB
:101DF8000B74052F122E82E0906303F0122E7BE005
:101E0800FE906304E0D39E400B74052F122E82E0EF
:101E1800906304F09062FEE004F0E0642870A990FA
:101E280062FF1203D4C006C007906304E0FF90630A
:101E380003E02FFFE433AB07FA3395E0F9F8D00756
:101E4800D0061202989062FF1203ECE47B26FAF99E
:0A1E5800F89062FF1203D402033178
:0D36B70078D3E254F3F278D0E24420F222FE
:102FF4009061FC1203D49061F8122EAE9061FC1221
:1030040003EC9061F81203F80000000090620012D3
:1030140003D49061F4122EAE9062001203EC90611E
:09302400F41203F8000000002280
:10282A009061F2E475F00112023DC39061F3E09405
:10283A00149061F2E09400402BE4F0A3F09061F868
:10284A00122E939061F81203EC7F587E029061F881
:10285A00122EA4400F200A0C9061F81203F800000F
:10286A000000D20A30951520090F9061F4122E93B8
:0E287A009061F41203EC122FF4D20922C2096D
:01288800222D
:101480009062EF1203F8000000009062F31203F87C
:10149000000000007FF47E019061FC122EA4500633
:1014A000200A0302157F9062C6E0FFE4FCFDFE9077
:1014B00062001203E01202A6E47B107A27F9F81208
:1014C00002A6E47B7A7A06F9F81203319062F312ED
:1014D00003EC300A23E4FF906200122E8DC3120346
:1014E000C39062EF60091203F800000001802A1225
:1014F00003F8000000008021E47F24FEFDFC9062E0
:10150000F31203E01202A6E47B0AFAF9F81203319F
:101510009061FC1203E0122EB49062E71203D490A3
:1015200062F3122EAE9062E71203EC906200120397
:10153000F8000000009061FC1203F800000000C2F7
:101540000AE4FF122E8AD31203C34012E47F66120C
:101550002E8A1202A6E47B64FAF9F8122EB4E47F14
:10156000C7122E8AD31203C3400A9062EF1203F807
:0F157000000000C79062EF1203D49062CCEFF03E
:01157F002249
:1005C4004262B800004262BA0000C10B4162A70057
:0805D4004162A8004162A90088
:10346E009062B40203E0E475F00102023D9063390C
:07347E00E0FF9062A8E022CC
:0D36C40078C2E254CFF278C0E24404F22252
:102F3C009062B01203D49062AA1203E012028B903A
:102F4C0062B01203EC9062AA1203F80000000012A7
:102F5C00346E9062AEE0FEA3E0FFE4FCFD12028B47
:0E2F6C009062B41203ECE49062AEF0A3F02287
:102C6B009062A7E004F0E0C394144020E4F090627B
:102C7B00AE123475C39062AFE094589062AEE0949C
:102C8B00024009200C06E4F0A3F0D20C3082222083
:102C9B000B1C9062AA1203D4EF2401FFE43EFEE466
:102CAB003DFDE43CFC9062AA1203EC122F3CD20BCC
:032CBB0022C20B27
:012CBE0022F3
:1022D700E47FF47E01FDFC12346EC31203C3500386
:1022E700300C6A300C0EC20C90632A1203F80000FF
:1022F7000000801CE47FBC7EF7FDFC9062B01203F7
:10230700E01202A612346E12033190632A1203EC14
:102317009062B01203F8000000009062B41203F854
:1023270000000000E47FFF7EFFFDFC90632A12039C
:10233700E0C31203C3400A90632A1203F80000FFA8
:0D234700FF90632A1203D49062C81203ECC9
:012354002266
:10327100C39062B9E094FF9062B8E094FF500312EA
:103281003474C39062BBE094FF9062BAE094FF5043
:05329100031234742259
:1033C600E47BF47A01F9F89062C81203D41203314F
:0833D600EFD3941840027F18A8
:0133DE0022CC
:1020B700E4906339F09062A9E0700A04F01233C625
:1020C7009062A8EFF01233C6906339EFF07008A35F
:1020D700F0A37432F0802F9062A8E0FF906339E09C
:1020E700FED39F4005EE9FFF800612347BC39FFF00
:1020F700EFD394017E0050047F6480027F329063A7
:102107003AEEF0A3EFF090633AE0FEA3E0FFC3904E
:1021170062B9E09F9062B8E09E4020E4F0A3F0121D
:10212700347BFE9F5004E004F022EED39F400CEE78
:0B213700D3940040069062A8E014F072
:01214200227A
:0405DC004162E60092
:103428001203D4EF2401FFE43EFEE43DFDE43CFC3E
:08343800221203E0C30203C3EA
:103485009062C4E06009A3E0600CE0B401082290FA
:0734950062C5E06001E022C6
:101F9700C39062ECE094889062EBE09413400F30BA
:101FA7000D0C12335BC20DE49062EBF0A3F0E47FFB
:101FB700E87E03FDFC9062E712343940657F187EA6
:101FC700C67D9A7C3B9062BC123439500C9062BC3F
:101FD7001234289062BC1203EC7F9C7EE07DF57C76
:101FE700059062C0123439500C9062C012342890A8
:101FF70062C01203EC9062E71203D4C3EF94E8FFC8
:10200700EE9403FEED9400FDEC9400FC9062E71261
:0220170003ECD8
:102019009062E6E004F0E0C394644004E4F0D20D79
:012029002294
:1005E00042619C000042619E0000602861A0000002
:1005F00000000000000000000000000000000000FB
:1006000000000000000000000000000000000000EA
:100610000000000000004161C800416199006028AD
:1006200061C90000000000000000000000000000A0
:1006300000000000000000000000000000000000BA
:10064000000000000000000000004161F100416175
:060650009A0041619B00CD
:102D650025E024A0F582E43461F583EEF0A3EFF0CD
:102D75002225E024C9F582E4346122F583E0FEA32F
:102D8500E0FFE4FCFD02028B122CBF906342EFF0E2
:102D950090619B22E47B14FAF9F80203D490634214
:072DA500E0FF90619BE022BA
:0B36D100E4FDED122D650DEDB414F7C3
:0136DC0022CB
:1032FC00906199E0700504F00236D19061C8E0123B
:10330C002D659061C8E004F0E0C394144002E4F031
:01331C00228E
:102F7A0090631D1203F800000000E490631CF090B7
:102F8A00631D1203E090631CE025E024A0F582E4AF
:102F9A003461122D8090631D1203EC90631CE004CF
:0E2FAA00F0E0B414DA90631D122D9902033189
:10349C00C390619DE094FF90619CE094FF5007E421
:0734AC0075F00112023D2240
:1034B300C390619FE094FF90619EE094FF5007E406
:0734C30075F00112023D2229
:0E364300E4FDED122D76122D6E0DEDB414F493
:013651002256
:1033DF009061F1E0122D76122D6E9061F1E004F004
:0933EF00E0C394144002E4F02252
:10302D009063221203F800000000E4906321F090F9
:10303D0063221203E0906321E0122D76122D809011
:10304D0063221203EC906321E004F0E0B414E090ED
:08305D006322122D99020331D8
:102CBF00E4FDC3EF94AAEE940540028043C3EF9462
:102CCF00DDEE940440047D018036C3EF9410EE9442
:102CDF000440047D028029C3EF9443EE9403400423
:102CEF007D03801CC3EF9476EE940240047D048034
:102CFF000FC3EF94A9EE940140047D0580027D0679
:022D0F00AF050E
:012D1100229F
:10186200E4906342F0A3F0C390619DE094C890615C
:101872009CE094005003021940E4F0A3F0122F7A86
:101882007C077DD0120494E4FB7A10F9F81203313C
:10189200AB07AA0690619AE0701C04F0123643125C
:1018A2002D8DF0700A9062CFE0701204F0800EE489
:1018B2009062CFF08007AE02AF031233DF12302DF9
:1018C200122D8DE0FE6F6018906342E0FFD39E40C0
:1018D20006EF9EA3F08009122DA2C39F906343F0EE
:1018E200906343E0FFC39402400E90619FE09488AE
:1018F20090619EE094134046EFB4010FC390619F44
:10190200E0942090619EE0944E4033E490619EF01A
:10191200A3F0122DA2FEC39F5005E004F0800BEE4F
:10192200D39F400690619BE014F090619BE07009A8
:0E1932009062CFE0700804F022E49062CFF0E3
:011940002284
:100656005562BC0000000000000000000000000021
:0806660000000000000000008C
:102E37007B017A6279D190631B740CF0E4FF123046
:102E4700D39062DCE0B4C51378BC7C627D017B0162
:102E57007A6279D17E007F0C0201159062C47401F9
:102E6700F09062C774C5F0E49062C5F0A37469F08E
:032E770012335BB8
:012E7A002235
:10335B009062C774C5F0E4FF12000F7B017A6279AB
:0C336B00BC906316740CF0E4FF02309C70
:10066E004A60033F065B4F666D7D077F6F603660A5
:10067E000D07050706070707080709070A070D07ED
:10068E000F06030604060506060607060B060A06EF
:10069E000906080409040A040B040C040D040004E2
:1006AE0001040204030404602460430703070407E3
:1006BE000B070C070E060206010600060E060F06B5
:1006CE000D060C0408040E040F0405040604075856
:1006DE006067030A000D05010503050405060509FB
:1006EE00050C050D050F030F030D4E607F05050567
:1006FE000A050E030B05000502050B50608D07025F
:10070E000700000E0309030C030E030003014E60E5
:10071E009D010F010D010A0109010B010E010C4E85
:10072E0060AB000100030006000700050002000494
:10073E004E60B90305030602020201020003040320
:10074E00074E60C701000102010401070105010106
:10075E0001034C60D5020C020D020E020F020502BF
:10076E00044C60E1020B020A0209020802070206AB
:10077E004E60ED000D000E000C00080508000A008A
:10078E000B4E60FB050505060509050A050C05045B
:10079E00050B4E610905020503050D050F050E0536
:1007AE00010500506117040504060407040801073B
:1007BE0005070009000160546127000700060005C7
:1007CE00010F010C010B010E01080109010A020FB4
:1007DE00020D0100020E01050101020C020A0209BE
:1007EE000102020B0106010302080306040E040DAA
:1007FE0001040409040C040F03050304040A040B8A
:10080E0004030401030303020301040204004C6108
:10081E007B030F030D0308020602020200526187DA
:10082E00030C030B030A0309020702050204020369
:0B083E00020142600000004160020067
:100E6700E0FCA3E0FDEF25E02480F582E43460F5A3
:100E770083E0FF7E007401A807082290634AE0FF21
:100E870025E0247FF582E43460F583E025E02463E0
:100E9700F582E43462F58322E0FCA3E0FDEF25E070
:100EA70022906330E0FF25E024EDF582E43460F51D
:100EB70083E025E02457F582E43462F58322F4FFCA
:100EC700EEF45CFEED5F22FFEC4EFEED4F22F07478
:100ED700032DF582E43460F583E022906356E0FF4A
:100EE70025E024D5F582E4346022EEF0A3EFF090FC
:100EF700633EE0FF25E022E0FF25E0240DF582E4D4
:100F0700346022E0FF25E02443F582E4346022E0E8
:100F1700FF25E024E1F582E4346022E0FCA3E0FD54
:100F2700EF75F00EA42428F582E43461F58322904E
:100F3700634CE0FF25E0249DF582E4346022906352
:100F47004CE0FF25E024ABF582E434602290634E49
:100F5700E0FF25E024B9F582E434602290634EE097
:100F6700FF25E024C7F582E4346022906332E0FF76
:100F770075F00EA42427F582E43461F58322240E4C
:100F8700F582E43460222444F582E4346022E044AC
:100F970001F0A3E0F02224D6F582E434602224E2B3
:100FA700F582E4346022906330E0FF25E02290630D
:100FB7003FE0FEA3E0FF7C007D0A0201E8EEF0A31C
:100FC700EFF0906356E004F0E02275F00202042986
:100FD700FFE0C39FD3940022E0FF25E0248DF58234
:100FE700E4346022249EF582E434602224ACF58246
:100FF700E434602224BAF582E434602224C8F582FE
:10100700E4346022E0FF25E02417F582E43461220E
:10101700E0FF25E0247BF582E4346122E0FF25E050
:101027002487F582E434612225E02467F582E434DD
:0C1037006022E075F00A84ADF0E4FF22B6
:102B1300906352EFF0ED6021120EFE120E90C0830F
:102B2300C082120E9F120F85120E768005C333CE1C
:102B330033CED8F9120ECE8022906352120EFE12BB
:102B43000E90C083C082120E9F120F85120E7680E4
:102B530005C333CE33CED8F9120EC5FFD082D0834E
:062B6300EEF0A3EFF022EA
:0523D300906344EFF0EF
:1023D800E4A3F0906345E0FFC3941B506A90634404
:1023E800E09F5023A3E0120F00120E90C083C0821A
:1023F800120E9F120F85120E768005C333CE33CE90
:10240800D8F9120EC5802D906345E0906344120FF1
:10241800D7402BA3E0120F00120E90C083C0821287
:102428000E9F120F85120E768005C333CE33CED899
:10243800F9120ECEFFD082D083EEF0A3EFF09063B6
:0724480045E004F00223DB74
:01244F00226A
:102B6900906353EFF0ED6021120F0A120E90C083AB
:102B7900C082120E9F120F8D120E768005C333CEBE
:102B890033CED8F9120ECE8022906353120F0A1257
:102B99000E90C083C082120E9F120F8D120E768086
:102BA90005C333CE33CED8F9120EC5FFD082D083F8
:062BB900EEF0A3EFF02294
:05245000906346EFF06F
:10245500E4A3F0906347E0FFC39412506A9063468B
:10246500E09F5023A3E0120F0C120E90C083C08290
:10247500120E9F120F8D120E768005C333CE33CE0A
:10248500D8F9120EC5802D906347E0906346120F70
:10249500D7402BA3E0120F0C120E90C083C08212FE
:1024A5000E9F120F8D120E768005C333CE33CED814
:1024B500F9120ECEFFD082D083EEF0A3EFF0906339
:0724C50047E004F002245877
:0124CC0022ED
:10333E00EF90626E600BE04480F090626D120F951C
:0D334E0022E0547FF090626DE054FEF0220A
:05254700906348EFF075
:10254C00E4A3F0906349E0FFC3940C506790634898
:10255C00E06026EF12102F120E90C083C082120E74
:10256C009F2468F582E43460120E768005C333CE66
:10257C0033CED8F9120ECE8028906349E0FF1210AA
:10258C002F120E90C083C082120E9F2468F582E435
:10259C003460120E768005C333CE33CED8F9120ECA
:1025AC00C5FFD082D083EEF0A3EFF0906349E00436
:0425BC00F002254FB5
:0125C00022F8
:1032B900EF120E87C083C082120E678005C333CE1A
:1032C90033CED8F9120ECEFFD082D083EEF0A3EF21
:0232D900F022E1
:1025C10074032F120ED990634BF0E490634AF0909C
:1025D100634AE0FFC394075057120E7A8005C33354
:1025E100CE33CED8F9FF90634BE0FDEF5D6018125A
:1025F1000E82C083C082120E678005C333CE33CEF4
:10260100D8F9120ECE8016120E82C083C082120E2D
:10261100678005C333CE33CED8F9120EC5FFD08201
:10262100D083EEF0A3EFF090634AE004F00225D0EE
:012631002286
:051BAF0090622EEFF032
:101BB400E4A3F090622F120E85C083C082120E67D8
:101BC4008005C333CE33CED8F9120EC5FFD082D0F0
:101BD40083EEF0A3EFF090622FE004F0E0B407D3BB
:101BE40090622EE070047F018002E4FF123573904E
:101BF400622EE06003B4FF057F060232B990622EC4
:101C0400E02403120ED9906230F0E490622FF09039
:101C1400622FE0FFC394075041120E7A8005C3334C
:101C2400CE33CED8F9FF906230E0FDEF5D602390B3
:101C3400622F120E85C083C082120E678005C333E3
:101C4400CE33CED8F9120ECEFFD082D083EEF0A3DD
:0A1C5400EFF090622FE004F080B57D
:011C5E002263
:10288900906354EFF0ED6025120FDF120E90C083B4
:10289900C082120E9F248EF582E43460120E768077
:1028A90005C333CE33CED8F9120ECE8026906354A9
:1028B900120FDF120E90C083C082120E9F248EF574
:1028C90082E43460120E768005C333CE33CED8F954
:0E28D900120EC5FFD082D083EEF0A3EFF022E6
:10356300EF9062726005E04402F022E054FDF02225
:1034F500EF9062636008E04480F0A3E0F022E054BE
:033505007FF02232
:10357300EF9062646005E04401F022E054FEF02223
:0F365200EF9062696004120F9522E054FEF0229F
:10358300EF90626A6005E04408F022E054F7F0220D
:10359300EF90626A6005E04404F022E054FBF022FD
:10158000120ED690634DF0EF707A90634CF090633A
:101590004CE0FFC39407400302167C120E7A8005CC
:1015A000C333CE33CED8F9FF90634DE0FDEF5D60DD
:1015B00021120F36120E90C083C082120E9F120F9E
:1015C000EB120E768005C333CE33CED8F9120ECE91
:1015D000801F120F36120E90C083C082120E9F120F
:1015E0000FEB120E768005C333CE33CED8F9120E30
:1015F000C5FFD082D083EEF0A3EFF090634CE004FF
:10160000F002158EE490634CF090634CE0FFC394BD
:10161000075069120E7A8005C333CE33CED8F9FF56
:1016200090634DE0FDEF5D6021120F45120E90C0FA
:1016300083C082120E9F120FF3120E768005C33301
:10164000CE33CED8F9120ECE801F120F45120E9057
:10165000C083C082120E9F120FF3120E768005C354
:1016600033CE33CED8F9120EC5FFD082D083EEF040
:0C167000A3EFF090634CE004F0021609B8
:01167C00224B
:10167D00120ED690634FF0EF707A90634EF0906338
:10168D004EE0FFC394074003021779120E7A8005CE
:10169D00C333CE33CED8F9FF90634FE0FDEF5D60DD
:1016AD0021120F54120E90C083C082120E9F120F82
:1016BD00FB120E768005C333CE33CED8F9120ECE83
:1016CD00801F120F54120E90C083C082120E9F12F3
:1016DD000FFB120E768005C333CE33CED8F9120E22
:1016ED00C5FFD082D083EEF0A3EFF090634EE004FF
:1016FD00F002168BE490634EF090634EE0FFC394BE
:10170D00075069120E7A8005C333CE33CED8F9FF58
:10171D0090634FE0FDEF5D6021120F63120E90C0DC
:10172D0083C082120E9F121003120E768005C333F2
:10173D00CE33CED8F9120ECE801F120F63120E903B
:10174D00C083C082120E9F121003120E768005C345
:10175D0033CE33CED8F9120EC5FFD082D083EEF042
:0C176D00A3EFF090634EE004F0021706BA
:01177900224D
:1035A300EF9062666005E04440F022E054BFF022F1
:08177A0090633CEFF0A3EDF0D9
:10178200E4A3F0120EF6120F3D120E90C083C08237
:10179200120E9F120FEB120E768005C333CE33CE9C
:1017A200D8F9120EC5FFD082D083120EF1120F4C5F
:1017B200120E90C083C082120E9F120FF3120E7689
:1017C2008005C333CE33CED8F9120EC5FFD082D0F6
:1017D20083120EF1120F5B120E90C083C082120EA2
:1017E2009F120FFB120E768005C333CE33CED8F98B
:1017F200120EC5FFD082D083120EF1120F6A120EA2
:1018020090C083C082120E9F121003120E768005C2
:10181200C333CE33CED8F9120EC5FFD082D083EEB9
:10182200F0A3EFF090633EE004F0E064076003028F
:10183200178590633C12103912158090633CE07555
:10184200F00A84FD7F0112158090633D1210391257
:10185200167D90633DE075F00A84FD7F0102167DDE
:0F366100EF9062636004120F9522E054FEF02296
:0F367000EF9062656004120F9522E054FEF02285
:1035B300EF9062686005E04408F022E054F7F022DF
:102BBF00906355EFF0ED6021120EE5120E90C08379
:102BCF00C082120E9F120F9D120E768005C333CE58
:102BDF0033CED8F9120ECE8022906355120EE51225
:102BEF000E90C083C082120E9F120F9D120E768020
:102BFF0005C333CE33CED8F9120EC5FFD082D083A2
:062C0F00EEF0A3EFF0223D
:10270700EF6030E4906356F0120EE2120E90C08331
:10271700C082120E9F120F9D120E768005C333CE14
:1027270033CED8F9120ECEFFD082D083120FC4B4A5
:1027370006D622E4906356F0120EE2120E90C08382
:10274700C082120E9F120F9D120E768005C333CEE4
:1027570033CED8F9120EC5FFD082D083120FC4B47E
:0227670006D694
:01276900224D
:102C1500906357EFF0ED6021120F16120E90C083EE
:102C2500C082120E9F120FA5120E768005C333CEF9
:102C350033CED8F9120ECE8022906357120F16129A
:102C45000E90C083C082120E9F120FA5120E7680C1
:102C550005C333CE33CED8F9120EC5FFD082D0834B
:062C6500EEF0A3EFF022E7
:05235500906350EFF061
:10235A00E4A3F0906351E0FFC39406506B9063507E
:10236A00E09F5023A3E0120F18120E90C083C08280
:10237A00120E9F120FA5120E768005C333CE33CEEE
:10238A00D8F9120EC5802E906351E0FF9063501267
:10239A000FD8402BA3E0120F18120E90C083C082F0
:1023AA00120E9F120FA5120E768005C333CE33CEBE
:1023BA00D8F9120ECEFFD082D083EEF0A3EFF090C0
:0823CA006351E004F002235D01
:0123D20022E8
:0711D60090632EEFF0A3EB84
:1011DD00120ED5906331F0E4906330F0906330E0FF
:1011ED00FFC39407400302133C90632FE07003028A
:1011FD00129F120E7A8005C333CE33CED8F9FF90ED
:10120D006331E0FDEF5D700302129F90632EE014D9
:10121D00602A14605024026003021333120EA8C01A
:10122D0083C082120E9F24EEF582E43460120E7696
:10123D008005C333CE33CED8F9021299120FAD24E7
:10124D00FBF582E43460120EB6C083C082120E9F8D
:10125D0024FCF582E43460120E768005C333CE3360
:10126D00CED8F98027120FAD2409F582E43461122E
:10127D000EB6C083C082120E9F240AF582E434613B
:10128D00120E768005C333CE33CED8F9120ECE02B0
:10129D00132990632EE014602D1460562402600310
:1012AD00021333120EA8C083C082120E9F24EEF5D6
:1012BD0082E43460120E768005C333CE33CED8F976
:1012CD00120EC5021329120FAD24FBF582E4346012
:1012DD00120EB6C083C082120E9F24FCF582E43438
:1012ED0060120E768005C333CE33CED8F9120EC5FB
:1012FD00802A120FAD2409F582E43461120EB6C0B6
:10130D0083C082120E9F240AF582E43461120E7698
:10131D008005C333CE33CED8F9120EC5FFD082D09F
:0F132D0083EEF0A3EFF0906330E004F00211E9DB
:01133C00228E
:082A5E0090633FEEF0A3EFF0DE
:102A6600E4A3F0AA06AB07906341E004F07C007D86
:102A76000AAF03AE021201E8AA06AB07EB4A70E7FB
:102A8600E4FA906341E0FFEAC39FAF025019C00722
:102A9600120FB5D0077B011211D6120FB590633F06
:102AA600EEF0A3EFF08006E4FBFD1211D60AEAB4BD
:022AB60003D04B
:012AB80022FB
:10350800EF9062576008E04480F0A3E0F022E054B6
:033518007FF0221F
:1035C300EF9062586005E04401F022E054FEF022DF
:1028E700906358EFF0ED602512100B120EB6C083FF
:1028F700C082120E9F2418F582E43461120E76808E
:1029070005C333CE33CED8F9120ECE802690635846
:1029170012100B120EB6C083C082120E9F2418F538
:1029270082E43461120E768005C333CE33CED8F9F4
:0E293700120EC5FFD082D083EEF0A3EFF02287
:02354100AB07D6
:0E354300E4FAAF02AD031228E70AEAB408F476
:013551002257
:1035D300EF9062606005E04410F022E054EFF022C7
:1035E300EF90625E6005E04401F022E054FEF022B9
:1035F300EF9062586005E04404F022E054FBF022AF
:10360300EF9062586005E04408F022E054F7F0229E
:081A1D00906332EFF0A3EBF03F
:101A2500E4906335120ED5906335F0E4906334F09D
:101A3500906334E0FFC394074003021AE7906333D1
:101A4500E06052120E7A8005C333CE33CED8F9FF4B
:101A5500906335E0FDEF5D603C120F72C083C0827C
:101A6500906334E0D082D083120FD1120EB8C083B8
:101A7500C082120F22C083C082906334E0D082D02E
:101A850083120FD1120E788005C333CE33CED8F929
:101A9500120ECE803A120F72C083C082906334E07A
:101AA500D082D083120FD1120EB8C083C082120F1C
:101AB50022C083C082906334E0D082D083120FD1DC
:101AC500120E788005C333CE33CED8F9120EC5FF7A
:101AD500D082D083EEF0A3EFF0906334E004F002FF
:021AE5001A35B0
:011AE70022DC
:10351B00EF9062596008E04420F0A3E0F022E05401
:03352B00DFF022AC
:062A010090630C1203ECCF
:102A0700906310E07003FF80027F0112351BE49092
:102A17006311F0906311E0FFC394065039C007E4D7
:102A27007B0AFAF9F890630C1203D4120331AF034F
:102A3700AD07D0077B01121A1D90630C1203D4E473
:102A47007B0AFAF9F812033190630C1203EC9063D6
:062A570011E004F080BD57
:012A5D002256
:10352E00EF90625D6008E04440F0A3E0F022E054CA
:03353E00BFF022B9
:10361300EF90625E6005E04480F022E0547FF02288
:10362300EF9062586005E04410F022E054EFF0227E
:10294500906359EFF0ED6025121017120EB6C08393
:10295500C082120E9F247CF582E43461120E7680CB
:1029650005C333CE33CED8F9120ECE8026906359E7
:10297500121017120EB6C083C082120E9F247CF56A
:1029850082E43461120E768005C333CE33CED8F996
:0E299500120EC5FFD082D083EEF0A3EFF02229
:02355200AB07C5
:0E355400E4FAAF02AD031229450AEAB406F408
:013562002246
:1029A30090635AEFF0ED6025121023120EB6C08328
:1029B300C082120E9F2488F582E43461120E768061
:1029C30005C333CE33CED8F9120ECE802690635A88
:1029D300121023120EB6C083C082120E9F2488F5F4
:1029E30082E43461120E768005C333CE33CED8F938
:0E29F300120EC5FFD082D083EEF0A3EFF022CB
:0233AC00AB076D
:1033AE00E4FAEBC39AAF0240047D018002E4FD1201
:0733BE0029A30AEAB409EBA0
:0133C50022E5
:1031F700906000E475F00112023DC3906001E09415
:10320700F4906000E094014013E4F0A3F0A3E070B1
:0C321700047F0180027F00906002EFF055
:013223002288
:1008490053628F0A000000000332410000000000DB
:0E08590002FF36FE00004562A2010102030408
:0F367F00EC75F005A424A2F582E43462F58322F1
:07371F0078C3E2543FF222DF
:0936FE002087037F01227FFF22D7
:102DF200E4FEFCFBEDB401030B8016EDB403047B8F
:102E020002800EEDB404047B038006EDB405027B60
:102E120004ECC39401501B12367FE0B50711123641
:102E22007FE5822BF582E43583F583E0FE80030C97
:042E320080DFAF0688
:012E36002279
:10331D009062A0E0601AE0FFA3E0FD122DF2E490B0
:10332D0062A0F0A3F0EF24FE600304700312369C3C
:01333D00226D
:08370F00E490630BF002369C0C
:033732000234401E
:06372C0090630BEFF02298
:0837170090630BE0FF02329603
:0E369C00E4906305F0A3F0906309F0A3F02220
:10086700416275004162760041627700416278001B
:100877004162790041627A0041627B0041627C00FB
:1008870041627D0041627E0041627F0041628000DB
:1008970041628100416282004162830041628400BB
:0C08A700416285004162860041628700CA
:1036330090627CE0FD7B0122E004F0E0C394FF2272
:0B36F300906288E06004A3E004F02275
:10133D0090628EE0600302147F906277E0B4101328
:10134D00E4FD7F071228E790627912363B407BE47B
:10135D00F08071906275E0B4010D906277E07007D6
:10136D00FDFF1228E78063906279E004F0E0C394FA
:10137D00294057E4F0906275E0702E906277E0940A
:10138D00085006E0FF7D018009906277E024F8FFA8
:10139D00E4FD1228E7906277E004F0E0C39410407A
:1013AD00299062757401F08021906277E0C39408F2
:1013BD004008E024F8FF7D018007906277E0FFE4AC
:1013CD00FD1228E7906277E014F0906278E0B42483
:1013DD001BE4FD7F11122B6990627A12363B50038C
:1013ED0002147FE4F0906278740AF022906276E045
:1013FD00B40110906278E0700AFDFF122BBF90626D
:10140D008E804090627AE004F0906276E0703890C1
:10141D00627AE0C39412402FE4F0906278E0941267
:10142D005006E0FF7D018009906278E024EEFFE434
:10143D00FD122B69906278E004F0E0C394244032F1
:10144D009062767401F02290627AE0C39442402259
:10145D00E4F0906278E094064008E024FBFF7D0103
:10146D008007906278E0FFE4FD122BBF906278E078
:02147D0014F069
:01147F00224A
:100C190090628EE064016003020E6690627BE07070
:100C29007704F09062827407F09062867411F07F05
:100C3900011235087F011235C37F011235D37F01B7
:100C49001235E37F011235F37F011236037F01125A
:100C5900352E7F011236137F011236237F0112359B
:100C6900637F011234F57F011235737F0112365209
:100C79007F011235837F011235937F011235A37FDE
:100C8900011236617F011236707F011235B37F017F
:100C990012333E7F0112254790627DE004F0E0C3E4
:100CA90094965003020DA2E4F0123633E4FF1211B8
:100CB900D61236337F011211D61236337F02121142
:100CC900D6123633E4FF121A1D1236337F01121A77
:100CD9001D1236337F02121A1D1236337F03121A80
:100CE9001D1236337F04121A1D1236337F05121A6C
:100CF9001D906281E0FF7D011229A390627CE0FFD3
:100D09001225C190627CE0FDE4FF12158090627C9F
:100D1900E0FD7F0112158090627CE0FDE4FF121670
:100D29007D90627CE0FD7F0112167D906282E0FF7A
:100D39007D01122889906282E0FF7D011228E790E7
:100D49006283E0FF7D01122BBF906283E0FF7D018A
:100D5900122945906284E0FF7D01122C1590627C76
:100D6900E0C394095003E004F0906281E0C3940861
:100D79005003E004F0906282E0D394004003E01451
:100D8900F0906283E0C394055003E004F09062841C
:100D9900E0C394055003E004F090627EE004F09013
:100DA9006287E07024906285E0B41A1D7D017F1A84
:100DB900122B1390627EE0C394FF405E90628774A9
:100DC90001F0E490627EF08051906287E070239098
:100DD900627EE0C39425401AE4F0906285E0FF7DCD
:100DE90001122B13906285E0C3941A502DE004F090
:100DF9008028906287E0B4012190627EE0C3940C60
:100E09004018E4F0906285E0FFE4FD122B13906234
:100E190085E0D394004003E014F090627FE004F091
:100E2900E0C394374018E4F0906286E0FF7D011238
:100E39002B69906286E0D394004003E014F090623D
:100E490087E0B40118906285E07012A3E0700E90FB
:0D0E5900628012363B400690628E7405F0F8
:010E66002269
:102D12007E007F077D007B017A6279881204C19070
:102D220062887401F0906288E0603775D9AAA3E0E6
:102D3200C3940140F0E4F012133D120C1990628E1C
:102D4200E0B40519E4FF123508E4FF1235C3E4FFCD
:102D52001235D3E4FF1235E3E4906288F012329622
:032D620080C32209
:101F17000231CAE493A3F8E493A34003F68001F2E5
:101F270008DFF48029E493A3F85407240CC8C333CB
:101F3700C4540F4420C8834004F456800146F6DF9A
:101F4700E4800B0102040810204080900531E47EF4
:101F5700019360BCA3FF543F30E509541FFEE4938F
:101F6700A360010ECF54C025E060A840B8E493A356
:101F7700FAE493A3F8E493A3C8C582C8CAC583CA81
:101F8700F0A3C8C582C8CAC583CADFE9DEE780BE39
:0108B3000044
:10004500E709F608DFFA8046E709F208DFFA803E9D
:1000550088828C83E709F0A3DFFA8032E309F6088A
:10006500DFFA8078E309F208DFFA807088828C83F2
:10007500E309F0A3DFFA806489828A83E0A3F608A6
:10008500DFFA805889828A83E0A3F208DFFA804C80
:1000950080D280FA80C680D4806980F28033801057
:1000A50080A680EA809A80A880DA80E280CA8033C0
:1000B50089828A83ECFAE493A3C8C582C8CCC58338
:1000C500CCF0A3C8C582C8CCC583CCDFE9DEE78008
:1000D5000D89828A83E493A3F608DFF9ECFAA9F087
:1000E500EDFB2289828A83ECFAE0A3C8C582C8CCDD
:1000F500C583CCF0A3C8C582C8CCC583CCDFEADEF6
:10010500E880DB89828A83E493A3F208DFF980CC57
:1001150088F0EF60010E4E60C388F0ED2402B40450
:100125000050B9F582EB2402B4040050AF232345F7
:0601350082239000957387
:10013B00BB010689828A83E0225002E722BBFE02C2
:09014B00E32289828A83E49322F5
:10015400BB010CE58229F582E5833AF583E0225060
:1001640006E92582F8E622BBFE06E92582F8E222AA
:0D017400E58229F582E5833AF583E49322C4
:10018100BB010FF8E58229F582E5833AF583E02882
:10019100F0225009C58229F8E58226F622BBFE0924
:1001A100C58229F8E22582F222F8EA2583F583E95E
:0301B1009328226E
:1001B400BB010689828A83F0225002F722BBFE012A
:0201C400F32224
:1001C600F8BB010DE58229F582E5833AF583E8F06F
:1001D600225006E92582C8F622BBFE05E92582C81B
:0201E600F22203
:1001E800BC000BBE0029EF8DF084FFADF022E4CCFB
:1001F800F875F008EF2FFFEE33FEEC33FCEE9DECC4
:10020800984005FCEE9DFE0FD5F0E9E4CEFD22ED09
:10021800F8F5F0EE8420D21CFEADF075F008EF2F53
:10022800FFED33FD4007985006D5F0F222C398FD44
:050238000FD5F0EA22E1
:10023D00C5F0F8A3E028F0C5F0F8E582158270024C
:06024D001583E038F022E9
:10025300BB0110E58229F582E5833AF583E0F5F0E9
:10026300A3E0225009E92582F886F008E622BBFEC6
:100273000AE92582F8E2F5F008E222E5832AF5830C
:08028300E993F5F0A3E99322D1
:0D028B00EF2BFFEE3AFEED39FDEC38FC22C2
:0E029800C3EF9BFFEE9AFEED99FDEC98FC2261
:1002A600E88FF0A4CC8BF0A42CFCE98EF0A42CFCF7
:1002B6008AF0EDA42CFCEA8EF0A4CDA8F08BF0A475
:1002C6002DCC3825F0FDE98FF0A42CCD35F0FCEBD4
:1002D6008EF0A4FEA9F0EB8FF0A4CFC5F02ECD3999
:0F02E600FEE43CFCEAA42DCE35F0FDE43CFC2206
:1002F50075F008758200EF2FFFEE33FECD33CDCCC0
:1003050033CCC58233C5829BED9AEC99E582984042
:100315000CF582EE9BFEED9AFDEC99FC0FD5F0D61F
:10032500E4CEFBE4CDFAE4CCF9A88222B800C1B949
:100335000059BA002DEC8BF084CFCECDFCE5F0CB87
:10034500F97818EF2FFFEE33FEED33FDEC33FCEBC0
:1003550033FB10D703994004EB99FB0FD8E5E4F97B
:10036500FA227818EF2FFFEE33FEED33FDEC33FC68
:10037500C933C910D7059BE99A4007EC9BFCE99A5C
:10038500F90FD8E0E4C9FAE4CCFB2275F010EF2FA1
:10039500FFEE33FEED33FDCC33CCC833C810D707A1
:1003A5009BEC9AE899400AED9BFDEC9AFCE899F8DC
:0E03B5000FD5F0DAE4CDFBE4CCFAE4C8F9226F
:1003C300EB9FF5F0EA9E42F0E99D42F0E89C45F090
:0103D3002207
:0C03D400E0FCA3E0FDA3E0FEA3E0FF229C
:0C03E000E0F8A3E0F9A3E0FAA3E0FB22A0
:0C03EC00ECF0A3EDF0A3EEF0A3EFF02284
:1003F800A8828583F0D083D08212040F12040F12D2
:10040800040F12040FE473E493A3C583C5F0C583F6
:10041800C8C582C8F0A3C583C5F0C583C8C582C84E
:0104280022B1
:0C042900A42582F582E5F03583F58322DE
:09043500E0FBA3E0FAA3E0F922C8
:10043E00F8E0FBA3A3E0F925F0F0E5821582700247
:07044E001583E0FA38F022EB
:09045500EBF0A3EAF0A3E9F022A8
:10045E00BB010DE58229F582E5833AF58302043569
:10046E005007E92582F80204EDBBFE07E92582F864
:10047E000204F6E58229F582E5833AF5830204FF4C
:06048E008A838982E473F9
:10049400EC8EF0A4CCC5F0CCCDF8EFA4CEC5F02DF5
:1004A400FDE43CFCE8A42EC8C5F03DFDE43CFCEFB3
:0D04B400A4FFE5F028FEE43DFDE43CFC2241
:1008B400E5082431F582E43462F583E005082290EA
:1008C400622E300703906231E475F00112043E0297
:1008D400013B2000E97F2ED2008018EF540F2490B2
:1008E400D43440D4FF30040BEF24BFB41A005003B7
:1008F4002461FFE50960021509050CE50C70020589
:100904000B30070E90622EE475F00112043EEF02E4
:1009140001B402368E7403D2078003E4C207F508DB
:1009240090622E120455E4F509F50BF50CE5096007
:10093400077F201208F780F5750AFFC201C200C2C2
:1009440002C203C205C206C2081208C3FF700D30FA
:1009540007057F00120908AF0CAE0B22B4255FC255
:10096400D5C2041208C3FF24D0B40A00501A75F08B
:100974000A780930D50508B6FF0106C6A426F62074
:10098400D5047002D20380D924CFB41A00EF5004E6
:10099400C2E5D204020B09D20180C6D20080C0D2C3
:1009A4000280BCD2D580BAD20580B47F201208F769
:1009B4002002077401B5090040F11208B4FF1208BF
:1009C400F7020931D208D20680951208B4FB120846
:1009D400B4FA1208B4F94A4B700679DA7A0B7BFF41
:1009E40020022EE509602A7E008E827583001201A2
:1009F4005460060EEE650A70F0C2D5EBC0E0EAC0A2
:100A0400E0E9C0E0EE120B50D0E0F9D0E0FAD0E01B
:100A1400FB12013BFF60AAEBC0E0EAC0E0E9C0E0E2
:100A24001208F7D0E02401F9D0E03400FAD0E0FB5A
:100A3400E50A0460DCD50AD980877BFF7A0B794C00
:100A4400D202809C791080027908C206C20880080C
:100A5400D2D5790A8004790AC2D5E50A047002F570
:100A64000AE4FAFDFEFF1208B4FC7B08200113120D
:100A740008B4FD7B1030000A1208B4FE1208B4FF5B
:100A84007B20EC3382D592D55013C3E43000069F0B
:100A9400FFE49EFEE42001039DFDE49CFCE4CBF80E
:100AA400C201EC700CCFCECDCCE824F8F870F38002
:100AB40017C3EF33FFEE33FEED33FDEC33FCEB33C2
:100AC400FB994002FB0FD8E9EB300105F8D0E0C4F4
:100AD40048B201C0E00AEC4D4E4F78207B0070C252
:100AE400EAB50A0040BCC0E0120B52D0F0D0E020BE
:100AF4000104C4C0E0C4B201C0F01208E0D0F0D5D3
:100B0400F0EB02093112050B09CE530A4858099F2C
:100B14004C099B420A4C4F0A54440A544909B443B1
:080B24000A5A550A3E460A3E3A
:100B2C00450A3E470BFA5009A32D09A72E09CA2BDB
:100B3C0009AB2309C8200BE32A096348000009C24A
:100B4C003F3F3F00790AA2D5200314300509B910A4
:100B5C00020404B9080104A2D520060250010420A5
:100B6C0002689202B509005034C0E07F20300319AE
:100B7C007F30A20272067205500F120BA9C202C27C
:100B8C0006C205C2087F30800F300503E9C0E012B1
:100B9C0008F7300503D0E0F9D0E0B509CC300517E3
:100BAC007F30B9100C1208F77F583004077F78801B
:100BBC0003B908031208F73002057F2D0208F77FEE
:100BCC00202008F87F2B2006F322920280CF286E7B
:100BDC00756C6C2900D2011208B43001F8C201788E
:100BEC000930D50108F60209632D50434958120803
:100BFC00B42403B405004001E4900BF5931208E80B
:0D0C0C00743A1208E8D203750904020A4880
:1004C100EF4E6012EF60010EEDBB010B89828A8352
:1004D100F0A3DFFCDEFA2289F05007F709DFFCA95F
:0C04E100F022BBFEFCF309DFFCA9F022B6
:0904ED00E6FB08E6FA08E6F92234
:0904F600E2FB08E2FA08E2F92237
:0C04FF00E493FB740193FA740293F92259
:10050B00D083D082F8E4937012740193700DA3A37F
:10051B0093F8740193F5828883E473740293686093
:06052B00EFA3A3A380DF93
:00000001FF
