:0300000002207E5D
:10207E00787FE4F6D8FD9060007F007E07E4F0A341
:0A208E00DFFCDEFA7581210220D389
:0C000300000000000000000000000000F1
:0B3C1000EF1FAC0670011E4C70F62286
:10002700AB07AA06EB1BAE0270011A4E600C7FAA43
:0B0037007E05123C1075D9AA80EA2259
:101B5D00907120E04480F07F057E00123C10E4FF80
:101B6D00FE12002775A75575AC5C9071327450F05C
:101B7D009071307403F0907136742FF090715C7425
:101B8D0003F090715BE054FCF07F18EF2466FDE4E8
:101B9D0034718D82F583E4F00FEFB433EE90401184
:101BAD00E4935407FF90711CE054F84FF0904017E8
:101BBD00E493547FFF90711DE054804FF0904010DE
:101BCD00E493FF5401C43333335480FE907123E00A
:101BDD00547F4EF0EFC313543F4440FFA3E05480B5
:101BED004FF0904012E493FF540FFE907146E05475
:101BFD00F04EF0EFC4540FFF90714FE054F04FF0E2
:101C0D00904013E493543FFF907140E054C04FF067
:101C1D00904014E493907126F0904015E4939071E8
:0B1C2D0028F0904016E49390712AF01C
:011C38002289
:10000F00E0FEA3E0FFE4FCFD7BFF7AFFF9F8D302EB
:02001F0003C319
:1031DB00E5B154CF42B153A8BFD2AF75D102789CA1
:1031EB00E254E3F2E2441CF2E254FCF2E24401F258
:1031FB0008E2547FF2E24420F278A17401F21874D1
:10320B0076F2789CE2541FF2E244C0F243A84022CB
:030021000222C4F4
:1022C400C0E0C0F0C083C082C0D075D000C000C0E0
:1022D40001C002C003C004C005C006C007789DE267
:1022E40030E74CE24480F21234729062F4E0C3941A
:1022F400FF5003E004F090633A12000F400A906329
:102304003AE475F00112023D90633C12000F400A5A
:1023140090633CE475F00112023D12395812396F92
:1023240012398612399D123C26123858123670D052
:1023340007D006D005D004D003D002D001D000D0FD
:0A234400D0D082D083D0F0D0E03278
:10354B00E5B254FC42B253A9FED2AF75D1049071CF
:10355B00057409F0907104745FF0907101E0547F71
:10356B00F0E04420F0907100E0E4F0E044C1F0435F
:03357B00A9012281
:0300240002308225
:10308200C0E0C0F0C083C082C0D075D000C000C014
:1030920001C002C003C004C005C006C00790710190
:1030A200E030E707E04480F0122A48D007D006D08B
:1030B20005D004D003D002D001D000D0D0D082D02D
:0630C20083D0F0D0E032E3
:0E3BA9009062B8EFF0123C3A9062B8E0FF2252
:1038910078C2E254FCF2E24401F290717EE0440409
:0B38A100F075D60175D59F75D210227E
:083C3A00E5D430E4FB8FD72232
:0405470041636400A8
:1036C50078C3E24430F2E2440CF2786AE24479F2DB
:1036D5007591FF9071227407F0439E7043994043A2
:0536E500AA04D2AF228F
:103641005399E0907123E05498F0EF24FE600F0449
:103651007016907123E04459F0439906800A9071E5
:0F36610023E0445AF04399057869E24448F22285
:10347200906364E014601714602124FE6004240445
:1034820070247F011236419063647401F0227869DE
:10349200E24401F29063647402F0227F0212364128
:0734A2009063647404F02242
:0300420002245C39
:10245C00C0E0C0F0C083C082C0D075D000C000C046
:0D246C0001C002C003C004C005C006C007C7
:10247900786BE230E142E24402F2AF93EF75F0107B
:10248900A4FFE594C4540FFDEF4DFF9062B9E5F048
:10249900F0A3EFF0906364E024FC6011240270184B
:1024A9009062B9E0FEA3E0FF1237BD800B9062B9DC
:0824B900E0FEA3E0FF1237DE94
:1024C100D007D006D005D004D003D002D001D0006F
:0B24D100D0D0D082D083D0F0D0E03219
:10379C0090628AF090635B02044B90000612015415
:1037AC00FE9000080201549000091201C690000C12
:0137BC0022EA
:1010DA00E490628AF07FFFA374FFF090635B1204CE
:1010EA006B900001120154FE12013BFDEEC39D50AC
:1010FA000302126C1237A0900001E41201C690009C
:10110A000E1204741204A4EFF4600890635A742354
:10111A00F0800990635AE06003E014F01237A0905F
:10112A0000031201546F6015900005120154600DFE
:10113A00900004E41201C6900003021268900005B0
:10114A00120154FE900004120154C39E500B123730
:10115A00A090000474010201811237A090000212CB
:10116A0001546F6048EFF4701C1237A6C39E400A00
:10117A00740512379C90000280611237A090000A11
:10118A00740102125F1237A090000874011237B678
:10119A001201546F90635B600C12044B7401123796
:1011AA00B3EF02125F12044B900009803DEFF47016
:1011BA00411237A0900009120154D394005003023F
:1011CA00126290000B120154FE90000A120154D3CD
:1011DA009E4011740112379C90000C1201549062C7
:1011EA008BF080541237A090000A74011201810218
:1011FA0012621237A01237ADC394FF50089000084C
:10120A0074011201811237A6B5060890628A740326
:10121A00F080201237A09000071237A96E7039901B
:10122A00628A740412379F900006120154900008D3
:10123A001201C690628BEFF01237A0E41237B37432
:10124A00FF1201C690628BE09000111201C69062F3
:10125A008AE09000121201C61237A0900002EF1223
:02126A0001C6BB
:01126C00225F
:103A2B0075AF3F8FAF75AEB975A402E5A530E1FB5D
:013A3B002268
:1034A90090629612046B75AF3F8FAF906299E0C33B
:1034B90094014022E5A530E0FB906296E475F001A5
:1034C90012045412013BF5A675AEB975A4019062B8
:0734D90099E014F080D522F8
:1035170090629612046B906299E06027AE070FEEF7
:103527002400FDE4343F8D82F583E493FE90629698
:10353700E475F001120454EE1201B4906299E0149C
:04354700F080D3221B
:10054B004262D700004C62BB0000000000000000BC
:10055B00000000005062C700000000000000000017
:07056B000000000000000089
:103354009FFFE49400FEEF25E0FFEE33FE12044BE2
:103364008F828E83120253FF22906298E0FF906254
:1033740092E0227B017A6279C790628E12046B908C
:0C3384006291227E007D007B010204D7D4
:10392A00C39062D8E094FF9062D7E094FF5007E416
:07393A0075F00112023D22AD
:061D040090628A12046BDC
:101D0A00C374089D906298F0906291E0FFC37408D2
:101D1A009F906299F0C291C292E4906292F0E4902C
:101D2A006294F0A3F0906296F0A3F012336DC39F11
:101D3A00401212336D90628A123354906294E5F025
:101D4A00F0A3EFF0906299123370C39F401590622E
:101D5A009912337090628E123354906296E5F0F0C5
:101D6A00A3EFF0E4906293F0906294E030E703D33B
:101D7A008001C39283906296E030E703D38001C367
:101D8A009295D291906295E025E0F0906294E033CA
:101D9A00F0906297E025E0F0906296E033F0C2910D
:101DAA00906293E004F0E0B410BE906292E004F016
:101DBA00E064086003021D28D292C292C283C295CF
:011DCA0022F6
:10375700C39062D8E094199062D7E094004013E4D4
:10376700F0A3F01233777408F07A6279BB7D061202
:033777001D04220C
:101F2A007F0C7A6279BB1233877F107A6279C71283
:101F3A00338778D2E254F3F2E24404F2907187E4F0
:101F4A00F078C2E2543FF2E24440F2907181E4F048
:101F5A0078D3E254F3F2E24404F290718BE4F0187D
:101F6A00E254CFF2E24410F2907188E4F008E254AD
:101F7A00CFF2E24410F290718C740AF07856E4F2CF
:101F8A00782774BBF218747FF27833E4F218F27887
:101F9A0019F218E24401F27811E24401F27817E2E8
:101FAA004401F27812E24401F27814E24401F2C2E6
:101FBA0083C295C291C2921233777406F07A62791B
:0A1FCA00BBFD121D047F1E02357ED0
:10357E00C374649FFFE49400FE3395E0FDFCE47B8E
:10358E007F7ABBF9F81202A6E47B64FAF9F812030B
:10359E0031AC06EC7833F218EFF27817E24401F210
:0135AE0022FA
:102CD7006169703133303220697320776F726B69A5
:102CE7006E670A0031333032206973206E6F7420AB
:102CF700666972737420706F776572206F6E0A0051
:102D07006169703133303220697320736C65657087
:102D17000A00313330322069732066697273742078
:0A2D2700706F776572206F6E0A006E
:0A05720047634E0000000000000087
:10361100A3F0123C51C282C284D2817F047E002277
:10362100E254CFF2E24410F2907180E4F022906211
:1036310090E004F0E0C3940822FFE0FEA80708220E
:063C510078C212362122A8
:0D3BC50078C0E24404F278C2E254CFF2224C
:1026D200E4FF78C2E254F3F2E24404F290717FE440
:1026E200F008E254FCF2E24401F2907182E4F01844
:1026F200123621C281C2841229E7EF7BFF60107A71
:102702002C79D71209B67BFF7A2C79EB0209B67ABB
:102712002D79071209B67BFF7A2D79191209B67D38
:102722000A7F8C121E7B7D017F88121E7B7D017FBA
:1027320086121E7BE4FD7F82121E7BE4FD7F8412E3
:092742001E7BE4FD7F80121E7B6A
:01274B00226B
:1038AC00E4FDEE25E0FEEF30E004EE4401FEEFC354
:0938BC0013FF0DEDB408EBAF069B
:0138C50022E0
:0228AF00AC0774
:1028B100E490628BF0AF051238ACEC64816019ECE6
:1028C10064836014EC6485600FEC6487600AEC64D7
:0828D100896005EC648D704381
:1028D900E490628CF0A3F0EC64816004ECB48306AC
:1028E900EF547FFF8017EC64856004ECB48706EF32
:1028F900543FFF8008ECB48904EF541FFFEFC45420
:102909000FFE90628CF0EF540FFFA3F0EE75F00A02
:03291900A42FFFE9
:01291C002298
:0523D60090628BEFF0A6
:1023DB00E4A3F0123611123C10E490628DF012243B
:1023EB003E90628DE090628B12363A8002C313D816
:1023FB00FC30E004D2828002C2827F047E00123C59
:10240B001012244840D8123BC5E490628DF09062C4
:10241B008CE025E0F012243E30820790628CE04481
:10242B0001F012244840E7C284C281C28290628CC0
:02243B00E0FFC0
:10243D0022C2847F047E00123C1022D2847F047E4F
:0F244D0000123C1090628DE004F0E0C39408226E
:0539B40090628AEFF0B3
:1039B900E4FE1223D6AE0790628AE0FFAD06022824
:0139C900AF4E
:0821AB0090628EEFF0A3EDF04D
:1021B300E4123611123C10E4906290F012222E9039
:1021C3006290E090628E12363A8002C313D8FC30DC
:1021D300E004D2828002C28212221D12362F40DC1A
:1021E300E4906290F012222E906290E0FF90628F52
:1021F300E0FEA807088002C313D8FC30E004D282B3
:102203008002C28212221D12362F40D9C2847F045B
:092213007E00123C10C281C2825F
:10221C00227F047E00123C10D2847F047E00123C8C
:0C222C001022C2847F047E00123C1022AD
:1029E7001230C8D390634FE0943390634EE094085D
:1029F7005049C3A3E094D090634EE09407403C90C5
:102A07006350E0D3940C5033E0C39401402DA3E00E
:102A1700D3941F5026E0C394014020A3E09418509C
:102A27001AA3E0C3943C5013A3E0C3943C500C900A
:102A3700634EE0B40708A3E0B4D0037F00227F0110
:012A4700226C
:051E7B0090628AEFF007
:101E8000A3EDF0EF6480601D90628AE0FF648260E1
:101E900014EF6484600FEF6486600AEF6488600565
:051EA000EF648C706C82
:101EA500E490628CF0A3F090628BE0FFC3940A404B
:101EB50007EF75F00A84A3F090628BE075F00A8451
:101EC500AFF090628DEFF090628CE0FEC454F04F5D
:101ED50090628BF090628AE0FF64806004EFB482C8
:101EE5000990628BE0547FF0802290628AE0FF6463
:101EF500846004EFB4860990628BE0543FF0800C57
:0C1F050090628AE0B48805A3E0541FF04D
:101F1100E4FD7F8E1221AB90628AE0FFA3E0FD1207
:091F210021AB7D807F8E0221AB13
:10325B00906347A3E02430FD7F8C121E7B90634963
:10326B00E0FD7F88121E7B90634AE0FD7F86121E75
:10327B007B90634BE0FD7F84121E7B90634CE0FDE3
:0F328B007F82121E7B90634DE0FD7F80021E7BD1
:1030C8007F811239B4906354EFF07F831239B49042
:1030D8006353EFF07F851239B4906352EFF07F8726
:1030E8001239B4906351EFF07F891239B49063506C
:1030F800EFF07F8D1239B4EF24D0FEE434079063EB
:063108004EF0A3CEF02200
:0B3C1B007379732072657365740A00F2
:013C5D002244
:1035AF00123C5D1238917BFF7A3C791B1209B612DF
:1035BF00291D123C4A123BD21226D21236C51232A4
:1035CF001B121F2A1231DB12354B7F0A7E000200BD
:0135DF0027C4
:10339000121B5D75D95590715EE054FEF075D9BB76
:1033A0001235AF123C4275D9AA12234E7B017A62C4
:1033B00079F31210DA12369D1219801221181216A2
:0933C000791227C6123A5E80DD85
:10291D0078E0E24408F278E2E2543FF278D0E24403
:10292D0001F278D2E254FCF278D0E24408F278D287
:10293D00E2543FF278E0E24401F278E2E254FCF234
:10294D0078F0E24402F278F2E254F3F278D0E24405
:10295D0080F278D3E2543FF278E0E24404F278E278
:10296D00E254CFF278F2E254FCF278E3E254FCF256
:07297D0078D3E254FCF222C2
:10234E0020A307E4906333F0804520900890633318
:10235E007401F0803A20A1089063337402F0802F4C
:10236E002093089063337403F0802420A0089063B8
:10237E00337404F0801920B1089063337405F08033
:10238E000E9063332097057406F0800374FFF0906F
:10239E006333E0FF121DCB30A4047F018002E4FF03
:1023AE00123A6F3094047F018002E4FF123A9F309C
:1023BE00B0047F018002E4FF123A8F20A2047F0155
:0823CE008002E4FF1239DF2256
:10057C00C10A4462500000000044625400000000B4
:10058C004462580000000044625C000000004162BC
:10059C0060006028626100000000000000000000A4
:1005AC00000000000000000000000000000000003F
:1005BC00000000000000000000000000000041628C
:0D05CC008900C10942624C000041624E00EE
:102EE20090628DE0FF2461F582E43462F5832290E2
:102EF200628AFEFDFC0203F61203EAEF2401FFE4FC
:102F02003EFEE43DFDE43CFC2290632FE0FFA3E0A3
:102F120022E4FDFC1203F6C30203D99F90628CF0F7
:102F2200E0FFC3940A221203F602028B12033190CD
:052F3200628A020402A6
:1039CA00E4FE74612E122EE9EFF00EEEB428F3E451
:0439DA00906289F07E
:0139DE0022C6
:10391200906289E0122EE7EFF0906289E004F0E015
:08392200C394284002E4F022E6
:101FD40090628E12040E00000000E4906292F0A35E
:101FE40074FFF0E490628DF090628E1203F69062BA
:101FF4008DE0122EE7E0FFE4FCFDFE12028B9062FE
:102004008E120402122EE2E0FE906292E0C39E5011
:102014000B74612F122EE9E0906292F0122EE2E02E
:10202400FE906293E0D39E400B74612F122EE9E080
:10203400906293F090628DE004F0E0642870A990BF
:10204400628E1203EAC006C007906293E0FF9062BA
:1020540092E02FFFE433AB07FA3395E0F9F8D007A9
:10206400D00612029890628E120402E47B26FAF9DA
:0A207400F890628E1203EA020331B5
:0D3BD20078E0E24420F278E3E254F3F222BE
:1033C9009062581203EA906254122F2890625812A0
:1033D900040290625412040E0000000090625C1214
:1033E90003EA906250122F2890625C1204029062E4
:0933F9005012040E000000002235
:102A480090624CE475F00112023DC390624DE0942F
:102A58001490624CE09400402BE4F0A3F090625490
:102A6800122EFA9062541204027F587E0290625429
:102A7800122F13400F200A0C90625412040E00000B
:102A88000000D20A30A51520090F906250122EFAC4
:0E2A98009062501204021233C9D20922C20900
:012AA600220D
:1019800090628A12040E0000000090628E12040E13
:10199000000000007FF47E01906258122F13500661
:1019A000200A03021A747FC07E277D097C009062A2
:1019B0005C1203F61202A6E47B7A7A06F9F81203A7
:1019C0003190628E120402300A23E4FF90625C12AE
:1019D0002EF4C31203D990628A600912040E00002B
:1019E0000001802A12040E000000008021E47F2400
:1019F000FEFDFC90628E1203F61202A6E47B0AFA48
:101A0000F9F81203319062581203F6122F2E9063E8
:101A1000361203EA90628E122F2890633612040267
:101A200090625C12040E0000000090625812040ED6
:101A300000000000C20AE4FF122EF1D31203D940C5
:101A400012E47F66122EF11202A6E47B64FAF9F822
:101A5000122F2EE47FC7122EF1D31203D9400A9021
:101A6000628A12040E000000C790628A1203EA9094
:041A7000632FEFF001
:011A7400224F
:1037FF00906344E0600BE064016006E4906260F067
:0E380F0022906260E0C394FF5003E004F022B8
:1034E00090628DEFF0906329E0700990628DE0FFAB
:1034F0007E00801F906329E0B4011B90628DE0FF85
:103500007E007C027D6D1204AAE47BE87A03F9F860
:07351000120331122C7C2292
:1013D400906344E0600BE064016006E490624EF0C8
:1013E4002290624EE0703B04F090632FE0A3F090F3
:1013F400632FE090624FF0906330E0FF1234E0908E
:10140400632FE0FF1239CA906329E0700BFF123991
:10141400F27F01123ACF800AE4FF123ACF7F011221
:1014240039F2906260E0C3944B5003021535E4F046
:10143400122F0BD39F403B122F0B122F1D50030270
:1014440014C4EF9432400890628B7414F08011EF4E
:10145400C3941490628B4005740AF080037405F001
:10146400906330E0FF90628BE0FEC3EF9E906330A8
:10147400803B122F0BC39F5047E0FF90632FE0C3C4
:10148400122F1D403BEF9432400890628B7414F08D
:101494008011EFC3941490628B4005740AF08003AA
:1014A4007405F090628BE0FF906330E02FF090635E
:1014B4002FE0FF1239CA90632FE090624FF08069E9
:1014C40090632FE0FF123912121FD490628AEFF05A
:1014D400E0C3940A5007E090624FF0802590624F79
:1014E400E075F003A4FDACF090628AE075F007A407
:1014F4002DFFE5F03CFE7C007D0A1201E890624F6E
:10150400EFF090624FE090628AF0E0FF906330E089
:10151400D39F4005E014F0801090628AE0FF90634E
:1015240030E0C39F5003E004F0906330E0FF1234D6
:01153400E0D6
:011535002293
:1005D90042631C000042631E0000C10B41630B0013
:0805E90041630C0041630D00A9
:103941009063180203F6E475F00102023D9063658D
:07395100E0FF90630CE0228F
:0D3BDF0078C2E254CFF278C0E24404F22232
:10329A009063141203EA90630E1203F612028B90E3
:1032AA00631412040290630E12040E00000000124E
:1032BA003941906312E0FEA3E0FFE4FCFD12028BA9
:0E32CA00906318120402E4906312F0A3F02245
:102F370090630BE004F0E0C394144020E4F0906346
:102F470012123948C3906313E09458906312E094C7
:102F5700024009200C06E4F0A3F0D20C30822220B4
:102F67000B1C90630E1203EAEF2401FFE43EFEE41C
:102F77003DFDE43CFC90630E12040212329AD20B20
:032F870022C20B58
:012F8A002224
:1024DC00E47FF47E01FDFC123941C31203D9500391
:1024EC00300C6A300C0EC20C90635E12040E0000AD
:1024FC000000801CE47FBC7EF7FDFC90631412038B
:10250C00F61202A612394112033190635E120402D4
:10251C0090631412040E0000000090631812040E55
:10252C0000000000E47FFF7EFFFDFC90635E120361
:10253C00F6C31203D9400A90635E12040E0000FF2A
:0D254C00FF90635E1203EA90632B120402FD
:01255900225F
:1036EA00C390631DE094FF90631CE094FF500312A3
:1036FA003947C390631FE094FF90631EE094FF5024
:05370A00031239472203
:1038E000E47BF47A01F9F890632B1203EA120331B6
:0838F000EFD3941840027F1889
:0138F80022AD
:10223800E4906365F090630DE0700A04F01238E0F2
:1022480090630CEFF01238E0906365EFF07008A32C
:10225800F0A37432F0802F90630CE0FF906365E088
:10226800FED39F4005EE9FFF800612394EC39FFFA5
:10227800EFD394017E0050047F6480027F32906324
:1022880066EEF0A3EFF0906366E0FEA3E0FFC39074
:10229800631DE09F90631CE09E4020E4F0A3F012D1
:1022A800394EFE9F5004E004F022EED39F400CEE1E
:0B22B800D39400400690630CE014F08B
:0122C30022F8
:0805F100416334004163350051
:10370F00FA906324F9F81203EA0203311203EAEF85
:10371F002401FFE43EFEE43DFDE43CFC221203F6EF
:04372F00C30203D9F5
:10303100906328E06022A3E070067BE87A03800CAD
:10304100906329E0640170387B4A7A06906320120C
:103051003713E490628E8024906329E0700C7B64C6
:1030610012370F90628E74018012906329E0B401CF
:103071000FE47BA112370F90628E7401F0122C1FA6
:01308100222C
:10211800C390633BE0948890633AE09413400F3097
:102128000D0C123875C20DE490633AF0A3F0E47F09
:10213800E87E03FDFC90633612372C40657F187EDD
:10214800C67D9A7C3B90632012372C500C906320FC
:1021580012371B9063201204027F9C7EE07DF57C81
:102168000590632412372C500C90632412371B906F
:1021780063241204029063361203EAC3EF94E8FF63
:10218800EE9403FEED9400FDEC9400FC906336128F
:0221980004023F
:10219A00906334E004F0E0C394644004E4F0D20DA8
:0121AA002212
:102D3100906335E0703C04F0906329E0700BFF1262
:102D41003AFF7F01123B0F800AE4FF123B0F7F0124
:102D5100123AFF906328E0600CE4FF123ADF7F0132
:102D6100123AEF800AE4FF123AEF7F01123ADF12C2
:102D71003031C390633DE094E890633CE0940340BC
:082D810007E4F0A3F012303169
:012D89002227
:1005F9004261F600004261F80000602861FA0000DB
:1006090000000000000000000000000000000000E1
:1006190000000000000000000000000000000000D1
:10062900000000000000416222004161F3006028DF
:10063900622300000000000000000000000000002C
:1006490000000000000000000000000000000000A1
:100659000000000000000000000041624B00416101
:06066900F4004161F50000
:1031530025E024FAF582E43461F583EEF0A3EFF081
:103163002225E02423F582E4346222F583E0FEA3E2
:10317300E0FFE4FCFD02028B90628AE0FEA3E0FF25
:1031830022E47B14FAF9F80203EA90628CE0FF90E0
:0431930061F5E022E0
:0B3BEC00E4FDED1231530DEDB414F7B1
:013BF70022AB
:1037BD009061F3E0700504F0023BEC906222E012A0
:1037CD003153906222E004F0E0C394144002E4F01F
:0137DD0022C9
:1032D80090628F12040E00000000E490628EF0905D
:1032E800628F1203F690628EE025E024FAF582E4FC
:1032F800346112316E90628F12040290628EE00483
:0E330800F0E0B414DA90628F123184020331C7
:10395800C39061F7E094FF9061F6E094FF5007E4AC
:0739680075F00112023D227F
:10396F00C39061F9E094FF9061F8E094FF5007E491
:07397F0075F00112023D2268
:0E3B4F00E4FDED12316412315C0DEDB414F49E
:013B5D002245
:1038F90090624BE012316412315C90624BE004F04B
:09390900E0C394144002E4F02232
:1034020090628F12040E00000000E490628EF09031
:10341200628F1203F690628EE012316412316E9066
:10342200628F12040290628EE004F0E0B414E09025
:08343200628F123184020331A4
:102F8B00E4FDC3EF94B0EE940440028043C3EF948E
:102F9B0019EE940440047D018036C3EF9481EE94C6
:102FAB000340047D028029C3EF94E9EE94024004B0
:102FBB007D03801CC3EF9452EE940240047D048089
:102FCB000FC3EF94BAEE940140047D0580027D0699
:022FDB00AF0540
:012FDD0022D1
:10167900E490628CF0A3F0C39061F7E094C89061A4
:10168900F6E09400500302176CE4F0A3F01232D88C
:101699007C077DD01204AAE4FB7A10F9F812033111
:1016A90090628AEEF0A3EFF09061F4E0702704F005
:1016B90012317B123B4F12317B122F8BA3EFF0902B
:1016C90061F5F0700B906332E0701012177B800B9C
:1016D90012176D800612317B1238F9123402122F5B
:1016E9008B90628CEFF09061F5E0FE6F601890626C
:1016F9008CE0FFD39E4006EF9EA3F0800912318D46
:10170900C39F90628DF090628DE0FFC39402400EFA
:101719009061F9E094889061F8E094134045EFB442
:10172900010FC39061F9E094209061F8E0944E4074
:1017390032E49061F8F0A3F012318DFEC39F500599
:10174900E004F0800BEED39F40069061F5E014F0C1
:101759009061F5E0700A906332E0700712177B22FE
:0317690012176DE7
:10176C0022E4906332F09061F5E0FF12255A22FFDB
:0A177C0012255A9063327401F02226
:10066F0054632000000000000000000000000000A4
:07067F000000000000000074
:10321B007B017A62798A906299740BF0E4FF123524
:10322B0017906294E0B4C51378207C637D017B0119
:10323B007A62798A7E007F0B0201159063287401F4
:0F324B00F090632A74C5F0E4906329F01238758F
:01325A002251
:1038750090632A74C5F0E4FF123A2B7B017A6379D1
:0C38850020906299740BF0E4FF0234A95B
:100686004A60033F065B4F666D7D077F6F6036608D
:100696000D07050706070707080709070A070D07D5
:1006A6000F06030604060506060607060B060A06D7
:1006B6000906080409040A040B040C040D040004CA
:1006C60001040204030404602460430703070407CB
:1006D6000B070C070E060206010600060E060F069D
:1006E6000D060C0408040E040F040504060407583E
:1006F6006067030A000D05010503050405060509E3
:10070600050C050D050F030F030D4E607F0505054E
:100716000A050E030B05000502050B50608D070246
:100726000700000E0309030C030E030003014E60CD
:100736009D010F010D010A0109010B010E010C4E6D
:1007460060AB00010003000600070005000200047C
:100756004E60B90305030602020201020003040308
:10076600074E60C7010001020104010701050101EE
:1007760001034C60D5020C020D020E020F020502A7
:10078600044C60E1020B020A020902080207020693
:100796004E60ED000D000E000C00080508000A0072
:1007A6000B4E60FB050505060509050A050C050443
:1007B600050B4E610905020503050D050F050E051E
:1007C6000105005061170405040604070408010723
:1007D60005070009000160546127000700060005AF
:1007E600010F010C010B010E01080109010A020F9C
:1007F600020D0100020E01050101020C020A0209A6
:100806000102020B0106010302080306040E040D91
:1008160001040409040C040F03050304040A040B71
:1008260004030401030303020301040204004C61F0
:100836007B030F030D0308020602020200526187C2
:10084600030C030B030A0309020702050204020351
:0B08560002014260000000416002004F
:100EFE00E0FCA3E0FDEF25E02480F582E43460F50C
:100F0E0083E0FF7E007401A8070822906374E0FF5F
:100F1E0025E0247FF582E43460F583E025E024C7E4
:100F2E00F582E43462F58322E0FCA3E0FDEF25E0D8
:100F3E0022906293E0FF25E024EDF582E43460F523
:100F4E0083E025E024BBF582E43462F58322F4FFCE
:100F5E00EEF45CFEED5F22FFEC4EFEED4F22F074E0
:100F6E00032DF582E43460F583E02290637EE0FF8A
:100F7E0025E024D5F582E4346022EEF0A3EFF09064
:100F8E00636AE0FF25E022E0FF25E0240DF582E410
:100F9E00346022E0FF25E02443F582E4346022E051
:100FAE00FF25E024E1F582E4346022E0FCA3E0FDBD
:100FBE00EF75F00EA42428F582E43461F5832290B7
:100FCE006376E0FF25E0249DF582E4346022906391
:100FDE0076E0FF25E024ABF582E43460229063785E
:100FEE00E0FF25E024B9F582E4346022906378E0D6
:100FFE00FF25E024C7F582E4346022906290E0FF82
:10100E0075F00EA42427F582E43461F58322240EB4
:10101E00F582E43460222444F582E4346022E04414
:10102E0001F0A3E0F02224D6F582E434602224E21B
:10103E00F582E4346022906293E0FF25E022906214
:10104E008EE0FEA3E0FF7C007D0A0201E8EEF0A335
:10105E00EFF090637EE004F0E02275F00202043FB0
:10106E00FFE0C39FD3940022E0FF25E0248DF5829C
:10107E00E4346022249EF582E434602224ACF582AE
:10108E00E434602224BAF582E434602224C8F58266
:10109E00E4346022E0FF25E02417F582E434612277
:1010AE00E0FF25E0247BF582E4346122E0FF25E0B9
:1010BE002487F582E434612225E02467F582E43446
:0C10CE006022E075F00A84ADF0E4FF221F
:102D8A0090637AEFF0ED6021120F95120F27C0833E
:102D9A00C082120F3612101C120F0D8005C333CEDB
:102DAA0033CED8F9120F65802290637A120F9512EA
:102DBA000F27C083C082120F3612101C120F0D800B
:102DCA0005C333CE33CED8F9120F5CFFD082D0833D
:062DDA00EEF0A3EFF02271
:0525D80090636EEFF0BE
:1025DD00E4A3F090636FE0FFC3941B506A90636EA9
:1025ED00E09F5023A3E0120F97120F27C083C082E4
:1025FD00120F3612101C120F0D8005C333CE33CEC1
:10260D00D8F9120F5C802D90636FE090636E1210FD
:10261D006E402BA3E0120F97120F27C083C08212BA
:10262D000F3612101C120F0D8005C333CE33CED8CA
:10263D00F9120F65FFD082D083EEF0A3EFF0906317
:07264D006FE004F00225E03C
:012654002263
:102DE00090637BEFF0ED6021120FA1120F27C083DB
:102DF000C082120F36121024120F0D8005C333CE7D
:102E000033CED8F9120F65802290637B120FA11286
:102E10000F27C083C082120F36121024120F0D80AC
:102E200005C333CE33CED8F9120F5CFFD082D083E6
:062E3000EEF0A3EFF0221A
:05265500906370EFF03E
:10265A00E4A3F0906371E0FFC39412506A90637030
:10266A00E09F5023A3E0120FA3120F27C083C0825A
:10267A00120F36121024120F0D8005C333CE33CE3B
:10268A00D8F9120F5C802D906371E090637012107C
:10269A006E402BA3E0120FA3120F27C083C0821231
:1026AA000F36121024120F0D8005C333CE33CED845
:1026BA00F9120F65FFD082D083EEF0A3EFF090639A
:0726CA0071E004F002265D3F
:0126D10022E6
:10383B00EF9062D2600BE04480F09062D112102CBA
:0D384B0022E0547FF09062D1E054FEF022A4
:05274C00906372EFF044
:10275100E4A3F0906373E0FFC3940C50679063723D
:10276100E06026EF1210C6120F27C083C082120F3D
:10277100362468F582E43460120F0D8005C333CE30
:1027810033CED8F9120F658028906373E0FF1210E1
:10279100C6120F27C083C082120F362468F582E467
:1027A1003460120F0D8005C333CE33CED8F9120F2A
:1027B1005CFFD082D083EEF0A3EFF0906373E0046E
:0427C100F0022754A7
:0127C50022F1
:10377A00EF120F1EC083C082120EFE8005C333CE25
:10378A0033CED8F9120F65FFD082D083EEF0A3EFC3
:02379A00F0221B
:10283E0074032F120F70906375F0E4906374F09030
:10284E006374E0FFC394075057120F118005C33312
:10285E00CE33CED8F9FF906375E0FDEF5D601812B0
:10286E000F19C083C082120EFE8005C333CE33CE45
:10287E00D8F9120F658016120F19C083C082120E7E
:10288E00FE8005C333CE33CED8F9120F5CFFD08253
:10289E00D083EEF0A3EFF0906374E004F002284DC5
:0128AE002207
:051DCB0090628AEFF0B8
:101DD000E4A3F090628B120F1CC083C082120EFE2F
:101DE0008005C333CE33CED8F9120F5CFFD082D03A
:101DF00083EEF0A3EFF090628BE004F0E0B407D341
:101E000090628AE070047F018002E4FF123A7F90C2
:101E1000628AE06003B4FF057F0602377A90628A27
:101E2000E02403120F7090628CF0E490628BF090CB
:101E3000628BE0FFC394075041120F118005C3333A
:101E4000CE33CED8F9FF90628CE0FDEF5D60239039
:101E5000628B120F1CC083C082120EFE8005C3333A
:101E6000CE33CED8F9120F65FFD082D083EEF0A327
:0A1E7000EFF090628BE004F080B503
:011E7A002245
:102AA70090637CEFF0ED6025121076120F27C0833C
:102AB700C082120F36248EF582E43460120F0D8027
:102AC70005C333CE33CED8F9120F65802690637CC9
:102AD700121076120F27C083C082120F36248EF58C
:102AE70082E43460120F0D8005C333CE33CED8F99C
:0E2AF700120F5CFFD082D083EEF0A3EFF0222E
:103A6F00EF9062D66005E04402F022E054FDF022B0
:1039DF00EF9062C76008E04480F0A3E0F022E0546B
:0339EF007FF02244
:103A7F00EF9062C86005E04401F022E054FEF022AE
:0F3B5E00EF9062CD600412102C22E054FEF02292
:103A8F00EF9062CE6005E04408F022E054F7F02298
:103A9F00EF9062CE6005E04404F022E054FBF02288
:10178600120F6D906377F0EF707A906376F0906346
:1017960076E0FFC394074003021882120F118005FA
:1017A600C333CE33CED8F9FF906377E0FDEF5D60AB
:1017B60021120FCD120F27C083C082120F361210CE
:1017C60082120F0D8005C333CE33CED8F9120F65C2
:1017D600801F120FCD120F27C083C082120F361240
:1017E6001082120F0D8005C333CE33CED8F9120FF7
:1017F6005CFFD082D083EEF0A3EFF0906376E00436
:10180600F0021794E4906376F0906376E0FFC39459
:10181600075069120F118005C333CE33CED8F9FFB6
:10182600906377E0FDEF5D6021120FDC120F27C099
:1018360083C082120F3612108A120F0D8005C33331
:10184600CE33CED8F9120F65801F120FDC120F2788
:10185600C083C082120F3612108A120F0D8005C384
:1018660033CE33CED8F9120F5CFFD082D083EEF0A0
:0C187600A3EFF0906376E004F002180F7E
:011882002243
:10188300120F6D906379F0EF707A906378F0906344
:1018930078E0FFC39407400302197F120F118005FC
:1018A300C333CE33CED8F9FF906379E0FDEF5D60AB
:1018B30021120FEB120F27C083C082120F361210B2
:1018C30092120F0D8005C333CE33CED8F9120F65B4
:1018D300801F120FEB120F27C083C082120F361224
:1018E3001092120F0D8005C333CE33CED8F9120FE9
:1018F3005CFFD082D083EEF0A3EFF0906378E00436
:10190300F0021891E4906378F0906378E0FFC39459
:10191300075069120F118005C333CE33CED8F9FFB8
:10192300906379E0FDEF5D6021120FFA120F27C07B
:1019330083C082120F3612109A120F0D8005C33323
:10194300CE33CED8F9120F65801F120FFA120F276C
:10195300C083C082120F3612109A120F0D8005C376
:1019630033CE33CED8F9120F5CFFD082D083EEF0A2
:0C197300A3EFF0906378E004F002190C80
:01197F002245
:103AAF00EF9062CA6005E04440F022E054BFF0227C
:081A7500906368EFF0A3EDF0AF
:101A7D00E4A3F0120F8D120FD4120F27C083C08272
:101A8D00120F36121082120F0D8005C333CE33CED6
:101A9D00D8F9120F5CFFD082D083120F88120FE39A
:101AAD00120F27C083C082120F3612108A120F0D2B
:101ABD008005C333CE33CED8F9120F5CFFD082D060
:101ACD0083120F88120FF2120F27C083C082120FDC
:101ADD0036121092120F0D8005C333CE33CED8F9C6
:101AED00120F5CFFD082D083120F88121001120FDB
:101AFD0027C083C082120F3612109A120F0D800567
:101B0D00C333CE33CED8F9120F5CFFD082D083EE23
:101B1D00F0A3EFF090636AE004F0E0640760030265
:101B2D001A809063681210D0121786906368E07562
:101B3D00F00A84FD7F011217869063691210D0128E
:101B4D001883906369E075F00A84FD7F01021883A4
:0F3B6D00EF9062C7600412102C22E054FEF02289
:0F3B7C00EF9062C9600412102C22E054FEF02278
:103ABF00EF9062CC6005E04408F022E054F7F0226A
:102E360090637DEFF0ED6021120F7C120F27C083A7
:102E4600C082120F36121034120F0D8005C333CE16
:102E560033CED8F9120F65802290637D120F7C1253
:102E66000F27C083C082120F36121034120F0D8046
:102E760005C333CE33CED8F9120F5CFFD082D08390
:062E8600EEF0A3EFF022C4
:10298400EF6030E490637EF0120F79120F27C0835A
:10299400C082120F36121034120F0D8005C333CECD
:1029A40033CED8F9120F65FFD082D08312105BB4F6
:1029B40006D622E490637EF0120F79120F27C083AB
:1029C400C082120F36121034120F0D8005C333CE9D
:1029D40033CED8F9120F5CFFD082D08312105BB4CF
:0229E40006D615
:0129E60022CE
:102E8C0090637FEFF0ED6021120FAD120F27C0831E
:102E9C00C082120F3612103C120F0D8005C333CEB8
:102EAC0033CED8F9120F65802290637F120FAD12CA
:102EBC000F27C083C082120F3612103C120F0D80E8
:102ECC0005C333CE33CED8F9120F5CFFD082D0833A
:062EDC00EEF0A3EFF0226E
:05255A0090628EEFF01D
:10255F00E4A3F090628FE0FFC39406506B90628EFD
:10256F00E09F5023A3E0120FAF120F27C083C0824A
:10257F00120F3612103C120F0D8005C333CE33CE1F
:10258F00D8F9120F5C802E90628FE0FF90628E124E
:10259F00106F402BA3E0120FAF120F27C083C08222
:1025AF00120F3612103C120F0D8005C333CE33CEEF
:1025BF00D8F9120F65FFD082D083EEF0A3EFF09021
:0825CF00628FE004F0022562B6
:0125D70022E1
:07126D00906291EFF0A3EB8A
:10127400120F6C906294F0E4906293F0906293E0A9
:10128400FFC3940740030213D3906292E0700302F9
:101294001336120F118005C333CE33CED8F9FF9025
:1012A4006294E0FDEF5D7003021336906291E014E6
:1012B400602A146050240260030213CA120F3FC054
:1012C40083C082120F3624EEF582E43460120F0DCF
:1012D4008005C333CE33CED8F90213301210442420
:1012E400FBF582E43460120F4DC083C082120F36C6
:1012F40024FCF582E43460120F0D8005C333CE3331
:10130400CED8F980271210442409F582E4346112FE
:101314000F4DC083C082120F36240AF582E4346173
:10132400120F0D8005C333CE33CED8F9120F6502E8
:1013340013C0906291E014602D146056240260037F
:101344000213CA120F3FC083C082120F3624EEF577
:1013540082E43460120F0D8005C333CE33CED8F946
:10136400120F5C0213C012104424FBF582E43460B3
:10137400120F4DC083C082120F3624FCF582E43470
:1013840060120F0D8005C333CE33CED8F9120F5C33
:10139400802A1210442409F582E43461120F4DC0EE
:1013A40083C082120F36240AF582E43461120F0DD1
:1013B4008005C333CE33CED8F9120F5CFFD082D070
:0F13C40083EEF0A3EFF0906293E004F00212804A
:0113D30022F7
:082C7C0090628EEEF0A3EFF070
:102C8400E4A3F0AA06AB07906290E004F07C007D18
:102C94000AAF03AE021201E8AA06AB07EB4A70E7DB
:102CA400E4FA906290E0FFEAC39FAF025019C007B4
:102CB40012104CD0077B0112126D12104C90628ED0
:102CC400EEF0A3EFF08006E4FBFD12126D0AEAB405
:022CD40003D02B
:012CD60022DB
:1039F200EF9062BB6008E04480F0A3E0F022E05464
:033A02007FF02230
:103ACF00EF9062BC6005E04401F022E054FEF0226A
:102B0500906380EFF0ED60251210A2120F4DC08387
:102B1500C082120F362418F582E43461120F0D803D
:102B250005C333CE33CED8F9120F65802690638066
:102B35001210A2120F4DC083C082120F362418F551
:102B450082E43461120F0D8005C333CE33CED8F93C
:0E2B5500120F5CFFD082D083EEF0A3EFF022CF
:023A3C00AB07D6
:0E3A3E00E4FAAF02AD03122B050AEAB408F455
:013A4C002257
:103ADF00EF9062C46005E04410F022E054EFF02252
:103AEF00EF9062C26005E04401F022E054FEF02244
:103AFF00EF9062BC6005E04404F022E054FBF0223A
:103B0F00EF9062BC6005E04408F022E054F7F02229
:081C3900906290EFF0A3EBF0C4
:101C4100E4906293120F6C906293F0E4906292F0D0
:101C5100906292E0FFC394074003021D03906291DA
:101C6100E06052120F118005C333CE33CED8F9FF95
:101C7100906293E0FDEF5D603C121009C083C08269
:101C8100906292E0D082D083121068120F4FC0830D
:101C9100C082120FB9C083C082906292E0D082D01C
:101CA10083121068120F0F8005C333CE33CED8F9DB
:101CB100120F65803A121009C083C082906292E0CF
:101CC100D082D083121068120F4FC083C082120FCE
:101CD100B9C083C082906292E0D082D08312106832
:101CE100120F0F8005C333CE33CED8F9120F5CFF2C
:101CF100D082D083EEF0A3EFF0906292E004F00284
:021D01001C5173
:011D030022BD
:103A0500EF9062BD6008E04420F0A3E0F022E054AE
:033A1500DFF022BD
:062C1F0090628A1204021B
:102C250090628EE07003FF80027F01123A05E49006
:102C3500628FF090628FE0FFC394065039C007E4BD
:102C45007B0AFAF9F890628A1203EA120331AF039C
:102C5500AD07D0077B01121C3990628A1203EAE4A2
:102C65007B0AFAF9F812033190628A120402906223
:062C75008FE004F080BDB9
:012C7B002236
:103A1800EF9062C16008E04440F0A3E0F022E05477
:033A2800BFF022CA
:103B1F00EF9062C26005E04480F022E0547FF02213
:103B2F00EF9062BC6005E04410F022E054EFF02209
:102B6300906381EFF0ED60251210AE120F4DC0831C
:102B7300C082120F36247CF582E43461120F0D807B
:102B830005C333CE33CED8F9120F65802690638107
:102B93001210AE120F4DC083C082120F36247CF583
:102BA30082E43461120F0D8005C333CE33CED8F9DE
:0E2BB300120F5CFFD082D083EEF0A3EFF02271
:023A4D00AB07C5
:0E3A4F00E4FAAF02AD03122B630AEAB406F4E8
:013A5D002246
:102BC100906382EFF0ED60251210BA120F4DC083B1
:102BD100C082120F362488F582E43461120F0D8011
:102BE10005C333CE33CED8F9120F658026906382A8
:102BF1001210BA120F4DC083C082120F362488F50D
:102C010082E43461120F0D8005C333CE33CED8F97F
:0E2C1100120F5CFFD082D083EEF0A3EFF02212
:0238C600AB074E
:1038C800E4FAEBC39AAF0240047D018002E4FD12E2
:0738D8002BC10AEAB409EB61
:0138DF0022C6
:10367000906000E475F00112023DC3906001E09497
:10368000F4906000E094014013E4F0A3F0A3E07034
:0C369000047F0180027F00906002EFF0D8
:01369C00220B
:100861005362F30A0000000003324100000000005F
:0E08710002FF3C310000456306010102030452
:0F3B8B00EC75F005A42406F582E43463F583227B
:073C4A0078C3E2543FF222AF
:093C31002087037F01227FFF229E
:10310E00E4FEFCFBEDB401030B8016EDB403047B6F
:10311E0002800EEDB404047B038006EDB405027B41
:10312E0004ECC39401501B123B8BE0B50711123B0C
:10313E008BE5822BF582E43583F583E0FE80030C6C
:04314E0080DFAF0669
:01315200225A
:10369D00906304E06021E0FFA3E0FD12310EE490A1
:1036AD006304F0A3F0EF24FE600A04700A906344F3
:0736BD00E0FF8000123BB7A3
:0136C40022E3
:05087F0042634500008A
:083C4200E4906344F0023BB77B
:1038580012392A1237FFC3906346E094FF906345FC
:0D386800E094FF5007E475F00112023D22CC
:063C5700906344EFF0222F
:10319700C3906346E094DB906345E094014034E4D8
:1031A700F0A3F0906332E0602A9062CBE013131330
:1031B700541F9062C930E00CE054FEF09062CBE0FF
:1031C70054F7F022E04401F0A3E0F0A3E04408F054
:0431D700A3E0F0225F
:103A5E00906344E0FF1213D4122D311231970237C6
:013A6E005700
:0E3BB700E490633EF0A3F0906342F0A3F0228E
:100884004162D9004162DA004162DB004162DC006E
:100894004162DD004162DE004162DF004162E0004E
:1008A4004162E1004162E2004162E3004162E4002E
:1008B4004162E5004162E6004162E7004162E8000E
:0C08C4004162E9004162EA004162EB0081
:103B3F009062E0E0FD7B0122E004F0E0C394FF22FD
:0B3C26009062ECE06004A3E004F022D8
:101536009062F2E060030216789062DBE0B410136A
:10154600E4FD7F07122B059062DD123B47407BE4EA
:10155600F080719062D9E0B4010D9062DBE0700713
:10156600FDFF122B0580639062DDE004F0E0C3947A
:10157600294057E4F09062D9E0702E9062DBE09447
:10158600085006E0FF7D0180099062DBE024F8FF49
:10159600E4FD122B059062DBE004F0E0C3941040FA
:1015A600299062D97401F080219062DBE0C394082F
:1015B6004008E024F8FF7D0180079062DBE0FFE44D
:1015C600FD122B059062DBE014F09062DCE0B4249F
:1015D6001BE4FD7F11122DE09062DE123B475003A3
:1015E600021678E4F09062DC740AF0229062DAE087
:1015F600B401109062DCE0700AFDFF122E36906294
:10160600F280409062DEE004F09062DAE07038909A
:1016160062DEE0C39412402FE4F09062DCE09412A4
:101626005006E0FF7D0180099062DCE024EEFFE4D5
:10163600FD122DE09062DCE004F0E0C39424403219
:101646009062DA7401F0229062DEE0C39442402296
:10165600E4F09062DCE094064008E024FBFF7D01A4
:1016660080079062DCE0FFE4FD122E369062DCE03B
:0216760014F06E
:01167800224F
:100CB0009062F2E064016003020EFD9062DFE0707A
:100CC0007704F09062E67407F09062EA7411F07FA6
:100CD000011239F27F01123ACF7F01123ADF7F0110
:100CE000123AEF7F01123AFF7F01123B0F7F011290
:100CF0003A187F01123B1F7F01123B2F7F01123AEE
:100D00006F7F011239DF7F01123A7F7F01123B5E54
:100D10007F01123A8F7F01123A9F7F01123AAF7F13
:100D200001123B6D7F01123B7C7F01123ABF7F01B4
:100D300012383B7F0112274C9062E1E004F0E0C3DF
:100D400094965003020E39E4F0123B3FE4FF121276
:100D50006D123B3F7F0112126D123B3F7F02121258
:100D60006D123B3FE4FF121C39123B3F7F01121C06
:100D700039123B3F7F02121C39123B3F7F03121C8A
:100D800039123B3F7F04121C39123B3F7F05121C76
:100D9000399062E5E0FF7D01122BC19062E0E0FF37
:100DA00012283E9062E0E0FDE4FF1217869062E0B8
:100DB000E0FD7F011217869062E0E0FDE4FF12186B
:100DC000839062E0E0FD7F011218839062E6E0FF0D
:100DD0007D01122AA79062E6E0FF7D01122B0590AB
:100DE00062E7E0FF7D01122E369062E7E0FF7D01B1
:100DF000122B639062E8E0FF7D01122E8C9062E07E
:100E0000E0C394095003E004F09062E5E0C3940865
:100E10005003E004F09062E6E0D394004003E01455
:100E2000F09062E7E0C394055003E004F09062E8BC
:100E3000E0C394055003E004F09062E2E004F09017
:100E400062EBE070249062E9E0B41A1D7D017F1A24
:100E5000122D8A9062E2E0C394FF405E9062EB74D0
:100E600001F0E49062E2F080519062EBE070239038
:100E700062E2E0C39425401AE4F09062E9E0FF7D6D
:100E800001122D8A9062E9E0C3941A502DE004F01B
:100E900080289062EBE0B401219062E2E0C3940C00
:100EA0004018E4F09062E9E0FFE4FD122D8A9062C0
:100EB000E9E0D394004003E014F09062E3E004F032
:100EC000E0C394374018E4F09062EAE0FF7D01123D
:100ED0002DE09062EAE0D394004003E014F09062C9
:100EE000EBE0B401189062E9E07012A3E0700E909C
:0D0EF00062E4123B4740069062F27405F088
:010EFD0022D2
:102FDE007E007F077D007B017A6279EC1204D79028
:102FEE0062EC7401F09062ECE0603775D9AAA3E050
:102FFE00C3940140F0E4F0121536120CB09062F258
:10300E00E0B40519E4FF1239F2E4FF123ACFE4FFFF
:10301E00123ADFE4FF123AEFE49062ECF012375707
:03302E0080C3223A
:10381D006164635F76616C203D3D2025750A0076FD
:0E382D006F6C74616765203D3D2025750A00B3
:1008D00042619D000042619F0000602861A100000C
:1008E0000000000000000000000000000000000008
:1008F00000000000000000000000000000000000F8
:100900000000000000004161C900602861CA0000C9
:1009100000000000000000000000000000000000D7
:1009200000000000000000000000000000000000C7
:100930000000000000004161F20041619900416146
:0A0940009A0041619B0041619C0098
:1035E00025E024A1F582E43461F583EEF0A3EFF049
:1035F0002225E024CAF582E4346122F583E0FEA3AB
:10360000E0FFE4FCFD02028BE47B14FAF9F802030C
:01361000EACF
:0B3BF800E4FDED1235E00DEDB414F714
:013C0300229E
:1037DE00906199E0700504F0023BF89061C9E01227
:1037EE0035E09061C9E004F0E0C394144002E4F0C7
:0137FE0022A8
:1033160090629112040E00000000E4906290F0901A
:1033260062911203F6906290E025E024A1F582E412
:1033360034611235FB906291120402906290E004AF
:0E334600F0E0B414DA906291123608020331FE
:0E3B9A00E4FDED1235F11235E90DEDB414F431
:013BA80022FA
:1037330090619AE0700504F0023B9A9061F2E01206
:1037430035F11235E99061F2E004F0E0C3941440DE
:0337530002E4F09D
:013756002250
:10343A0090635612040E00000000E4906355F09069
:10344A0063561203F6906355E01235F11235FB907C
:10345A006356120402906355E004F0E0B414E0905D
:08346A0063561236080203311B
:10398600C390619EE094FF90619DE094FF5007E430
:0739960075F00112023D2251
:10399D00C39061A0E094FF90619FE094FF5007E415
:0739AD0075F00112023D223A
:083C040090636BEEF0A3EFF0FA
:033C0C00E4A3F03E
:013C0F002292
:1027C600E490628EF0A3F0C390619EE09464906101
:1027D6009DE09400404FE4F0A3F012331690628A15
:1027E600EEF0A3EFF0E4FCFD7B607A617902F8126B
:1027F60002A6E47B0AFAF9F8120331E4FB7A10F92F
:10280600F8120331EF2464FFE43E90628CF0A3EFEC
:10281600F07A38791D90628A12282C7A38792C90B1
:05282600628C12282C59
:10282B00227BFFE0FFA3E0906293CFF0A3EFF012C7
:03283B0009B622B9
:10209800023390E493A3F8E493A34003F68001F29B
:1020A80008DFF48029E493A3F85407240CC8C33349
:1020B800C4540F4420C8834004F456800146F6DF18
:1020C800E4800B0102040810204080900547E47E5C
:1020D800019360BCA3FF543F30E509541FFEE4930D
:1020E800A360010ECF54C025E060A840B8E493A3D4
:1020F800FAE493A3F8E493A3C8C582C8CAC583CAFF
:10210800F0A3C8C582C8CAC583CADFE9DEE780BEB6
:01094A0000AC
:10004500E709F608DFFA8046E709F208DFFA803E9D
:1000550088828C83E709F0A3DFFA8032E309F6088A
:10006500DFFA8078E309F208DFFA807088828C83F2
:10007500E309F0A3DFFA806489828A83E0A3F608A6
:10008500DFFA805889828A83E0A3F208DFFA804C80
:1000950080D280FA80C680D4806980F28033801057
:1000A50080A680EA809A80A880DA80E280CA8033C0
:1000B50089828A83ECFAE493A3C8C582C8CCC58338
:1000C500CCF0A3C8C582C8CCC583CCDFE9DEE78008
:1000D5000D89828A83E493A3F608DFF9ECFAA9F087
:1000E500EDFB2289828A83ECFAE0A3C8C582C8CCDD
:1000F500C583CCF0A3C8C582C8CCC583CCDFEADEF6
:10010500E880DB89828A83E493A3F208DFF980CC57
:1001150088F0EF60010E4E60C388F0ED2402B40450
:100125000050B9F582EB2402B4040050AF232345F7
:0601350082239000957387
:10013B00BB010689828A83E0225002E722BBFE02C2
:09014B00E32289828A83E49322F5
:10015400BB010CE58229F582E5833AF583E0225060
:1001640006E92582F8E622BBFE06E92582F8E222AA
:0D017400E58229F582E5833AF583E49322C4
:10018100BB010FF8E58229F582E5833AF583E02882
:10019100F0225009C58229F8E58226F622BBFE0924
:1001A100C58229F8E22582F222F8EA2583F583E95E
:0301B1009328226E
:1001B400BB010689828A83F0225002F722BBFE012A
:0201C400F32224
:1001C600F8BB010DE58229F582E5833AF583E8F06F
:1001D600225006E92582C8F622BBFE05E92582C81B
:0201E600F22203
:1001E800BC000BBE0029EF8DF084FFADF022E4CCFB
:1001F800F875F008EF2FFFEE33FEEC33FCEE9DECC4
:10020800984005FCEE9DFE0FD5F0E9E4CEFD22ED09
:10021800F8F5F0EE8420D21CFEADF075F008EF2F53
:10022800FFED33FD4007985006D5F0F222C398FD44
:050238000FD5F0EA22E1
:10023D00C5F0F8A3E028F0C5F0F8E582158270024C
:06024D001583E038F022E9
:10025300BB0110E58229F582E5833AF583E0F5F0E9
:10026300A3E0225009E92582F886F008E622BBFEC6
:100273000AE92582F8E2F5F008E222E5832AF5830C
:08028300E993F5F0A3E99322D1
:0D028B00EF2BFFEE3AFEED39FDEC38FC22C2
:0E029800C3EF9BFFEE9AFEED99FDEC98FC2261
:1002A600E88FF0A4CC8BF0A42CFCE98EF0A42CFCF7
:1002B6008AF0EDA42CFCEA8EF0A4CDA8F08BF0A475
:1002C6002DCC3825F0FDE98FF0A42CCD35F0FCEBD4
:1002D6008EF0A4FEA9F0EB8FF0A4CFC5F02ECD3999
:0F02E600FEE43CFCEAA42DCE35F0FDE43CFC2206
:1002F50075F008758200EF2FFFEE33FECD33CDCCC0
:1003050033CCC58233C5829BED9AEC99E582984042
:100315000CF582EE9BFEED9AFDEC99FC0FD5F0D61F
:10032500E4CEFBE4CDFAE4CCF9A88222B800C1B949
:100335000059BA002DEC8BF084CFCECDFCE5F0CB87
:10034500F97818EF2FFFEE33FEED33FDEC33FCEBC0
:1003550033FB10D703994004EB99FB0FD8E5E4F97B
:10036500FA227818EF2FFFEE33FEED33FDEC33FC68
:10037500C933C910D7059BE99A4007EC9BFCE99A5C
:10038500F90FD8E0E4C9FAE4CCFB2275F010EF2FA1
:10039500FFEE33FEED33FDCC33CCC833C810D707A1
:1003A5009BEC9AE899400AED9BFDEC9AFCE899F8DC
:0E03B5000FD5F0DAE4CDFBE4CCFAE4C8F9226F
:1003C300EB9FF5F0EA9E42F0E99D42F0EC6480C8B1
:0603D30064809845F02251
:1003D900EB9FF5F0EA9E42F0E99D42F0E89C45F07A
:0103E90022F1
:0C03EA00E0FCA3E0FDA3E0FEA3E0FF2286
:0C03F600E0F8A3E0F9A3E0FAA3E0FB228A
:0C040200ECF0A3EDF0A3EEF0A3EFF0226D
:10040E00A8828583F0D083D082120425120425128F
:10041E000425120425E473E493A3C583C5F0C583B4
:10042E00C8C582C8F0A3C583C5F0C583C8C582C838
:01043E00229B
:0C043F00A42582F582E5F03583F58322C8
:09044B00E0FBA3E0FAA3E0F922B2
:10045400F8E0FBA3A3E0F925F0F0E5821582700231
:070464001583E0FA38F022D5
:09046B00EBF0A3EAF0A3E9F02292
:10047400BB010DE58229F582E5833AF58302044B3D
:100484005007E92582F8020503BBFE07E92582F837
:1004940002050CE58229F582E5833AF58302051508
:0604A4008A838982E473E3
:1004AA00EC8EF0A4CCC5F0CCCDF8EFA4CEC5F02DDF
:1004BA00FDE43CFCE8A42EC8C5F03DFDE43CFCEF9D
:0D04CA00A4FFE5F028FEE43DFDE43CFC222B
:10094B00E5082493F582E43462F583E005082290F0
:10095B006290300703906293E475F0011204540225
:10096B00013B2000E97F2ED2008018EF540F24901A
:10097B00D43440D4FF30040BEF24BFB41A0050031F
:10098B002461FFE50960021509050CE50C700205F1
:10099B000B30070E906290E475F001120454EF02D5
:1009AB0001B4023BA97403D2078003E4C207F50824
:1009BB0090629012046BE4F509F50BF50CE50960F8
:1009CB00077F2012098E80F5750AFFC201C200C293
:1009DB0002C203C205C206C20812095AFF700D30CB
:1009EB0007057F0012099FAF0CAE0B22B4255FC227
:1009FB00D5C20412095AFF24D0B40A00501A75F05C
:100A0B000A780930D50508B6FF0106C6A426F620DC
:100A1B00D5047002D20380D924CFB41A00EF50044E
:100A2B00C2E5D204020BA0D20180C6D20080C0D294
:100A3B000280BCD2D580BAD20580B47F2012098E39
:100A4B002002077401B5090040F112094BFF12098E
:100A5B008E0209C8D208D206809512094BFB1209E7
:100A6B004BFA12094BF94A4B700679717A0C7BFFE2
:100A7B0020022EE509602A7E008E8275830012010A
:100A8B005460060EEE650A70F0C2D5EBC0E0EAC00A
:100A9B00E0E9C0E0EE120BE7D0E0F9D0E0FAD0E0ED
:100AAB00FB12013BFF60AAEBC0E0EAC0E0E9C0E04B
:100ABB0012098ED0E02401F9D0E03400FAD0E0FB2B
:100ACB00E50A0460DCD50AD980877BFF7A0B79E3D2
:100ADB00D202809C791080027908C206C208800875
:100AEB00D2D5790A8004790AC2D5E50A047002F5D9
:100AFB000AE4FAFDFEFF12094BFC7B0820011312DE
:100B0B00094BFD7B1030000A12094BFE12094BFFFB
:100B1B007B20EC3382D592D55013C3E43000069F73
:100B2B00FFE49EFEE42001039DFDE49CFCE4CBF876
:100B3B00C201EC700CCFCECDCCE824F8F870F3806A
:100B4B0017C3EF33FFEE33FEED33FDEC33FCEB332A
:100B5B00FB994002FB0FD8E9EB300105F8D0E0C45C
:100B6B0048B201C0E00AEC4D4E4F78207B0070C2BA
:100B7B00EAB50A0040BCC0E0120BE9D0F0D0E0208F
:100B8B000104C4C0E0C4B201C0F0120977D0F0D5A3
:100B9B00F0EB0209C81205210A65530ADF580A3621
:100BAB004C0A32420AE34F0AEB440AEB490A4B4325
:080BBB000AF1550AD5460AD5DE
:100BC300450AD5470C91500A3A2D0A3E2E0A612B4D
:100BD3000A42230A5F200C7A2A09FA4800000A59BC
:100BE3003F3F3F00790AA2D5200314300509B9100D
:100BF300020404B9080104A2D5200602500104200E
:100C030002689202B509005034C0E07F2030031916
:100C13007F30A20272067205500F120C40C202C24C
:100C230006C205C2087F30800F300503E9C0E01219
:100C3300098E300503D0E0F9D0E0B509CC300517B3
:100C43007F30B9100C12098E7F583004077F7880EB
:100C530003B9080312098E3002057F2D02098E7F26
:100C6300202008F87F2B2006F322920280CF286EE3
:100C7300756C6C2900D20112094B3001F8C201785E
:100C83000930D50108F60209FA2D504349581209D3
:100C93004B2403B405004001E4900C8C9312097FAC
:0D0CA300743A12097FD203750904020ADFBA
:1004D700EF4E6012EF60010EEDBB010B89828A833C
:1004E700F0A3DFFCDEFA2289F05007F709DFFCA949
:0C04F700F022BBFEFCF309DFFCA9F022A0
:09050300E6FB08E6FA08E6F9221D
:09050C00E2FB08E2FA08E2F92220
:0C051500E493FB740193FA740293F92242
:10052100D083D082F8E4937012740193700DA3A369
:1005310093F8740193F5828883E47374029368607D
:06054100EFA3A3A380DF7D
:00000001FF
